{
  "_format": "hh-sol-artifact-1",
  "contractName": "ERC721FactoryBase",
  "sourceName": "contracts/base/ERC721/ERC721FactoryBase.sol",
  "abi": [
    {
      "inputs": [
        {
          "internalType": "string",
          "name": "_name",
          "type": "string"
        },
        {
          "internalType": "string",
          "name": "_symbol",
          "type": "string"
        }
      ],
      "stateMutability": "nonpayable",
      "type": "constructor"
    },
    {
      "anonymous": false,
      "inputs": [
        {
          "indexed": true,
          "internalType": "address",
          "name": "owner",
          "type": "address"
        },
        {
          "indexed": true,
          "internalType": "address",
          "name": "approved",
          "type": "address"
        },
        {
          "indexed": true,
          "internalType": "uint256",
          "name": "tokenId",
          "type": "uint256"
        }
      ],
      "name": "Approval",
      "type": "event"
    },
    {
      "anonymous": false,
      "inputs": [
        {
          "indexed": true,
          "internalType": "address",
          "name": "owner",
          "type": "address"
        },
        {
          "indexed": true,
          "internalType": "address",
          "name": "operator",
          "type": "address"
        },
        {
          "indexed": false,
          "internalType": "bool",
          "name": "approved",
          "type": "bool"
        }
      ],
      "name": "ApprovalForAll",
      "type": "event"
    },
    {
      "anonymous": false,
      "inputs": [
        {
          "indexed": false,
          "internalType": "address",
          "name": "approvedAddress",
          "type": "address"
        },
        {
          "indexed": false,
          "internalType": "uint256",
          "name": "tokenId",
          "type": "uint256"
        }
      ],
      "name": "ApprovedAddressForTokenChanged",
      "type": "event"
    },
    {
      "anonymous": false,
      "inputs": [
        {
          "indexed": false,
          "internalType": "string",
          "name": "newURI",
          "type": "string"
        }
      ],
      "name": "BaseURIChanged",
      "type": "event"
    },
    {
      "anonymous": false,
      "inputs": [
        {
          "indexed": false,
          "internalType": "uint256",
          "name": "_fromTokenId",
          "type": "uint256"
        },
        {
          "indexed": false,
          "internalType": "uint256",
          "name": "_toTokenId",
          "type": "uint256"
        }
      ],
      "name": "BatchMetadataUpdate",
      "type": "event"
    },
    {
      "anonymous": false,
      "inputs": [
        {
          "indexed": false,
          "internalType": "string",
          "name": "bannerURL",
          "type": "string"
        }
      ],
      "name": "CollectionBannerMediaChanged",
      "type": "event"
    },
    {
      "anonymous": false,
      "inputs": [
        {
          "indexed": false,
          "internalType": "string",
          "name": "description",
          "type": "string"
        }
      ],
      "name": "CollectionDescriptionChanged",
      "type": "event"
    },
    {
      "anonymous": false,
      "inputs": [
        {
          "indexed": false,
          "internalType": "string",
          "name": "photoURL",
          "type": "string"
        }
      ],
      "name": "CollectionDisplayPictureChanged",
      "type": "event"
    },
    {
      "anonymous": false,
      "inputs": [
        {
          "indexed": false,
          "internalType": "bytes32",
          "name": "newURI",
          "type": "bytes32"
        }
      ],
      "name": "ContractURIChanged",
      "type": "event"
    },
    {
      "anonymous": false,
      "inputs": [
        {
          "indexed": false,
          "internalType": "string",
          "name": "func",
          "type": "string"
        },
        {
          "indexed": false,
          "internalType": "uint256",
          "name": "gas",
          "type": "uint256"
        }
      ],
      "name": "Log",
      "type": "event"
    },
    {
      "anonymous": false,
      "inputs": [
        {
          "indexed": false,
          "internalType": "address",
          "name": "newMarketplaceAddress",
          "type": "address"
        }
      ],
      "name": "MarketplaceAddressChanged",
      "type": "event"
    },
    {
      "anonymous": false,
      "inputs": [
        {
          "indexed": false,
          "internalType": "uint256",
          "name": "_tokenId",
          "type": "uint256"
        }
      ],
      "name": "MetadataUpdate",
      "type": "event"
    },
    {
      "anonymous": false,
      "inputs": [
        {
          "indexed": false,
          "internalType": "uint256",
          "name": "newMintingFee",
          "type": "uint256"
        }
      ],
      "name": "MintingFeeChanged",
      "type": "event"
    },
    {
      "anonymous": false,
      "inputs": [
        {
          "indexed": false,
          "internalType": "address",
          "name": "newOwner",
          "type": "address"
        }
      ],
      "name": "OwnerChanged",
      "type": "event"
    },
    {
      "anonymous": false,
      "inputs": [
        {
          "indexed": false,
          "internalType": "address",
          "name": "account",
          "type": "address"
        }
      ],
      "name": "Paused",
      "type": "event"
    },
    {
      "anonymous": false,
      "inputs": [
        {
          "indexed": false,
          "internalType": "address",
          "name": "",
          "type": "address"
        },
        {
          "indexed": false,
          "internalType": "uint256",
          "name": "",
          "type": "uint256"
        }
      ],
      "name": "Received",
      "type": "event"
    },
    {
      "anonymous": false,
      "inputs": [
        {
          "indexed": true,
          "internalType": "bytes32",
          "name": "role",
          "type": "bytes32"
        },
        {
          "indexed": true,
          "internalType": "bytes32",
          "name": "previousAdminRole",
          "type": "bytes32"
        },
        {
          "indexed": true,
          "internalType": "bytes32",
          "name": "newAdminRole",
          "type": "bytes32"
        }
      ],
      "name": "RoleAdminChanged",
      "type": "event"
    },
    {
      "anonymous": false,
      "inputs": [
        {
          "indexed": true,
          "internalType": "bytes32",
          "name": "role",
          "type": "bytes32"
        },
        {
          "indexed": true,
          "internalType": "address",
          "name": "account",
          "type": "address"
        },
        {
          "indexed": true,
          "internalType": "address",
          "name": "sender",
          "type": "address"
        }
      ],
      "name": "RoleGranted",
      "type": "event"
    },
    {
      "anonymous": false,
      "inputs": [
        {
          "indexed": true,
          "internalType": "bytes32",
          "name": "role",
          "type": "bytes32"
        },
        {
          "indexed": true,
          "internalType": "address",
          "name": "account",
          "type": "address"
        },
        {
          "indexed": true,
          "internalType": "address",
          "name": "sender",
          "type": "address"
        }
      ],
      "name": "RoleRevoked",
      "type": "event"
    },
    {
      "anonymous": false,
      "inputs": [
        {
          "indexed": false,
          "internalType": "address",
          "name": "_royaltyReceiver",
          "type": "address"
        },
        {
          "indexed": false,
          "internalType": "uint96",
          "name": "_royaltyFraction",
          "type": "uint96"
        },
        {
          "indexed": false,
          "internalType": "uint256",
          "name": "_tokenId",
          "type": "uint256"
        }
      ],
      "name": "RoyaltiesChanged",
      "type": "event"
    },
    {
      "anonymous": false,
      "inputs": [
        {
          "indexed": false,
          "internalType": "uint256",
          "name": "_timestamp",
          "type": "uint256"
        }
      ],
      "name": "RoyaltiesDisabled",
      "type": "event"
    },
    {
      "anonymous": false,
      "inputs": [],
      "name": "RoyaltiesEnabled",
      "type": "event"
    },
    {
      "anonymous": false,
      "inputs": [
        {
          "indexed": false,
          "internalType": "address",
          "name": "creator",
          "type": "address"
        },
        {
          "indexed": false,
          "internalType": "address",
          "name": "burner",
          "type": "address"
        },
        {
          "indexed": true,
          "internalType": "uint256",
          "name": "burnedTokenId",
          "type": "uint256"
        },
        {
          "indexed": false,
          "internalType": "uint256",
          "name": "batchSize",
          "type": "uint256"
        }
      ],
      "name": "TokenBurned",
      "type": "event"
    },
    {
      "anonymous": false,
      "inputs": [
        {
          "indexed": false,
          "internalType": "address",
          "name": "creator",
          "type": "address"
        },
        {
          "indexed": false,
          "internalType": "address",
          "name": "minter",
          "type": "address"
        },
        {
          "indexed": true,
          "internalType": "uint256",
          "name": "newTokenId",
          "type": "uint256"
        },
        {
          "indexed": false,
          "internalType": "uint256",
          "name": "batchSize",
          "type": "uint256"
        }
      ],
      "name": "TokenMinted",
      "type": "event"
    },
    {
      "anonymous": false,
      "inputs": [
        {
          "indexed": false,
          "internalType": "address",
          "name": "creator",
          "type": "address"
        },
        {
          "indexed": false,
          "internalType": "address",
          "name": "burner",
          "type": "address"
        },
        {
          "indexed": true,
          "internalType": "uint256",
          "name": "transferedTokenId",
          "type": "uint256"
        },
        {
          "indexed": false,
          "internalType": "uint256",
          "name": "batchSize",
          "type": "uint256"
        }
      ],
      "name": "TokenTransfered",
      "type": "event"
    },
    {
      "anonymous": false,
      "inputs": [
        {
          "indexed": true,
          "internalType": "address",
          "name": "from",
          "type": "address"
        },
        {
          "indexed": true,
          "internalType": "address",
          "name": "to",
          "type": "address"
        },
        {
          "indexed": true,
          "internalType": "uint256",
          "name": "tokenId",
          "type": "uint256"
        }
      ],
      "name": "Transfer",
      "type": "event"
    },
    {
      "anonymous": false,
      "inputs": [
        {
          "indexed": false,
          "internalType": "address",
          "name": "account",
          "type": "address"
        }
      ],
      "name": "Unpaused",
      "type": "event"
    },
    {
      "stateMutability": "payable",
      "type": "fallback"
    },
    {
      "inputs": [],
      "name": "DEFAULT_ADMIN_ROLE",
      "outputs": [
        {
          "internalType": "bytes32",
          "name": "",
          "type": "bytes32"
        }
      ],
      "stateMutability": "view",
      "type": "function"
    },
    {
      "inputs": [],
      "name": "_tokenCurrentSupply",
      "outputs": [
        {
          "internalType": "uint256",
          "name": "_value",
          "type": "uint256"
        }
      ],
      "stateMutability": "view",
      "type": "function"
    },
    {
      "inputs": [],
      "name": "_tokenIdCounter",
      "outputs": [
        {
          "internalType": "uint256",
          "name": "_value",
          "type": "uint256"
        }
      ],
      "stateMutability": "view",
      "type": "function"
    },
    {
      "inputs": [
        {
          "internalType": "address",
          "name": "to",
          "type": "address"
        },
        {
          "internalType": "uint256",
          "name": "tokenId",
          "type": "uint256"
        }
      ],
      "name": "approve",
      "outputs": [],
      "stateMutability": "nonpayable",
      "type": "function"
    },
    {
      "inputs": [
        {
          "internalType": "address",
          "name": "owner",
          "type": "address"
        }
      ],
      "name": "balanceOf",
      "outputs": [
        {
          "internalType": "uint256",
          "name": "",
          "type": "uint256"
        }
      ],
      "stateMutability": "view",
      "type": "function"
    },
    {
      "inputs": [],
      "name": "bannerURL",
      "outputs": [
        {
          "internalType": "string",
          "name": "",
          "type": "string"
        }
      ],
      "stateMutability": "view",
      "type": "function"
    },
    {
      "inputs": [],
      "name": "baseTokenURI",
      "outputs": [
        {
          "internalType": "string",
          "name": "",
          "type": "string"
        }
      ],
      "stateMutability": "view",
      "type": "function"
    },
    {
      "inputs": [
        {
          "internalType": "uint256",
          "name": "tokenId",
          "type": "uint256"
        }
      ],
      "name": "burn",
      "outputs": [],
      "stateMutability": "nonpayable",
      "type": "function"
    },
    {
      "inputs": [
        {
          "internalType": "address payable",
          "name": "_to",
          "type": "address"
        }
      ],
      "name": "callFallback",
      "outputs": [],
      "stateMutability": "payable",
      "type": "function"
    },
    {
      "inputs": [],
      "name": "contractOptionIsBurnable",
      "outputs": [
        {
          "internalType": "bool",
          "name": "",
          "type": "bool"
        }
      ],
      "stateMutability": "view",
      "type": "function"
    },
    {
      "inputs": [],
      "name": "contractOptionIsMintable",
      "outputs": [
        {
          "internalType": "bool",
          "name": "",
          "type": "bool"
        }
      ],
      "stateMutability": "view",
      "type": "function"
    },
    {
      "inputs": [],
      "name": "contractOptionIsPausable",
      "outputs": [
        {
          "internalType": "bool",
          "name": "",
          "type": "bool"
        }
      ],
      "stateMutability": "view",
      "type": "function"
    },
    {
      "inputs": [],
      "name": "contractOptionIsSnapshotable",
      "outputs": [
        {
          "internalType": "bool",
          "name": "",
          "type": "bool"
        }
      ],
      "stateMutability": "view",
      "type": "function"
    },
    {
      "inputs": [],
      "name": "contractTreasury",
      "outputs": [
        {
          "internalType": "address payable",
          "name": "",
          "type": "address"
        }
      ],
      "stateMutability": "view",
      "type": "function"
    },
    {
      "inputs": [],
      "name": "contractURI",
      "outputs": [
        {
          "internalType": "bytes32",
          "name": "",
          "type": "bytes32"
        }
      ],
      "stateMutability": "view",
      "type": "function"
    },
    {
      "inputs": [],
      "name": "description",
      "outputs": [
        {
          "internalType": "string",
          "name": "",
          "type": "string"
        }
      ],
      "stateMutability": "view",
      "type": "function"
    },
    {
      "inputs": [
        {
          "internalType": "uint256",
          "name": "tokenId",
          "type": "uint256"
        }
      ],
      "name": "getApproved",
      "outputs": [
        {
          "internalType": "address",
          "name": "",
          "type": "address"
        }
      ],
      "stateMutability": "view",
      "type": "function"
    },
    {
      "inputs": [
        {
          "internalType": "bytes32",
          "name": "role",
          "type": "bytes32"
        }
      ],
      "name": "getRoleAdmin",
      "outputs": [
        {
          "internalType": "bytes32",
          "name": "",
          "type": "bytes32"
        }
      ],
      "stateMutability": "view",
      "type": "function"
    },
    {
      "inputs": [
        {
          "internalType": "bytes32",
          "name": "role",
          "type": "bytes32"
        },
        {
          "internalType": "address",
          "name": "account",
          "type": "address"
        }
      ],
      "name": "grantRole",
      "outputs": [],
      "stateMutability": "nonpayable",
      "type": "function"
    },
    {
      "inputs": [
        {
          "internalType": "bytes32",
          "name": "role",
          "type": "bytes32"
        },
        {
          "internalType": "address",
          "name": "account",
          "type": "address"
        }
      ],
      "name": "hasRole",
      "outputs": [
        {
          "internalType": "bool",
          "name": "",
          "type": "bool"
        }
      ],
      "stateMutability": "view",
      "type": "function"
    },
    {
      "inputs": [
        {
          "internalType": "address",
          "name": "owner",
          "type": "address"
        },
        {
          "internalType": "address",
          "name": "operator",
          "type": "address"
        }
      ],
      "name": "isApprovedForAll",
      "outputs": [
        {
          "internalType": "bool",
          "name": "",
          "type": "bool"
        }
      ],
      "stateMutability": "view",
      "type": "function"
    },
    {
      "inputs": [],
      "name": "loggerAddress",
      "outputs": [
        {
          "internalType": "address",
          "name": "",
          "type": "address"
        }
      ],
      "stateMutability": "view",
      "type": "function"
    },
    {
      "inputs": [],
      "name": "marketplaceAddress",
      "outputs": [
        {
          "internalType": "address payable",
          "name": "",
          "type": "address"
        }
      ],
      "stateMutability": "view",
      "type": "function"
    },
    {
      "inputs": [],
      "name": "name",
      "outputs": [
        {
          "internalType": "string",
          "name": "",
          "type": "string"
        }
      ],
      "stateMutability": "view",
      "type": "function"
    },
    {
      "inputs": [],
      "name": "owner",
      "outputs": [
        {
          "internalType": "address payable",
          "name": "",
          "type": "address"
        }
      ],
      "stateMutability": "view",
      "type": "function"
    },
    {
      "inputs": [
        {
          "internalType": "uint256",
          "name": "tokenId",
          "type": "uint256"
        }
      ],
      "name": "ownerOf",
      "outputs": [
        {
          "internalType": "address",
          "name": "",
          "type": "address"
        }
      ],
      "stateMutability": "view",
      "type": "function"
    },
    {
      "inputs": [],
      "name": "paused",
      "outputs": [
        {
          "internalType": "bool",
          "name": "",
          "type": "bool"
        }
      ],
      "stateMutability": "view",
      "type": "function"
    },
    {
      "inputs": [],
      "name": "photoURL",
      "outputs": [
        {
          "internalType": "string",
          "name": "",
          "type": "string"
        }
      ],
      "stateMutability": "view",
      "type": "function"
    },
    {
      "inputs": [
        {
          "internalType": "address",
          "name": "_token",
          "type": "address"
        },
        {
          "internalType": "address",
          "name": "_account",
          "type": "address"
        },
        {
          "internalType": "enum Enums.TokenStandards",
          "name": "_standard",
          "type": "uint8"
        },
        {
          "internalType": "uint256",
          "name": "_amount",
          "type": "uint256"
        },
        {
          "internalType": "uint256",
          "name": "_tokenId",
          "type": "uint256"
        }
      ],
      "name": "recoverTokens",
      "outputs": [],
      "stateMutability": "nonpayable",
      "type": "function"
    },
    {
      "inputs": [
        {
          "internalType": "bytes32",
          "name": "role",
          "type": "bytes32"
        },
        {
          "internalType": "address",
          "name": "account",
          "type": "address"
        }
      ],
      "name": "renounceRole",
      "outputs": [],
      "stateMutability": "nonpayable",
      "type": "function"
    },
    {
      "inputs": [
        {
          "internalType": "bytes32",
          "name": "role",
          "type": "bytes32"
        },
        {
          "internalType": "address",
          "name": "account",
          "type": "address"
        }
      ],
      "name": "revokeRole",
      "outputs": [],
      "stateMutability": "nonpayable",
      "type": "function"
    },
    {
      "inputs": [
        {
          "internalType": "uint256",
          "name": "tokenId",
          "type": "uint256"
        },
        {
          "internalType": "uint256",
          "name": "salePrice",
          "type": "uint256"
        }
      ],
      "name": "royaltyInfo",
      "outputs": [
        {
          "internalType": "address",
          "name": "",
          "type": "address"
        },
        {
          "internalType": "uint256",
          "name": "",
          "type": "uint256"
        }
      ],
      "stateMutability": "view",
      "type": "function"
    },
    {
      "inputs": [
        {
          "internalType": "address",
          "name": "from",
          "type": "address"
        },
        {
          "internalType": "address",
          "name": "to",
          "type": "address"
        },
        {
          "internalType": "uint256",
          "name": "tokenId",
          "type": "uint256"
        }
      ],
      "name": "safeTransferFrom",
      "outputs": [],
      "stateMutability": "nonpayable",
      "type": "function"
    },
    {
      "inputs": [
        {
          "internalType": "address",
          "name": "from",
          "type": "address"
        },
        {
          "internalType": "address",
          "name": "to",
          "type": "address"
        },
        {
          "internalType": "uint256",
          "name": "tokenId",
          "type": "uint256"
        },
        {
          "internalType": "bytes",
          "name": "data",
          "type": "bytes"
        }
      ],
      "name": "safeTransferFrom",
      "outputs": [],
      "stateMutability": "nonpayable",
      "type": "function"
    },
    {
      "inputs": [
        {
          "internalType": "address",
          "name": "operator",
          "type": "address"
        },
        {
          "internalType": "bool",
          "name": "approved",
          "type": "bool"
        }
      ],
      "name": "setApprovalForAll",
      "outputs": [],
      "stateMutability": "nonpayable",
      "type": "function"
    },
    {
      "inputs": [
        {
          "internalType": "bytes4",
          "name": "_interfaceId",
          "type": "bytes4"
        }
      ],
      "name": "supportsInterface",
      "outputs": [
        {
          "internalType": "bool",
          "name": "",
          "type": "bool"
        }
      ],
      "stateMutability": "view",
      "type": "function"
    },
    {
      "inputs": [],
      "name": "symbol",
      "outputs": [
        {
          "internalType": "string",
          "name": "",
          "type": "string"
        }
      ],
      "stateMutability": "view",
      "type": "function"
    },
    {
      "inputs": [
        {
          "internalType": "uint256",
          "name": "index",
          "type": "uint256"
        }
      ],
      "name": "tokenByIndex",
      "outputs": [
        {
          "internalType": "uint256",
          "name": "",
          "type": "uint256"
        }
      ],
      "stateMutability": "view",
      "type": "function"
    },
    {
      "inputs": [],
      "name": "tokenCategory",
      "outputs": [
        {
          "internalType": "enum Enums.TokenCategory",
          "name": "",
          "type": "uint8"
        }
      ],
      "stateMutability": "view",
      "type": "function"
    },
    {
      "inputs": [
        {
          "internalType": "uint256",
          "name": "",
          "type": "uint256"
        }
      ],
      "name": "tokenIdToNFTItem",
      "outputs": [
        {
          "internalType": "address",
          "name": "minterAddress",
          "type": "address"
        },
        {
          "internalType": "address",
          "name": "ownerAddress",
          "type": "address"
        },
        {
          "internalType": "uint256",
          "name": "tokenId",
          "type": "uint256"
        },
        {
          "internalType": "uint256",
          "name": "createdAt",
          "type": "uint256"
        },
        {
          "internalType": "uint256",
          "name": "updatedAt",
          "type": "uint256"
        }
      ],
      "stateMutability": "view",
      "type": "function"
    },
    {
      "inputs": [],
      "name": "tokenMaximumSupply",
      "outputs": [
        {
          "internalType": "uint256",
          "name": "",
          "type": "uint256"
        }
      ],
      "stateMutability": "view",
      "type": "function"
    },
    {
      "inputs": [
        {
          "internalType": "address",
          "name": "owner",
          "type": "address"
        },
        {
          "internalType": "uint256",
          "name": "index",
          "type": "uint256"
        }
      ],
      "name": "tokenOfOwnerByIndex",
      "outputs": [
        {
          "internalType": "uint256",
          "name": "",
          "type": "uint256"
        }
      ],
      "stateMutability": "view",
      "type": "function"
    },
    {
      "inputs": [
        {
          "internalType": "uint256",
          "name": "_tokenId",
          "type": "uint256"
        }
      ],
      "name": "tokenURI",
      "outputs": [
        {
          "internalType": "string",
          "name": "",
          "type": "string"
        }
      ],
      "stateMutability": "view",
      "type": "function"
    },
    {
      "inputs": [],
      "name": "totalSupply",
      "outputs": [
        {
          "internalType": "uint256",
          "name": "",
          "type": "uint256"
        }
      ],
      "stateMutability": "view",
      "type": "function"
    },
    {
      "inputs": [
        {
          "internalType": "address",
          "name": "from",
          "type": "address"
        },
        {
          "internalType": "address",
          "name": "to",
          "type": "address"
        },
        {
          "internalType": "uint256",
          "name": "tokenId",
          "type": "uint256"
        }
      ],
      "name": "transferFrom",
      "outputs": [],
      "stateMutability": "nonpayable",
      "type": "function"
    },
    {
      "inputs": [
        {
          "internalType": "address payable",
          "name": "_to",
          "type": "address"
        }
      ],
      "name": "transferToFallback",
      "outputs": [],
      "stateMutability": "payable",
      "type": "function"
    },
    {
      "inputs": [
        {
          "internalType": "address",
          "name": "_newContractTreasury",
          "type": "address"
        }
      ],
      "name": "updateContractTreasury",
      "outputs": [],
      "stateMutability": "nonpayable",
      "type": "function"
    },
    {
      "inputs": [
        {
          "internalType": "address",
          "name": "to",
          "type": "address"
        },
        {
          "internalType": "uint256",
          "name": "value",
          "type": "uint256"
        }
      ],
      "name": "withdraw",
      "outputs": [],
      "stateMutability": "payable",
      "type": "function"
    },
    {
      "stateMutability": "payable",
      "type": "receive"
    }
  ],
  "bytecode": "0x6080604052601080546001600160a01b031916730bcebd6ce292721408ea6a40c9f1fa04c8befa9a17905534801562000036575f80fd5b506040516200340938038062003409833981016040819052620000599162000150565b8181600262000069838262000242565b50600362000078828262000242565b5050600d805460ff1916905550506001600f55506200030a565b634e487b7160e01b5f52604160045260245ffd5b5f82601f830112620000b6575f80fd5b81516001600160401b0380821115620000d357620000d362000092565b604051601f8301601f19908116603f01168101908282118183101715620000fe57620000fe62000092565b816040528381526020925086838588010111156200011a575f80fd5b5f91505b838210156200013d57858201830151818301840152908201906200011e565b5f93810190920192909252949350505050565b5f806040838503121562000162575f80fd5b82516001600160401b038082111562000179575f80fd5b6200018786838701620000a6565b935060208501519150808211156200019d575f80fd5b50620001ac85828601620000a6565b9150509250929050565b600181811c90821680620001cb57607f821691505b602082108103620001ea57634e487b7160e01b5f52602260045260245ffd5b50919050565b601f8211156200023d575f81815260208120601f850160051c81016020861015620002185750805b601f850160051c820191505b81811015620002395782815560010162000224565b5050505b505050565b81516001600160401b038111156200025e576200025e62000092565b62000276816200026f8454620001b6565b84620001f0565b602080601f831160018114620002ac575f8415620002945750858301515b5f19600386901b1c1916600185901b17855562000239565b5f85815260208120601f198616915b82811015620002dc57888601518255948401946001909101908401620002bb565b5085821015620002fa57878501515f19600388901b60f8161c191681555b5050505050600190811b01905550565b6130f180620003185f395ff3fe608060405260043610610223575f3560e01c806301ffc9a71461026557806306fdde0314610299578063081812fc146102ba578063095ea7b3146102f15780630e681c701461031057806318160ddd146103245780631ab3e8611461034657806323b872dd1461035a578063248a9ca3146103795780632a55205a146103985780632f2ff15d146103c55780632f745c59146103e457806336568abe1461040357806342842e0e1461042257806342966c68146104415780634f227e11146104605780634f6ccce7146104805780635c975abb1461049f57806360bd55f8146104b6578063614595d0146104d657806362f588d8146104f55780636352211e146105155780636ba87a531461053457806370a08231146105475780637284e416146105665780637806a6da1461057a57806384c4bd4b1461058f5780638da5cb5b146105a557806391d14854146105c957806395d89b41146105e8578063a217fddf146105fc578063a22cb4651461060f578063b38cae121461062e578063b88d4fde14610654578063be3bd55014610673578063c38477fa14610692578063c87b56dd146106a8578063cfc6cdaa146106c7578063d547741f146106da578063d547cfb7146106f9578063daa17f491461070d578063e02c85531461072c578063e2a0fad61461074b578063e8a3d485146107d2578063e985e9c5146107e7578063f3fef3a314610806578063f8cdd33114610819578063fdf467601461083957005b36610263577f88a5966d370b9919b20f3e2c13ff65706f196a4e32cc2c12bf57088f885258743334604051610259929190612856565b60405180910390a1005b005b348015610270575f80fd5b5061028461027f366004612884565b610858565b60405190151581526020015b60405180910390f35b3480156102a4575f80fd5b506102ad610868565b60405161029091906128ec565b3480156102c5575f80fd5b506102d96102d43660046128fe565b6108f8565b6040516001600160a01b039091168152602001610290565b3480156102fc575f80fd5b5061026361030b366004612929565b61091d565b34801561031b575f80fd5b506102ad610a36565b34801561032f575f80fd5b50610338610ac2565b604051908152602001610290565b348015610351575f80fd5b506102ad610ad1565b348015610365575f80fd5b50610263610374366004612953565b610ade565b348015610384575f80fd5b506103386103933660046128fe565b610b10565b3480156103a3575f80fd5b506103b76103b2366004612991565b610b24565b604051610290929190612856565b3480156103d0575f80fd5b506102636103df3660046129b1565b610bcd565b3480156103ef575f80fd5b506103386103fe366004612929565b610be9565b34801561040e575f80fd5b5061026361041d3660046129b1565b610c7d565b34801561042d575f80fd5b5061026361043c366004612953565b610cfb565b34801561044c575f80fd5b5061026361045b3660046128fe565b610d15565b34801561046b575f80fd5b5060105461028490600160b01b900460ff1681565b34801561048b575f80fd5b5061033861049a3660046128fe565b610d46565b3480156104aa575f80fd5b50600d5460ff16610284565b3480156104c1575f80fd5b5060105461028490600160a01b900460ff1681565b3480156104e1575f80fd5b506015546102d9906001600160a01b031681565b348015610500575f80fd5b5060105461028490600160b81b900460ff1681565b348015610520575f80fd5b506102d961052f3660046128fe565b610dd6565b6102636105423660046129df565b610e09565b348015610552575f80fd5b506103386105613660046129df565b610e9f565b348015610571575f80fd5b506102ad610f23565b348015610585575f80fd5b5061033860175481565b34801561059a575f80fd5b506011546103389081565b3480156105b0575f80fd5b506013546102d99061010090046001600160a01b031681565b3480156105d4575f80fd5b506102846105e33660046129b1565b610f30565b3480156105f3575f80fd5b506102ad610f5a565b348015610607575f80fd5b506103385f81565b34801561061a575f80fd5b50610263610629366004612a07565b610f69565b348015610639575f80fd5b506013546106479060ff1681565b6040516102909190612a47565b34801561065f575f80fd5b5061026361066e366004612acb565b610f74565b34801561067e575f80fd5b5061026361068d366004612b72565b610fac565b34801561069d575f80fd5b506012546103389081565b3480156106b3575f80fd5b506102ad6106c23660046128fe565b611176565b6102636106d53660046129df565b6113af565b3480156106e5575f80fd5b506102636106f43660046129b1565b6113e1565b348015610704575f80fd5b506102ad6113fd565b348015610718575f80fd5b506014546102d9906001600160a01b031681565b348015610737575f80fd5b506102636107463660046129df565b61140a565b348015610756575f80fd5b5061079f6107653660046128fe565b601d6020525f9081526040902080546003820154600483015460058401546006909401546001600160a01b03938416949390921692909185565b604080516001600160a01b039687168152959094166020860152928401919091526060830152608082015260a001610290565b3480156107dd575f80fd5b5061033860165481565b3480156107f2575f80fd5b50610284610801366004612bcc565b611444565b610263610814366004612929565b611471565b348015610824575f80fd5b5060105461028490600160a81b900460ff1681565b348015610844575f80fd5b506010546102d9906001600160a01b031681565b5f610862826115b6565b92915050565b60606002805461087790612bf8565b80601f01602080910402602001604051908101604052809291908181526020018280546108a390612bf8565b80156108ee5780601f106108c5576101008083540402835291602001916108ee565b820191905f5260205f20905b8154815290600101906020018083116108d157829003601f168201915b5050505050905090565b5f610902826115da565b505f908152600660205260409020546001600160a01b031690565b5f61092782610dd6565b9050806001600160a01b0316836001600160a01b0316036109995760405162461bcd60e51b815260206004820152602160248201527f4552433732313a20617070726f76616c20746f2063757272656e74206f776e656044820152603960f91b60648201526084015b60405180910390fd5b336001600160a01b03821614806109b557506109b58133611444565b610a275760405162461bcd60e51b815260206004820152603d60248201527f4552433732313a20617070726f76652063616c6c6572206973206e6f7420746f60448201527f6b656e206f776e6572206f7220617070726f76656420666f7220616c6c0000006064820152608401610990565b610a3183836115ff565b505050565b601b8054610a4390612bf8565b80601f0160208091040260200160405190810160405280929190818152602001828054610a6f90612bf8565b8015610aba5780601f10610a9157610100808354040283529160200191610aba565b820191905f5260205f20905b815481529060010190602001808311610a9d57829003601f168201915b505050505081565b5f610acc60125490565b905090565b601a8054610a4390612bf8565b610ae9335b8261166c565b610b055760405162461bcd60e51b815260040161099090612c30565b610a318383836116c9565b5f908152600e602052604090206001015490565b5f8281526001602090815260408083208151808301909252546001600160a01b038116808352600160a01b9091046001600160601b0316928201929092528291610b975750604080518082019091525f546001600160a01b0381168252600160a01b90046001600160601b031660208201525b60208101515f9061271090610bb5906001600160601b031687612c91565b610bbf9190612ca8565b915196919550909350505050565b610bd682610b10565b610bdf8161182d565b610a318383611837565b5f610bf383610e9f565b8210610c555760405162461bcd60e51b815260206004820152602b60248201527f455243373231456e756d657261626c653a206f776e657220696e646578206f7560448201526a74206f6620626f756e647360a81b6064820152608401610990565b506001600160a01b03919091165f908152600860209081526040808320938352929052205490565b6001600160a01b0381163314610ced5760405162461bcd60e51b815260206004820152602f60248201527f416363657373436f6e74726f6c3a2063616e206f6e6c792072656e6f756e636560448201526e103937b632b9903337b91039b2b63360891b6064820152608401610990565b610cf782826118bc565b5050565b610a3183838360405180602001604052805f815250610f74565b610d1e33610ae3565b610d3a5760405162461bcd60e51b815260040161099090612c30565b610d4381611922565b50565b5f610d50600a5490565b8210610db35760405162461bcd60e51b815260206004820152602c60248201527f455243373231456e756d657261626c653a20676c6f62616c20696e646578206f60448201526b7574206f6620626f756e647360a01b6064820152608401610990565b600a8281548110610dc657610dc6612cc7565b905f5260205f2001549050919050565b5f80610de18361192b565b90506001600160a01b0381166108625760405162461bcd60e51b815260040161099090612cdb565b5f816001600160a01b0316346040515f6040518083038185875af1925050503d805f8114610e52576040519150601f19603f3d011682016040523d82523d5f602084013e610e57565b606091505b5050905080610cf75760405162461bcd60e51b81526020600482015260146024820152732330b4b632b2103a379039b2b7321022ba3432b960611b6044820152606401610990565b5f6001600160a01b038216610f085760405162461bcd60e51b815260206004820152602960248201527f4552433732313a2061646472657373207a65726f206973206e6f7420612076616044820152683634b21037bbb732b960b91b6064820152608401610990565b506001600160a01b03165f9081526005602052604090205490565b60198054610a4390612bf8565b5f918252600e602090815260408084206001600160a01b0393909316845291905290205460ff1690565b60606003805461087790612bf8565b610cf7338383611945565b610f7e338361166c565b610f9a5760405162461bcd60e51b815260040161099090612c30565b610fa684848484611a0e565b50505050565b5f610fb68161182d565b5f6001600160a01b03861615610fcd575084610fd0565b50335b5f856002811115610fe357610fe3612a33565b036110585760405163a9059cbb60e01b81526001600160a01b0388169063a9059cbb906110169084908890600401612856565b6020604051808303815f875af1158015611032573d5f803e3d5ffd5b505050506040513d601f19601f820116820180604052508101906110569190612d0d565b505b600185600281111561106c5761106c612a33565b036110cf57604051632142170760e11b81526001600160a01b038816906342842e0e906110a190309085908890600401612d28565b5f604051808303815f87803b1580156110b8575f80fd5b505af11580156110ca573d5f803e3d5ffd5b505050505b60028560028111156110e3576110e3612a33565b0361116d57604051637921219560e11b81523060048201526001600160a01b038281166024830152604482018590526064820186905260a06084830152600360a48301526203078360ec1b60c483015288169063f242432a9060e4015f604051808303815f87803b158015611156575f80fd5b505af1158015611168573d5f803e3d5ffd5b505050505b50505050505050565b60605f73__$29de98fb2cbbe7538224799f316eefb01b$__6322904b4a61119b611a41565b6040518263ffffffff1660e01b81526004016111b791906128ec565b5f60405180830381865af41580156111d1573d5f803e3d5ffd5b505050506040513d5f823e601f3d908101601f191682016040526111f89190810190612d4c565b5f848152601c602052604081208054929350909161121590612bf8565b80601f016020809104026020016040519081016040528092919081815260200182805461124190612bf8565b801561128c5780601f106112635761010080835404028352916020019161128c565b820191905f5260205f20905b81548152906001019060200180831161126f57829003601f168201915b5050505050905080515f1461131c576040516324ebdea160e21b815273__$29de98fb2cbbe7538224799f316eefb01b$__906393af7a84906112d49085908590600401612dbd565b5f60405180830381865af41580156112ee573d5f803e3d5ffd5b505050506040513d5f823e601f3d908101601f191682016040526113159190810190612d4c565b91506113a8565b5f848152601c6020526040908190209051631305294d60e11b815273__$29de98fb2cbbe7538224799f316eefb01b$__9163260a529a91611364918891879190600401612de1565b5f60405180830381865af415801561137e573d5f803e3d5ffd5b505050506040513d5f823e601f3d908101601f191682016040526113a59190810190612d4c565b91505b5092915050565b6040516001600160a01b038216903480156108fc02915f818181858888f19350505050158015610cf7573d5f803e3d5ffd5b6113ea82610b10565b6113f38161182d565b610a3183836118bc565b60188054610a4390612bf8565b5f6114148161182d565b6001600160a01b03821615610cf757601080546001600160a01b0384166001600160a01b03199091161790555050565b6001600160a01b039182165f90815260076020908152604080832093909416825291909152205460ff1690565b5f61147b8161182d565b611483611a50565b8161148c611aa9565b10156114d15760405162461bcd60e51b8152602060048201526014602482015273494e53554646494349454e545f42414c414e434560601b6044820152606401610990565b6001600160a01b03831661151657336108fc6114eb611aa9565b6040518115909202915f818181858888f19350505050158015611510573d5f803e3d5ffd5b506115ac565b5f836001600160a01b0316836040515f6040518083038185875af1925050503d805f811461155f576040519150601f19603f3d011682016040523d82523d5f602084013e611564565b606091505b50509050806115aa5760405162461bcd60e51b81526020600482015260126024820152714641494c45445f544f5f574954484452415760701b6044820152606401610990565b505b610a316001600f55565b5f6001600160e01b03198216637965db0b60e01b1480610862575061086282611abc565b6115e381611ac6565b610d435760405162461bcd60e51b815260040161099090612cdb565b5f81815260066020526040902080546001600160a01b0319166001600160a01b038416908117909155819061163382610dd6565b6001600160a01b03167f8c5be1e5ebec7d5bd14f71427d1e84f3dd0314c0f7b2291e5b200ac8c7c3b92560405160405180910390a45050565b5f8061167783610dd6565b9050806001600160a01b0316846001600160a01b0316148061169e575061169e8185611444565b806113a55750836001600160a01b03166116b7846108f8565b6001600160a01b031614949350505050565b826001600160a01b03166116dc82610dd6565b6001600160a01b0316146117025760405162461bcd60e51b815260040161099090612ea5565b6001600160a01b0382166117645760405162461bcd60e51b8152602060048201526024808201527f4552433732313a207472616e7366657220746f20746865207a65726f206164646044820152637265737360e01b6064820152608401610990565b6117718383836001611ae2565b826001600160a01b031661178482610dd6565b6001600160a01b0316146117aa5760405162461bcd60e51b815260040161099090612ea5565b5f81815260066020908152604080832080546001600160a01b03199081169091556001600160a01b038781168086526005855283862080545f1901905590871680865283862080546001019055868652600490945282852080549092168417909155905184935f8051602061309c83398151915291a4610a318383836001611c1c565b610d438133611ff4565b6118418282610f30565b610cf7575f828152600e602090815260408083206001600160a01b03851684529091529020805460ff191660011790556118783390565b6001600160a01b0316816001600160a01b0316837f2f8788117e7eff1d82e926ec794901d17c78024a50270940304540a733656f0d60405160405180910390a45050565b6118c68282610f30565b15610cf7575f828152600e602090815260408083206001600160a01b0385168085529252808320805460ff1916905551339285917ff6391f5c32d9c69d2a47ea670b442974b53935d1edc7fd64eb21e047a839171b9190a45050565b610d438161204d565b5f908152600460205260409020546001600160a01b031690565b816001600160a01b0316836001600160a01b0316036119a25760405162461bcd60e51b815260206004820152601960248201527822a9219b99189d1030b8383937bb32903a379031b0b63632b960391b6044820152606401610990565b6001600160a01b038381165f81815260076020908152604080832094871680845294825291829020805460ff191686151590811790915591519182527f17307eab39ab6107e8899845ad3d59bd9653f200f220920489ca2b5937696c31910160405180910390a3505050565b611a198484846116c9565b611a2584848484612066565b610fa65760405162461bcd60e51b815260040161099090612eea565b60606018805461087790612bf8565b6002600f5403611aa25760405162461bcd60e51b815260206004820152601f60248201527f5265656e7472616e637947756172643a207265656e7472616e742063616c6c006044820152606401610990565b6002600f55565b5f80611ab48161182d565b4791505b5090565b5f61086282612164565b5f80611ad18361192b565b6001600160a01b0316141592915050565b6001600160a01b038416611b6657611af982611ac6565b15611b2c5760405162461bcd60e51b815260206004820152600360248201526254414560e81b6044820152606401610990565b6017546012541115611b665760405162461bcd60e51b81526020600482015260036024820152624f465760e81b6044820152606401610990565b6001600160a01b038316611bf15733611b7e83610dd6565b6001600160a01b031614611bba5760405162461bcd60e51b81526020600482015260036024820152624e544f60e81b6044820152606401610990565b6017545f03611bf15760405162461bcd60e51b815260206004820152600360248201526255465760e81b6044820152606401610990565b6001600160a01b038316158015611c0f57506001600160a01b038416155b50610fa684848484612188565b6001600160a01b038416611cce57601554604051631502305360e21b81526001600160a01b0390911690635408c14c90611c649030908890889088905f904290600401612f3c565b5f604051808303815f87803b158015611c7b575f80fd5b505af1158015611c8d573d5f803e3d5ffd5b50505050817f747bd6dbfd6ceb446b50b008eeade0e74f807993dd969546d7efd6008554b1d0858584604051611cc593929190612d28565b60405180910390a25b6001600160a01b038316611de7575f828152601c60205260408120611cf291612750565b5f828152601d6020526040812080546001600160a01b0319168155600181018290556002810182905590506003810180546001600160a01b03191690555f600480830182905560058301829055600690920155601554604051631502305360e21b81526001600160a01b0390911691635408c14c91611d7d9130918991899189919042908201612f3c565b5f604051808303815f87803b158015611d94575f80fd5b505af1158015611da6573d5f803e3d5ffd5b50505050817f52dfda3906d4cbf321bb72f93842c6205f7b598f4774e779919316c34c691dd8858584604051611dde93929190612d28565b60405180910390a25b6001600160a01b03831615801590611e0757506001600160a01b03841615155b15611fef575f828152601d60209081526040808320815160c08101835281546001600160a01b031681528251808401938490529093919291840191600184019060029082845b81546001600160a01b03168152600190910190602001808311611e4d57505050918352505060038201546001600160a01b03908116602080840191909152600484015460408085019190915260058501546060850152600690940154608090930192909252878116848401524260a08501525f878152601d835292909220835181546001600160a01b03191693169290921782558201519192508291611ef99060018301906002612787565b5060408201516003820180546001600160a01b0319166001600160a01b03909216919091179055606082015160048201556080820151600582015560a090910151600690910155611f486127db565b601554604051631502305360e21b81529192506001600160a01b031690635408c14c90611f849030908990899089906008904290600401612f3c565b5f604051808303815f87803b158015611f9b575f80fd5b505af1158015611fad573d5f803e3d5ffd5b50505050827fb766d3a37f5cf765dac0a3cc64a0e39c8e6f6e076c917b54db3cfb1c5e8a1659868685604051611fe593929190612d28565b60405180910390a2505b610fa6565b611ffe8282610f30565b610cf75761200b816122bb565b6120168360206122cd565b604051602001612027929190612f87565b60408051601f198184030181529082905262461bcd60e51b8252610990916004016128ec565b61205681612469565b5f90815260016020526040812055565b5f6001600160a01b0384163b1561215857604051630a85bd0160e11b81526001600160a01b0385169063150b7a02906120a9903390899088908890600401612ff5565b6020604051808303815f875af19250505080156120e3575060408051601f3d908101601f191682019092526120e091810190613031565b60015b61213e573d808015612110576040519150601f19603f3d011682016040523d82523d5f602084013e612115565b606091505b5080515f036121365760405162461bcd60e51b815260040161099090612eea565b805181602001fd5b6001600160e01b031916630a85bd0160e11b14905061215c565b5060015b949350505050565b5f6001600160e01b03198216632483248360e11b14806108625750610862826124a7565b60018111156121f75760405162461bcd60e51b815260206004820152603560248201527f455243373231456e756d657261626c653a20636f6e7365637574697665207472604482015274185b9cd9995c9cc81b9bdd081cdd5c1c1bdc9d1959605a1b6064820152608401610990565b816001600160a01b0385166122525761224d81600a80545f838152600b60205260408120829055600182018355919091527fc65a7bb8d6351c1cf70c95a316cc6a92839c986682d98bc35f958f4883f9d2a80155565b612275565b836001600160a01b0316856001600160a01b0316146122755761227585826124cb565b6001600160a01b0384166122915761228c81612564565b6122b4565b846001600160a01b0316846001600160a01b0316146122b4576122b4848261260b565b5050505050565b60606108626001600160a01b03831660145b60605f6122db836002612c91565b6122e690600261304c565b6001600160401b038111156122fd576122fd612a61565b6040519080825280601f01601f191660200182016040528015612327576020820181803683370190505b509050600360fc1b815f8151811061234157612341612cc7565b60200101906001600160f81b03191690815f1a905350600f60fb1b8160018151811061236f5761236f612cc7565b60200101906001600160f81b03191690815f1a9053505f612391846002612c91565b61239c90600161304c565b90505b6001811115612413576f181899199a1a9b1b9c1cb0b131b232b360811b85600f16601081106123d0576123d0612cc7565b1a60f81b8282815181106123e6576123e6612cc7565b60200101906001600160f81b03191690815f1a90535060049490941c9361240c8161305f565b905061239f565b5083156124625760405162461bcd60e51b815260206004820181905260248201527f537472696e67733a20686578206c656e67746820696e73756666696369656e746044820152606401610990565b9392505050565b6124728161264d565b5f818152600c60205260409020805461248a90612bf8565b159050610d43575f818152600c60205260408120610d4391612750565b5f6001600160e01b0319821663780e9d6360e01b14806108625750610862826126e2565b5f60016124d784610e9f565b6124e19190613074565b5f83815260096020526040902054909150808214612532576001600160a01b0384165f9081526008602090815260408083208584528252808320548484528184208190558352600990915290208190555b505f9182526009602090815260408084208490556001600160a01b039094168352600881528383209183525290812055565b600a545f9061257590600190613074565b5f838152600b6020526040812054600a805493945090928490811061259c5761259c612cc7565b905f5260205f200154905080600a83815481106125bb576125bb612cc7565b5f918252602080832090910192909255828152600b9091526040808220849055858252812055600a8054806125f2576125f2613087565b600190038181905f5260205f20015f9055905550505050565b5f61261583610e9f565b6001600160a01b039093165f908152600860209081526040808320868452825280832085905593825260099052919091209190915550565b5f61265782610dd6565b9050612666815f846001611ae2565b61266f82610dd6565b5f83815260066020908152604080832080546001600160a01b03199081169091556001600160a01b0385168085526005845282852080545f190190558785526004909352818420805490911690555192935084925f8051602061309c833981519152908390a4610cf7815f846001611c1c565b5f6001600160e01b031982166380ac58cd60e01b148061271257506001600160e01b03198216635b5e139f60e01b145b806108625750610862825f6001600160e01b0319821663152a902d60e11b148061086257506301ffc9a760e01b6001600160e01b0319831614610862565b50805461275c90612bf8565b5f825580601f1061276b575050565b601f0160209004905f5260205f2090810190610d439190612824565b82600281019282156127cf579160200282015b828111156127cf57825182546001600160a01b0319166001600160a01b0390911617825560209092019160019091019061279a565b50611ab8929150612824565b6040518060c001604052805f6001600160a01b031681526020016127fd612838565b81526020015f6001600160a01b031681526020015f81526020015f81526020015f81525090565b5b80821115611ab8575f8155600101612825565b60405180604001604052806002906020820280368337509192915050565b6001600160a01b03929092168252602082015260400190565b6001600160e01b031981168114610d43575f80fd5b5f60208284031215612894575f80fd5b81356124628161286f565b5f5b838110156128b95781810151838201526020016128a1565b50505f910152565b5f81518084526128d881602086016020860161289f565b601f01601f19169290920160200192915050565b602081525f61246260208301846128c1565b5f6020828403121561290e575f80fd5b5035919050565b6001600160a01b0381168114610d43575f80fd5b5f806040838503121561293a575f80fd5b823561294581612915565b946020939093013593505050565b5f805f60608486031215612965575f80fd5b833561297081612915565b9250602084013561298081612915565b929592945050506040919091013590565b5f80604083850312156129a2575f80fd5b50508035926020909101359150565b5f80604083850312156129c2575f80fd5b8235915060208301356129d481612915565b809150509250929050565b5f602082840312156129ef575f80fd5b813561246281612915565b8015158114610d43575f80fd5b5f8060408385031215612a18575f80fd5b8235612a2381612915565b915060208301356129d4816129fa565b634e487b7160e01b5f52602160045260245ffd5b6020810160228310612a5b57612a5b612a33565b91905290565b634e487b7160e01b5f52604160045260245ffd5b604051601f8201601f191681016001600160401b0381118282101715612a9d57612a9d612a61565b604052919050565b5f6001600160401b03821115612abd57612abd612a61565b50601f01601f191660200190565b5f805f8060808587031215612ade575f80fd5b8435612ae981612915565b93506020850135612af981612915565b92506040850135915060608501356001600160401b03811115612b1a575f80fd5b8501601f81018713612b2a575f80fd5b8035612b3d612b3882612aa5565b612a75565b818152886020838501011115612b51575f80fd5b816020840160208301375f6020838301015280935050505092959194509250565b5f805f805f60a08688031215612b86575f80fd5b8535612b9181612915565b94506020860135612ba181612915565b9350604086013560038110612bb4575f80fd5b94979396509394606081013594506080013592915050565b5f8060408385031215612bdd575f80fd5b8235612be881612915565b915060208301356129d481612915565b600181811c90821680612c0c57607f821691505b602082108103612c2a57634e487b7160e01b5f52602260045260245ffd5b50919050565b6020808252602d908201527f4552433732313a2063616c6c6572206973206e6f7420746f6b656e206f776e6560408201526c1c881bdc88185c1c1c9bdd9959609a1b606082015260800190565b634e487b7160e01b5f52601160045260245ffd5b808202811582820484141761086257610862612c7d565b5f82612cc257634e487b7160e01b5f52601260045260245ffd5b500490565b634e487b7160e01b5f52603260045260245ffd5b602080825260189082015277115490cdcc8c4e881a5b9d985b1a59081d1bdad95b88125160421b604082015260600190565b5f60208284031215612d1d575f80fd5b8151612462816129fa565b6001600160a01b039384168152919092166020820152604081019190915260600190565b5f60208284031215612d5c575f80fd5b81516001600160401b03811115612d71575f80fd5b8201601f81018413612d81575f80fd5b8051612d8f612b3882612aa5565b818152856020838501011115612da3575f80fd5b612db482602083016020860161289f565b95945050505050565b604081525f612dcf60408301856128c1565b8281036020840152612db481856128c1565b8381525f6020606081840152612dfa60608401866128c1565b838103604085015284545f90600181811c9080831680612e1b57607f831692505b8683108103612e3857634e487b7160e01b85526022600452602485fd5b828652602086019550808015612e555760018114612e6b57612e94565b60ff198516875283151560051b87019550612e94565b5f8b8152602090205f5b85811015612e8e57815489820152908401908901612e75565b88019650505b50939b9a5050505050505050505050565b60208082526025908201527f4552433732313a207472616e736665722066726f6d20696e636f72726563742060408201526437bbb732b960d91b606082015260800190565b60208082526032908201527f4552433732313a207472616e7366657220746f206e6f6e20455243373231526560408201527131b2b4bb32b91034b6b83632b6b2b73a32b960711b606082015260800190565b6001600160a01b0387811682528681166020830152851660408201526060810184905260c08101600d8410612f7357612f73612a33565b608082019390935260a00152949350505050565b76020b1b1b2b9b9a1b7b73a3937b61d1030b1b1b7bab73a1604d1b81525f8351612fb881601785016020880161289f565b7001034b99036b4b9b9b4b733903937b6329607d1b6017918401918201528351612fe981602884016020880161289f565b01602801949350505050565b6001600160a01b03858116825284166020820152604081018390526080606082018190525f90613027908301846128c1565b9695505050505050565b5f60208284031215613041575f80fd5b81516124628161286f565b8082018082111561086257610862612c7d565b5f8161306d5761306d612c7d565b505f190190565b8181038181111561086257610862612c7d565b634e487b7160e01b5f52603160045260245ffdfeddf252ad1be2c89b69c2b068fc378daa952ba7f163c4a11628f55a4df523b3efa2646970667358221220e19d5db44fc73a3f8d36526ac176d5e5119ecbd6f8451b67d9ba1b30a121282164736f6c63430008140033",
  "linkReferences": {
    "contracts/libs/Snippets.sol": {
      "Snippets": [
        {
          "length": 20,
          "start": 5267
        },
        {
          "length": 20,
          "start": 5570
        },
        {
          "length": 20,
          "start": 5713
        }
      ]
    }
  },
  "deployedLinkReferences": {
    "contracts/libs/Snippets.sol": {
      "Snippets": [
        {
          "length": 20,
          "start": 4475
        },
        {
          "length": 20,
          "start": 4778
        },
        {
          "length": 20,
          "start": 4921
        }
      ]
    }
  }
}