{
  "_format": "hh-sol-artifact-1",
  "contractName": "JWLXTKN",
  "sourceName": "contracts/JWLXTKN.sol",
  "abi": [
    {
      "inputs": [
        {
          "internalType": "string",
          "name": "_name",
          "type": "string"
        },
        {
          "internalType": "string",
          "name": "_symbol",
          "type": "string"
        },
        {
          "internalType": "uint256",
          "name": "_initialSupply",
          "type": "uint256"
        },
        {
          "internalType": "uint256",
          "name": "_maximumSupply",
          "type": "uint256"
        },
        {
          "internalType": "address",
          "name": "_initialAuthority",
          "type": "address"
        }
      ],
      "stateMutability": "payable",
      "type": "constructor"
    },
    {
      "inputs": [],
      "name": "AccessControlBadConfirmation",
      "type": "error"
    },
    {
      "inputs": [
        {
          "internalType": "address",
          "name": "account",
          "type": "address"
        },
        {
          "internalType": "bytes32",
          "name": "neededRole",
          "type": "bytes32"
        }
      ],
      "name": "AccessControlUnauthorizedAccount",
      "type": "error"
    },
    {
      "inputs": [],
      "name": "CheckpointUnorderedInsertion",
      "type": "error"
    },
    {
      "inputs": [],
      "name": "ECDSAInvalidSignature",
      "type": "error"
    },
    {
      "inputs": [
        {
          "internalType": "uint256",
          "name": "length",
          "type": "uint256"
        }
      ],
      "name": "ECDSAInvalidSignatureLength",
      "type": "error"
    },
    {
      "inputs": [
        {
          "internalType": "bytes32",
          "name": "s",
          "type": "bytes32"
        }
      ],
      "name": "ECDSAInvalidSignatureS",
      "type": "error"
    },
    {
      "inputs": [
        {
          "internalType": "uint256",
          "name": "increasedSupply",
          "type": "uint256"
        },
        {
          "internalType": "uint256",
          "name": "cap",
          "type": "uint256"
        }
      ],
      "name": "ERC20ExceededCap",
      "type": "error"
    },
    {
      "inputs": [
        {
          "internalType": "uint256",
          "name": "increasedSupply",
          "type": "uint256"
        },
        {
          "internalType": "uint256",
          "name": "cap",
          "type": "uint256"
        }
      ],
      "name": "ERC20ExceededSafeSupply",
      "type": "error"
    },
    {
      "inputs": [
        {
          "internalType": "address",
          "name": "spender",
          "type": "address"
        },
        {
          "internalType": "uint256",
          "name": "allowance",
          "type": "uint256"
        },
        {
          "internalType": "uint256",
          "name": "needed",
          "type": "uint256"
        }
      ],
      "name": "ERC20InsufficientAllowance",
      "type": "error"
    },
    {
      "inputs": [
        {
          "internalType": "address",
          "name": "sender",
          "type": "address"
        },
        {
          "internalType": "uint256",
          "name": "balance",
          "type": "uint256"
        },
        {
          "internalType": "uint256",
          "name": "needed",
          "type": "uint256"
        }
      ],
      "name": "ERC20InsufficientBalance",
      "type": "error"
    },
    {
      "inputs": [
        {
          "internalType": "address",
          "name": "approver",
          "type": "address"
        }
      ],
      "name": "ERC20InvalidApprover",
      "type": "error"
    },
    {
      "inputs": [
        {
          "internalType": "uint256",
          "name": "cap",
          "type": "uint256"
        }
      ],
      "name": "ERC20InvalidCap",
      "type": "error"
    },
    {
      "inputs": [
        {
          "internalType": "address",
          "name": "receiver",
          "type": "address"
        }
      ],
      "name": "ERC20InvalidReceiver",
      "type": "error"
    },
    {
      "inputs": [
        {
          "internalType": "address",
          "name": "sender",
          "type": "address"
        }
      ],
      "name": "ERC20InvalidSender",
      "type": "error"
    },
    {
      "inputs": [
        {
          "internalType": "address",
          "name": "spender",
          "type": "address"
        }
      ],
      "name": "ERC20InvalidSpender",
      "type": "error"
    },
    {
      "inputs": [
        {
          "internalType": "uint256",
          "name": "deadline",
          "type": "uint256"
        }
      ],
      "name": "ERC2612ExpiredSignature",
      "type": "error"
    },
    {
      "inputs": [
        {
          "internalType": "address",
          "name": "signer",
          "type": "address"
        },
        {
          "internalType": "address",
          "name": "owner",
          "type": "address"
        }
      ],
      "name": "ERC2612InvalidSigner",
      "type": "error"
    },
    {
      "inputs": [
        {
          "internalType": "uint256",
          "name": "maxLoan",
          "type": "uint256"
        }
      ],
      "name": "ERC3156ExceededMaxLoan",
      "type": "error"
    },
    {
      "inputs": [
        {
          "internalType": "address",
          "name": "receiver",
          "type": "address"
        }
      ],
      "name": "ERC3156InvalidReceiver",
      "type": "error"
    },
    {
      "inputs": [
        {
          "internalType": "address",
          "name": "token",
          "type": "address"
        }
      ],
      "name": "ERC3156UnsupportedToken",
      "type": "error"
    },
    {
      "inputs": [
        {
          "internalType": "uint256",
          "name": "timepoint",
          "type": "uint256"
        },
        {
          "internalType": "uint48",
          "name": "clock",
          "type": "uint48"
        }
      ],
      "name": "ERC5805FutureLookup",
      "type": "error"
    },
    {
      "inputs": [],
      "name": "ERC6372InconsistentClock",
      "type": "error"
    },
    {
      "inputs": [],
      "name": "EnforcedPause",
      "type": "error"
    },
    {
      "inputs": [],
      "name": "ExpectedPause",
      "type": "error"
    },
    {
      "inputs": [
        {
          "internalType": "address",
          "name": "account",
          "type": "address"
        },
        {
          "internalType": "uint256",
          "name": "currentNonce",
          "type": "uint256"
        }
      ],
      "name": "InvalidAccountNonce",
      "type": "error"
    },
    {
      "inputs": [],
      "name": "InvalidShortString",
      "type": "error"
    },
    {
      "inputs": [],
      "name": "ReentrancyGuardReentrantCall",
      "type": "error"
    },
    {
      "inputs": [
        {
          "internalType": "uint8",
          "name": "bits",
          "type": "uint8"
        },
        {
          "internalType": "uint256",
          "name": "value",
          "type": "uint256"
        }
      ],
      "name": "SafeCastOverflowedUintDowncast",
      "type": "error"
    },
    {
      "inputs": [
        {
          "internalType": "string",
          "name": "str",
          "type": "string"
        }
      ],
      "name": "StringTooLong",
      "type": "error"
    },
    {
      "inputs": [
        {
          "internalType": "uint256",
          "name": "expiry",
          "type": "uint256"
        }
      ],
      "name": "VotesExpiredSignature",
      "type": "error"
    },
    {
      "anonymous": false,
      "inputs": [
        {
          "indexed": true,
          "internalType": "address",
          "name": "owner",
          "type": "address"
        },
        {
          "indexed": true,
          "internalType": "address",
          "name": "spender",
          "type": "address"
        },
        {
          "indexed": false,
          "internalType": "uint256",
          "name": "value",
          "type": "uint256"
        }
      ],
      "name": "Approval",
      "type": "event"
    },
    {
      "anonymous": false,
      "inputs": [
        {
          "indexed": true,
          "internalType": "address",
          "name": "delegator",
          "type": "address"
        },
        {
          "indexed": true,
          "internalType": "address",
          "name": "fromDelegate",
          "type": "address"
        },
        {
          "indexed": true,
          "internalType": "address",
          "name": "toDelegate",
          "type": "address"
        }
      ],
      "name": "DelegateChanged",
      "type": "event"
    },
    {
      "anonymous": false,
      "inputs": [
        {
          "indexed": true,
          "internalType": "address",
          "name": "delegate",
          "type": "address"
        },
        {
          "indexed": false,
          "internalType": "uint256",
          "name": "previousVotes",
          "type": "uint256"
        },
        {
          "indexed": false,
          "internalType": "uint256",
          "name": "newVotes",
          "type": "uint256"
        }
      ],
      "name": "DelegateVotesChanged",
      "type": "event"
    },
    {
      "anonymous": false,
      "inputs": [],
      "name": "EIP712DomainChanged",
      "type": "event"
    },
    {
      "anonymous": false,
      "inputs": [
        {
          "indexed": false,
          "internalType": "string",
          "name": "func",
          "type": "string"
        },
        {
          "indexed": false,
          "internalType": "uint256",
          "name": "gas",
          "type": "uint256"
        }
      ],
      "name": "Log",
      "type": "event"
    },
    {
      "anonymous": false,
      "inputs": [
        {
          "indexed": false,
          "internalType": "address",
          "name": "account",
          "type": "address"
        }
      ],
      "name": "Paused",
      "type": "event"
    },
    {
      "anonymous": false,
      "inputs": [
        {
          "indexed": false,
          "internalType": "address",
          "name": "",
          "type": "address"
        },
        {
          "indexed": false,
          "internalType": "uint256",
          "name": "",
          "type": "uint256"
        }
      ],
      "name": "Received",
      "type": "event"
    },
    {
      "anonymous": false,
      "inputs": [
        {
          "indexed": true,
          "internalType": "bytes32",
          "name": "role",
          "type": "bytes32"
        },
        {
          "indexed": true,
          "internalType": "bytes32",
          "name": "previousAdminRole",
          "type": "bytes32"
        },
        {
          "indexed": true,
          "internalType": "bytes32",
          "name": "newAdminRole",
          "type": "bytes32"
        }
      ],
      "name": "RoleAdminChanged",
      "type": "event"
    },
    {
      "anonymous": false,
      "inputs": [
        {
          "indexed": true,
          "internalType": "bytes32",
          "name": "role",
          "type": "bytes32"
        },
        {
          "indexed": true,
          "internalType": "address",
          "name": "account",
          "type": "address"
        },
        {
          "indexed": true,
          "internalType": "address",
          "name": "sender",
          "type": "address"
        }
      ],
      "name": "RoleGranted",
      "type": "event"
    },
    {
      "anonymous": false,
      "inputs": [
        {
          "indexed": true,
          "internalType": "bytes32",
          "name": "role",
          "type": "bytes32"
        },
        {
          "indexed": true,
          "internalType": "address",
          "name": "account",
          "type": "address"
        },
        {
          "indexed": true,
          "internalType": "address",
          "name": "sender",
          "type": "address"
        }
      ],
      "name": "RoleRevoked",
      "type": "event"
    },
    {
      "anonymous": false,
      "inputs": [
        {
          "indexed": true,
          "internalType": "address",
          "name": "from",
          "type": "address"
        },
        {
          "indexed": true,
          "internalType": "address",
          "name": "to",
          "type": "address"
        },
        {
          "indexed": false,
          "internalType": "uint256",
          "name": "value",
          "type": "uint256"
        }
      ],
      "name": "Transfer",
      "type": "event"
    },
    {
      "anonymous": false,
      "inputs": [
        {
          "indexed": false,
          "internalType": "address",
          "name": "account",
          "type": "address"
        }
      ],
      "name": "Unpaused",
      "type": "event"
    },
    {
      "inputs": [],
      "name": "CLOCK_MODE",
      "outputs": [
        {
          "internalType": "string",
          "name": "",
          "type": "string"
        }
      ],
      "stateMutability": "view",
      "type": "function"
    },
    {
      "inputs": [],
      "name": "DEFAULT_ADMIN_ROLE",
      "outputs": [
        {
          "internalType": "bytes32",
          "name": "",
          "type": "bytes32"
        }
      ],
      "stateMutability": "view",
      "type": "function"
    },
    {
      "inputs": [],
      "name": "DOMAIN_SEPARATOR",
      "outputs": [
        {
          "internalType": "bytes32",
          "name": "",
          "type": "bytes32"
        }
      ],
      "stateMutability": "view",
      "type": "function"
    },
    {
      "inputs": [],
      "name": "EXECUTOR_ROLE",
      "outputs": [
        {
          "internalType": "bytes32",
          "name": "",
          "type": "bytes32"
        }
      ],
      "stateMutability": "view",
      "type": "function"
    },
    {
      "inputs": [],
      "name": "MANAGER_ROLE",
      "outputs": [
        {
          "internalType": "bytes32",
          "name": "",
          "type": "bytes32"
        }
      ],
      "stateMutability": "view",
      "type": "function"
    },
    {
      "inputs": [],
      "name": "MINTER_ROLE",
      "outputs": [
        {
          "internalType": "bytes32",
          "name": "",
          "type": "bytes32"
        }
      ],
      "stateMutability": "view",
      "type": "function"
    },
    {
      "inputs": [],
      "name": "PAUSER_ROLE",
      "outputs": [
        {
          "internalType": "bytes32",
          "name": "",
          "type": "bytes32"
        }
      ],
      "stateMutability": "view",
      "type": "function"
    },
    {
      "inputs": [
        {
          "internalType": "address",
          "name": "owner",
          "type": "address"
        },
        {
          "internalType": "address",
          "name": "spender",
          "type": "address"
        }
      ],
      "name": "allowance",
      "outputs": [
        {
          "internalType": "uint256",
          "name": "",
          "type": "uint256"
        }
      ],
      "stateMutability": "view",
      "type": "function"
    },
    {
      "inputs": [
        {
          "internalType": "address",
          "name": "spender",
          "type": "address"
        },
        {
          "internalType": "uint256",
          "name": "value",
          "type": "uint256"
        }
      ],
      "name": "approve",
      "outputs": [
        {
          "internalType": "bool",
          "name": "",
          "type": "bool"
        }
      ],
      "stateMutability": "nonpayable",
      "type": "function"
    },
    {
      "inputs": [
        {
          "internalType": "bytes32",
          "name": "role",
          "type": "bytes32"
        },
        {
          "internalType": "address",
          "name": "account",
          "type": "address"
        }
      ],
      "name": "assignRole",
      "outputs": [],
      "stateMutability": "nonpayable",
      "type": "function"
    },
    {
      "inputs": [
        {
          "internalType": "address",
          "name": "account",
          "type": "address"
        }
      ],
      "name": "balanceOf",
      "outputs": [
        {
          "internalType": "uint256",
          "name": "",
          "type": "uint256"
        }
      ],
      "stateMutability": "view",
      "type": "function"
    },
    {
      "inputs": [
        {
          "internalType": "uint256",
          "name": "value",
          "type": "uint256"
        }
      ],
      "name": "burn",
      "outputs": [],
      "stateMutability": "nonpayable",
      "type": "function"
    },
    {
      "inputs": [
        {
          "internalType": "address",
          "name": "account",
          "type": "address"
        },
        {
          "internalType": "uint256",
          "name": "value",
          "type": "uint256"
        }
      ],
      "name": "burnFrom",
      "outputs": [],
      "stateMutability": "nonpayable",
      "type": "function"
    },
    {
      "inputs": [
        {
          "internalType": "address payable",
          "name": "_to",
          "type": "address"
        }
      ],
      "name": "callFallback",
      "outputs": [],
      "stateMutability": "payable",
      "type": "function"
    },
    {
      "inputs": [],
      "name": "cap",
      "outputs": [
        {
          "internalType": "uint256",
          "name": "",
          "type": "uint256"
        }
      ],
      "stateMutability": "view",
      "type": "function"
    },
    {
      "inputs": [
        {
          "internalType": "address",
          "name": "account",
          "type": "address"
        },
        {
          "internalType": "uint32",
          "name": "pos",
          "type": "uint32"
        }
      ],
      "name": "checkpoints",
      "outputs": [
        {
          "components": [
            {
              "internalType": "uint48",
              "name": "_key",
              "type": "uint48"
            },
            {
              "internalType": "uint208",
              "name": "_value",
              "type": "uint208"
            }
          ],
          "internalType": "struct Checkpoints.Checkpoint208",
          "name": "",
          "type": "tuple"
        }
      ],
      "stateMutability": "view",
      "type": "function"
    },
    {
      "inputs": [],
      "name": "clock",
      "outputs": [
        {
          "internalType": "uint48",
          "name": "",
          "type": "uint48"
        }
      ],
      "stateMutability": "view",
      "type": "function"
    },
    {
      "inputs": [],
      "name": "contractOptionIsBurnable",
      "outputs": [
        {
          "internalType": "bool",
          "name": "",
          "type": "bool"
        }
      ],
      "stateMutability": "view",
      "type": "function"
    },
    {
      "inputs": [],
      "name": "contractOptionIsMintable",
      "outputs": [
        {
          "internalType": "bool",
          "name": "",
          "type": "bool"
        }
      ],
      "stateMutability": "view",
      "type": "function"
    },
    {
      "inputs": [],
      "name": "contractOptionIsPausable",
      "outputs": [
        {
          "internalType": "bool",
          "name": "",
          "type": "bool"
        }
      ],
      "stateMutability": "view",
      "type": "function"
    },
    {
      "inputs": [],
      "name": "contractOptionIsSnapshotable",
      "outputs": [
        {
          "internalType": "bool",
          "name": "",
          "type": "bool"
        }
      ],
      "stateMutability": "view",
      "type": "function"
    },
    {
      "inputs": [],
      "name": "contractTreasury",
      "outputs": [
        {
          "internalType": "address payable",
          "name": "",
          "type": "address"
        }
      ],
      "stateMutability": "view",
      "type": "function"
    },
    {
      "inputs": [],
      "name": "contractURI",
      "outputs": [
        {
          "internalType": "string",
          "name": "",
          "type": "string"
        }
      ],
      "stateMutability": "view",
      "type": "function"
    },
    {
      "inputs": [],
      "name": "decimals",
      "outputs": [
        {
          "internalType": "uint8",
          "name": "",
          "type": "uint8"
        }
      ],
      "stateMutability": "view",
      "type": "function"
    },
    {
      "inputs": [
        {
          "internalType": "address",
          "name": "delegatee",
          "type": "address"
        }
      ],
      "name": "delegate",
      "outputs": [],
      "stateMutability": "nonpayable",
      "type": "function"
    },
    {
      "inputs": [
        {
          "internalType": "address",
          "name": "delegatee",
          "type": "address"
        },
        {
          "internalType": "uint256",
          "name": "nonce",
          "type": "uint256"
        },
        {
          "internalType": "uint256",
          "name": "expiry",
          "type": "uint256"
        },
        {
          "internalType": "uint8",
          "name": "v",
          "type": "uint8"
        },
        {
          "internalType": "bytes32",
          "name": "r",
          "type": "bytes32"
        },
        {
          "internalType": "bytes32",
          "name": "s",
          "type": "bytes32"
        }
      ],
      "name": "delegateBySig",
      "outputs": [],
      "stateMutability": "nonpayable",
      "type": "function"
    },
    {
      "inputs": [
        {
          "internalType": "address",
          "name": "account",
          "type": "address"
        }
      ],
      "name": "delegates",
      "outputs": [
        {
          "internalType": "address",
          "name": "",
          "type": "address"
        }
      ],
      "stateMutability": "view",
      "type": "function"
    },
    {
      "inputs": [],
      "name": "eip712Domain",
      "outputs": [
        {
          "internalType": "bytes1",
          "name": "fields",
          "type": "bytes1"
        },
        {
          "internalType": "string",
          "name": "name",
          "type": "string"
        },
        {
          "internalType": "string",
          "name": "version",
          "type": "string"
        },
        {
          "internalType": "uint256",
          "name": "chainId",
          "type": "uint256"
        },
        {
          "internalType": "address",
          "name": "verifyingContract",
          "type": "address"
        },
        {
          "internalType": "bytes32",
          "name": "salt",
          "type": "bytes32"
        },
        {
          "internalType": "uint256[]",
          "name": "extensions",
          "type": "uint256[]"
        }
      ],
      "stateMutability": "view",
      "type": "function"
    },
    {
      "inputs": [
        {
          "internalType": "string",
          "name": "functionName",
          "type": "string"
        },
        {
          "internalType": "string",
          "name": "param1",
          "type": "string"
        },
        {
          "internalType": "string",
          "name": "param2",
          "type": "string"
        }
      ],
      "name": "executeFunction",
      "outputs": [],
      "stateMutability": "nonpayable",
      "type": "function"
    },
    {
      "inputs": [
        {
          "internalType": "address",
          "name": "token",
          "type": "address"
        },
        {
          "internalType": "uint256",
          "name": "value",
          "type": "uint256"
        }
      ],
      "name": "flashFee",
      "outputs": [
        {
          "internalType": "uint256",
          "name": "",
          "type": "uint256"
        }
      ],
      "stateMutability": "view",
      "type": "function"
    },
    {
      "inputs": [
        {
          "internalType": "contract IERC3156FlashBorrower",
          "name": "receiver",
          "type": "address"
        },
        {
          "internalType": "address",
          "name": "token",
          "type": "address"
        },
        {
          "internalType": "uint256",
          "name": "value",
          "type": "uint256"
        },
        {
          "internalType": "bytes",
          "name": "data",
          "type": "bytes"
        }
      ],
      "name": "flashLoan",
      "outputs": [
        {
          "internalType": "bool",
          "name": "",
          "type": "bool"
        }
      ],
      "stateMutability": "nonpayable",
      "type": "function"
    },
    {
      "inputs": [
        {
          "internalType": "uint256",
          "name": "timepoint",
          "type": "uint256"
        }
      ],
      "name": "getPastTotalSupply",
      "outputs": [
        {
          "internalType": "uint256",
          "name": "",
          "type": "uint256"
        }
      ],
      "stateMutability": "view",
      "type": "function"
    },
    {
      "inputs": [
        {
          "internalType": "address",
          "name": "account",
          "type": "address"
        },
        {
          "internalType": "uint256",
          "name": "timepoint",
          "type": "uint256"
        }
      ],
      "name": "getPastVotes",
      "outputs": [
        {
          "internalType": "uint256",
          "name": "",
          "type": "uint256"
        }
      ],
      "stateMutability": "view",
      "type": "function"
    },
    {
      "inputs": [
        {
          "internalType": "bytes32",
          "name": "role",
          "type": "bytes32"
        }
      ],
      "name": "getRoleAdmin",
      "outputs": [
        {
          "internalType": "bytes32",
          "name": "",
          "type": "bytes32"
        }
      ],
      "stateMutability": "view",
      "type": "function"
    },
    {
      "inputs": [
        {
          "internalType": "address",
          "name": "account",
          "type": "address"
        }
      ],
      "name": "getVotes",
      "outputs": [
        {
          "internalType": "uint256",
          "name": "",
          "type": "uint256"
        }
      ],
      "stateMutability": "view",
      "type": "function"
    },
    {
      "inputs": [
        {
          "internalType": "bytes32",
          "name": "role",
          "type": "bytes32"
        },
        {
          "internalType": "address",
          "name": "account",
          "type": "address"
        }
      ],
      "name": "grantRole",
      "outputs": [],
      "stateMutability": "nonpayable",
      "type": "function"
    },
    {
      "inputs": [
        {
          "internalType": "bytes32",
          "name": "role",
          "type": "bytes32"
        },
        {
          "internalType": "address",
          "name": "account",
          "type": "address"
        }
      ],
      "name": "hasRole",
      "outputs": [
        {
          "internalType": "bool",
          "name": "",
          "type": "bool"
        }
      ],
      "stateMutability": "view",
      "type": "function"
    },
    {
      "inputs": [
        {
          "internalType": "address",
          "name": "token",
          "type": "address"
        }
      ],
      "name": "maxFlashLoan",
      "outputs": [
        {
          "internalType": "uint256",
          "name": "",
          "type": "uint256"
        }
      ],
      "stateMutability": "view",
      "type": "function"
    },
    {
      "inputs": [
        {
          "internalType": "address",
          "name": "to",
          "type": "address"
        },
        {
          "internalType": "uint256",
          "name": "amount",
          "type": "uint256"
        }
      ],
      "name": "mint",
      "outputs": [],
      "stateMutability": "nonpayable",
      "type": "function"
    },
    {
      "inputs": [],
      "name": "name",
      "outputs": [
        {
          "internalType": "string",
          "name": "",
          "type": "string"
        }
      ],
      "stateMutability": "view",
      "type": "function"
    },
    {
      "inputs": [
        {
          "internalType": "address",
          "name": "owner",
          "type": "address"
        }
      ],
      "name": "nonces",
      "outputs": [
        {
          "internalType": "uint256",
          "name": "",
          "type": "uint256"
        }
      ],
      "stateMutability": "view",
      "type": "function"
    },
    {
      "inputs": [
        {
          "internalType": "address",
          "name": "account",
          "type": "address"
        }
      ],
      "name": "numCheckpoints",
      "outputs": [
        {
          "internalType": "uint32",
          "name": "",
          "type": "uint32"
        }
      ],
      "stateMutability": "view",
      "type": "function"
    },
    {
      "inputs": [],
      "name": "pause",
      "outputs": [],
      "stateMutability": "nonpayable",
      "type": "function"
    },
    {
      "inputs": [],
      "name": "paused",
      "outputs": [
        {
          "internalType": "bool",
          "name": "",
          "type": "bool"
        }
      ],
      "stateMutability": "view",
      "type": "function"
    },
    {
      "inputs": [
        {
          "internalType": "address",
          "name": "owner",
          "type": "address"
        },
        {
          "internalType": "address",
          "name": "spender",
          "type": "address"
        },
        {
          "internalType": "uint256",
          "name": "value",
          "type": "uint256"
        },
        {
          "internalType": "uint256",
          "name": "deadline",
          "type": "uint256"
        },
        {
          "internalType": "uint8",
          "name": "v",
          "type": "uint8"
        },
        {
          "internalType": "bytes32",
          "name": "r",
          "type": "bytes32"
        },
        {
          "internalType": "bytes32",
          "name": "s",
          "type": "bytes32"
        }
      ],
      "name": "permit",
      "outputs": [],
      "stateMutability": "nonpayable",
      "type": "function"
    },
    {
      "inputs": [
        {
          "internalType": "address",
          "name": "_token",
          "type": "address"
        },
        {
          "internalType": "address",
          "name": "_account",
          "type": "address"
        },
        {
          "internalType": "enum Enums.TokenStandards",
          "name": "_standard",
          "type": "uint8"
        },
        {
          "internalType": "uint256",
          "name": "_amount",
          "type": "uint256"
        },
        {
          "internalType": "uint256",
          "name": "_tokenId",
          "type": "uint256"
        }
      ],
      "name": "recoverTokens",
      "outputs": [],
      "stateMutability": "nonpayable",
      "type": "function"
    },
    {
      "inputs": [
        {
          "internalType": "bytes32",
          "name": "role",
          "type": "bytes32"
        },
        {
          "internalType": "address",
          "name": "callerConfirmation",
          "type": "address"
        }
      ],
      "name": "renounceRole",
      "outputs": [],
      "stateMutability": "nonpayable",
      "type": "function"
    },
    {
      "inputs": [
        {
          "internalType": "bytes32",
          "name": "role",
          "type": "bytes32"
        },
        {
          "internalType": "address",
          "name": "account",
          "type": "address"
        }
      ],
      "name": "revokeRole",
      "outputs": [],
      "stateMutability": "nonpayable",
      "type": "function"
    },
    {
      "inputs": [
        {
          "internalType": "address",
          "name": "_to",
          "type": "address"
        },
        {
          "internalType": "uint256",
          "name": "_amount",
          "type": "uint256"
        }
      ],
      "name": "safeJWLXTransfer",
      "outputs": [],
      "stateMutability": "nonpayable",
      "type": "function"
    },
    {
      "inputs": [
        {
          "internalType": "bytes4",
          "name": "interfaceId",
          "type": "bytes4"
        }
      ],
      "name": "supportsInterface",
      "outputs": [
        {
          "internalType": "bool",
          "name": "",
          "type": "bool"
        }
      ],
      "stateMutability": "view",
      "type": "function"
    },
    {
      "inputs": [],
      "name": "symbol",
      "outputs": [
        {
          "internalType": "string",
          "name": "",
          "type": "string"
        }
      ],
      "stateMutability": "view",
      "type": "function"
    },
    {
      "inputs": [],
      "name": "tokenMaximumSupply",
      "outputs": [
        {
          "internalType": "uint256",
          "name": "",
          "type": "uint256"
        }
      ],
      "stateMutability": "view",
      "type": "function"
    },
    {
      "inputs": [],
      "name": "tokenTotalSupply",
      "outputs": [
        {
          "internalType": "uint256",
          "name": "",
          "type": "uint256"
        }
      ],
      "stateMutability": "view",
      "type": "function"
    },
    {
      "inputs": [],
      "name": "totalSupply",
      "outputs": [
        {
          "internalType": "uint256",
          "name": "",
          "type": "uint256"
        }
      ],
      "stateMutability": "view",
      "type": "function"
    },
    {
      "inputs": [
        {
          "internalType": "address",
          "name": "to",
          "type": "address"
        },
        {
          "internalType": "uint256",
          "name": "value",
          "type": "uint256"
        }
      ],
      "name": "transfer",
      "outputs": [
        {
          "internalType": "bool",
          "name": "",
          "type": "bool"
        }
      ],
      "stateMutability": "nonpayable",
      "type": "function"
    },
    {
      "inputs": [
        {
          "internalType": "address",
          "name": "from",
          "type": "address"
        },
        {
          "internalType": "address",
          "name": "to",
          "type": "address"
        },
        {
          "internalType": "uint256",
          "name": "value",
          "type": "uint256"
        }
      ],
      "name": "transferFrom",
      "outputs": [
        {
          "internalType": "bool",
          "name": "",
          "type": "bool"
        }
      ],
      "stateMutability": "nonpayable",
      "type": "function"
    },
    {
      "inputs": [
        {
          "internalType": "address payable",
          "name": "_to",
          "type": "address"
        }
      ],
      "name": "transferToFallback",
      "outputs": [],
      "stateMutability": "payable",
      "type": "function"
    },
    {
      "inputs": [],
      "name": "unpause",
      "outputs": [],
      "stateMutability": "nonpayable",
      "type": "function"
    },
    {
      "inputs": [
        {
          "internalType": "address",
          "name": "_newContractTreasury",
          "type": "address"
        }
      ],
      "name": "updateContractTreasury",
      "outputs": [],
      "stateMutability": "nonpayable",
      "type": "function"
    },
    {
      "inputs": [
        {
          "internalType": "address",
          "name": "to",
          "type": "address"
        },
        {
          "internalType": "uint256",
          "name": "value",
          "type": "uint256"
        }
      ],
      "name": "withdraw",
      "outputs": [],
      "stateMutability": "payable",
      "type": "function"
    }
  ],
  "bytecode": "0x6101806040819052600e80546001600160a01b031916730bcebd6ce292721408ea6a40c9f1fa04c8befa9a179055620047c7388190039081908339810160408190526200004c9162000c11565b84848484848480604051806040016040528060018152602001603160f81b81525084670de0b6b3a764000062000083919062000cc9565b8888600362000093838262000d71565b506004620000a2828262000d71565b50505080600003620000cf5760405163392e1e2760e01b8152600060048201526024015b60405180910390fd5b6080526005805460ff19169055620000e98260066200029d565b61014052620000fa8160076200029d565b61016052815160208084019190912061010052815190820120610120524660c0526200018a6101005161012051604080517f8b73c3c69bb8fe3d512ecc4cf759cc79239f7b179b0ffacaa9a75d522b39400f60208201529081019290925260608201524660808201523060a082015260009060c00160405160208183030381529060405280519060200120905090565b60a05250503060e052506001600d556001600160a01b038116620001ab5750335b620001ca81620001c485670de0b6b3a764000062000cc9565b620002d6565b620001de83670de0b6b3a764000062000cc9565b601155620001f582670de0b6b3a764000062000cc9565b6010556200020560008262000314565b50620002327f65d7a28e3265b37a6474929f336521b332c1681b933f6cb9f3376673440d862a8262000314565b506200025f7f9f2df0fed2c77648de5860a4cc508cd0818c85b8b8a1ab4ceeef8d981c8956a68262000314565b506200028c7f241ecf16d79d0f8dbfb92cbc07fe17840425976cf0667f022fe9877caa831b088262000314565b505050505050505050505062000f10565b6000602083511015620002bd57620002b583620003c6565b9050620002d0565b81620002ca848262000d71565b5060ff90505b92915050565b6001600160a01b038216620003025760405163ec442f0560e01b815260006004820152602401620000c6565b620003106000838362000409565b5050565b60008281526009602090815260408083206001600160a01b038516845290915281205460ff16620003bd5760008381526009602090815260408083206001600160a01b03861684529091529020805460ff19166001179055620003743390565b6001600160a01b0316826001600160a01b0316847f2f8788117e7eff1d82e926ec794901d17c78024a50270940304540a733656f0d60405160405180910390a4506001620002d0565b506000620002d0565b600080829050601f81511115620003f4578260405163305a27a960e01b8152600401620000c6919062000e3d565b8051620004018262000e72565b179392505050565b620004168383836200041b565b505050565b620004288383836200048a565b6001600160a01b0383166200047d5760006200044360025490565b90506001600160d01b03808211156200047a57604051630e58ae9360e11b81526004810183905260248101829052604401620000c6565b50505b62000416838383620004a1565b6200049462000539565b6200041683838362000560565b6001600160a01b038316620004d657620004d3600c62001c05620005cc60201b17620004cd84620005e1565b6200061b565b50505b6001600160a01b038216620005055762000502600c62001c116200065860201b17620004cd84620005e1565b50505b6001600160a01b038381166000908152600a6020526040808220548584168352912054620004169291821691168362000666565b60055460ff16156200055e5760405163d93c066560e01b815260040160405180910390fd5b565b6200056d838383620007cd565b6001600160a01b038316620004165760006200058860805190565b905060006200059660025490565b905081811115620005c55760405163279e7e1560e21b81526004810182905260248101839052604401620000c6565b5050505050565b6000620005da828462000e97565b9392505050565b60006001600160d01b0382111562000617576040516306dfcc6560e41b815260d0600482015260248101839052604401620000c6565b5090565b6000806200064b6200062c62000900565b620006426200063b8862000911565b868860201c565b87919062000960565b915091505b935093915050565b6000620005da828462000ec1565b816001600160a01b0316836001600160a01b031614158015620006895750600081115b1562000416576001600160a01b038316156200072c576001600160a01b0383166000908152600b6020908152604082208291620006d7919062000658901b62001c1117620004cd86620005e1565b6001600160d01b031691506001600160d01b03169150846001600160a01b0316600080516020620047a7833981519152838360405162000721929190918252602082015260400190565b60405180910390a250505b6001600160a01b0382161562000416576001600160a01b0382166000908152600b6020908152604082208291620007749190620005cc901b62001c0517620004cd86620005e1565b6001600160d01b031691506001600160d01b03169150836001600160a01b0316600080516020620047a78339815191528383604051620007be929190918252602082015260400190565b60405180910390a25050505050565b6001600160a01b038316620007fc578060026000828254620007f0919062000ee4565b90915550620008709050565b6001600160a01b03831660009081526020819052604090205481811015620008515760405163391434e360e21b81526001600160a01b03851660048201526024810182905260448101839052606401620000c6565b6001600160a01b03841660009081526020819052604090209082900390555b6001600160a01b0382166200088e57600280548290039055620008ad565b6001600160a01b03821660009081526020819052604090208054820190555b816001600160a01b0316836001600160a01b03167fddf252ad1be2c89b69c2b068fc378daa952ba7f163c4a11628f55a4df523b3ef83604051620008f391815260200190565b60405180910390a3505050565b60006200090c62000970565b905090565b8054600090801562000957576200093d836200092f60018462000efa565b600091825260209091200190565b54660100000000000090046001600160d01b0316620005da565b60009392505050565b6000806200064b8585856200097d565b60006200090c4362000b0f565b82546000908190801562000ab05760006200099f876200092f60018562000efa565b60408051808201909152905465ffffffffffff80821680845266010000000000009092046001600160d01b031660208401529192509087161015620009f757604051632520601d60e01b815260040160405180910390fd5b805165ffffffffffff80881691160362000a4b578462000a1e886200092f60018662000efa565b80546001600160d01b039290921666010000000000000265ffffffffffff90921691909117905562000a9f565b6040805180820190915265ffffffffffff80881682526001600160d01b0380881660208085019182528b54600181018d5560008d815291909120945191519092166601000000000000029216919091179101555b602001519250839150620006509050565b50506040805180820190915265ffffffffffff80851682526001600160d01b0380851660208085019182528854600181018a5560008a815291822095519251909316660100000000000002919093161792019190915590508162000650565b600065ffffffffffff82111562000617576040516306dfcc6560e41b81526030600482015260248101839052604401620000c6565b634e487b7160e01b600052604160045260246000fd5b60005b8381101562000b7757818101518382015260200162000b5d565b50506000910152565b600082601f83011262000b9257600080fd5b81516001600160401b038082111562000baf5762000baf62000b44565b604051601f8301601f19908116603f0116810190828211818310171562000bda5762000bda62000b44565b8160405283815286602085880101111562000bf457600080fd5b62000c0784602083016020890162000b5a565b9695505050505050565b600080600080600060a0868803121562000c2a57600080fd5b85516001600160401b038082111562000c4257600080fd5b62000c5089838a0162000b80565b9650602088015191508082111562000c6757600080fd5b5062000c768882890162000b80565b6040880151606089015160808a0151929750909550935090506001600160a01b038116811462000ca557600080fd5b809150509295509295909350565b634e487b7160e01b600052601160045260246000fd5b8082028115828204841417620002d057620002d062000cb3565b600181811c9082168062000cf857607f821691505b60208210810362000d1957634e487b7160e01b600052602260045260246000fd5b50919050565b601f8211156200041657600081815260208120601f850160051c8101602086101562000d485750805b601f850160051c820191505b8181101562000d695782815560010162000d54565b505050505050565b81516001600160401b0381111562000d8d5762000d8d62000b44565b62000da58162000d9e845462000ce3565b8462000d1f565b602080601f83116001811462000ddd576000841562000dc45750858301515b600019600386901b1c1916600185901b17855562000d69565b600085815260208120601f198616915b8281101562000e0e5788860151825594840194600190910190840162000ded565b508582101562000e2d5787850151600019600388901b60f8161c191681555b5050505050600190811b01905550565b602081526000825180602084015262000e5e81604085016020870162000b5a565b601f01601f19169190910160400192915050565b8051602080830151919081101562000d195760001960209190910360031b1b16919050565b6001600160d01b0381811683821601908082111562000eba5762000eba62000cb3565b5092915050565b6001600160d01b0382811682821603908082111562000eba5762000eba62000cb3565b80820180821115620002d057620002d062000cb3565b81810381811115620002d057620002d062000cb3565b60805160a05160c05160e0516101005161012051610140516101605161382a62000f7d600039600061227d0152600061225001526000611f1a01526000611ef201526000611e4d01526000611e7701526000611ea10152600081816105270152612dd5015261382a6000f3fe6080604052600436106103975760003560e01c806379cc6790116101dc578063cfc6cdaa11610102578063e63ab1e9116100a0578063f3fef3a31161006f578063f3fef3a314610bd1578063f7abab9e14610be4578063f8cdd33114610bfa578063fdf4676014610c2d57600080fd5b8063e63ab1e914610b08578063e8a3d48514610b3c578063ec87621c14610b51578063f1127ed814610b8557600080fd5b8063d547741f116100dc578063d547741f14610a62578063d9d98ce414610a82578063dd62ed3e14610aa2578063e02c855314610ae857600080fd5b8063cfc6cdaa146109fb578063d505accf14610a0e578063d539139314610a2e57600080fd5b806391ddadf41161017a578063a217fddf11610149578063a217fddf14610986578063a9059cbb1461099b578063be3bd550146109bb578063c3cda520146109db57600080fd5b806391ddadf4146109055780639518c9601461093157806395d89b41146109515780639ab24eb01461096657600080fd5b80638456cb59116101b65780638456cb591461086257806384b0196e146108775780638e539e8c1461089f57806391d14854146108bf57600080fd5b806379cc6790146108025780637e136377146108225780637ecebe001461084257600080fd5b806340c10f19116102c15780635cffe9de1161025f5780636ba87a531161022e5780636ba87a531461076e5780636fcfff451461078157806370a08231146107b65780637806a6da146107ec57600080fd5b80635cffe9de146106c757806360bd55f8146106e7578063613255ab1461071957806362f588d81461073957600080fd5b80634f227e111161029b5780634f227e111461060a578063587cde1e1461063e5780635c19a95c1461068f5780635c975abb146106af57600080fd5b806340c10f19146105b557806342966c68146105d55780634bf5d7e9146105f557600080fd5b80632f2ff15d116103395780633644e515116103085780633644e5151461054b57806336568abe146105605780633a46b1a8146105805780633f4ba83a146105a057600080fd5b80632f2ff15d146104ba57806330a727b3146104dc578063313ce567146104fc578063355274ea1461051857600080fd5b8063095ea7b311610375578063095ea7b31461043557806318160ddd1461045557806323b872dd1461046a578063248a9ca31461048a57600080fd5b806301ffc9a71461039c57806306fdde03146103d157806307bd0265146103f3575b600080fd5b3480156103a857600080fd5b506103bc6103b73660046130d0565b610c4d565b60405190151581526020015b60405180910390f35b3480156103dd57600080fd5b506103e6610c84565b6040516103c89190613140565b3480156103ff57600080fd5b506104277fd8aa0f3194971a2a116679f7c2090f6939c8d4e01a2a8d7e41d55e5351469e6381565b6040519081526020016103c8565b34801561044157600080fd5b506103bc610450366004613168565b610d16565b34801561046157600080fd5b50600254610427565b34801561047657600080fd5b506103bc610485366004613194565b610d2e565b34801561049657600080fd5b506104276104a53660046131d5565b60009081526009602052604090206001015490565b3480156104c657600080fd5b506104da6104d53660046131ee565b610d52565b005b3480156104e857600080fd5b506104da6104f73660046131ee565b610d7d565b34801561050857600080fd5b50604051601281526020016103c8565b34801561052457600080fd5b507f0000000000000000000000000000000000000000000000000000000000000000610427565b34801561055757600080fd5b50610427610ddc565b34801561056c57600080fd5b506104da61057b3660046131ee565b610deb565b34801561058c57600080fd5b5061042761059b366004613168565b610e23565b3480156105ac57600080fd5b506104da610ea9565b3480156105c157600080fd5b506104da6105d0366004613168565b610ede565b3480156105e157600080fd5b506104da6105f03660046131d5565b61102a565b34801561060157600080fd5b506103e6611034565b34801561061657600080fd5b50600e546103bc90760100000000000000000000000000000000000000000000900460ff1681565b34801561064a57600080fd5b5061067761065936600461321e565b6001600160a01b039081166000908152600a60205260409020541690565b6040516001600160a01b0390911681526020016103c8565b34801561069b57600080fd5b506104da6106aa36600461321e565b6110ac565b3480156106bb57600080fd5b5060055460ff166103bc565b3480156106d357600080fd5b506103bc6106e236600461323b565b6110bb565b3480156106f357600080fd5b50600e546103bc9074010000000000000000000000000000000000000000900460ff1681565b34801561072557600080fd5b5061042761073436600461321e565b611233565b34801561074557600080fd5b50600e546103bc9077010000000000000000000000000000000000000000000000900460ff1681565b6104da61077c36600461321e565b61125b565b34801561078d57600080fd5b506107a161079c36600461321e565b6112fe565b60405163ffffffff90911681526020016103c8565b3480156107c257600080fd5b506104276107d136600461321e565b6001600160a01b031660009081526020819052604090205490565b3480156107f857600080fd5b5061042760105481565b34801561080e57600080fd5b506104da61081d366004613168565b611309565b34801561082e57600080fd5b506104da61083d366004613168565b61131e565b34801561084e57600080fd5b5061042761085d36600461321e565b6113ae565b34801561086e57600080fd5b506104da6113b9565b34801561088357600080fd5b5061088c6113eb565b6040516103c897969594939291906132da565b3480156108ab57600080fd5b506104276108ba3660046131d5565b611431565b3480156108cb57600080fd5b506103bc6108da3660046131ee565b60009182526009602090815260408084206001600160a01b0393909316845291905290205460ff1690565b34801561091157600080fd5b5061091a61149b565b60405165ffffffffffff90911681526020016103c8565b34801561093d57600080fd5b506104da61094c366004613413565b6114a5565b34801561095d57600080fd5b506103e66114f9565b34801561097257600080fd5b5061042761098136600461321e565b611508565b34801561099257600080fd5b50610427600081565b3480156109a757600080fd5b506103bc6109b6366004613168565b611538565b3480156109c757600080fd5b506104da6109d636600461349b565b611546565b3480156109e757600080fd5b506104da6109f6366004613510565b611728565b6104da610a0936600461321e565b6117dc565b348015610a1a57600080fd5b506104da610a2936600461356a565b611811565b348015610a3a57600080fd5b506104277f9f2df0fed2c77648de5860a4cc508cd0818c85b8b8a1ab4ceeef8d981c8956a681565b348015610a6e57600080fd5b506104da610a7d3660046131ee565b61194b565b348015610a8e57600080fd5b50610427610a9d366004613168565b611970565b348015610aae57600080fd5b50610427610abd3660046135d8565b6001600160a01b03918216600090815260016020908152604080832093909416825291909152205490565b348015610af457600080fd5b506104da610b0336600461321e565b6119b0565b348015610b1457600080fd5b506104277f65d7a28e3265b37a6474929f336521b332c1681b933f6cb9f3376673440d862a81565b348015610b4857600080fd5b506103e66119f8565b348015610b5d57600080fd5b506104277f241ecf16d79d0f8dbfb92cbc07fe17840425976cf0667f022fe9877caa831b0881565b348015610b9157600080fd5b50610ba5610ba0366004613606565b611a86565b60408051825165ffffffffffff1681526020928301516001600160d01b031692810192909252016103c8565b6104da610bdf366004613168565b611aa4565b348015610bf057600080fd5b5061042760115481565b348015610c0657600080fd5b50600e546103bc907501000000000000000000000000000000000000000000900460ff1681565b348015610c3957600080fd5b50600e54610677906001600160a01b031681565b60006001600160e01b03198216637965db0b60e01b1480610c7e57506301ffc9a760e01b6001600160e01b03198316145b92915050565b606060038054610c939061363d565b80601f0160208091040260200160405190810160405280929190818152602001828054610cbf9061363d565b8015610d0c5780601f10610ce157610100808354040283529160200191610d0c565b820191906000526020600020905b815481529060010190602001808311610cef57829003601f168201915b5050505050905090565b600033610d24818585611c1d565b5060019392505050565b600033610d3c858285611c2a565b610d47858585611ca2565b506001949350505050565b600082815260096020526040902060010154610d6d81611d01565b610d778383611d0b565b50505050565b7fd8aa0f3194971a2a116679f7c2090f6939c8d4e01a2a8d7e41d55e5351469e63610da781611d01565b610db18383611d0b565b50610d777fd8aa0f3194971a2a116679f7c2090f6939c8d4e01a2a8d7e41d55e5351469e6333611db9565b6000610de6611e40565b905090565b6001600160a01b0381163314610e145760405163334bd91960e11b815260040160405180910390fd5b610e1e8282611db9565b505050565b600080610e2e61149b565b90508065ffffffffffff168310610e6e57604051637669fc0f60e11b81526004810184905265ffffffffffff821660248201526044015b60405180910390fd5b610e98610e7a84611f6b565b6001600160a01b0386166000908152600b6020526040902090611fa2565b6001600160d01b0316949350505050565b7f65d7a28e3265b37a6474929f336521b332c1681b933f6cb9f3376673440d862a610ed381611d01565b610edb61205b565b50565b7f9f2df0fed2c77648de5860a4cc508cd0818c85b8b8a1ab4ceeef8d981c8956a6610f0881611d01565b610f327f9f2df0fed2c77648de5860a4cc508cd0818c85b8b8a1ab4ceeef8d981c8956a6336108da565b610f6c5760405162461bcd60e51b815260206004820152600b60248201526a139bdd08185b1b1bddd95960aa1b6044820152606401610e65565b600080610f7b601154856120ad565b9150915081610fcc5760405162461bcd60e51b815260206004820152601560248201527f546f6b656e20737570706c79206f766572666c6f7700000000000000000000006044820152606401610e65565b6010548111611023576011819055610fe485856120d6565b6001600160a01b03851660009081526012602052604081205461100790866120ad565b6001600160a01b03881660009081526012602052604090205550505b5050505050565b610edb338261210c565b606061103e612142565b65ffffffffffff1661104e61149b565b65ffffffffffff1614611074576040516301bfc1c560e61b815260040160405180910390fd5b5060408051808201909152601d81527f6d6f64653d626c6f636b6e756d6265722666726f6d3d64656661756c74000000602082015290565b336110b7818361214d565b5050565b6000806110c786611233565b9050808511156110ed5760405163fd9a760960e01b815260048101829052602401610e65565b60006110f98787611970565b905061110588876120d6565b6040516323e30c8b60e01b81527f439148f0bbc682ca079e46d6e2c2f0c1e3b820f1a291b069d8882abf8cf18dd9906001600160a01b038a16906323e30c8b9061115d9033908c908c9088908d908d90600401613677565b6020604051808303816000875af115801561117c573d6000803e3d6000fd5b505050506040513d601f19601f820116820180604052508101906111a091906136d2565b146111c85760405162678c5b60e81b81526001600160a01b0389166004820152602401610e65565b60006111de89306111d9858b613701565b611c2a565b8115806111f257506001600160a01b038116155b1561120f5761120a89611205848a613701565b61210c565b611224565b611219898861210c565b611224898284611ca2565b50600198975050505050505050565b60006001600160a01b038216301461124c576000610c7e565b600254610c7e90600019613714565b6000816001600160a01b03163460405160006040518083038185875af1925050503d80600081146112a8576040519150601f19603f3d011682016040523d82523d6000602084013e6112ad565b606091505b50509050806110b75760405162461bcd60e51b815260206004820152601460248201527f4661696c656420746f2073656e642045746865720000000000000000000000006044820152606401610e65565b6000610c7e826121cc565b611314823383611c2a565b6110b7828261210c565b6113487f241ecf16d79d0f8dbfb92cbc07fe17840425976cf0667f022fe9877caa831b08336108da565b6113825760405162461bcd60e51b815260206004820152600b60248201526a139bdd08185b1b1bddd95960aa1b6044820152606401610e65565b30600090815260208190526040902054808211156113a457610d778382611538565b610d778383611538565b6000610c7e826121ee565b7f65d7a28e3265b37a6474929f336521b332c1681b933f6cb9f3376673440d862a6113e381611d01565b610edb61220c565b6000606080600080600060606113ff612249565b611407612276565b60408051600080825260208201909252600f60f81b9b939a50919850469750309650945092509050565b60008061143c61149b565b90508065ffffffffffff16831061147757604051637669fc0f60e11b81526004810184905265ffffffffffff82166024820152604401610e65565b61148b61148384611f6b565b600c90611fa2565b6001600160d01b03169392505050565b6000610de6612142565b7fd8aa0f3194971a2a116679f7c2090f6939c8d4e01a2a8d7e41d55e5351469e636114cf81611d01565b6110237f241ecf16d79d0f8dbfb92cbc07fe17840425976cf0667f022fe9877caa831b0833611db9565b606060048054610c939061363d565b6001600160a01b0381166000908152600b60205260408120611529906122a3565b6001600160d01b031692915050565b600033610d24818585611ca2565b600061155181611d01565b60006001600160a01b0386161561156957508461156c565b50335b600085600281111561158057611580613727565b036115fa5760405163a9059cbb60e01b81526001600160a01b0382811660048301526024820186905288169063a9059cbb906044016020604051808303816000875af11580156115d4573d6000803e3d6000fd5b505050506040513d601f19601f820116820180604052508101906115f8919061373d565b505b600185600281111561160e5761160e613727565b0361167c57604051632142170760e11b81523060048201526001600160a01b038281166024830152604482018590528816906342842e0e90606401600060405180830381600087803b15801561166357600080fd5b505af1158015611677573d6000803e3d6000fd5b505050505b600285600281111561169057611690613727565b0361171f57604051637921219560e11b81523060048201526001600160a01b038281166024830152604482018590526064820186905260a06084830152600360a48301526203078360ec1b60c483015288169063f242432a9060e401600060405180830381600087803b15801561170657600080fd5b505af115801561171a573d6000803e3d6000fd5b505050505b50505050505050565b8342111561174c57604051632341d78760e11b815260048101859052602401610e65565b604080517fe48329057bfd03d55e49b547132e39cffd9c1820ad7b9d4c5307691425d15adf60208201526001600160a01b0388169181019190915260608101869052608081018590526000906117c6906117be9060a001604051602081830303815290604052805190602001206122d6565b858585612303565b90506117d28187612331565b61171f818861214d565b6040516001600160a01b038216903480156108fc02916000818181858888f193505050501580156110b7573d6000803e3d6000fd5b834211156118355760405163313c898160e11b815260048101859052602401610e65565b60007f6e71edae12b1b97f4d1f60370fef10105fa2faae0126114a169c64845d6126c98888886118828c6001600160a01b0316600090815260086020526040902080546001810190915590565b6040805160208101969096526001600160a01b0394851690860152929091166060840152608083015260a082015260c0810186905260e00160405160208183030381529060405280519060200120905060006118dd826122d6565b905060006118ed82878787612303565b9050896001600160a01b0316816001600160a01b031614611934576040516325c0072360e11b81526001600160a01b0380831660048301528b166024820152604401610e65565b61193f8a8a8a611c1d565b50505050505050505050565b60008281526009602052604090206001015461196681611d01565b610d778383611db9565b60006001600160a01b03831630146119a657604051635ad3edc960e11b81526001600160a01b0384166004820152602401610e65565b60005b9392505050565b60006119bb81611d01565b6001600160a01b038216156110b757600e80546001600160a01b03841673ffffffffffffffffffffffffffffffffffffffff199091161790555050565b600f8054611a059061363d565b80601f0160208091040260200160405190810160405280929190818152602001828054611a319061363d565b8015611a7e5780601f10611a5357610100808354040283529160200191611a7e565b820191906000526020600020905b815481529060010190602001808311611a6157829003601f168201915b505050505081565b60408051808201909152600080825260208201526119a98383612384565b6000611aaf81611d01565b611ab76123ba565b81611ac06123e4565b1015611b0e5760405162461bcd60e51b815260206004820152601460248201527f494e53554646494349454e545f42414c414e43450000000000000000000000006044820152606401610e65565b6001600160a01b038316611b5657336108fc611b286123e4565b6040518115909202916000818181858888f19350505050158015611b50573d6000803e3d6000fd5b50611bfb565b6000836001600160a01b03168360405160006040518083038185875af1925050503d8060008114611ba3576040519150601f19603f3d011682016040523d82523d6000602084013e611ba8565b606091505b5050905080611bf95760405162461bcd60e51b815260206004820152601260248201527f4641494c45445f544f5f574954484452415700000000000000000000000000006044820152606401610e65565b505b610e1e6001600d55565b60006119a9828461375f565b60006119a98284613786565b610e1e83838360016123f7565b6001600160a01b038381166000908152600160209081526040808320938616835292905220546000198114610d775781811015611c9357604051637dc7a0d960e11b81526001600160a01b03841660048201526024810182905260448101839052606401610e65565b610d77848484840360006123f7565b6001600160a01b038316611ccc57604051634b637e8f60e11b815260006004820152602401610e65565b6001600160a01b038216611cf65760405163ec442f0560e01b815260006004820152602401610e65565b610e1e8383836124cc565b610edb81336124d7565b60008281526009602090815260408083206001600160a01b038516845290915281205460ff16611db15760008381526009602090815260408083206001600160a01b03861684529091529020805460ff19166001179055611d693390565b6001600160a01b0316826001600160a01b0316847f2f8788117e7eff1d82e926ec794901d17c78024a50270940304540a733656f0d60405160405180910390a4506001610c7e565b506000610c7e565b60008281526009602090815260408083206001600160a01b038516845290915281205460ff1615611db15760008381526009602090815260408083206001600160a01b0386168085529252808320805460ff1916905551339286917ff6391f5c32d9c69d2a47ea670b442974b53935d1edc7fd64eb21e047a839171b9190a4506001610c7e565b6000306001600160a01b037f000000000000000000000000000000000000000000000000000000000000000016148015611e9957507f000000000000000000000000000000000000000000000000000000000000000046145b15611ec357507f000000000000000000000000000000000000000000000000000000000000000090565b610de6604080517f8b73c3c69bb8fe3d512ecc4cf759cc79239f7b179b0ffacaa9a75d522b39400f60208201527f0000000000000000000000000000000000000000000000000000000000000000918101919091527f000000000000000000000000000000000000000000000000000000000000000060608201524660808201523060a082015260009060c00160405160208183030381529060405280519060200120905090565b600065ffffffffffff821115611f9e576040516306dfcc6560e41b81526030600482015260248101839052604401610e65565b5090565b815460009081816005811115612001576000611fbd8461252c565b611fc79085613714565b60008881526020902090915081015465ffffffffffff9081169087161015611ff157809150611fff565b611ffc816001613701565b92505b505b600061200f87878585612614565b9050801561204d5761203487612026600184613714565b600091825260209091200190565b54660100000000000090046001600160d01b0316612050565b60005b979650505050505050565b612063612676565b6005805460ff191690557f5db9ee0a495bf2e6ff9c91a7834c1ba4fdd244a5e8aa4e537bd38aeae4b073aa335b6040516001600160a01b03909116815260200160405180910390a1565b600080838301848110156120c85760008092509250506120cf565b6001925090505b9250929050565b6001600160a01b0382166121005760405163ec442f0560e01b815260006004820152602401610e65565b6110b7600083836124cc565b6001600160a01b03821661213657604051634b637e8f60e11b815260006004820152602401610e65565b6110b7826000836124cc565b6000610de643611f6b565b6001600160a01b038281166000818152600a6020526040808220805486861673ffffffffffffffffffffffffffffffffffffffff19821681179092559151919094169392849290917f3134e8a2e6d97e929a7e54011ea5485d7d196dd5f0ba4d4ef95803e8e3fc257f9190a4610e1e81836121c78661269b565b6126b9565b6001600160a01b0381166000908152600b6020526040812054610c7e90612825565b6001600160a01b038116600090815260086020526040812054610c7e565b612214612856565b6005805460ff191660011790557f62e78cea01bee320cd4e420270b5ea74000d11b0c9f74754ebdbfc544b05a2586120903390565b6060610de67f0000000000000000000000000000000000000000000000000000000000000000600661287a565b6060610de67f0000000000000000000000000000000000000000000000000000000000000000600761287a565b805460009080156119a6576122bd83612026600184613714565b54660100000000000090046001600160d01b03166119a9565b6000610c7e6122e3611e40565b8360405161190160f01b8152600281019290925260228201526042902090565b60008060008061231588888888612925565b92509250925061232582826129f4565b50909695505050505050565b6001600160a01b0382166000908152600860205260409020805460018101909155818114610e1e576040516301d4b62360e61b81526001600160a01b038416600482015260248101829052604401610e65565b60408051808201909152600080825260208201526001600160a01b0383166000908152600b602052604090206119a99083612aad565b6002600d54036123dd57604051633ee5aeb560e01b815260040160405180910390fd5b6002600d55565b6000806123f081611d01565b4791505090565b6001600160a01b0384166124215760405163e602df0560e01b815260006004820152602401610e65565b6001600160a01b03831661244b57604051634a1406b160e11b815260006004820152602401610e65565b6001600160a01b0380851660009081526001602090815260408083209387168352929052208290558015610d7757826001600160a01b0316846001600160a01b03167f8c5be1e5ebec7d5bd14f71427d1e84f3dd0314c0f7b2291e5b200ac8c7c3b925846040516124be91815260200190565b60405180910390a350505050565b610e1e838383612b20565b60008281526009602090815260408083206001600160a01b038516845290915290205460ff166110b75760405163e2517d3f60e01b81526001600160a01b038216600482015260248101839052604401610e65565b60008160000361253e57506000919050565b6000600161254b84612b87565b901c6001901b90506001818481612564576125646137a6565b048201901c9050600181848161257c5761257c6137a6565b048201901c90506001818481612594576125946137a6565b048201901c905060018184816125ac576125ac6137a6565b048201901c905060018184816125c4576125c46137a6565b048201901c905060018184816125dc576125dc6137a6565b048201901c905060018184816125f4576125f46137a6565b048201901c90506119a98182858161260e5761260e6137a6565b04612c1b565b60005b8183101561266e57600061262b8484612c31565b60008781526020902090915065ffffffffffff86169082015465ffffffffffff16111561265a57809250612668565b612665816001613701565b93505b50612617565b509392505050565b60055460ff1661269957604051638dfc202b60e01b815260040160405180910390fd5b565b6001600160a01b038116600090815260208190526040812054610c7e565b816001600160a01b0316836001600160a01b0316141580156126db5750600081115b15610e1e576001600160a01b03831615612783576001600160a01b0383166000908152600b60205260408120819061271e90611c1161271986612c4c565b612c80565b6001600160d01b031691506001600160d01b03169150846001600160a01b03167fdec2bacdd2f05b59de34da9b523dff8be42e5e38e818c82fdb0bae774387a7248383604051612778929190918252602082015260400190565b60405180910390a250505b6001600160a01b03821615610e1e576001600160a01b0382166000908152600b6020526040812081906127bc90611c0561271986612c4c565b6001600160d01b031691506001600160d01b03169150836001600160a01b03167fdec2bacdd2f05b59de34da9b523dff8be42e5e38e818c82fdb0bae774387a7248383604051612816929190918252602082015260400190565b60405180910390a25050505050565b600063ffffffff821115611f9e576040516306dfcc6560e41b81526020600482015260248101839052604401610e65565b60055460ff16156126995760405163d93c066560e01b815260040160405180910390fd5b606060ff83146128945761288d83612cb9565b9050610c7e565b8180546128a09061363d565b80601f01602080910402602001604051908101604052809291908181526020018280546128cc9061363d565b80156129195780601f106128ee57610100808354040283529160200191612919565b820191906000526020600020905b8154815290600101906020018083116128fc57829003601f168201915b50505050509050610c7e565b600080807f7fffffffffffffffffffffffffffffff5d576e7357a4501ddfe92f46681b20a084111561296057506000915060039050826129ea565b604080516000808252602082018084528a905260ff891692820192909252606081018790526080810186905260019060a0016020604051602081039080840390855afa1580156129b4573d6000803e3d6000fd5b5050604051601f1901519150506001600160a01b0381166129e0575060009250600191508290506129ea565b9250600091508190505b9450945094915050565b6000826003811115612a0857612a08613727565b03612a11575050565b6001826003811115612a2557612a25613727565b03612a435760405163f645eedf60e01b815260040160405180910390fd5b6002826003811115612a5757612a57613727565b03612a785760405163fce698f760e01b815260048101829052602401610e65565b6003826003811115612a8c57612a8c613727565b036110b7576040516335e2f38360e21b815260048101829052602401610e65565b6040805180820190915260008082526020820152826000018263ffffffff1681548110612adc57612adc6137bc565b60009182526020918290206040805180820190915291015465ffffffffffff81168252660100000000000090046001600160d01b0316918101919091529392505050565b612b2b838383612cf8565b6001600160a01b038316612b7c576000612b4460025490565b90506001600160d01b0380821115612b7957604051630e58ae9360e11b81526004810183905260248101829052604401610e65565b50505b610e1e838383612d0b565b600080608083901c15612b9c57608092831c92015b604083901c15612bae57604092831c92015b602083901c15612bc057602092831c92015b601083901c15612bd257601092831c92015b600883901c15612be457600892831c92015b600483901c15612bf657600492831c92015b600283901c15612c0857600292831c92015b600183901c15610c7e5760010192915050565b6000818310612c2a57816119a9565b5090919050565b6000612c4060028484186137d2565b6119a990848416613701565b60006001600160d01b03821115611f9e576040516306dfcc6560e41b815260d0600482015260248101839052604401610e65565b600080612cac612c8e61149b565b612ca4612c9a886122a3565b868863ffffffff16565b879190612d81565b915091505b935093915050565b60606000612cc683612d8f565b604080516020808252818301909252919250600091906020820181803683375050509182525060208101929092525090565b612d00612856565b610e1e838383612db7565b6001600160a01b038316612d2d57612d2a600c611c0561271984612c4c565b50505b6001600160a01b038216612d4f57612d4c600c611c1161271984612c4c565b50505b6001600160a01b038381166000908152600a6020526040808220548584168352912054610e1e929182169116836126b9565b600080612cac858585612e20565b600060ff8216601f811115610c7e57604051632cd44ac360e21b815260040160405180910390fd5b612dc2838383612fa6565b6001600160a01b038316610e1e576002547f000000000000000000000000000000000000000000000000000000000000000090818111156110235760405163279e7e1560e21b81526004810182905260248101839052604401610e65565b825460009081908015612f48576000612e3e87612026600185613714565b60408051808201909152905465ffffffffffff80821680845266010000000000009092046001600160d01b031660208401529192509087161015612e9557604051632520601d60e01b815260040160405180910390fd5b805165ffffffffffff808816911603612ee45784612eb888612026600186613714565b80546001600160d01b039290921666010000000000000265ffffffffffff909216919091179055612f38565b6040805180820190915265ffffffffffff80881682526001600160d01b0380881660208085019182528b54600181018d5560008d815291909120945191519092166601000000000000029216919091179101555b602001519250839150612cb19050565b50506040805180820190915265ffffffffffff80851682526001600160d01b0380851660208085019182528854600181018a5560008a8152918220955192519093166601000000000000029190931617920191909155905081612cb1565b6001600160a01b038316612fd1578060026000828254612fc69190613701565b909155506130439050565b6001600160a01b038316600090815260208190526040902054818110156130245760405163391434e360e21b81526001600160a01b03851660048201526024810182905260448101839052606401610e65565b6001600160a01b03841660009081526020819052604090209082900390555b6001600160a01b03821661305f5760028054829003905561307e565b6001600160a01b03821660009081526020819052604090208054820190555b816001600160a01b0316836001600160a01b03167fddf252ad1be2c89b69c2b068fc378daa952ba7f163c4a11628f55a4df523b3ef836040516130c391815260200190565b60405180910390a3505050565b6000602082840312156130e257600080fd5b81356001600160e01b0319811681146119a957600080fd5b6000815180845260005b8181101561312057602081850181015186830182015201613104565b506000602082860101526020601f19601f83011685010191505092915050565b6020815260006119a960208301846130fa565b6001600160a01b0381168114610edb57600080fd5b6000806040838503121561317b57600080fd5b823561318681613153565b946020939093013593505050565b6000806000606084860312156131a957600080fd5b83356131b481613153565b925060208401356131c481613153565b929592945050506040919091013590565b6000602082840312156131e757600080fd5b5035919050565b6000806040838503121561320157600080fd5b82359150602083013561321381613153565b809150509250929050565b60006020828403121561323057600080fd5b81356119a981613153565b60008060008060006080868803121561325357600080fd5b853561325e81613153565b9450602086013561326e81613153565b935060408601359250606086013567ffffffffffffffff8082111561329257600080fd5b818801915088601f8301126132a657600080fd5b8135818111156132b557600080fd5b8960208285010111156132c757600080fd5b9699959850939650602001949392505050565b60ff60f81b881681526000602060e0818401526132fa60e084018a6130fa565b838103604085015261330c818a6130fa565b606085018990526001600160a01b038816608086015260a0850187905284810360c0860152855180825283870192509083019060005b8181101561335e57835183529284019291840191600101613342565b50909c9b505050505050505050505050565b634e487b7160e01b600052604160045260246000fd5b600082601f83011261339757600080fd5b813567ffffffffffffffff808211156133b2576133b2613370565b604051601f8301601f19908116603f011681019082821181831017156133da576133da613370565b816040528381528660208588010111156133f357600080fd5b836020870160208301376000602085830101528094505050505092915050565b60008060006060848603121561342857600080fd5b833567ffffffffffffffff8082111561344057600080fd5b61344c87838801613386565b9450602086013591508082111561346257600080fd5b61346e87838801613386565b9350604086013591508082111561348457600080fd5b5061349186828701613386565b9150509250925092565b600080600080600060a086880312156134b357600080fd5b85356134be81613153565b945060208601356134ce81613153565b93506040860135600381106134e257600080fd5b94979396509394606081013594506080013592915050565b803560ff8116811461350b57600080fd5b919050565b60008060008060008060c0878903121561352957600080fd5b863561353481613153565b95506020870135945060408701359350613550606088016134fa565b92506080870135915060a087013590509295509295509295565b600080600080600080600060e0888a03121561358557600080fd5b873561359081613153565b965060208801356135a081613153565b955060408801359450606088013593506135bc608089016134fa565b925060a0880135915060c0880135905092959891949750929550565b600080604083850312156135eb57600080fd5b82356135f681613153565b9150602083013561321381613153565b6000806040838503121561361957600080fd5b823561362481613153565b9150602083013563ffffffff8116811461321357600080fd5b600181811c9082168061365157607f821691505b60208210810361367157634e487b7160e01b600052602260045260246000fd5b50919050565b60006001600160a01b03808916835280881660208401525085604083015284606083015260a060808301528260a0830152828460c0840137600060c0848401015260c0601f19601f8501168301019050979650505050505050565b6000602082840312156136e457600080fd5b5051919050565b634e487b7160e01b600052601160045260246000fd5b80820180821115610c7e57610c7e6136eb565b81810381811115610c7e57610c7e6136eb565b634e487b7160e01b600052602160045260246000fd5b60006020828403121561374f57600080fd5b815180151581146119a957600080fd5b6001600160d01b0381811683821601908082111561377f5761377f6136eb565b5092915050565b6001600160d01b0382811682821603908082111561377f5761377f6136eb565b634e487b7160e01b600052601260045260246000fd5b634e487b7160e01b600052603260045260246000fd5b6000826137ef57634e487b7160e01b600052601260045260246000fd5b50049056fea26469706673582212201669b07d7094c5998ffd4f26399cd12df3226681df4a82d3333e6f37a01e1c2f64736f6c63430008140033dec2bacdd2f05b59de34da9b523dff8be42e5e38e818c82fdb0bae774387a724",
  "linkReferences": {},
  "deployedLinkReferences": {}
}