{
  "_format": "hh-sol-artifact-1",
  "contractName": "JWLXTKN",
  "sourceName": "contracts/JWLXTKN.sol",
  "abi": [
    {
      "inputs": [
        {
          "internalType": "string",
          "name": "_name",
          "type": "string"
        },
        {
          "internalType": "string",
          "name": "_symbol",
          "type": "string"
        },
        {
          "internalType": "uint256",
          "name": "_initialSupply",
          "type": "uint256"
        },
        {
          "internalType": "uint256",
          "name": "_maximumSupply",
          "type": "uint256"
        },
        {
          "internalType": "address",
          "name": "_initialAuthority",
          "type": "address"
        }
      ],
      "stateMutability": "payable",
      "type": "constructor"
    },
    {
      "inputs": [],
      "name": "AccessControlBadConfirmation",
      "type": "error"
    },
    {
      "inputs": [
        {
          "internalType": "address",
          "name": "account",
          "type": "address"
        },
        {
          "internalType": "bytes32",
          "name": "neededRole",
          "type": "bytes32"
        }
      ],
      "name": "AccessControlUnauthorizedAccount",
      "type": "error"
    },
    {
      "inputs": [],
      "name": "CheckpointUnorderedInsertion",
      "type": "error"
    },
    {
      "inputs": [],
      "name": "ECDSAInvalidSignature",
      "type": "error"
    },
    {
      "inputs": [
        {
          "internalType": "uint256",
          "name": "length",
          "type": "uint256"
        }
      ],
      "name": "ECDSAInvalidSignatureLength",
      "type": "error"
    },
    {
      "inputs": [
        {
          "internalType": "bytes32",
          "name": "s",
          "type": "bytes32"
        }
      ],
      "name": "ECDSAInvalidSignatureS",
      "type": "error"
    },
    {
      "inputs": [
        {
          "internalType": "uint256",
          "name": "increasedSupply",
          "type": "uint256"
        },
        {
          "internalType": "uint256",
          "name": "cap",
          "type": "uint256"
        }
      ],
      "name": "ERC20ExceededCap",
      "type": "error"
    },
    {
      "inputs": [
        {
          "internalType": "uint256",
          "name": "increasedSupply",
          "type": "uint256"
        },
        {
          "internalType": "uint256",
          "name": "cap",
          "type": "uint256"
        }
      ],
      "name": "ERC20ExceededSafeSupply",
      "type": "error"
    },
    {
      "inputs": [
        {
          "internalType": "address",
          "name": "spender",
          "type": "address"
        },
        {
          "internalType": "uint256",
          "name": "allowance",
          "type": "uint256"
        },
        {
          "internalType": "uint256",
          "name": "needed",
          "type": "uint256"
        }
      ],
      "name": "ERC20InsufficientAllowance",
      "type": "error"
    },
    {
      "inputs": [
        {
          "internalType": "address",
          "name": "sender",
          "type": "address"
        },
        {
          "internalType": "uint256",
          "name": "balance",
          "type": "uint256"
        },
        {
          "internalType": "uint256",
          "name": "needed",
          "type": "uint256"
        }
      ],
      "name": "ERC20InsufficientBalance",
      "type": "error"
    },
    {
      "inputs": [
        {
          "internalType": "address",
          "name": "approver",
          "type": "address"
        }
      ],
      "name": "ERC20InvalidApprover",
      "type": "error"
    },
    {
      "inputs": [
        {
          "internalType": "uint256",
          "name": "cap",
          "type": "uint256"
        }
      ],
      "name": "ERC20InvalidCap",
      "type": "error"
    },
    {
      "inputs": [
        {
          "internalType": "address",
          "name": "receiver",
          "type": "address"
        }
      ],
      "name": "ERC20InvalidReceiver",
      "type": "error"
    },
    {
      "inputs": [
        {
          "internalType": "address",
          "name": "sender",
          "type": "address"
        }
      ],
      "name": "ERC20InvalidSender",
      "type": "error"
    },
    {
      "inputs": [
        {
          "internalType": "address",
          "name": "spender",
          "type": "address"
        }
      ],
      "name": "ERC20InvalidSpender",
      "type": "error"
    },
    {
      "inputs": [
        {
          "internalType": "uint256",
          "name": "deadline",
          "type": "uint256"
        }
      ],
      "name": "ERC2612ExpiredSignature",
      "type": "error"
    },
    {
      "inputs": [
        {
          "internalType": "address",
          "name": "signer",
          "type": "address"
        },
        {
          "internalType": "address",
          "name": "owner",
          "type": "address"
        }
      ],
      "name": "ERC2612InvalidSigner",
      "type": "error"
    },
    {
      "inputs": [
        {
          "internalType": "uint256",
          "name": "maxLoan",
          "type": "uint256"
        }
      ],
      "name": "ERC3156ExceededMaxLoan",
      "type": "error"
    },
    {
      "inputs": [
        {
          "internalType": "address",
          "name": "receiver",
          "type": "address"
        }
      ],
      "name": "ERC3156InvalidReceiver",
      "type": "error"
    },
    {
      "inputs": [
        {
          "internalType": "address",
          "name": "token",
          "type": "address"
        }
      ],
      "name": "ERC3156UnsupportedToken",
      "type": "error"
    },
    {
      "inputs": [
        {
          "internalType": "uint256",
          "name": "timepoint",
          "type": "uint256"
        },
        {
          "internalType": "uint48",
          "name": "clock",
          "type": "uint48"
        }
      ],
      "name": "ERC5805FutureLookup",
      "type": "error"
    },
    {
      "inputs": [],
      "name": "ERC6372InconsistentClock",
      "type": "error"
    },
    {
      "inputs": [],
      "name": "EnforcedPause",
      "type": "error"
    },
    {
      "inputs": [],
      "name": "ExpectedPause",
      "type": "error"
    },
    {
      "inputs": [
        {
          "internalType": "address",
          "name": "account",
          "type": "address"
        },
        {
          "internalType": "uint256",
          "name": "currentNonce",
          "type": "uint256"
        }
      ],
      "name": "InvalidAccountNonce",
      "type": "error"
    },
    {
      "inputs": [],
      "name": "InvalidShortString",
      "type": "error"
    },
    {
      "inputs": [],
      "name": "ReentrancyGuardReentrantCall",
      "type": "error"
    },
    {
      "inputs": [
        {
          "internalType": "uint8",
          "name": "bits",
          "type": "uint8"
        },
        {
          "internalType": "uint256",
          "name": "value",
          "type": "uint256"
        }
      ],
      "name": "SafeCastOverflowedUintDowncast",
      "type": "error"
    },
    {
      "inputs": [
        {
          "internalType": "string",
          "name": "str",
          "type": "string"
        }
      ],
      "name": "StringTooLong",
      "type": "error"
    },
    {
      "inputs": [
        {
          "internalType": "uint256",
          "name": "expiry",
          "type": "uint256"
        }
      ],
      "name": "VotesExpiredSignature",
      "type": "error"
    },
    {
      "anonymous": false,
      "inputs": [
        {
          "indexed": true,
          "internalType": "address",
          "name": "owner",
          "type": "address"
        },
        {
          "indexed": true,
          "internalType": "address",
          "name": "spender",
          "type": "address"
        },
        {
          "indexed": false,
          "internalType": "uint256",
          "name": "value",
          "type": "uint256"
        }
      ],
      "name": "Approval",
      "type": "event"
    },
    {
      "anonymous": false,
      "inputs": [
        {
          "indexed": true,
          "internalType": "address",
          "name": "delegator",
          "type": "address"
        },
        {
          "indexed": true,
          "internalType": "address",
          "name": "fromDelegate",
          "type": "address"
        },
        {
          "indexed": true,
          "internalType": "address",
          "name": "toDelegate",
          "type": "address"
        }
      ],
      "name": "DelegateChanged",
      "type": "event"
    },
    {
      "anonymous": false,
      "inputs": [
        {
          "indexed": true,
          "internalType": "address",
          "name": "delegate",
          "type": "address"
        },
        {
          "indexed": false,
          "internalType": "uint256",
          "name": "previousVotes",
          "type": "uint256"
        },
        {
          "indexed": false,
          "internalType": "uint256",
          "name": "newVotes",
          "type": "uint256"
        }
      ],
      "name": "DelegateVotesChanged",
      "type": "event"
    },
    {
      "anonymous": false,
      "inputs": [],
      "name": "EIP712DomainChanged",
      "type": "event"
    },
    {
      "anonymous": false,
      "inputs": [
        {
          "indexed": false,
          "internalType": "string",
          "name": "func",
          "type": "string"
        },
        {
          "indexed": false,
          "internalType": "uint256",
          "name": "gas",
          "type": "uint256"
        }
      ],
      "name": "Log",
      "type": "event"
    },
    {
      "anonymous": false,
      "inputs": [
        {
          "indexed": false,
          "internalType": "address",
          "name": "account",
          "type": "address"
        }
      ],
      "name": "Paused",
      "type": "event"
    },
    {
      "anonymous": false,
      "inputs": [
        {
          "indexed": false,
          "internalType": "address",
          "name": "",
          "type": "address"
        },
        {
          "indexed": false,
          "internalType": "uint256",
          "name": "",
          "type": "uint256"
        }
      ],
      "name": "Received",
      "type": "event"
    },
    {
      "anonymous": false,
      "inputs": [
        {
          "indexed": true,
          "internalType": "bytes32",
          "name": "role",
          "type": "bytes32"
        },
        {
          "indexed": true,
          "internalType": "bytes32",
          "name": "previousAdminRole",
          "type": "bytes32"
        },
        {
          "indexed": true,
          "internalType": "bytes32",
          "name": "newAdminRole",
          "type": "bytes32"
        }
      ],
      "name": "RoleAdminChanged",
      "type": "event"
    },
    {
      "anonymous": false,
      "inputs": [
        {
          "indexed": true,
          "internalType": "bytes32",
          "name": "role",
          "type": "bytes32"
        },
        {
          "indexed": true,
          "internalType": "address",
          "name": "account",
          "type": "address"
        },
        {
          "indexed": true,
          "internalType": "address",
          "name": "sender",
          "type": "address"
        }
      ],
      "name": "RoleGranted",
      "type": "event"
    },
    {
      "anonymous": false,
      "inputs": [
        {
          "indexed": true,
          "internalType": "bytes32",
          "name": "role",
          "type": "bytes32"
        },
        {
          "indexed": true,
          "internalType": "address",
          "name": "account",
          "type": "address"
        },
        {
          "indexed": true,
          "internalType": "address",
          "name": "sender",
          "type": "address"
        }
      ],
      "name": "RoleRevoked",
      "type": "event"
    },
    {
      "anonymous": false,
      "inputs": [
        {
          "indexed": true,
          "internalType": "address",
          "name": "from",
          "type": "address"
        },
        {
          "indexed": true,
          "internalType": "address",
          "name": "to",
          "type": "address"
        },
        {
          "indexed": false,
          "internalType": "uint256",
          "name": "value",
          "type": "uint256"
        }
      ],
      "name": "Transfer",
      "type": "event"
    },
    {
      "anonymous": false,
      "inputs": [
        {
          "indexed": false,
          "internalType": "address",
          "name": "account",
          "type": "address"
        }
      ],
      "name": "Unpaused",
      "type": "event"
    },
    {
      "inputs": [],
      "name": "CLOCK_MODE",
      "outputs": [
        {
          "internalType": "string",
          "name": "",
          "type": "string"
        }
      ],
      "stateMutability": "view",
      "type": "function"
    },
    {
      "inputs": [],
      "name": "DEFAULT_ADMIN_ROLE",
      "outputs": [
        {
          "internalType": "bytes32",
          "name": "",
          "type": "bytes32"
        }
      ],
      "stateMutability": "view",
      "type": "function"
    },
    {
      "inputs": [],
      "name": "DOMAIN_SEPARATOR",
      "outputs": [
        {
          "internalType": "bytes32",
          "name": "",
          "type": "bytes32"
        }
      ],
      "stateMutability": "view",
      "type": "function"
    },
    {
      "inputs": [],
      "name": "EXECUTOR_ROLE",
      "outputs": [
        {
          "internalType": "bytes32",
          "name": "",
          "type": "bytes32"
        }
      ],
      "stateMutability": "view",
      "type": "function"
    },
    {
      "inputs": [],
      "name": "MANAGER_ROLE",
      "outputs": [
        {
          "internalType": "bytes32",
          "name": "",
          "type": "bytes32"
        }
      ],
      "stateMutability": "view",
      "type": "function"
    },
    {
      "inputs": [],
      "name": "MINTER_ROLE",
      "outputs": [
        {
          "internalType": "bytes32",
          "name": "",
          "type": "bytes32"
        }
      ],
      "stateMutability": "view",
      "type": "function"
    },
    {
      "inputs": [],
      "name": "PAUSER_ROLE",
      "outputs": [
        {
          "internalType": "bytes32",
          "name": "",
          "type": "bytes32"
        }
      ],
      "stateMutability": "view",
      "type": "function"
    },
    {
      "inputs": [
        {
          "internalType": "address",
          "name": "owner",
          "type": "address"
        },
        {
          "internalType": "address",
          "name": "spender",
          "type": "address"
        }
      ],
      "name": "allowance",
      "outputs": [
        {
          "internalType": "uint256",
          "name": "",
          "type": "uint256"
        }
      ],
      "stateMutability": "view",
      "type": "function"
    },
    {
      "inputs": [
        {
          "internalType": "address",
          "name": "spender",
          "type": "address"
        },
        {
          "internalType": "uint256",
          "name": "value",
          "type": "uint256"
        }
      ],
      "name": "approve",
      "outputs": [
        {
          "internalType": "bool",
          "name": "",
          "type": "bool"
        }
      ],
      "stateMutability": "nonpayable",
      "type": "function"
    },
    {
      "inputs": [
        {
          "internalType": "bytes32",
          "name": "role",
          "type": "bytes32"
        },
        {
          "internalType": "address",
          "name": "account",
          "type": "address"
        }
      ],
      "name": "assignRole",
      "outputs": [],
      "stateMutability": "nonpayable",
      "type": "function"
    },
    {
      "inputs": [
        {
          "internalType": "address",
          "name": "account",
          "type": "address"
        }
      ],
      "name": "balanceOf",
      "outputs": [
        {
          "internalType": "uint256",
          "name": "",
          "type": "uint256"
        }
      ],
      "stateMutability": "view",
      "type": "function"
    },
    {
      "inputs": [
        {
          "internalType": "uint256",
          "name": "value",
          "type": "uint256"
        }
      ],
      "name": "burn",
      "outputs": [],
      "stateMutability": "nonpayable",
      "type": "function"
    },
    {
      "inputs": [
        {
          "internalType": "address",
          "name": "account",
          "type": "address"
        },
        {
          "internalType": "uint256",
          "name": "value",
          "type": "uint256"
        }
      ],
      "name": "burnFrom",
      "outputs": [],
      "stateMutability": "nonpayable",
      "type": "function"
    },
    {
      "inputs": [
        {
          "internalType": "address payable",
          "name": "_to",
          "type": "address"
        }
      ],
      "name": "callFallback",
      "outputs": [],
      "stateMutability": "payable",
      "type": "function"
    },
    {
      "inputs": [],
      "name": "cap",
      "outputs": [
        {
          "internalType": "uint256",
          "name": "",
          "type": "uint256"
        }
      ],
      "stateMutability": "view",
      "type": "function"
    },
    {
      "inputs": [
        {
          "internalType": "address",
          "name": "account",
          "type": "address"
        },
        {
          "internalType": "uint32",
          "name": "pos",
          "type": "uint32"
        }
      ],
      "name": "checkpoints",
      "outputs": [
        {
          "components": [
            {
              "internalType": "uint48",
              "name": "_key",
              "type": "uint48"
            },
            {
              "internalType": "uint208",
              "name": "_value",
              "type": "uint208"
            }
          ],
          "internalType": "struct Checkpoints.Checkpoint208",
          "name": "",
          "type": "tuple"
        }
      ],
      "stateMutability": "view",
      "type": "function"
    },
    {
      "inputs": [],
      "name": "clock",
      "outputs": [
        {
          "internalType": "uint48",
          "name": "",
          "type": "uint48"
        }
      ],
      "stateMutability": "view",
      "type": "function"
    },
    {
      "inputs": [],
      "name": "contractOptionIsBurnable",
      "outputs": [
        {
          "internalType": "bool",
          "name": "",
          "type": "bool"
        }
      ],
      "stateMutability": "view",
      "type": "function"
    },
    {
      "inputs": [],
      "name": "contractOptionIsMintable",
      "outputs": [
        {
          "internalType": "bool",
          "name": "",
          "type": "bool"
        }
      ],
      "stateMutability": "view",
      "type": "function"
    },
    {
      "inputs": [],
      "name": "contractOptionIsPausable",
      "outputs": [
        {
          "internalType": "bool",
          "name": "",
          "type": "bool"
        }
      ],
      "stateMutability": "view",
      "type": "function"
    },
    {
      "inputs": [],
      "name": "contractOptionIsSnapshotable",
      "outputs": [
        {
          "internalType": "bool",
          "name": "",
          "type": "bool"
        }
      ],
      "stateMutability": "view",
      "type": "function"
    },
    {
      "inputs": [],
      "name": "contractTreasury",
      "outputs": [
        {
          "internalType": "address payable",
          "name": "",
          "type": "address"
        }
      ],
      "stateMutability": "view",
      "type": "function"
    },
    {
      "inputs": [],
      "name": "contractURI",
      "outputs": [
        {
          "internalType": "string",
          "name": "",
          "type": "string"
        }
      ],
      "stateMutability": "view",
      "type": "function"
    },
    {
      "inputs": [],
      "name": "decimals",
      "outputs": [
        {
          "internalType": "uint8",
          "name": "",
          "type": "uint8"
        }
      ],
      "stateMutability": "view",
      "type": "function"
    },
    {
      "inputs": [
        {
          "internalType": "address",
          "name": "delegatee",
          "type": "address"
        }
      ],
      "name": "delegate",
      "outputs": [],
      "stateMutability": "nonpayable",
      "type": "function"
    },
    {
      "inputs": [
        {
          "internalType": "address",
          "name": "delegatee",
          "type": "address"
        },
        {
          "internalType": "uint256",
          "name": "nonce",
          "type": "uint256"
        },
        {
          "internalType": "uint256",
          "name": "expiry",
          "type": "uint256"
        },
        {
          "internalType": "uint8",
          "name": "v",
          "type": "uint8"
        },
        {
          "internalType": "bytes32",
          "name": "r",
          "type": "bytes32"
        },
        {
          "internalType": "bytes32",
          "name": "s",
          "type": "bytes32"
        }
      ],
      "name": "delegateBySig",
      "outputs": [],
      "stateMutability": "nonpayable",
      "type": "function"
    },
    {
      "inputs": [
        {
          "internalType": "address",
          "name": "account",
          "type": "address"
        }
      ],
      "name": "delegates",
      "outputs": [
        {
          "internalType": "address",
          "name": "",
          "type": "address"
        }
      ],
      "stateMutability": "view",
      "type": "function"
    },
    {
      "inputs": [],
      "name": "eip712Domain",
      "outputs": [
        {
          "internalType": "bytes1",
          "name": "fields",
          "type": "bytes1"
        },
        {
          "internalType": "string",
          "name": "name",
          "type": "string"
        },
        {
          "internalType": "string",
          "name": "version",
          "type": "string"
        },
        {
          "internalType": "uint256",
          "name": "chainId",
          "type": "uint256"
        },
        {
          "internalType": "address",
          "name": "verifyingContract",
          "type": "address"
        },
        {
          "internalType": "bytes32",
          "name": "salt",
          "type": "bytes32"
        },
        {
          "internalType": "uint256[]",
          "name": "extensions",
          "type": "uint256[]"
        }
      ],
      "stateMutability": "view",
      "type": "function"
    },
    {
      "inputs": [
        {
          "internalType": "string",
          "name": "functionName",
          "type": "string"
        },
        {
          "internalType": "string",
          "name": "param1",
          "type": "string"
        },
        {
          "internalType": "string",
          "name": "param2",
          "type": "string"
        }
      ],
      "name": "executeFunction",
      "outputs": [],
      "stateMutability": "nonpayable",
      "type": "function"
    },
    {
      "inputs": [
        {
          "internalType": "address",
          "name": "token",
          "type": "address"
        },
        {
          "internalType": "uint256",
          "name": "value",
          "type": "uint256"
        }
      ],
      "name": "flashFee",
      "outputs": [
        {
          "internalType": "uint256",
          "name": "",
          "type": "uint256"
        }
      ],
      "stateMutability": "view",
      "type": "function"
    },
    {
      "inputs": [
        {
          "internalType": "contract IERC3156FlashBorrower",
          "name": "receiver",
          "type": "address"
        },
        {
          "internalType": "address",
          "name": "token",
          "type": "address"
        },
        {
          "internalType": "uint256",
          "name": "value",
          "type": "uint256"
        },
        {
          "internalType": "bytes",
          "name": "data",
          "type": "bytes"
        }
      ],
      "name": "flashLoan",
      "outputs": [
        {
          "internalType": "bool",
          "name": "",
          "type": "bool"
        }
      ],
      "stateMutability": "nonpayable",
      "type": "function"
    },
    {
      "inputs": [
        {
          "internalType": "uint256",
          "name": "timepoint",
          "type": "uint256"
        }
      ],
      "name": "getPastTotalSupply",
      "outputs": [
        {
          "internalType": "uint256",
          "name": "",
          "type": "uint256"
        }
      ],
      "stateMutability": "view",
      "type": "function"
    },
    {
      "inputs": [
        {
          "internalType": "address",
          "name": "account",
          "type": "address"
        },
        {
          "internalType": "uint256",
          "name": "timepoint",
          "type": "uint256"
        }
      ],
      "name": "getPastVotes",
      "outputs": [
        {
          "internalType": "uint256",
          "name": "",
          "type": "uint256"
        }
      ],
      "stateMutability": "view",
      "type": "function"
    },
    {
      "inputs": [
        {
          "internalType": "bytes32",
          "name": "role",
          "type": "bytes32"
        }
      ],
      "name": "getRoleAdmin",
      "outputs": [
        {
          "internalType": "bytes32",
          "name": "",
          "type": "bytes32"
        }
      ],
      "stateMutability": "view",
      "type": "function"
    },
    {
      "inputs": [
        {
          "internalType": "address",
          "name": "account",
          "type": "address"
        }
      ],
      "name": "getVotes",
      "outputs": [
        {
          "internalType": "uint256",
          "name": "",
          "type": "uint256"
        }
      ],
      "stateMutability": "view",
      "type": "function"
    },
    {
      "inputs": [
        {
          "internalType": "bytes32",
          "name": "role",
          "type": "bytes32"
        },
        {
          "internalType": "address",
          "name": "account",
          "type": "address"
        }
      ],
      "name": "grantRole",
      "outputs": [],
      "stateMutability": "nonpayable",
      "type": "function"
    },
    {
      "inputs": [
        {
          "internalType": "bytes32",
          "name": "role",
          "type": "bytes32"
        },
        {
          "internalType": "address",
          "name": "account",
          "type": "address"
        }
      ],
      "name": "hasRole",
      "outputs": [
        {
          "internalType": "bool",
          "name": "",
          "type": "bool"
        }
      ],
      "stateMutability": "view",
      "type": "function"
    },
    {
      "inputs": [
        {
          "internalType": "address",
          "name": "token",
          "type": "address"
        }
      ],
      "name": "maxFlashLoan",
      "outputs": [
        {
          "internalType": "uint256",
          "name": "",
          "type": "uint256"
        }
      ],
      "stateMutability": "view",
      "type": "function"
    },
    {
      "inputs": [
        {
          "internalType": "address",
          "name": "to",
          "type": "address"
        },
        {
          "internalType": "uint256",
          "name": "amount",
          "type": "uint256"
        }
      ],
      "name": "mint",
      "outputs": [],
      "stateMutability": "nonpayable",
      "type": "function"
    },
    {
      "inputs": [],
      "name": "name",
      "outputs": [
        {
          "internalType": "string",
          "name": "",
          "type": "string"
        }
      ],
      "stateMutability": "view",
      "type": "function"
    },
    {
      "inputs": [
        {
          "internalType": "address",
          "name": "owner",
          "type": "address"
        }
      ],
      "name": "nonces",
      "outputs": [
        {
          "internalType": "uint256",
          "name": "",
          "type": "uint256"
        }
      ],
      "stateMutability": "view",
      "type": "function"
    },
    {
      "inputs": [
        {
          "internalType": "address",
          "name": "account",
          "type": "address"
        }
      ],
      "name": "numCheckpoints",
      "outputs": [
        {
          "internalType": "uint32",
          "name": "",
          "type": "uint32"
        }
      ],
      "stateMutability": "view",
      "type": "function"
    },
    {
      "inputs": [],
      "name": "pause",
      "outputs": [],
      "stateMutability": "nonpayable",
      "type": "function"
    },
    {
      "inputs": [],
      "name": "paused",
      "outputs": [
        {
          "internalType": "bool",
          "name": "",
          "type": "bool"
        }
      ],
      "stateMutability": "view",
      "type": "function"
    },
    {
      "inputs": [
        {
          "internalType": "address",
          "name": "owner",
          "type": "address"
        },
        {
          "internalType": "address",
          "name": "spender",
          "type": "address"
        },
        {
          "internalType": "uint256",
          "name": "value",
          "type": "uint256"
        },
        {
          "internalType": "uint256",
          "name": "deadline",
          "type": "uint256"
        },
        {
          "internalType": "uint8",
          "name": "v",
          "type": "uint8"
        },
        {
          "internalType": "bytes32",
          "name": "r",
          "type": "bytes32"
        },
        {
          "internalType": "bytes32",
          "name": "s",
          "type": "bytes32"
        }
      ],
      "name": "permit",
      "outputs": [],
      "stateMutability": "nonpayable",
      "type": "function"
    },
    {
      "inputs": [
        {
          "internalType": "address",
          "name": "_token",
          "type": "address"
        },
        {
          "internalType": "address",
          "name": "_account",
          "type": "address"
        },
        {
          "internalType": "enum Enums.TokenStandards",
          "name": "_standard",
          "type": "uint8"
        },
        {
          "internalType": "uint256",
          "name": "_amount",
          "type": "uint256"
        },
        {
          "internalType": "uint256",
          "name": "_tokenId",
          "type": "uint256"
        }
      ],
      "name": "recoverTokens",
      "outputs": [],
      "stateMutability": "nonpayable",
      "type": "function"
    },
    {
      "inputs": [
        {
          "internalType": "bytes32",
          "name": "role",
          "type": "bytes32"
        },
        {
          "internalType": "address",
          "name": "callerConfirmation",
          "type": "address"
        }
      ],
      "name": "renounceRole",
      "outputs": [],
      "stateMutability": "nonpayable",
      "type": "function"
    },
    {
      "inputs": [
        {
          "internalType": "bytes32",
          "name": "role",
          "type": "bytes32"
        },
        {
          "internalType": "address",
          "name": "account",
          "type": "address"
        }
      ],
      "name": "revokeRole",
      "outputs": [],
      "stateMutability": "nonpayable",
      "type": "function"
    },
    {
      "inputs": [
        {
          "internalType": "address",
          "name": "_to",
          "type": "address"
        },
        {
          "internalType": "uint256",
          "name": "_amount",
          "type": "uint256"
        }
      ],
      "name": "safeJWLXTransfer",
      "outputs": [],
      "stateMutability": "nonpayable",
      "type": "function"
    },
    {
      "inputs": [
        {
          "internalType": "bytes4",
          "name": "interfaceId",
          "type": "bytes4"
        }
      ],
      "name": "supportsInterface",
      "outputs": [
        {
          "internalType": "bool",
          "name": "",
          "type": "bool"
        }
      ],
      "stateMutability": "view",
      "type": "function"
    },
    {
      "inputs": [],
      "name": "symbol",
      "outputs": [
        {
          "internalType": "string",
          "name": "",
          "type": "string"
        }
      ],
      "stateMutability": "view",
      "type": "function"
    },
    {
      "inputs": [],
      "name": "tokenMaximumSupply",
      "outputs": [
        {
          "internalType": "uint256",
          "name": "",
          "type": "uint256"
        }
      ],
      "stateMutability": "view",
      "type": "function"
    },
    {
      "inputs": [],
      "name": "tokenTotalSupply",
      "outputs": [
        {
          "internalType": "uint256",
          "name": "",
          "type": "uint256"
        }
      ],
      "stateMutability": "view",
      "type": "function"
    },
    {
      "inputs": [],
      "name": "totalSupply",
      "outputs": [
        {
          "internalType": "uint256",
          "name": "",
          "type": "uint256"
        }
      ],
      "stateMutability": "view",
      "type": "function"
    },
    {
      "inputs": [
        {
          "internalType": "address",
          "name": "to",
          "type": "address"
        },
        {
          "internalType": "uint256",
          "name": "value",
          "type": "uint256"
        }
      ],
      "name": "transfer",
      "outputs": [
        {
          "internalType": "bool",
          "name": "",
          "type": "bool"
        }
      ],
      "stateMutability": "nonpayable",
      "type": "function"
    },
    {
      "inputs": [
        {
          "internalType": "address",
          "name": "from",
          "type": "address"
        },
        {
          "internalType": "address",
          "name": "to",
          "type": "address"
        },
        {
          "internalType": "uint256",
          "name": "value",
          "type": "uint256"
        }
      ],
      "name": "transferFrom",
      "outputs": [
        {
          "internalType": "bool",
          "name": "",
          "type": "bool"
        }
      ],
      "stateMutability": "nonpayable",
      "type": "function"
    },
    {
      "inputs": [
        {
          "internalType": "address payable",
          "name": "_to",
          "type": "address"
        }
      ],
      "name": "transferToFallback",
      "outputs": [],
      "stateMutability": "payable",
      "type": "function"
    },
    {
      "inputs": [],
      "name": "unpause",
      "outputs": [],
      "stateMutability": "nonpayable",
      "type": "function"
    },
    {
      "inputs": [
        {
          "internalType": "address",
          "name": "_newContractTreasury",
          "type": "address"
        }
      ],
      "name": "updateContractTreasury",
      "outputs": [],
      "stateMutability": "nonpayable",
      "type": "function"
    },
    {
      "inputs": [
        {
          "internalType": "address",
          "name": "to",
          "type": "address"
        },
        {
          "internalType": "uint256",
          "name": "value",
          "type": "uint256"
        }
      ],
      "name": "withdraw",
      "outputs": [],
      "stateMutability": "payable",
      "type": "function"
    }
  ],
  "bytecode": "0x6101806040819052600e80546001600160a01b031916730bcebd6ce292721408ea6a40c9f1fa04c8befa9a17905562004917388190039081908339810160408190526200004c9162000c11565b84848484848480604051806040016040528060018152602001603160f81b81525084670de0b6b3a764000062000083919062000cc9565b8888600362000093838262000d73565b506004620000a2828262000d73565b50505080600003620000cf5760405163392e1e2760e01b8152600060048201526024015b60405180910390fd5b6080526005805460ff19169055620000e98260066200029d565b61014052620000fa8160076200029d565b61016052815160208084019190912061010052815190820120610120524660c0526200018a6101005161012051604080517f8b73c3c69bb8fe3d512ecc4cf759cc79239f7b179b0ffacaa9a75d522b39400f60208201529081019290925260608201524660808201523060a082015260009060c00160405160208183030381529060405280519060200120905090565b60a05250503060e052506001600d556001600160a01b038116620001ab5750335b620001ca81620001c485670de0b6b3a764000062000cc9565b620002d6565b620001de83670de0b6b3a764000062000cc9565b601155620001f582670de0b6b3a764000062000cc9565b6010556200020560008262000314565b50620002327f65d7a28e3265b37a6474929f336521b332c1681b933f6cb9f3376673440d862a8262000314565b506200025f7f9f2df0fed2c77648de5860a4cc508cd0818c85b8b8a1ab4ceeef8d981c8956a68262000314565b506200028c7f241ecf16d79d0f8dbfb92cbc07fe17840425976cf0667f022fe9877caa831b088262000314565b505050505050505050505062000f12565b6000602083511015620002bd57620002b583620003c6565b9050620002d0565b81620002ca848262000d73565b5060ff90505b92915050565b6001600160a01b038216620003025760405163ec442f0560e01b815260006004820152602401620000c6565b620003106000838362000409565b5050565b60008281526009602090815260408083206001600160a01b038516845290915281205460ff16620003bd5760008381526009602090815260408083206001600160a01b03861684529091529020805460ff19166001179055620003743390565b6001600160a01b0316826001600160a01b0316847f2f8788117e7eff1d82e926ec794901d17c78024a50270940304540a733656f0d60405160405180910390a4506001620002d0565b506000620002d0565b600080829050601f81511115620003f4578260405163305a27a960e01b8152600401620000c6919062000e3f565b8051620004018262000e74565b179392505050565b620004168383836200041b565b505050565b620004288383836200048a565b6001600160a01b0383166200047d5760006200044360025490565b90506001600160d01b03808211156200047a57604051630e58ae9360e11b81526004810183905260248101829052604401620000c6565b50505b62000416838383620004a1565b6200049462000539565b6200041683838362000560565b6001600160a01b038316620004d657620004d3600c62001c76620005cc60201b17620004cd84620005e1565b6200061b565b50505b6001600160a01b038216620005055762000502600c62001c826200065860201b17620004cd84620005e1565b50505b6001600160a01b038381166000908152600a6020526040808220548584168352912054620004169291821691168362000666565b60055460ff16156200055e5760405163d93c066560e01b815260040160405180910390fd5b565b6200056d838383620007cd565b6001600160a01b038316620004165760006200058860805190565b905060006200059660025490565b905081811115620005c55760405163279e7e1560e21b81526004810182905260248101839052604401620000c6565b5050505050565b6000620005da828462000e99565b9392505050565b60006001600160d01b0382111562000617576040516306dfcc6560e41b815260d0600482015260248101839052604401620000c6565b5090565b6000806200064b6200062c62000900565b620006426200063b8862000911565b868860201c565b87919062000960565b915091505b935093915050565b6000620005da828462000ec3565b816001600160a01b0316836001600160a01b031614158015620006895750600081115b1562000416576001600160a01b038316156200072c576001600160a01b0383166000908152600b6020908152604082208291620006d7919062000658901b62001c8217620004cd86620005e1565b6001600160d01b031691506001600160d01b03169150846001600160a01b0316600080516020620048f7833981519152838360405162000721929190918252602082015260400190565b60405180910390a250505b6001600160a01b0382161562000416576001600160a01b0382166000908152600b6020908152604082208291620007749190620005cc901b62001c7617620004cd86620005e1565b6001600160d01b031691506001600160d01b03169150836001600160a01b0316600080516020620048f78339815191528383604051620007be929190918252602082015260400190565b60405180910390a25050505050565b6001600160a01b038316620007fc578060026000828254620007f0919062000ee6565b90915550620008709050565b6001600160a01b03831660009081526020819052604090205481811015620008515760405163391434e360e21b81526001600160a01b03851660048201526024810182905260448101839052606401620000c6565b6001600160a01b03841660009081526020819052604090209082900390555b6001600160a01b0382166200088e57600280548290039055620008ad565b6001600160a01b03821660009081526020819052604090208054820190555b816001600160a01b0316836001600160a01b03167fddf252ad1be2c89b69c2b068fc378daa952ba7f163c4a11628f55a4df523b3ef83604051620008f391815260200190565b60405180910390a3505050565b60006200090c62000970565b905090565b8054600090801562000957576200093d836200092f60018462000efc565b600091825260209091200190565b54660100000000000090046001600160d01b0316620005da565b60009392505050565b6000806200064b8585856200097d565b60006200090c4362000b0f565b82546000908190801562000ab05760006200099f876200092f60018562000efc565b60408051808201909152905465ffffffffffff80821680845266010000000000009092046001600160d01b031660208401529192509087161015620009f757604051632520601d60e01b815260040160405180910390fd5b805165ffffffffffff80881691160362000a4b578462000a1e886200092f60018662000efc565b80546001600160d01b039290921666010000000000000265ffffffffffff90921691909117905562000a9f565b6040805180820190915265ffffffffffff80881682526001600160d01b0380881660208085019182528b54600181018d5560008d815291909120945191519092166601000000000000029216919091179101555b602001519250839150620006509050565b50506040805180820190915265ffffffffffff80851682526001600160d01b0380851660208085019182528854600181018a5560008a815291822095519251909316660100000000000002919093161792019190915590508162000650565b600065ffffffffffff82111562000617576040516306dfcc6560e41b81526030600482015260248101839052604401620000c6565b634e487b7160e01b600052604160045260246000fd5b60005b8381101562000b7757818101518382015260200162000b5d565b50506000910152565b600082601f83011262000b9257600080fd5b81516001600160401b038082111562000baf5762000baf62000b44565b604051601f8301601f19908116603f0116810190828211818310171562000bda5762000bda62000b44565b8160405283815286602085880101111562000bf457600080fd5b62000c0784602083016020890162000b5a565b9695505050505050565b600080600080600060a0868803121562000c2a57600080fd5b85516001600160401b038082111562000c4257600080fd5b62000c5089838a0162000b80565b9650602088015191508082111562000c6757600080fd5b5062000c768882890162000b80565b6040880151606089015160808a0151929750909550935090506001600160a01b038116811462000ca557600080fd5b809150509295509295909350565b634e487b7160e01b600052601160045260246000fd5b8082028115828204841417620002d057620002d062000cb3565b600181811c9082168062000cf857607f821691505b60208210810362000d1957634e487b7160e01b600052602260045260246000fd5b50919050565b601f82111562000416576000816000526020600020601f850160051c8101602086101562000d4a5750805b601f850160051c820191505b8181101562000d6b5782815560010162000d56565b505050505050565b81516001600160401b0381111562000d8f5762000d8f62000b44565b62000da78162000da0845462000ce3565b8462000d1f565b602080601f83116001811462000ddf576000841562000dc65750858301515b600019600386901b1c1916600185901b17855562000d6b565b600085815260208120601f198616915b8281101562000e105788860151825594840194600190910190840162000def565b508582101562000e2f5787850151600019600388901b60f8161c191681555b5050505050600190811b01905550565b602081526000825180602084015262000e6081604085016020870162000b5a565b601f01601f19169190910160400192915050565b8051602080830151919081101562000d195760001960209190910360031b1b16919050565b6001600160d01b0381811683821601908082111562000ebc5762000ebc62000cb3565b5092915050565b6001600160d01b0382811682821603908082111562000ebc5762000ebc62000cb3565b80820180821115620002d057620002d062000cb3565b81810381811115620002d057620002d062000cb3565b60805160a05160c05160e0516101005161012051610140516101605161397862000f7f600039600061239e0152600061237101526000611f8b01526000611f6301526000611ebe01526000611ee801526000611f120152600081816105270152612f2001526139786000f3fe6080604052600436106103975760003560e01c806379cc6790116101dc578063cfc6cdaa11610102578063e63ab1e9116100a0578063f3fef3a31161006f578063f3fef3a314610bd1578063f7abab9e14610be4578063f8cdd33114610bfa578063fdf4676014610c2d57600080fd5b8063e63ab1e914610b08578063e8a3d48514610b3c578063ec87621c14610b51578063f1127ed814610b8557600080fd5b8063d547741f116100dc578063d547741f14610a62578063d9d98ce414610a82578063dd62ed3e14610aa2578063e02c855314610ae857600080fd5b8063cfc6cdaa146109fb578063d505accf14610a0e578063d539139314610a2e57600080fd5b806391ddadf41161017a578063a217fddf11610149578063a217fddf14610986578063a9059cbb1461099b578063be3bd550146109bb578063c3cda520146109db57600080fd5b806391ddadf4146109055780639518c9601461093157806395d89b41146109515780639ab24eb01461096657600080fd5b80638456cb59116101b65780638456cb591461086257806384b0196e146108775780638e539e8c1461089f57806391d14854146108bf57600080fd5b806379cc6790146108025780637e136377146108225780637ecebe001461084257600080fd5b806340c10f19116102c15780635cffe9de1161025f5780636ba87a531161022e5780636ba87a531461076e5780636fcfff451461078157806370a08231146107b65780637806a6da146107ec57600080fd5b80635cffe9de146106c757806360bd55f8146106e7578063613255ab1461071957806362f588d81461073957600080fd5b80634f227e111161029b5780634f227e111461060a578063587cde1e1461063e5780635c19a95c1461068f5780635c975abb146106af57600080fd5b806340c10f19146105b557806342966c68146105d55780634bf5d7e9146105f557600080fd5b80632f2ff15d116103395780633644e515116103085780633644e5151461054b57806336568abe146105605780633a46b1a8146105805780633f4ba83a146105a057600080fd5b80632f2ff15d146104ba57806330a727b3146104dc578063313ce567146104fc578063355274ea1461051857600080fd5b8063095ea7b311610375578063095ea7b31461043557806318160ddd1461045557806323b872dd1461046a578063248a9ca31461048a57600080fd5b806301ffc9a71461039c57806306fdde03146103d157806307bd0265146103f3575b600080fd5b3480156103a857600080fd5b506103bc6103b736600461321b565b610c4d565b60405190151581526020015b60405180910390f35b3480156103dd57600080fd5b506103e6610c84565b6040516103c8919061328b565b3480156103ff57600080fd5b506104277fd8aa0f3194971a2a116679f7c2090f6939c8d4e01a2a8d7e41d55e5351469e6381565b6040519081526020016103c8565b34801561044157600080fd5b506103bc6104503660046132b3565b610d16565b34801561046157600080fd5b50600254610427565b34801561047657600080fd5b506103bc6104853660046132df565b610d2e565b34801561049657600080fd5b506104276104a5366004613320565b60009081526009602052604090206001015490565b3480156104c657600080fd5b506104da6104d5366004613339565b610d52565b005b3480156104e857600080fd5b506104da6104f7366004613339565b610d7d565b34801561050857600080fd5b50604051601281526020016103c8565b34801561052457600080fd5b507f0000000000000000000000000000000000000000000000000000000000000000610427565b34801561055757600080fd5b50610427610ddc565b34801561056c57600080fd5b506104da61057b366004613339565b610deb565b34801561058c57600080fd5b5061042761059b3660046132b3565b610e23565b3480156105ac57600080fd5b506104da610ea9565b3480156105c157600080fd5b506104da6105d03660046132b3565b610ede565b3480156105e157600080fd5b506104da6105f0366004613320565b61109b565b34801561060157600080fd5b506103e66110a5565b34801561061657600080fd5b50600e546103bc90760100000000000000000000000000000000000000000000900460ff1681565b34801561064a57600080fd5b50610677610659366004613369565b6001600160a01b039081166000908152600a60205260409020541690565b6040516001600160a01b0390911681526020016103c8565b34801561069b57600080fd5b506104da6106aa366004613369565b61111d565b3480156106bb57600080fd5b5060055460ff166103bc565b3480156106d357600080fd5b506103bc6106e2366004613386565b61112c565b3480156106f357600080fd5b50600e546103bc9074010000000000000000000000000000000000000000900460ff1681565b34801561072557600080fd5b50610427610734366004613369565b6112a4565b34801561074557600080fd5b50600e546103bc9077010000000000000000000000000000000000000000000000900460ff1681565b6104da61077c366004613369565b6112cc565b34801561078d57600080fd5b506107a161079c366004613369565b61136f565b60405163ffffffff90911681526020016103c8565b3480156107c257600080fd5b506104276107d1366004613369565b6001600160a01b031660009081526020819052604090205490565b3480156107f857600080fd5b5061042760105481565b34801561080e57600080fd5b506104da61081d3660046132b3565b61137a565b34801561082e57600080fd5b506104da61083d3660046132b3565b61138f565b34801561084e57600080fd5b5061042761085d366004613369565b61141f565b34801561086e57600080fd5b506104da61142a565b34801561088357600080fd5b5061088c61145c565b6040516103c89796959493929190613425565b3480156108ab57600080fd5b506104276108ba366004613320565b6114a2565b3480156108cb57600080fd5b506103bc6108da366004613339565b60009182526009602090815260408084206001600160a01b0393909316845291905290205460ff1690565b34801561091157600080fd5b5061091a61150c565b60405165ffffffffffff90911681526020016103c8565b34801561093d57600080fd5b506104da61094c366004613561565b611516565b34801561095d57600080fd5b506103e661156a565b34801561097257600080fd5b50610427610981366004613369565b611579565b34801561099257600080fd5b50610427600081565b3480156109a757600080fd5b506103bc6109b63660046132b3565b6115a9565b3480156109c757600080fd5b506104da6109d63660046135e9565b6115b7565b3480156109e757600080fd5b506104da6109f636600461365e565b611799565b6104da610a09366004613369565b61184d565b348015610a1a57600080fd5b506104da610a293660046136b8565b611882565b348015610a3a57600080fd5b506104277f9f2df0fed2c77648de5860a4cc508cd0818c85b8b8a1ab4ceeef8d981c8956a681565b348015610a6e57600080fd5b506104da610a7d366004613339565b6119bc565b348015610a8e57600080fd5b50610427610a9d3660046132b3565b6119e1565b348015610aae57600080fd5b50610427610abd366004613726565b6001600160a01b03918216600090815260016020908152604080832093909416825291909152205490565b348015610af457600080fd5b506104da610b03366004613369565b611a21565b348015610b1457600080fd5b506104277f65d7a28e3265b37a6474929f336521b332c1681b933f6cb9f3376673440d862a81565b348015610b4857600080fd5b506103e6611a69565b348015610b5d57600080fd5b506104277f241ecf16d79d0f8dbfb92cbc07fe17840425976cf0667f022fe9877caa831b0881565b348015610b9157600080fd5b50610ba5610ba0366004613754565b611af7565b60408051825165ffffffffffff1681526020928301516001600160d01b031692810192909252016103c8565b6104da610bdf3660046132b3565b611b15565b348015610bf057600080fd5b5061042760115481565b348015610c0657600080fd5b50600e546103bc907501000000000000000000000000000000000000000000900460ff1681565b348015610c3957600080fd5b50600e54610677906001600160a01b031681565b60006001600160e01b03198216637965db0b60e01b1480610c7e57506301ffc9a760e01b6001600160e01b03198316145b92915050565b606060038054610c939061378b565b80601f0160208091040260200160405190810160405280929190818152602001828054610cbf9061378b565b8015610d0c5780601f10610ce157610100808354040283529160200191610d0c565b820191906000526020600020905b815481529060010190602001808311610cef57829003601f168201915b5050505050905090565b600033610d24818585611c8e565b5060019392505050565b600033610d3c858285611c9b565b610d47858585611d13565b506001949350505050565b600082815260096020526040902060010154610d6d81611d72565b610d778383611d7c565b50505050565b7fd8aa0f3194971a2a116679f7c2090f6939c8d4e01a2a8d7e41d55e5351469e63610da781611d72565b610db18383611d7c565b50610d777fd8aa0f3194971a2a116679f7c2090f6939c8d4e01a2a8d7e41d55e5351469e6333611e2a565b6000610de6611eb1565b905090565b6001600160a01b0381163314610e145760405163334bd91960e11b815260040160405180910390fd5b610e1e8282611e2a565b505050565b600080610e2e61150c565b90508065ffffffffffff168310610e6e57604051637669fc0f60e11b81526004810184905265ffffffffffff821660248201526044015b60405180910390fd5b610e98610e7a84611fdc565b6001600160a01b0386166000908152600b6020526040902090612013565b6001600160d01b0316949350505050565b7f65d7a28e3265b37a6474929f336521b332c1681b933f6cb9f3376673440d862a610ed381611d72565b610edb6120cc565b50565b7f9f2df0fed2c77648de5860a4cc508cd0818c85b8b8a1ab4ceeef8d981c8956a6610f0881611d72565b610f327f9f2df0fed2c77648de5860a4cc508cd0818c85b8b8a1ab4ceeef8d981c8956a6336108da565b610f6c5760405162461bcd60e51b815260206004820152600b60248201526a139bdd08185b1b1bddd95960aa1b6044820152606401610e65565b600080610f7b6011548561211e565b91509150610f8882612147565b610f918461219d565b610f9c60115461219d565b610fa58161219d565b610fb3601054821115612147565b6010548111611046578315610ff35760405162461bcd60e51b8152600401610e659060208082526004908201526311d3d3d160e21b604082015260600190565b601181905561100285856121f7565b6001600160a01b038516600090815260126020526040812054611025908661211e565b6001600160a01b038816600090815260126020526040902055506110949050565b83156110945760405162461bcd60e51b815260206004820152600f60248201527f535550504c595f4f564552464c4f5700000000000000000000000000000000006044820152606401610e65565b5050505050565b610edb338261222d565b60606110af612263565b65ffffffffffff166110bf61150c565b65ffffffffffff16146110e5576040516301bfc1c560e61b815260040160405180910390fd5b5060408051808201909152601d81527f6d6f64653d626c6f636b6e756d6265722666726f6d3d64656661756c74000000602082015290565b33611128818361226e565b5050565b600080611138866112a4565b90508085111561115e5760405163fd9a760960e01b815260048101829052602401610e65565b600061116a87876119e1565b905061117688876121f7565b6040516323e30c8b60e01b81527f439148f0bbc682ca079e46d6e2c2f0c1e3b820f1a291b069d8882abf8cf18dd9906001600160a01b038a16906323e30c8b906111ce9033908c908c9088908d908d906004016137c5565b6020604051808303816000875af11580156111ed573d6000803e3d6000fd5b505050506040513d601f19601f820116820180604052508101906112119190613820565b146112395760405162678c5b60e81b81526001600160a01b0389166004820152602401610e65565b600061124f893061124a858b61384f565b611c9b565b81158061126357506001600160a01b038116155b156112805761127b89611276848a61384f565b61222d565b611295565b61128a898861222d565b611295898284611d13565b50600198975050505050505050565b60006001600160a01b03821630146112bd576000610c7e565b600254610c7e90600019613862565b6000816001600160a01b03163460405160006040518083038185875af1925050503d8060008114611319576040519150601f19603f3d011682016040523d82523d6000602084013e61131e565b606091505b50509050806111285760405162461bcd60e51b815260206004820152601460248201527f4661696c656420746f2073656e642045746865720000000000000000000000006044820152606401610e65565b6000610c7e826122ed565b611385823383611c9b565b611128828261222d565b6113b97f241ecf16d79d0f8dbfb92cbc07fe17840425976cf0667f022fe9877caa831b08336108da565b6113f35760405162461bcd60e51b815260206004820152600b60248201526a139bdd08185b1b1bddd95960aa1b6044820152606401610e65565b306000908152602081905260409020548082111561141557610d7783826115a9565b610d7783836115a9565b6000610c7e8261230f565b7f65d7a28e3265b37a6474929f336521b332c1681b933f6cb9f3376673440d862a61145481611d72565b610edb61232d565b60006060806000806000606061147061236a565b611478612397565b60408051600080825260208201909252600f60f81b9b939a50919850469750309650945092509050565b6000806114ad61150c565b90508065ffffffffffff1683106114e857604051637669fc0f60e11b81526004810184905265ffffffffffff82166024820152604401610e65565b6114fc6114f484611fdc565b600c90612013565b6001600160d01b03169392505050565b6000610de6612263565b7fd8aa0f3194971a2a116679f7c2090f6939c8d4e01a2a8d7e41d55e5351469e6361154081611d72565b6110947f241ecf16d79d0f8dbfb92cbc07fe17840425976cf0667f022fe9877caa831b0833611e2a565b606060048054610c939061378b565b6001600160a01b0381166000908152600b6020526040812061159a906123c4565b6001600160d01b031692915050565b600033610d24818585611d13565b60006115c281611d72565b60006001600160a01b038616156115da5750846115dd565b50335b60008560028111156115f1576115f1613875565b0361166b5760405163a9059cbb60e01b81526001600160a01b0382811660048301526024820186905288169063a9059cbb906044016020604051808303816000875af1158015611645573d6000803e3d6000fd5b505050506040513d601f19601f82011682018060405250810190611669919061388b565b505b600185600281111561167f5761167f613875565b036116ed57604051632142170760e11b81523060048201526001600160a01b038281166024830152604482018590528816906342842e0e90606401600060405180830381600087803b1580156116d457600080fd5b505af11580156116e8573d6000803e3d6000fd5b505050505b600285600281111561170157611701613875565b0361179057604051637921219560e11b81523060048201526001600160a01b038281166024830152604482018590526064820186905260a06084830152600360a48301526203078360ec1b60c483015288169063f242432a9060e401600060405180830381600087803b15801561177757600080fd5b505af115801561178b573d6000803e3d6000fd5b505050505b50505050505050565b834211156117bd57604051632341d78760e11b815260048101859052602401610e65565b604080517fe48329057bfd03d55e49b547132e39cffd9c1820ad7b9d4c5307691425d15adf60208201526001600160a01b0388169181019190915260608101869052608081018590526000906118379061182f9060a001604051602081830303815290604052805190602001206123f7565b858585612424565b90506118438187612452565b611790818861226e565b6040516001600160a01b038216903480156108fc02916000818181858888f19350505050158015611128573d6000803e3d6000fd5b834211156118a65760405163313c898160e11b815260048101859052602401610e65565b60007f6e71edae12b1b97f4d1f60370fef10105fa2faae0126114a169c64845d6126c98888886118f38c6001600160a01b0316600090815260086020526040902080546001810190915590565b6040805160208101969096526001600160a01b0394851690860152929091166060840152608083015260a082015260c0810186905260e001604051602081830303815290604052805190602001209050600061194e826123f7565b9050600061195e82878787612424565b9050896001600160a01b0316816001600160a01b0316146119a5576040516325c0072360e11b81526001600160a01b0380831660048301528b166024820152604401610e65565b6119b08a8a8a611c8e565b50505050505050505050565b6000828152600960205260409020600101546119d781611d72565b610d778383611e2a565b60006001600160a01b0383163014611a1757604051635ad3edc960e11b81526001600160a01b0384166004820152602401610e65565b60005b9392505050565b6000611a2c81611d72565b6001600160a01b0382161561112857600e80546001600160a01b03841673ffffffffffffffffffffffffffffffffffffffff199091161790555050565b600f8054611a769061378b565b80601f0160208091040260200160405190810160405280929190818152602001828054611aa29061378b565b8015611aef5780601f10611ac457610100808354040283529160200191611aef565b820191906000526020600020905b815481529060010190602001808311611ad257829003601f168201915b505050505081565b6040805180820190915260008082526020820152611a1a83836124a5565b6000611b2081611d72565b611b286124db565b81611b31612505565b1015611b7f5760405162461bcd60e51b815260206004820152601460248201527f494e53554646494349454e545f42414c414e43450000000000000000000000006044820152606401610e65565b6001600160a01b038316611bc757336108fc611b99612505565b6040518115909202916000818181858888f19350505050158015611bc1573d6000803e3d6000fd5b50611c6c565b6000836001600160a01b03168360405160006040518083038185875af1925050503d8060008114611c14576040519150601f19603f3d011682016040523d82523d6000602084013e611c19565b606091505b5050905080611c6a5760405162461bcd60e51b815260206004820152601260248201527f4641494c45445f544f5f574954484452415700000000000000000000000000006044820152606401610e65565b505b610e1e6001600d55565b6000611a1a82846138ad565b6000611a1a82846138d4565b610e1e8383836001612518565b6001600160a01b038381166000908152600160209081526040808320938616835292905220546000198114610d775781811015611d0457604051637dc7a0d960e11b81526001600160a01b03841660048201526024810182905260448101839052606401610e65565b610d7784848484036000612518565b6001600160a01b038316611d3d57604051634b637e8f60e11b815260006004820152602401610e65565b6001600160a01b038216611d675760405163ec442f0560e01b815260006004820152602401610e65565b610e1e8383836125ed565b610edb81336125f8565b60008281526009602090815260408083206001600160a01b038516845290915281205460ff16611e225760008381526009602090815260408083206001600160a01b03861684529091529020805460ff19166001179055611dda3390565b6001600160a01b0316826001600160a01b0316847f2f8788117e7eff1d82e926ec794901d17c78024a50270940304540a733656f0d60405160405180910390a4506001610c7e565b506000610c7e565b60008281526009602090815260408083206001600160a01b038516845290915281205460ff1615611e225760008381526009602090815260408083206001600160a01b0386168085529252808320805460ff1916905551339286917ff6391f5c32d9c69d2a47ea670b442974b53935d1edc7fd64eb21e047a839171b9190a4506001610c7e565b6000306001600160a01b037f000000000000000000000000000000000000000000000000000000000000000016148015611f0a57507f000000000000000000000000000000000000000000000000000000000000000046145b15611f3457507f000000000000000000000000000000000000000000000000000000000000000090565b610de6604080517f8b73c3c69bb8fe3d512ecc4cf759cc79239f7b179b0ffacaa9a75d522b39400f60208201527f0000000000000000000000000000000000000000000000000000000000000000918101919091527f000000000000000000000000000000000000000000000000000000000000000060608201524660808201523060a082015260009060c00160405160208183030381529060405280519060200120905090565b600065ffffffffffff82111561200f576040516306dfcc6560e41b81526030600482015260248101839052604401610e65565b5090565b81546000908181600581111561207257600061202e8461264d565b6120389085613862565b60008881526020902090915081015465ffffffffffff908116908716101561206257809150612070565b61206d81600161384f565b92505b505b600061208087878585612735565b905080156120be576120a587612097600184613862565b600091825260209091200190565b54660100000000000090046001600160d01b03166120c1565b60005b979650505050505050565b6120d4612797565b6005805460ff191690557f5db9ee0a495bf2e6ff9c91a7834c1ba4fdd244a5e8aa4e537bd38aeae4b073aa335b6040516001600160a01b03909116815260200160405180910390a1565b60008083830184811015612139576000809250925050612140565b6001925090505b9250929050565b6040518115156024820152610edb9060440160408051601f198184030181529190526020810180517bffffffffffffffffffffffffffffffffffffffffffffffffffffffff166332458eed60e01b1790526127bc565b610edb816040516024016121b391815260200190565b60408051601f198184030181529190526020810180517bffffffffffffffffffffffffffffffffffffffffffffffffffffffff1663f82c50f160e01b1790526127bc565b6001600160a01b0382166122215760405163ec442f0560e01b815260006004820152602401610e65565b611128600083836125ed565b6001600160a01b03821661225757604051634b637e8f60e11b815260006004820152602401610e65565b611128826000836125ed565b6000610de643611fdc565b6001600160a01b038281166000818152600a6020526040808220805486861673ffffffffffffffffffffffffffffffffffffffff19821681179092559151919094169392849290917f3134e8a2e6d97e929a7e54011ea5485d7d196dd5f0ba4d4ef95803e8e3fc257f9190a4610e1e81836122e8866127c5565b6127e3565b6001600160a01b0381166000908152600b6020526040812054610c7e9061294f565b6001600160a01b038116600090815260086020526040812054610c7e565b612335612980565b6005805460ff191660011790557f62e78cea01bee320cd4e420270b5ea74000d11b0c9f74754ebdbfc544b05a2586121013390565b6060610de67f000000000000000000000000000000000000000000000000000000000000000060066129a4565b6060610de67f000000000000000000000000000000000000000000000000000000000000000060076129a4565b80546000908015611a17576123de83612097600184613862565b54660100000000000090046001600160d01b0316611a1a565b6000610c7e612404611eb1565b8360405161190160f01b8152600281019290925260228201526042902090565b60008060008061243688888888612a4f565b9250925092506124468282612b1e565b50909695505050505050565b6001600160a01b0382166000908152600860205260409020805460018101909155818114610e1e576040516301d4b62360e61b81526001600160a01b038416600482015260248101829052604401610e65565b60408051808201909152600080825260208201526001600160a01b0383166000908152600b60205260409020611a1a9083612bd7565b6002600d54036124fe57604051633ee5aeb560e01b815260040160405180910390fd5b6002600d55565b60008061251181611d72565b4791505090565b6001600160a01b0384166125425760405163e602df0560e01b815260006004820152602401610e65565b6001600160a01b03831661256c57604051634a1406b160e11b815260006004820152602401610e65565b6001600160a01b0380851660009081526001602090815260408083209387168352929052208290558015610d7757826001600160a01b0316846001600160a01b03167f8c5be1e5ebec7d5bd14f71427d1e84f3dd0314c0f7b2291e5b200ac8c7c3b925846040516125df91815260200190565b60405180910390a350505050565b610e1e838383612c4a565b60008281526009602090815260408083206001600160a01b038516845290915290205460ff166111285760405163e2517d3f60e01b81526001600160a01b038216600482015260248101839052604401610e65565b60008160000361265f57506000919050565b6000600161266c84612cb1565b901c6001901b90506001818481612685576126856138f4565b048201901c9050600181848161269d5761269d6138f4565b048201901c905060018184816126b5576126b56138f4565b048201901c905060018184816126cd576126cd6138f4565b048201901c905060018184816126e5576126e56138f4565b048201901c905060018184816126fd576126fd6138f4565b048201901c90506001818481612715576127156138f4565b048201901c9050611a1a8182858161272f5761272f6138f4565b04612d45565b60005b8183101561278f57600061274c8484612d5b565b60008781526020902090915065ffffffffffff86169082015465ffffffffffff16111561277b57809250612789565b61278681600161384f565b93505b50612738565b509392505050565b60055460ff166127ba57604051638dfc202b60e01b815260040160405180910390fd5b565b610edb81612d76565b6001600160a01b038116600090815260208190526040812054610c7e565b816001600160a01b0316836001600160a01b0316141580156128055750600081115b15610e1e576001600160a01b038316156128ad576001600160a01b0383166000908152600b60205260408120819061284890611c8261284386612d97565b612dcb565b6001600160d01b031691506001600160d01b03169150846001600160a01b03167fdec2bacdd2f05b59de34da9b523dff8be42e5e38e818c82fdb0bae774387a72483836040516128a2929190918252602082015260400190565b60405180910390a250505b6001600160a01b03821615610e1e576001600160a01b0382166000908152600b6020526040812081906128e690611c7661284386612d97565b6001600160d01b031691506001600160d01b03169150836001600160a01b03167fdec2bacdd2f05b59de34da9b523dff8be42e5e38e818c82fdb0bae774387a7248383604051612940929190918252602082015260400190565b60405180910390a25050505050565b600063ffffffff82111561200f576040516306dfcc6560e41b81526020600482015260248101839052604401610e65565b60055460ff16156127ba5760405163d93c066560e01b815260040160405180910390fd5b606060ff83146129be576129b783612e04565b9050610c7e565b8180546129ca9061378b565b80601f01602080910402602001604051908101604052809291908181526020018280546129f69061378b565b8015612a435780601f10612a1857610100808354040283529160200191612a43565b820191906000526020600020905b815481529060010190602001808311612a2657829003601f168201915b50505050509050610c7e565b600080807f7fffffffffffffffffffffffffffffff5d576e7357a4501ddfe92f46681b20a0841115612a8a5750600091506003905082612b14565b604080516000808252602082018084528a905260ff891692820192909252606081018790526080810186905260019060a0016020604051602081039080840390855afa158015612ade573d6000803e3d6000fd5b5050604051601f1901519150506001600160a01b038116612b0a57506000925060019150829050612b14565b9250600091508190505b9450945094915050565b6000826003811115612b3257612b32613875565b03612b3b575050565b6001826003811115612b4f57612b4f613875565b03612b6d5760405163f645eedf60e01b815260040160405180910390fd5b6002826003811115612b8157612b81613875565b03612ba25760405163fce698f760e01b815260048101829052602401610e65565b6003826003811115612bb657612bb6613875565b03611128576040516335e2f38360e21b815260048101829052602401610e65565b6040805180820190915260008082526020820152826000018263ffffffff1681548110612c0657612c0661390a565b60009182526020918290206040805180820190915291015465ffffffffffff81168252660100000000000090046001600160d01b0316918101919091529392505050565b612c55838383612e43565b6001600160a01b038316612ca6576000612c6e60025490565b90506001600160d01b0380821115612ca357604051630e58ae9360e11b81526004810183905260248101829052604401610e65565b50505b610e1e838383612e56565b600080608083901c15612cc657608092831c92015b604083901c15612cd857604092831c92015b602083901c15612cea57602092831c92015b601083901c15612cfc57601092831c92015b600883901c15612d0e57600892831c92015b600483901c15612d2057600492831c92015b600283901c15612d3257600292831c92015b600183901c15610c7e5760010192915050565b6000818310612d545781611a1a565b5090919050565b6000612d6a6002848418613920565b611a1a9084841661384f565b60006a636f6e736f6c652e6c6f679050600080835160208501845afa505050565b60006001600160d01b0382111561200f576040516306dfcc6560e41b815260d0600482015260248101839052604401610e65565b600080612df7612dd961150c565b612def612de5886123c4565b868863ffffffff16565b879190612ecc565b915091505b935093915050565b60606000612e1183612eda565b604080516020808252818301909252919250600091906020820181803683375050509182525060208101929092525090565b612e4b612980565b610e1e838383612f02565b6001600160a01b038316612e7857612e75600c611c7661284384612d97565b50505b6001600160a01b038216612e9a57612e97600c611c8261284384612d97565b50505b6001600160a01b038381166000908152600a6020526040808220548584168352912054610e1e929182169116836127e3565b600080612df7858585612f6b565b600060ff8216601f811115610c7e57604051632cd44ac360e21b815260040160405180910390fd5b612f0d8383836130f1565b6001600160a01b038316610e1e576002547f000000000000000000000000000000000000000000000000000000000000000090818111156110945760405163279e7e1560e21b81526004810182905260248101839052604401610e65565b825460009081908015613093576000612f8987612097600185613862565b60408051808201909152905465ffffffffffff80821680845266010000000000009092046001600160d01b031660208401529192509087161015612fe057604051632520601d60e01b815260040160405180910390fd5b805165ffffffffffff80881691160361302f578461300388612097600186613862565b80546001600160d01b039290921666010000000000000265ffffffffffff909216919091179055613083565b6040805180820190915265ffffffffffff80881682526001600160d01b0380881660208085019182528b54600181018d5560008d815291909120945191519092166601000000000000029216919091179101555b602001519250839150612dfc9050565b50506040805180820190915265ffffffffffff80851682526001600160d01b0380851660208085019182528854600181018a5560008a8152918220955192519093166601000000000000029190931617920191909155905081612dfc565b6001600160a01b03831661311c578060026000828254613111919061384f565b9091555061318e9050565b6001600160a01b0383166000908152602081905260409020548181101561316f5760405163391434e360e21b81526001600160a01b03851660048201526024810182905260448101839052606401610e65565b6001600160a01b03841660009081526020819052604090209082900390555b6001600160a01b0382166131aa576002805482900390556131c9565b6001600160a01b03821660009081526020819052604090208054820190555b816001600160a01b0316836001600160a01b03167fddf252ad1be2c89b69c2b068fc378daa952ba7f163c4a11628f55a4df523b3ef8360405161320e91815260200190565b60405180910390a3505050565b60006020828403121561322d57600080fd5b81356001600160e01b031981168114611a1a57600080fd5b6000815180845260005b8181101561326b5760208185018101518683018201520161324f565b506000602082860101526020601f19601f83011685010191505092915050565b602081526000611a1a6020830184613245565b6001600160a01b0381168114610edb57600080fd5b600080604083850312156132c657600080fd5b82356132d18161329e565b946020939093013593505050565b6000806000606084860312156132f457600080fd5b83356132ff8161329e565b9250602084013561330f8161329e565b929592945050506040919091013590565b60006020828403121561333257600080fd5b5035919050565b6000806040838503121561334c57600080fd5b82359150602083013561335e8161329e565b809150509250929050565b60006020828403121561337b57600080fd5b8135611a1a8161329e565b60008060008060006080868803121561339e57600080fd5b85356133a98161329e565b945060208601356133b98161329e565b935060408601359250606086013567ffffffffffffffff808211156133dd57600080fd5b818801915088601f8301126133f157600080fd5b81358181111561340057600080fd5b89602082850101111561341257600080fd5b9699959850939650602001949392505050565b60ff60f81b881681526000602060e0602084015261344660e084018a613245565b8381036040850152613458818a613245565b606085018990526001600160a01b038816608086015260a0850187905284810360c08601528551808252602080880193509091019060005b818110156134ac57835183529284019291840191600101613490565b50909c9b505050505050505050505050565b634e487b7160e01b600052604160045260246000fd5b600082601f8301126134e557600080fd5b813567ffffffffffffffff80821115613500576135006134be565b604051601f8301601f19908116603f01168101908282118183101715613528576135286134be565b8160405283815286602085880101111561354157600080fd5b836020870160208301376000602085830101528094505050505092915050565b60008060006060848603121561357657600080fd5b833567ffffffffffffffff8082111561358e57600080fd5b61359a878388016134d4565b945060208601359150808211156135b057600080fd5b6135bc878388016134d4565b935060408601359150808211156135d257600080fd5b506135df868287016134d4565b9150509250925092565b600080600080600060a0868803121561360157600080fd5b853561360c8161329e565b9450602086013561361c8161329e565b935060408601356003811061363057600080fd5b94979396509394606081013594506080013592915050565b803560ff8116811461365957600080fd5b919050565b60008060008060008060c0878903121561367757600080fd5b86356136828161329e565b9550602087013594506040870135935061369e60608801613648565b92506080870135915060a087013590509295509295509295565b600080600080600080600060e0888a0312156136d357600080fd5b87356136de8161329e565b965060208801356136ee8161329e565b9550604088013594506060880135935061370a60808901613648565b925060a0880135915060c0880135905092959891949750929550565b6000806040838503121561373957600080fd5b82356137448161329e565b9150602083013561335e8161329e565b6000806040838503121561376757600080fd5b82356137728161329e565b9150602083013563ffffffff8116811461335e57600080fd5b600181811c9082168061379f57607f821691505b6020821081036137bf57634e487b7160e01b600052602260045260246000fd5b50919050565b60006001600160a01b03808916835280881660208401525085604083015284606083015260a060808301528260a0830152828460c0840137600060c0848401015260c0601f19601f8501168301019050979650505050505050565b60006020828403121561383257600080fd5b5051919050565b634e487b7160e01b600052601160045260246000fd5b80820180821115610c7e57610c7e613839565b81810381811115610c7e57610c7e613839565b634e487b7160e01b600052602160045260246000fd5b60006020828403121561389d57600080fd5b81518015158114611a1a57600080fd5b6001600160d01b038181168382160190808211156138cd576138cd613839565b5092915050565b6001600160d01b038281168282160390808211156138cd576138cd613839565b634e487b7160e01b600052601260045260246000fd5b634e487b7160e01b600052603260045260246000fd5b60008261393d57634e487b7160e01b600052601260045260246000fd5b50049056fea2646970667358221220b67c2af436d966fcdda7b1a6dec847f2d1a9a7203c1cf17484f43d2af215e84864736f6c63430008160033dec2bacdd2f05b59de34da9b523dff8be42e5e38e818c82fdb0bae774387a724",
  "linkReferences": {},
  "deployedLinkReferences": {}
}