{
  "_format": "hh-sol-artifact-1",
  "contractName": "MyGovernor",
  "sourceName": "contracts/_samples/MyGovernor.sol",
  "abi": [
    {
      "inputs": [
        {
          "internalType": "contract IVotes",
          "name": "_token",
          "type": "address"
        },
        {
          "internalType": "contract TimelockController",
          "name": "_timelock",
          "type": "address"
        }
      ],
      "stateMutability": "nonpayable",
      "type": "constructor"
    },
    {
      "inputs": [],
      "name": "CheckpointUnorderedInsertion",
      "type": "error"
    },
    {
      "inputs": [],
      "name": "FailedInnerCall",
      "type": "error"
    },
    {
      "inputs": [
        {
          "internalType": "address",
          "name": "voter",
          "type": "address"
        }
      ],
      "name": "GovernorAlreadyCastVote",
      "type": "error"
    },
    {
      "inputs": [
        {
          "internalType": "uint256",
          "name": "proposalId",
          "type": "uint256"
        }
      ],
      "name": "GovernorAlreadyQueuedProposal",
      "type": "error"
    },
    {
      "inputs": [],
      "name": "GovernorDisabledDeposit",
      "type": "error"
    },
    {
      "inputs": [
        {
          "internalType": "address",
          "name": "proposer",
          "type": "address"
        },
        {
          "internalType": "uint256",
          "name": "votes",
          "type": "uint256"
        },
        {
          "internalType": "uint256",
          "name": "threshold",
          "type": "uint256"
        }
      ],
      "name": "GovernorInsufficientProposerVotes",
      "type": "error"
    },
    {
      "inputs": [
        {
          "internalType": "uint256",
          "name": "targets",
          "type": "uint256"
        },
        {
          "internalType": "uint256",
          "name": "calldatas",
          "type": "uint256"
        },
        {
          "internalType": "uint256",
          "name": "values",
          "type": "uint256"
        }
      ],
      "name": "GovernorInvalidProposalLength",
      "type": "error"
    },
    {
      "inputs": [
        {
          "internalType": "uint256",
          "name": "quorumNumerator",
          "type": "uint256"
        },
        {
          "internalType": "uint256",
          "name": "quorumDenominator",
          "type": "uint256"
        }
      ],
      "name": "GovernorInvalidQuorumFraction",
      "type": "error"
    },
    {
      "inputs": [
        {
          "internalType": "address",
          "name": "voter",
          "type": "address"
        }
      ],
      "name": "GovernorInvalidSignature",
      "type": "error"
    },
    {
      "inputs": [],
      "name": "GovernorInvalidVoteType",
      "type": "error"
    },
    {
      "inputs": [
        {
          "internalType": "uint256",
          "name": "votingPeriod",
          "type": "uint256"
        }
      ],
      "name": "GovernorInvalidVotingPeriod",
      "type": "error"
    },
    {
      "inputs": [
        {
          "internalType": "uint256",
          "name": "proposalId",
          "type": "uint256"
        }
      ],
      "name": "GovernorNonexistentProposal",
      "type": "error"
    },
    {
      "inputs": [
        {
          "internalType": "uint256",
          "name": "proposalId",
          "type": "uint256"
        }
      ],
      "name": "GovernorNotQueuedProposal",
      "type": "error"
    },
    {
      "inputs": [
        {
          "internalType": "address",
          "name": "account",
          "type": "address"
        }
      ],
      "name": "GovernorOnlyExecutor",
      "type": "error"
    },
    {
      "inputs": [
        {
          "internalType": "address",
          "name": "account",
          "type": "address"
        }
      ],
      "name": "GovernorOnlyProposer",
      "type": "error"
    },
    {
      "inputs": [],
      "name": "GovernorQueueNotImplemented",
      "type": "error"
    },
    {
      "inputs": [
        {
          "internalType": "address",
          "name": "proposer",
          "type": "address"
        }
      ],
      "name": "GovernorRestrictedProposer",
      "type": "error"
    },
    {
      "inputs": [
        {
          "internalType": "uint256",
          "name": "proposalId",
          "type": "uint256"
        },
        {
          "internalType": "enum IGovernor.ProposalState",
          "name": "current",
          "type": "uint8"
        },
        {
          "internalType": "bytes32",
          "name": "expectedStates",
          "type": "bytes32"
        }
      ],
      "name": "GovernorUnexpectedProposalState",
      "type": "error"
    },
    {
      "inputs": [
        {
          "internalType": "address",
          "name": "account",
          "type": "address"
        },
        {
          "internalType": "uint256",
          "name": "currentNonce",
          "type": "uint256"
        }
      ],
      "name": "InvalidAccountNonce",
      "type": "error"
    },
    {
      "inputs": [],
      "name": "InvalidShortString",
      "type": "error"
    },
    {
      "inputs": [],
      "name": "QueueEmpty",
      "type": "error"
    },
    {
      "inputs": [],
      "name": "QueueFull",
      "type": "error"
    },
    {
      "inputs": [
        {
          "internalType": "uint8",
          "name": "bits",
          "type": "uint8"
        },
        {
          "internalType": "uint256",
          "name": "value",
          "type": "uint256"
        }
      ],
      "name": "SafeCastOverflowedUintDowncast",
      "type": "error"
    },
    {
      "inputs": [
        {
          "internalType": "string",
          "name": "str",
          "type": "string"
        }
      ],
      "name": "StringTooLong",
      "type": "error"
    },
    {
      "anonymous": false,
      "inputs": [],
      "name": "EIP712DomainChanged",
      "type": "event"
    },
    {
      "anonymous": false,
      "inputs": [
        {
          "indexed": false,
          "internalType": "uint256",
          "name": "proposalId",
          "type": "uint256"
        }
      ],
      "name": "ProposalCanceled",
      "type": "event"
    },
    {
      "anonymous": false,
      "inputs": [
        {
          "indexed": false,
          "internalType": "uint256",
          "name": "proposalId",
          "type": "uint256"
        },
        {
          "indexed": false,
          "internalType": "address",
          "name": "proposer",
          "type": "address"
        },
        {
          "indexed": false,
          "internalType": "address[]",
          "name": "targets",
          "type": "address[]"
        },
        {
          "indexed": false,
          "internalType": "uint256[]",
          "name": "values",
          "type": "uint256[]"
        },
        {
          "indexed": false,
          "internalType": "string[]",
          "name": "signatures",
          "type": "string[]"
        },
        {
          "indexed": false,
          "internalType": "bytes[]",
          "name": "calldatas",
          "type": "bytes[]"
        },
        {
          "indexed": false,
          "internalType": "uint256",
          "name": "voteStart",
          "type": "uint256"
        },
        {
          "indexed": false,
          "internalType": "uint256",
          "name": "voteEnd",
          "type": "uint256"
        },
        {
          "indexed": false,
          "internalType": "string",
          "name": "description",
          "type": "string"
        }
      ],
      "name": "ProposalCreated",
      "type": "event"
    },
    {
      "anonymous": false,
      "inputs": [
        {
          "indexed": false,
          "internalType": "uint256",
          "name": "proposalId",
          "type": "uint256"
        }
      ],
      "name": "ProposalExecuted",
      "type": "event"
    },
    {
      "anonymous": false,
      "inputs": [
        {
          "indexed": false,
          "internalType": "uint256",
          "name": "proposalId",
          "type": "uint256"
        },
        {
          "indexed": false,
          "internalType": "uint256",
          "name": "etaSeconds",
          "type": "uint256"
        }
      ],
      "name": "ProposalQueued",
      "type": "event"
    },
    {
      "anonymous": false,
      "inputs": [
        {
          "indexed": false,
          "internalType": "uint256",
          "name": "oldProposalThreshold",
          "type": "uint256"
        },
        {
          "indexed": false,
          "internalType": "uint256",
          "name": "newProposalThreshold",
          "type": "uint256"
        }
      ],
      "name": "ProposalThresholdSet",
      "type": "event"
    },
    {
      "anonymous": false,
      "inputs": [
        {
          "indexed": false,
          "internalType": "uint256",
          "name": "oldQuorumNumerator",
          "type": "uint256"
        },
        {
          "indexed": false,
          "internalType": "uint256",
          "name": "newQuorumNumerator",
          "type": "uint256"
        }
      ],
      "name": "QuorumNumeratorUpdated",
      "type": "event"
    },
    {
      "anonymous": false,
      "inputs": [
        {
          "indexed": false,
          "internalType": "address",
          "name": "oldTimelock",
          "type": "address"
        },
        {
          "indexed": false,
          "internalType": "address",
          "name": "newTimelock",
          "type": "address"
        }
      ],
      "name": "TimelockChange",
      "type": "event"
    },
    {
      "anonymous": false,
      "inputs": [
        {
          "indexed": true,
          "internalType": "address",
          "name": "voter",
          "type": "address"
        },
        {
          "indexed": false,
          "internalType": "uint256",
          "name": "proposalId",
          "type": "uint256"
        },
        {
          "indexed": false,
          "internalType": "uint8",
          "name": "support",
          "type": "uint8"
        },
        {
          "indexed": false,
          "internalType": "uint256",
          "name": "weight",
          "type": "uint256"
        },
        {
          "indexed": false,
          "internalType": "string",
          "name": "reason",
          "type": "string"
        }
      ],
      "name": "VoteCast",
      "type": "event"
    },
    {
      "anonymous": false,
      "inputs": [
        {
          "indexed": true,
          "internalType": "address",
          "name": "voter",
          "type": "address"
        },
        {
          "indexed": false,
          "internalType": "uint256",
          "name": "proposalId",
          "type": "uint256"
        },
        {
          "indexed": false,
          "internalType": "uint8",
          "name": "support",
          "type": "uint8"
        },
        {
          "indexed": false,
          "internalType": "uint256",
          "name": "weight",
          "type": "uint256"
        },
        {
          "indexed": false,
          "internalType": "string",
          "name": "reason",
          "type": "string"
        },
        {
          "indexed": false,
          "internalType": "bytes",
          "name": "params",
          "type": "bytes"
        }
      ],
      "name": "VoteCastWithParams",
      "type": "event"
    },
    {
      "anonymous": false,
      "inputs": [
        {
          "indexed": false,
          "internalType": "uint256",
          "name": "oldVotingDelay",
          "type": "uint256"
        },
        {
          "indexed": false,
          "internalType": "uint256",
          "name": "newVotingDelay",
          "type": "uint256"
        }
      ],
      "name": "VotingDelaySet",
      "type": "event"
    },
    {
      "anonymous": false,
      "inputs": [
        {
          "indexed": false,
          "internalType": "uint256",
          "name": "oldVotingPeriod",
          "type": "uint256"
        },
        {
          "indexed": false,
          "internalType": "uint256",
          "name": "newVotingPeriod",
          "type": "uint256"
        }
      ],
      "name": "VotingPeriodSet",
      "type": "event"
    },
    {
      "inputs": [],
      "name": "BALLOT_TYPEHASH",
      "outputs": [
        {
          "internalType": "bytes32",
          "name": "",
          "type": "bytes32"
        }
      ],
      "stateMutability": "view",
      "type": "function"
    },
    {
      "inputs": [],
      "name": "CLOCK_MODE",
      "outputs": [
        {
          "internalType": "string",
          "name": "",
          "type": "string"
        }
      ],
      "stateMutability": "view",
      "type": "function"
    },
    {
      "inputs": [],
      "name": "COUNTING_MODE",
      "outputs": [
        {
          "internalType": "string",
          "name": "",
          "type": "string"
        }
      ],
      "stateMutability": "pure",
      "type": "function"
    },
    {
      "inputs": [],
      "name": "EXTENDED_BALLOT_TYPEHASH",
      "outputs": [
        {
          "internalType": "bytes32",
          "name": "",
          "type": "bytes32"
        }
      ],
      "stateMutability": "view",
      "type": "function"
    },
    {
      "inputs": [
        {
          "internalType": "uint256",
          "name": "proposalId",
          "type": "uint256"
        }
      ],
      "name": "cancel",
      "outputs": [],
      "stateMutability": "nonpayable",
      "type": "function"
    },
    {
      "inputs": [
        {
          "internalType": "address[]",
          "name": "targets",
          "type": "address[]"
        },
        {
          "internalType": "uint256[]",
          "name": "values",
          "type": "uint256[]"
        },
        {
          "internalType": "bytes[]",
          "name": "calldatas",
          "type": "bytes[]"
        },
        {
          "internalType": "bytes32",
          "name": "descriptionHash",
          "type": "bytes32"
        }
      ],
      "name": "cancel",
      "outputs": [
        {
          "internalType": "uint256",
          "name": "",
          "type": "uint256"
        }
      ],
      "stateMutability": "nonpayable",
      "type": "function"
    },
    {
      "inputs": [
        {
          "internalType": "uint256",
          "name": "proposalId",
          "type": "uint256"
        },
        {
          "internalType": "uint8",
          "name": "support",
          "type": "uint8"
        }
      ],
      "name": "castVote",
      "outputs": [
        {
          "internalType": "uint256",
          "name": "",
          "type": "uint256"
        }
      ],
      "stateMutability": "nonpayable",
      "type": "function"
    },
    {
      "inputs": [
        {
          "internalType": "uint256",
          "name": "proposalId",
          "type": "uint256"
        },
        {
          "internalType": "uint8",
          "name": "support",
          "type": "uint8"
        },
        {
          "internalType": "address",
          "name": "voter",
          "type": "address"
        },
        {
          "internalType": "bytes",
          "name": "signature",
          "type": "bytes"
        }
      ],
      "name": "castVoteBySig",
      "outputs": [
        {
          "internalType": "uint256",
          "name": "",
          "type": "uint256"
        }
      ],
      "stateMutability": "nonpayable",
      "type": "function"
    },
    {
      "inputs": [
        {
          "internalType": "uint256",
          "name": "proposalId",
          "type": "uint256"
        },
        {
          "internalType": "uint8",
          "name": "support",
          "type": "uint8"
        },
        {
          "internalType": "string",
          "name": "reason",
          "type": "string"
        }
      ],
      "name": "castVoteWithReason",
      "outputs": [
        {
          "internalType": "uint256",
          "name": "",
          "type": "uint256"
        }
      ],
      "stateMutability": "nonpayable",
      "type": "function"
    },
    {
      "inputs": [
        {
          "internalType": "uint256",
          "name": "proposalId",
          "type": "uint256"
        },
        {
          "internalType": "uint8",
          "name": "support",
          "type": "uint8"
        },
        {
          "internalType": "string",
          "name": "reason",
          "type": "string"
        },
        {
          "internalType": "bytes",
          "name": "params",
          "type": "bytes"
        }
      ],
      "name": "castVoteWithReasonAndParams",
      "outputs": [
        {
          "internalType": "uint256",
          "name": "",
          "type": "uint256"
        }
      ],
      "stateMutability": "nonpayable",
      "type": "function"
    },
    {
      "inputs": [
        {
          "internalType": "uint256",
          "name": "proposalId",
          "type": "uint256"
        },
        {
          "internalType": "uint8",
          "name": "support",
          "type": "uint8"
        },
        {
          "internalType": "address",
          "name": "voter",
          "type": "address"
        },
        {
          "internalType": "string",
          "name": "reason",
          "type": "string"
        },
        {
          "internalType": "bytes",
          "name": "params",
          "type": "bytes"
        },
        {
          "internalType": "bytes",
          "name": "signature",
          "type": "bytes"
        }
      ],
      "name": "castVoteWithReasonAndParamsBySig",
      "outputs": [
        {
          "internalType": "uint256",
          "name": "",
          "type": "uint256"
        }
      ],
      "stateMutability": "nonpayable",
      "type": "function"
    },
    {
      "inputs": [],
      "name": "clock",
      "outputs": [
        {
          "internalType": "uint48",
          "name": "",
          "type": "uint48"
        }
      ],
      "stateMutability": "view",
      "type": "function"
    },
    {
      "inputs": [],
      "name": "eip712Domain",
      "outputs": [
        {
          "internalType": "bytes1",
          "name": "fields",
          "type": "bytes1"
        },
        {
          "internalType": "string",
          "name": "name",
          "type": "string"
        },
        {
          "internalType": "string",
          "name": "version",
          "type": "string"
        },
        {
          "internalType": "uint256",
          "name": "chainId",
          "type": "uint256"
        },
        {
          "internalType": "address",
          "name": "verifyingContract",
          "type": "address"
        },
        {
          "internalType": "bytes32",
          "name": "salt",
          "type": "bytes32"
        },
        {
          "internalType": "uint256[]",
          "name": "extensions",
          "type": "uint256[]"
        }
      ],
      "stateMutability": "view",
      "type": "function"
    },
    {
      "inputs": [
        {
          "internalType": "address[]",
          "name": "targets",
          "type": "address[]"
        },
        {
          "internalType": "uint256[]",
          "name": "values",
          "type": "uint256[]"
        },
        {
          "internalType": "bytes[]",
          "name": "calldatas",
          "type": "bytes[]"
        },
        {
          "internalType": "bytes32",
          "name": "descriptionHash",
          "type": "bytes32"
        }
      ],
      "name": "execute",
      "outputs": [
        {
          "internalType": "uint256",
          "name": "",
          "type": "uint256"
        }
      ],
      "stateMutability": "payable",
      "type": "function"
    },
    {
      "inputs": [
        {
          "internalType": "uint256",
          "name": "proposalId",
          "type": "uint256"
        }
      ],
      "name": "execute",
      "outputs": [],
      "stateMutability": "payable",
      "type": "function"
    },
    {
      "inputs": [
        {
          "internalType": "address",
          "name": "account",
          "type": "address"
        },
        {
          "internalType": "uint256",
          "name": "timepoint",
          "type": "uint256"
        }
      ],
      "name": "getVotes",
      "outputs": [
        {
          "internalType": "uint256",
          "name": "",
          "type": "uint256"
        }
      ],
      "stateMutability": "view",
      "type": "function"
    },
    {
      "inputs": [
        {
          "internalType": "address",
          "name": "account",
          "type": "address"
        },
        {
          "internalType": "uint256",
          "name": "timepoint",
          "type": "uint256"
        },
        {
          "internalType": "bytes",
          "name": "params",
          "type": "bytes"
        }
      ],
      "name": "getVotesWithParams",
      "outputs": [
        {
          "internalType": "uint256",
          "name": "",
          "type": "uint256"
        }
      ],
      "stateMutability": "view",
      "type": "function"
    },
    {
      "inputs": [
        {
          "internalType": "uint256",
          "name": "proposalId",
          "type": "uint256"
        },
        {
          "internalType": "address",
          "name": "account",
          "type": "address"
        }
      ],
      "name": "hasVoted",
      "outputs": [
        {
          "internalType": "bool",
          "name": "",
          "type": "bool"
        }
      ],
      "stateMutability": "view",
      "type": "function"
    },
    {
      "inputs": [
        {
          "internalType": "address[]",
          "name": "targets",
          "type": "address[]"
        },
        {
          "internalType": "uint256[]",
          "name": "values",
          "type": "uint256[]"
        },
        {
          "internalType": "bytes[]",
          "name": "calldatas",
          "type": "bytes[]"
        },
        {
          "internalType": "bytes32",
          "name": "descriptionHash",
          "type": "bytes32"
        }
      ],
      "name": "hashProposal",
      "outputs": [
        {
          "internalType": "uint256",
          "name": "",
          "type": "uint256"
        }
      ],
      "stateMutability": "pure",
      "type": "function"
    },
    {
      "inputs": [],
      "name": "name",
      "outputs": [
        {
          "internalType": "string",
          "name": "",
          "type": "string"
        }
      ],
      "stateMutability": "view",
      "type": "function"
    },
    {
      "inputs": [
        {
          "internalType": "address",
          "name": "owner",
          "type": "address"
        }
      ],
      "name": "nonces",
      "outputs": [
        {
          "internalType": "uint256",
          "name": "",
          "type": "uint256"
        }
      ],
      "stateMutability": "view",
      "type": "function"
    },
    {
      "inputs": [
        {
          "internalType": "address",
          "name": "",
          "type": "address"
        },
        {
          "internalType": "address",
          "name": "",
          "type": "address"
        },
        {
          "internalType": "uint256[]",
          "name": "",
          "type": "uint256[]"
        },
        {
          "internalType": "uint256[]",
          "name": "",
          "type": "uint256[]"
        },
        {
          "internalType": "bytes",
          "name": "",
          "type": "bytes"
        }
      ],
      "name": "onERC1155BatchReceived",
      "outputs": [
        {
          "internalType": "bytes4",
          "name": "",
          "type": "bytes4"
        }
      ],
      "stateMutability": "nonpayable",
      "type": "function"
    },
    {
      "inputs": [
        {
          "internalType": "address",
          "name": "",
          "type": "address"
        },
        {
          "internalType": "address",
          "name": "",
          "type": "address"
        },
        {
          "internalType": "uint256",
          "name": "",
          "type": "uint256"
        },
        {
          "internalType": "uint256",
          "name": "",
          "type": "uint256"
        },
        {
          "internalType": "bytes",
          "name": "",
          "type": "bytes"
        }
      ],
      "name": "onERC1155Received",
      "outputs": [
        {
          "internalType": "bytes4",
          "name": "",
          "type": "bytes4"
        }
      ],
      "stateMutability": "nonpayable",
      "type": "function"
    },
    {
      "inputs": [
        {
          "internalType": "address",
          "name": "",
          "type": "address"
        },
        {
          "internalType": "address",
          "name": "",
          "type": "address"
        },
        {
          "internalType": "uint256",
          "name": "",
          "type": "uint256"
        },
        {
          "internalType": "bytes",
          "name": "",
          "type": "bytes"
        }
      ],
      "name": "onERC721Received",
      "outputs": [
        {
          "internalType": "bytes4",
          "name": "",
          "type": "bytes4"
        }
      ],
      "stateMutability": "nonpayable",
      "type": "function"
    },
    {
      "inputs": [],
      "name": "proposalCount",
      "outputs": [
        {
          "internalType": "uint256",
          "name": "",
          "type": "uint256"
        }
      ],
      "stateMutability": "view",
      "type": "function"
    },
    {
      "inputs": [
        {
          "internalType": "uint256",
          "name": "proposalId",
          "type": "uint256"
        }
      ],
      "name": "proposalDeadline",
      "outputs": [
        {
          "internalType": "uint256",
          "name": "",
          "type": "uint256"
        }
      ],
      "stateMutability": "view",
      "type": "function"
    },
    {
      "inputs": [
        {
          "internalType": "uint256",
          "name": "proposalId",
          "type": "uint256"
        }
      ],
      "name": "proposalDetails",
      "outputs": [
        {
          "internalType": "address[]",
          "name": "",
          "type": "address[]"
        },
        {
          "internalType": "uint256[]",
          "name": "",
          "type": "uint256[]"
        },
        {
          "internalType": "bytes[]",
          "name": "",
          "type": "bytes[]"
        },
        {
          "internalType": "bytes32",
          "name": "",
          "type": "bytes32"
        }
      ],
      "stateMutability": "view",
      "type": "function"
    },
    {
      "inputs": [
        {
          "internalType": "uint256",
          "name": "index",
          "type": "uint256"
        }
      ],
      "name": "proposalDetailsAt",
      "outputs": [
        {
          "internalType": "uint256",
          "name": "",
          "type": "uint256"
        },
        {
          "internalType": "address[]",
          "name": "",
          "type": "address[]"
        },
        {
          "internalType": "uint256[]",
          "name": "",
          "type": "uint256[]"
        },
        {
          "internalType": "bytes[]",
          "name": "",
          "type": "bytes[]"
        },
        {
          "internalType": "bytes32",
          "name": "",
          "type": "bytes32"
        }
      ],
      "stateMutability": "view",
      "type": "function"
    },
    {
      "inputs": [
        {
          "internalType": "uint256",
          "name": "proposalId",
          "type": "uint256"
        }
      ],
      "name": "proposalEta",
      "outputs": [
        {
          "internalType": "uint256",
          "name": "",
          "type": "uint256"
        }
      ],
      "stateMutability": "view",
      "type": "function"
    },
    {
      "inputs": [
        {
          "internalType": "uint256",
          "name": "proposalId",
          "type": "uint256"
        }
      ],
      "name": "proposalNeedsQueuing",
      "outputs": [
        {
          "internalType": "bool",
          "name": "",
          "type": "bool"
        }
      ],
      "stateMutability": "view",
      "type": "function"
    },
    {
      "inputs": [
        {
          "internalType": "uint256",
          "name": "proposalId",
          "type": "uint256"
        }
      ],
      "name": "proposalProposer",
      "outputs": [
        {
          "internalType": "address",
          "name": "",
          "type": "address"
        }
      ],
      "stateMutability": "view",
      "type": "function"
    },
    {
      "inputs": [
        {
          "internalType": "uint256",
          "name": "proposalId",
          "type": "uint256"
        }
      ],
      "name": "proposalSnapshot",
      "outputs": [
        {
          "internalType": "uint256",
          "name": "",
          "type": "uint256"
        }
      ],
      "stateMutability": "view",
      "type": "function"
    },
    {
      "inputs": [],
      "name": "proposalThreshold",
      "outputs": [
        {
          "internalType": "uint256",
          "name": "",
          "type": "uint256"
        }
      ],
      "stateMutability": "view",
      "type": "function"
    },
    {
      "inputs": [
        {
          "internalType": "uint256",
          "name": "proposalId",
          "type": "uint256"
        }
      ],
      "name": "proposalVotes",
      "outputs": [
        {
          "internalType": "uint256",
          "name": "againstVotes",
          "type": "uint256"
        },
        {
          "internalType": "uint256",
          "name": "forVotes",
          "type": "uint256"
        },
        {
          "internalType": "uint256",
          "name": "abstainVotes",
          "type": "uint256"
        }
      ],
      "stateMutability": "view",
      "type": "function"
    },
    {
      "inputs": [
        {
          "internalType": "address[]",
          "name": "targets",
          "type": "address[]"
        },
        {
          "internalType": "uint256[]",
          "name": "values",
          "type": "uint256[]"
        },
        {
          "internalType": "bytes[]",
          "name": "calldatas",
          "type": "bytes[]"
        },
        {
          "internalType": "string",
          "name": "description",
          "type": "string"
        }
      ],
      "name": "propose",
      "outputs": [
        {
          "internalType": "uint256",
          "name": "",
          "type": "uint256"
        }
      ],
      "stateMutability": "nonpayable",
      "type": "function"
    },
    {
      "inputs": [
        {
          "internalType": "address[]",
          "name": "targets",
          "type": "address[]"
        },
        {
          "internalType": "uint256[]",
          "name": "values",
          "type": "uint256[]"
        },
        {
          "internalType": "bytes[]",
          "name": "calldatas",
          "type": "bytes[]"
        },
        {
          "internalType": "bytes32",
          "name": "descriptionHash",
          "type": "bytes32"
        }
      ],
      "name": "queue",
      "outputs": [
        {
          "internalType": "uint256",
          "name": "",
          "type": "uint256"
        }
      ],
      "stateMutability": "nonpayable",
      "type": "function"
    },
    {
      "inputs": [
        {
          "internalType": "uint256",
          "name": "proposalId",
          "type": "uint256"
        }
      ],
      "name": "queue",
      "outputs": [],
      "stateMutability": "nonpayable",
      "type": "function"
    },
    {
      "inputs": [
        {
          "internalType": "uint256",
          "name": "blockNumber",
          "type": "uint256"
        }
      ],
      "name": "quorum",
      "outputs": [
        {
          "internalType": "uint256",
          "name": "",
          "type": "uint256"
        }
      ],
      "stateMutability": "view",
      "type": "function"
    },
    {
      "inputs": [],
      "name": "quorumDenominator",
      "outputs": [
        {
          "internalType": "uint256",
          "name": "",
          "type": "uint256"
        }
      ],
      "stateMutability": "view",
      "type": "function"
    },
    {
      "inputs": [
        {
          "internalType": "uint256",
          "name": "timepoint",
          "type": "uint256"
        }
      ],
      "name": "quorumNumerator",
      "outputs": [
        {
          "internalType": "uint256",
          "name": "",
          "type": "uint256"
        }
      ],
      "stateMutability": "view",
      "type": "function"
    },
    {
      "inputs": [],
      "name": "quorumNumerator",
      "outputs": [
        {
          "internalType": "uint256",
          "name": "",
          "type": "uint256"
        }
      ],
      "stateMutability": "view",
      "type": "function"
    },
    {
      "inputs": [
        {
          "internalType": "address",
          "name": "target",
          "type": "address"
        },
        {
          "internalType": "uint256",
          "name": "value",
          "type": "uint256"
        },
        {
          "internalType": "bytes",
          "name": "data",
          "type": "bytes"
        }
      ],
      "name": "relay",
      "outputs": [],
      "stateMutability": "payable",
      "type": "function"
    },
    {
      "inputs": [
        {
          "internalType": "uint256",
          "name": "newProposalThreshold",
          "type": "uint256"
        }
      ],
      "name": "setProposalThreshold",
      "outputs": [],
      "stateMutability": "nonpayable",
      "type": "function"
    },
    {
      "inputs": [
        {
          "internalType": "uint48",
          "name": "newVotingDelay",
          "type": "uint48"
        }
      ],
      "name": "setVotingDelay",
      "outputs": [],
      "stateMutability": "nonpayable",
      "type": "function"
    },
    {
      "inputs": [
        {
          "internalType": "uint32",
          "name": "newVotingPeriod",
          "type": "uint32"
        }
      ],
      "name": "setVotingPeriod",
      "outputs": [],
      "stateMutability": "nonpayable",
      "type": "function"
    },
    {
      "inputs": [
        {
          "internalType": "uint256",
          "name": "proposalId",
          "type": "uint256"
        }
      ],
      "name": "state",
      "outputs": [
        {
          "internalType": "enum IGovernor.ProposalState",
          "name": "",
          "type": "uint8"
        }
      ],
      "stateMutability": "view",
      "type": "function"
    },
    {
      "inputs": [
        {
          "internalType": "bytes4",
          "name": "interfaceId",
          "type": "bytes4"
        }
      ],
      "name": "supportsInterface",
      "outputs": [
        {
          "internalType": "bool",
          "name": "",
          "type": "bool"
        }
      ],
      "stateMutability": "view",
      "type": "function"
    },
    {
      "inputs": [],
      "name": "timelock",
      "outputs": [
        {
          "internalType": "address",
          "name": "",
          "type": "address"
        }
      ],
      "stateMutability": "view",
      "type": "function"
    },
    {
      "inputs": [],
      "name": "token",
      "outputs": [
        {
          "internalType": "contract IERC5805",
          "name": "",
          "type": "address"
        }
      ],
      "stateMutability": "view",
      "type": "function"
    },
    {
      "inputs": [
        {
          "internalType": "uint256",
          "name": "newQuorumNumerator",
          "type": "uint256"
        }
      ],
      "name": "updateQuorumNumerator",
      "outputs": [],
      "stateMutability": "nonpayable",
      "type": "function"
    },
    {
      "inputs": [
        {
          "internalType": "contract TimelockController",
          "name": "newTimelock",
          "type": "address"
        }
      ],
      "name": "updateTimelock",
      "outputs": [],
      "stateMutability": "nonpayable",
      "type": "function"
    },
    {
      "inputs": [],
      "name": "version",
      "outputs": [
        {
          "internalType": "string",
          "name": "",
          "type": "string"
        }
      ],
      "stateMutability": "view",
      "type": "function"
    },
    {
      "inputs": [],
      "name": "votingDelay",
      "outputs": [
        {
          "internalType": "uint256",
          "name": "",
          "type": "uint256"
        }
      ],
      "stateMutability": "view",
      "type": "function"
    },
    {
      "inputs": [],
      "name": "votingPeriod",
      "outputs": [
        {
          "internalType": "uint256",
          "name": "",
          "type": "uint256"
        }
      ],
      "stateMutability": "view",
      "type": "function"
    },
    {
      "stateMutability": "payable",
      "type": "receive"
    }
  ],
  "bytecode": "0x6101806040523480156200001257600080fd5b5060405162005b2138038062005b218339810160408190526200003591620007b4565b80600483611c2061c4e0683635c9adc5dea000006040518060400160405280600a81526020016926bca3b7bb32b93737b960b11b815250806200007d6200019460201b60201c565b6200008a826000620001af565b610120526200009b816001620001af565b61014052815160208084019190912060e052815190820120610100524660a0526200012960e05161010051604080517f8b73c3c69bb8fe3d512ecc4cf759cc79239f7b179b0ffacaa9a75d522b39400f60208201529081019290925260608201524660808201523060a082015260009060c00160405160208183030381529060405280519060200120905090565b60805250503060c052600362000140828262000898565b506200014e905083620001e8565b62000159826200024e565b6200016481620002f5565b5050506001600160a01b0316610160526200017f8162000336565b506200018b81620003d6565b50505062000a25565b6040805180820190915260018152603160f81b602082015290565b6000602083511015620001cf57620001c7836200043f565b9050620001e2565b81620001dc848262000898565b5060ff90505b92915050565b6008546040805165ffffffffffff928316815291831660208301527fc565b045403dc03c2eea82b81a0465edad9e2e7fc4d97e11421c209da93d7a93910160405180910390a16008805465ffffffffffff191665ffffffffffff92909216919091179055565b8063ffffffff166000036200027e5760405163f1cfbf0560e01b8152600060048201526024015b60405180910390fd5b6008546040805163ffffffff66010000000000009093048316815291831660208301527f7e3f7f0708a84de9203036abaa450dccc85ad5ff52f78c170f3edb55cf5e8828910160405180910390a16008805463ffffffff90921666010000000000000263ffffffff60301b19909216919091179055565b60075460408051918252602082018390527fccb45da8d5717e6c4544694297c4ba5cf151d455c9bb0ed4fc7a38411bc05461910160405180910390a1600755565b606480821115620003655760405163243e544560e01b8152600481018390526024810182905260440162000275565b60006200037162000482565b905062000396620003816200049e565b6200038c8562000520565b600c91906200055a565b505060408051828152602081018590527f0553476bf02ef2726e8ce5ced78d63e26e602e4a2257b1f559418e24b4633997910160405180910390a1505050565b600d54604080516001600160a01b03928316815291831660208301527f08f74ea46ef7894f65eabfb5e6e695de773a000b47c529ab559178069b226401910160405180910390a1600d80546001600160a01b0319166001600160a01b0392909216919091179055565b600080829050601f815111156200046d578260405163305a27a960e01b815260040162000275919062000964565b80516200047a82620009b4565b179392505050565b600062000490600c62000577565b6001600160d01b0316905090565b6000620004ab6101605190565b6001600160a01b03166391ddadf46040518163ffffffff1660e01b8152600401602060405180830381865afa92505050801562000507575060408051601f3d908101601f191682019092526200050491810190620009d9565b60015b6200051b5762000516620005c7565b905090565b919050565b60006001600160d01b0382111562000556576040516306dfcc6560e41b815260d060048201526024810183905260440162000275565b5090565b6000806200056a858585620005d4565b915091505b935093915050565b80546000908015620005bd57620005a3836200059560018462000a03565b600091825260209091200190565b54660100000000000090046001600160d01b0316620005c0565b60005b9392505050565b6000620005164362000766565b82546000908190801562000707576000620005f6876200059560018562000a03565b60408051808201909152905465ffffffffffff80821680845266010000000000009092046001600160d01b0316602084015291925090871610156200064e57604051632520601d60e01b815260040160405180910390fd5b805165ffffffffffff808816911603620006a2578462000675886200059560018662000a03565b80546001600160d01b039290921666010000000000000265ffffffffffff909216919091179055620006f6565b6040805180820190915265ffffffffffff80881682526001600160d01b0380881660208085019182528b54600181018d5560008d815291909120945191519092166601000000000000029216919091179101555b6020015192508391506200056f9050565b50506040805180820190915265ffffffffffff80851682526001600160d01b0380851660208085019182528854600181018a5560008a81529182209551925190931666010000000000000291909316179201919091559050816200056f565b600065ffffffffffff82111562000556576040516306dfcc6560e41b8152603060048201526024810183905260440162000275565b6001600160a01b0381168114620007b157600080fd5b50565b60008060408385031215620007c857600080fd5b8251620007d5816200079b565b6020840151909250620007e8816200079b565b809150509250929050565b634e487b7160e01b600052604160045260246000fd5b600181811c908216806200081e57607f821691505b6020821081036200083f57634e487b7160e01b600052602260045260246000fd5b50919050565b601f8211156200089357600081815260208120601f850160051c810160208610156200086e5750805b601f850160051c820191505b818110156200088f578281556001016200087a565b5050505b505050565b81516001600160401b03811115620008b457620008b4620007f3565b620008cc81620008c5845462000809565b8462000845565b602080601f831160018114620009045760008415620008eb5750858301515b600019600386901b1c1916600185901b1785556200088f565b600085815260208120601f198616915b82811015620009355788860151825594840194600190910190840162000914565b5085821015620009545787850151600019600388901b60f8161c191681555b5050505050600190811b01905550565b600060208083528351808285015260005b81811015620009935785810183015185820160400152820162000975565b506000604082860101526040601f19601f8301168501019250505092915050565b805160208083015191908110156200083f5760001960209190910360031b1b16919050565b600060208284031215620009ec57600080fd5b815165ffffffffffff81168114620005c057600080fd5b81810381811115620001e257634e487b7160e01b600052601160045260246000fd5b60805160a05160c05160e0516101005161012051610140516101605161507a62000aa760003960008181610b72015281816113f00152818161194b015281816127190152612973015260006126e4015260006126b701526000612fcc01526000612fa401526000612eff01526000612f2901526000612f53015261507a6000f3fe6080604052600436106103595760003560e01c80637ecebe00116101bb578063c28bc2fa116100f7578063e540d01d11610095578063f23a6e611161006f578063f23a6e6114610b23578063f8ce560a14610b43578063fc0c546a14610b63578063fe0d94c114610b9657600080fd5b8063e540d01d14610ac3578063eb9019d414610ae3578063ece40cc114610b0357600080fd5b8063da35c664116100d1578063da35c66414610a14578063dd4e2ba514610a29578063ddf0b00914610a6f578063deaaa7cc14610a8f57600080fd5b8063c28bc2fa146109c3578063c59057e4146109d6578063d33219b4146109f657600080fd5b8063a7713a7011610164578063ab58fb8e1161013e578063ab58fb8e14610936578063b58131b01461096e578063bc197c8114610983578063c01f9e37146109a357600080fd5b8063a7713a70146108e1578063a890c910146108f6578063a9a952941461091657600080fd5b806391ddadf41161019557806391ddadf41461088157806397c3d334146108ad5780639a802a6d146108c157600080fd5b80637ecebe001461080357806384b0196e146108395780638ff262e31461086157600080fd5b80633e4f49e611610295578063567813881161023357806360c4247f1161020d57806360c4247f1461078357806379051887146107a35780637b3c71d3146107c35780637d5e81e2146107e357600080fd5b806356781388146107235780635b8d0e0d146107435780635f398a141461076357600080fd5b8063452115d61161026f578063452115d61461066f5780634bf5d7e91461068f578063544ffc9c146106a457806354fd4d50146106f957600080fd5b80633e4f49e6146105d857806340e58ee514610605578063438596321461062557600080fd5b8063160cbed7116103025780632d63f693116102dc5780632d63f693146105225780632e82db941461055e5780632fe3e2611461058f5780633932abb1146105c357600080fd5b8063160cbed7146104bf57806316e9eaec146104df5780632656227d1461050f57600080fd5b806306fdde031161033357806306fdde0314610416578063143489d014610438578063150b7a021461048657600080fd5b806301ffc9a71461039557806302a251a3146103ca57806306f3f9e6146103f657600080fd5b366103905730610367610ba9565b6001600160a01b03161461038e57604051637485328f60e11b815260040160405180910390fd5b005b600080fd5b3480156103a157600080fd5b506103b56103b0366004613e50565b610bc2565b60405190151581526020015b60405180910390f35b3480156103d657600080fd5b50600854600160301b900463ffffffff165b6040519081526020016103c1565b34801561040257600080fd5b5061038e610411366004613e7a565b610c14565b34801561042257600080fd5b5061042b610c28565b6040516103c19190613ee3565b34801561044457600080fd5b5061046e610453366004613e7a565b6000908152600460205260409020546001600160a01b031690565b6040516001600160a01b0390911681526020016103c1565b34801561049257600080fd5b506104a66104a1366004613fd8565b610cba565b6040516001600160e01b031990911681526020016103c1565b3480156104cb57600080fd5b506103e86104da3660046141b2565b610cfd565b3480156104eb57600080fd5b506104ff6104fa366004613e7a565b610dcc565b6040516103c1949392919061430b565b6103e861051d3660046141b2565b610fd6565b34801561052e57600080fd5b506103e861053d366004613e7a565b600090815260046020526040902054600160a01b900465ffffffffffff1690565b34801561056a57600080fd5b5061057e610579366004613e7a565b61116e565b6040516103c1959493929190614356565b34801561059b57600080fd5b506103e87f3e83946653575f9a39005e1545185629e92736b7528ab20ca3816f315424a81181565b3480156105cf57600080fd5b506103e86111be565b3480156105e457600080fd5b506105f86105f3366004613e7a565b6111d1565b6040516103c191906143e0565b34801561061157600080fd5b5061038e610620366004613e7a565b6111dc565b34801561063157600080fd5b506103b56106403660046143ee565b60008281526009602090815260408083206001600160a01b038516845260030190915290205460ff1692915050565b34801561067b57600080fd5b506103e861068a3660046141b2565b61137d565b34801561069b57600080fd5b5061042b6113ec565b3480156106b057600080fd5b506106de6106bf366004613e7a565b6000908152600960205260409020805460018201546002909201549092565b604080519384526020840192909252908201526060016103c1565b34801561070557600080fd5b506040805180820190915260018152603160f81b602082015261042b565b34801561072f57600080fd5b506103e861073e36600461442f565b6114ae565b34801561074f57600080fd5b506103e861075e3660046144a4565b6114d7565b34801561076f57600080fd5b506103e861077e36600461455f565b611636565b34801561078f57600080fd5b506103e861079e366004613e7a565b61168b565b3480156107af57600080fd5b5061038e6107be3660046145f7565b611719565b3480156107cf57600080fd5b506103e86107de366004614614565b61172a565b3480156107ef57600080fd5b506103e86107fe36600461466e565b611772565b34801561080f57600080fd5b506103e861081e366004614723565b6001600160a01b031660009081526002602052604090205490565b34801561084557600080fd5b5061084e61182f565b6040516103c19796959493929190614740565b34801561086d57600080fd5b506103e861087c3660046147ae565b611875565b34801561088d57600080fd5b50610896611947565b60405165ffffffffffff90911681526020016103c1565b3480156108b957600080fd5b5060646103e8565b3480156108cd57600080fd5b506103e86108dc366004614800565b6119cf565b3480156108ed57600080fd5b506103e86119dc565b34801561090257600080fd5b5061038e610911366004614723565b6119f6565b34801561092257600080fd5b506103b5610931366004613e7a565b611a07565b34801561094257600080fd5b506103e8610951366004613e7a565b60009081526004602052604090206001015465ffffffffffff1690565b34801561097a57600080fd5b506103e8611a10565b34801561098f57600080fd5b506104a661099e366004614859565b611a1b565b3480156109af57600080fd5b506103e86109be366004613e7a565b611a5f565b61038e6109d13660046148ed565b611aa2565b3480156109e257600080fd5b506103e86109f13660046141b2565b611b22565b348015610a0257600080fd5b50600d546001600160a01b031661046e565b348015610a2057600080fd5b50600a546103e8565b348015610a3557600080fd5b506040805180820190915260208082527f737570706f72743d627261766f2671756f72756d3d666f722c6162737461696e9082015261042b565b348015610a7b57600080fd5b5061038e610a8a366004613e7a565b611b5c565b348015610a9b57600080fd5b506103e87ff2aad550cf55f045cb27e9c559f9889fdfb6e6cdaa032301d6ea397784ae51d781565b348015610acf57600080fd5b5061038e610ade366004614931565b611cf8565b348015610aef57600080fd5b506103e8610afe366004614957565b611d09565b348015610b0f57600080fd5b5061038e610b1e366004613e7a565b611d31565b348015610b2f57600080fd5b506104a6610b3e366004614983565b611d42565b348015610b4f57600080fd5b506103e8610b5e366004613e7a565b611d86565b348015610b6f57600080fd5b507f000000000000000000000000000000000000000000000000000000000000000061046e565b61038e610ba4366004613e7a565b611d91565b6000610bbd600d546001600160a01b031690565b905090565b60006001600160e01b031982166332a2ad4360e11b1480610bf357506001600160e01b03198216630271189760e51b145b80610c0e57506301ffc9a760e01b6001600160e01b03198316145b92915050565b610c1c611f2d565b610c2581611fa7565b50565b606060038054610c37906149ec565b80601f0160208091040260200160405190810160405280929190818152602001828054610c63906149ec565b8015610cb05780601f10610c8557610100808354040283529160200191610cb0565b820191906000526020600020905b815481529060010190602001808311610c9357829003601f168201915b5050505050905090565b600030610cc5610ba9565b6001600160a01b031614610cec57604051637485328f60e11b815260040160405180910390fd5b50630a85bd0160e11b949350505050565b600080610d0c86868686611b22565b9050610d2181610d1c600461203d565b612060565b506000610d31828888888861209f565b905065ffffffffffff811615610da957600082815260046020908152604091829020600101805465ffffffffffff191665ffffffffffff85169081179091558251858152918201527f9a2e42fd6722813d69113e7d0079d3d940171428df7373df9c7f7617cfda2892910160405180910390a1610dc2565b604051634844252360e11b815260040160405180910390fd5b5095945050505050565b6000818152600b602090815260408083208151815460a0948102820185019093526080810183815260609586958695919485949390928492849190840182828015610e4057602002820191906000526020600020905b81546001600160a01b03168152600190910190602001808311610e22575b5050505050815260200160018201805480602002602001604051908101604052809291908181526020018280548015610e9857602002820191906000526020600020905b815481526020019060010190808311610e84575b5050505050815260200160028201805480602002602001604051908101604052809291908181526020016000905b82821015610f72578382906000526020600020018054610ee5906149ec565b80601f0160208091040260200160405190810160405280929190818152602001828054610f11906149ec565b8015610f5e5780601f10610f3357610100808354040283529160200191610f5e565b820191906000526020600020905b815481529060010190602001808311610f4157829003601f168201915b505050505081526020019060010190610ec6565b505050508152602001600382015481525050905080606001516000801b03610fb557604051636ad0607560e01b8152600481018790526024015b60405180910390fd5b80516020820151604083015160609093015191989097509195509350915050565b600080610fe586868686611b22565b905061100581610ff5600561203d565b610fff600461203d565b17612060565b50600081815260046020526040902080547fff00ffffffffffffffffffffffffffffffffffffffffffffffffffffffffffff16600160f01b17905530611049610ba9565b6001600160a01b0316146110db5760005b86518110156110d957306001600160a01b031687828151811061107f5761107f614a26565b60200260200101516001600160a01b0316036110c9576110c98582815181106110aa576110aa614a26565b60200260200101518051906020012060056120ae90919063ffffffff16565b6110d281614a52565b905061105a565b505b6110e88187878787612131565b306110f1610ba9565b6001600160a01b03161415801561112657506005546fffffffffffffffffffffffffffffffff808216600160801b9092041614155b156111315760006005555b6040518181527f712ae1383f79ac853f8d882153778e0260ef8f03b504e2866e0593e04d2b291f906020015b60405180910390a195945050505050565b60006060806060600080600a878154811061118b5761118b614a26565b906000526020600020015490506000806000806111a785610dcc565b979e929d50909b5099509497509395505050505050565b6000610bbd60085465ffffffffffff1690565b6000610c0e82612145565b6000818152600b602090815260409182902080548351818402810184019094528084529092611378929091849183018282801561124257602002820191906000526020600020905b81546001600160a01b03168152600190910190602001808311611224575b50505050508260010180548060200260200160405190810160405280929190818152602001828054801561129557602002820191906000526020600020905b815481526020019060010190808311611281575b505050505083600201805480602002602001604051908101604052809291908181526020016000905b8282101561136a5783829060005260206000200180546112dd906149ec565b80601f0160208091040260200160405190810160405280929190818152602001828054611309906149ec565b80156113565780601f1061132b57610100808354040283529160200191611356565b820191906000526020600020905b81548152906001019060200180831161133957829003601f168201915b5050505050815260200190600101906112be565b50505050846003015461137d565b505050565b60008061138c86868686611b22565b905061139c81610d1c600061203d565b506000818152600460205260409020546001600160a01b031633146113d65760405163233d98e360e01b8152336004820152602401610fac565b6113e286868686612284565b9695505050505050565b60607f00000000000000000000000000000000000000000000000000000000000000006001600160a01b0316634bf5d7e96040518163ffffffff1660e01b8152600401600060405180830381865afa92505050801561146d57506040513d6000823e601f3d908101601f1916820160405261146a9190810190614a6b565b60015b6114a9575060408051808201909152601d81527f6d6f64653d626c6f636b6e756d6265722666726f6d3d64656661756c74000000602082015290565b919050565b6000803390506114cf8482856040518060200160405280600081525061229b565b949350505050565b6000806115ba876115b47f3e83946653575f9a39005e1545185629e92736b7528ab20ca3816f315424a8118c8c8c61152c8e6001600160a01b0316600090815260026020526040902080546001810190915590565b8d8d60405161153c929190614ad9565b60405180910390208c805190602001206040516020016115999796959493929190968752602087019590955260ff9390931660408601526001600160a01b03919091166060850152608084015260a083015260c082015260e00190565b604051602081830303815290604052805190602001206122be565b856122eb565b9050806115e5576040516394ab6c0760e01b81526001600160a01b0388166004820152602401610fac565b61162989888a89898080601f0160208091040260200160405190810160405280939291908181526020018383808284376000920191909152508b9250612343915050565b9998505050505050505050565b60008033905061168087828888888080601f0160208091040260200160405190810160405280939291908181526020018383808284376000920191909152508a9250612343915050565b979650505050505050565b600c8054600091829061169f600184614ae9565b815481106116af576116af614a26565b6000918252602090912001805490915065ffffffffffff811690600160301b90046001600160d01b03168582116116f2576001600160d01b031695945050505050565b6117066116fe87612435565b600c9061246c565b6001600160d01b03169695505050505050565b611721611f2d565b610c2581612521565b6000803390506113e286828787878080601f01602080910402602001604051908101604052809392919081815260200183838082843760009201919091525061229b92505050565b60003361177f8184612587565b6117a75760405163d9b3955760e01b81526001600160a01b0382166004820152602401610fac565b60006117ce8260016117b7611947565b6117c19190614afc565b65ffffffffffff16611d09565b905060006117da611a10565b90508082101561181657604051636121770b60e11b81526001600160a01b03841660048201526024810183905260448101829052606401610fac565b61182388888888876126a1565b98975050505050505050565b6000606080600080600060606118436126b0565b61184b6126dd565b60408051600080825260208201909252600f60f81b9b939a50919850469750309650945092509050565b600080611901846115b47ff2aad550cf55f045cb27e9c559f9889fdfb6e6cdaa032301d6ea397784ae51d78989896118ca8b6001600160a01b0316600090815260026020526040902080546001810190915590565b60408051602081019690965285019390935260ff90911660608401526001600160a01b0316608083015260a082015260c001611599565b90508061192c576040516394ab6c0760e01b81526001600160a01b0385166004820152602401610fac565b6113e28685876040518060200160405280600081525061229b565b60007f00000000000000000000000000000000000000000000000000000000000000006001600160a01b03166391ddadf46040518163ffffffff1660e01b8152600401602060405180830381865afa9250505080156119c3575060408051601f3d908101601f191682019092526119c091810190614b22565b60015b6114a957610bbd61270a565b60006114cf848484612715565b60006119e8600c6127ab565b6001600160d01b0316905090565b6119fe611f2d565b610c25816127e4565b60006001610c0e565b6000610bbd60075490565b600030611a26610ba9565b6001600160a01b031614611a4d57604051637485328f60e11b815260040160405180910390fd5b5063bc197c8160e01b95945050505050565b600081815260046020526040812054611a9490600160d01b810463ffffffff1690600160a01b900465ffffffffffff16614b3f565b65ffffffffffff1692915050565b611aaa611f2d565b600080856001600160a01b0316858585604051611ac8929190614ad9565b60006040518083038185875af1925050503d8060008114611b05576040519150601f19603f3d011682016040523d82523d6000602084013e611b0a565b606091505b5091509150611b19828261284d565b50505050505050565b600084848484604051602001611b3b949392919061430b565b60408051601f19818403018152919052805160209091012095945050505050565b6000818152600b6020908152604091829020805483518184028101840190945280845290926113789290918491830182828015611bc257602002820191906000526020600020905b81546001600160a01b03168152600190910190602001808311611ba4575b505050505082600101805480602002602001604051908101604052809291908181526020018280548015611c1557602002820191906000526020600020905b815481526020019060010190808311611c01575b505050505083600201805480602002602001604051908101604052809291908181526020016000905b82821015611cea578382906000526020600020018054611c5d906149ec565b80601f0160208091040260200160405190810160405280929190818152602001828054611c89906149ec565b8015611cd65780601f10611cab57610100808354040283529160200191611cd6565b820191906000526020600020905b815481529060010190602001808311611cb957829003601f168201915b505050505081526020019060010190611c3e565b505050508460030154610cfd565b611d00611f2d565b610c2581612869565b6000611d2a8383611d2560408051602081019091526000815290565b612715565b9392505050565b611d39611f2d565b610c2581612907565b600030611d4d610ba9565b6001600160a01b031614611d7457604051637485328f60e11b815260040160405180910390fd5b5063f23a6e6160e01b95945050505050565b6000610c0e82612948565b6000818152600b6020908152604091829020805483518184028101840190945280845290926113789290918491830182828015611df757602002820191906000526020600020905b81546001600160a01b03168152600190910190602001808311611dd9575b505050505082600101805480602002602001604051908101604052809291908181526020018280548015611e4a57602002820191906000526020600020905b815481526020019060010190808311611e36575b505050505083600201805480602002602001604051908101604052809291908181526020016000905b82821015611f1f578382906000526020600020018054611e92906149ec565b80601f0160208091040260200160405190810160405280929190818152602001828054611ebe906149ec565b8015611f0b5780601f10611ee057610100808354040283529160200191611f0b565b820191906000526020600020905b815481529060010190602001808311611eee57829003601f168201915b505050505081526020019060010190611e73565b505050508460030154610fd6565b33611f36610ba9565b6001600160a01b031614611f5f576040516347096e4760e01b8152336004820152602401610fac565b30611f68610ba9565b6001600160a01b031614611fa55760008036604051611f88929190614ad9565b604051809103902090505b80611f9e60056129f2565b03611f9357505b565b606480821115611fd45760405163243e544560e01b81526004810183905260248101829052604401610fac565b6000611fde6119dc565b9050611ffd611feb611947565b611ff485612a82565b600c9190612ab6565b505060408051828152602081018590527f0553476bf02ef2726e8ce5ced78d63e26e602e4a2257b1f559418e24b4633997910160405180910390a1505050565b6000816007811115612051576120516143a8565b600160ff919091161b92915050565b60008061206c846111d1565b905060008361207a8361203d565b1603611d2a578381846040516331b75e4d60e01b8152600401610fac93929190614b5e565b60006113e28686868686612ad1565b81546fffffffffffffffffffffffffffffffff600160801b8204811691811660018301909116036120f257604051638acb5f2760e01b815260040160405180910390fd5b6fffffffffffffffffffffffffffffffff808216600090815260018086016020526040909120939093558354919092018216600160801b029116179055565b61213e8585858585612c70565b5050505050565b60008061215183612d06565b90506005816007811115612167576121676143a8565b146121725792915050565b6000838152600e60205260409081902054600d549151632c258a9f60e11b81526004810182905290916001600160a01b03169063584b153e90602401602060405180830381865afa1580156121cb573d6000803e3d6000fd5b505050506040513d601f19601f820116820180604052508101906121ef9190614b80565b156121fe575060059392505050565b600d54604051632ab0f52960e01b8152600481018390526001600160a01b0390911690632ab0f52990602401602060405180830381865afa158015612247573d6000803e3d6000fd5b505050506040513d601f19601f8201168201806040525081019061226b9190614b80565b1561227a575060079392505050565b5060029392505050565b600061229285858585612e53565b95945050505050565b6000612292858585856122b960408051602081019091526000815290565b612343565b6000610c0e6122cb612ef2565b8360405161190160f01b8152600281019290925260228201526042902090565b60008060006122fa858561301d565b5090925090506000816003811115612314576123146143a8565b1480156123325750856001600160a01b0316826001600160a01b0316145b806113e257506113e286868661306a565b600061235386610d1c600161203d565b5060008681526004602052604081205461237e908790600160a01b900465ffffffffffff1685612715565b905061238d878787848761315a565b82516000036123e257856001600160a01b03167fb8e138887d0aa13bab447e82de9d5c1777041ecd21ca36ba824ff1e6c07ddda4888784886040516123d59493929190614ba2565b60405180910390a26113e2565b856001600160a01b03167fe2babfbac5889a709b63bb7f598b324e08bc5a4fb9ec647fb3cbc9ec07eb87128887848888604051612423959493929190614bca565b60405180910390a29695505050505050565b600065ffffffffffff821115612468576040516306dfcc6560e41b81526030600482015260248101839052604401610fac565b5090565b8154600090818160058111156124cb5760006124878461325b565b6124919085614ae9565b60008881526020902090915081015465ffffffffffff90811690871610156124bb578091506124c9565b6124c6816001614c04565b92505b505b60006124d987878585613343565b90508015612514576124fe876124f0600184614ae9565b600091825260209091200190565b54600160301b90046001600160d01b0316611680565b6000979650505050505050565b6008546040805165ffffffffffff928316815291831660208301527fc565b045403dc03c2eea82b81a0465edad9e2e7fc4d97e11421c209da93d7a93910160405180910390a16008805465ffffffffffff191665ffffffffffff92909216919091179055565b8051600090603481101561259f576001915050610c0e565b82810160131901516001600160a01b031981167f2370726f706f7365723d30780000000000000000000000000000000000000000146125e357600192505050610c0e565b6000806125f1602885614ae9565b90505b838110156126805760008061264088848151811061261457612614614a26565b01602001517fff00000000000000000000000000000000000000000000000000000000000000166133a5565b91509150816126585760019650505050505050610c0e565b8060ff166004856001600160a01b0316901b17935050508061267990614a52565b90506125f4565b50856001600160a01b0316816001600160a01b031614935050505092915050565b60006113e28686868686613437565b6060610bbd7f00000000000000000000000000000000000000000000000000000000000000006000613512565b6060610bbd7f00000000000000000000000000000000000000000000000000000000000000006001613512565b6000610bbd43612435565b60007f0000000000000000000000000000000000000000000000000000000000000000604051630748d63560e31b81526001600160a01b038681166004830152602482018690529190911690633a46b1a890604401602060405180830381865afa158015612787573d6000803e3d6000fd5b505050506040513d601f19601f820116820180604052508101906114cf9190614c17565b805460009080156127db576127c5836124f0600184614ae9565b54600160301b90046001600160d01b0316611d2a565b60009392505050565b600d54604080516001600160a01b03928316815291831660208301527f08f74ea46ef7894f65eabfb5e6e695de773a000b47c529ab559178069b226401910160405180910390a1600d80546001600160a01b0319166001600160a01b0392909216919091179055565b6060826128625761285d826135bd565b610c0e565b5080610c0e565b8063ffffffff166000036128935760405163f1cfbf0560e01b815260006004820152602401610fac565b6008546040805163ffffffff600160301b9093048316815291831660208301527f7e3f7f0708a84de9203036abaa450dccc85ad5ff52f78c170f3edb55cf5e8828910160405180910390a16008805463ffffffff909216600160301b0269ffffffff00000000000019909216919091179055565b60075460408051918252602082018390527fccb45da8d5717e6c4544694297c4ba5cf151d455c9bb0ed4fc7a38411bc05461910160405180910390a1600755565b600060646129558361168b565b604051632394e7a360e21b8152600481018590526001600160a01b037f00000000000000000000000000000000000000000000000000000000000000001690638e539e8c90602401602060405180830381865afa1580156129ba573d6000803e3d6000fd5b505050506040513d601f19601f820116820180604052508101906129de9190614c17565b6129e89190614c30565b610c0e9190614c5d565b80546000906fffffffffffffffffffffffffffffffff80821691600160801b9004168103612a33576040516375e52f4f60e01b815260040160405180910390fd5b6fffffffffffffffffffffffffffffffff8181166000908152600185810160205260408220805492905585546fffffffffffffffffffffffffffffffff19169301909116919091179092555090565b60006001600160d01b03821115612468576040516306dfcc6560e41b815260d0600482015260248101839052604401610fac565b600080612ac48585856135e6565b915091505b935093915050565b600080600d60009054906101000a90046001600160a01b03166001600160a01b031663f27a0c926040518163ffffffff1660e01b8152600401602060405180830381865afa158015612b27573d6000803e3d6000fd5b505050506040513d601f19601f82011682018060405250810190612b4b9190614c17565b905060003060601b6bffffffffffffffffffffffff19168418600d5460405163b1c5f42760e01b81529192506001600160a01b03169063b1c5f42790612b9e908a908a908a906000908890600401614c7f565b602060405180830381865afa158015612bbb573d6000803e3d6000fd5b505050506040513d601f19601f82011682018060405250810190612bdf9190614c17565b6000898152600e602052604080822092909255600d5491516308f2a0bb60e41b81526001600160a01b0390921691638f2a0bb091612c2a918b918b918b919088908a90600401614ccd565b600060405180830381600087803b158015612c4457600080fd5b505af1158015612c58573d6000803e3d6000fd5b505050506118238242612c6b9190614c04565b612435565b600d546001600160a01b031663e38335e53486868660003060601b6bffffffffffffffffffffffff191688186040518763ffffffff1660e01b8152600401612cbc959493929190614c7f565b6000604051808303818588803b158015612cd557600080fd5b505af1158015612ce9573d6000803e3d6000fd5b50505060009687525050600e602052505060408320929092555050565b6000818152600460205260408120805460ff600160f01b8204811691600160f81b9004168115612d3b57506007949350505050565b8015612d4c57506002949350505050565b600085815260046020526040812054600160a01b900465ffffffffffff16905080600003612d9057604051636ad0607560e01b815260048101879052602401610fac565b6000612d9a611947565b65ffffffffffff169050808210612db8575060009695505050505050565b6000612dc388611a5f565b9050818110612dda57506001979650505050505050565b612de388613760565b1580612e0357506000888152600960205260409020805460019091015411155b15612e1657506003979650505050505050565b60008881526004602052604090206001015465ffffffffffff16600003612e4557506004979650505050505050565b506005979650505050505050565b600080612e62868686866137b2565b6000818152600e60205260409020549091508015610dc257600d5460405163c4d252f560e01b8152600481018390526001600160a01b039091169063c4d252f590602401600060405180830381600087803b158015612ec057600080fd5b505af1158015612ed4573d6000803e3d6000fd5b5050506000838152600e602052604081205550509050949350505050565b6000306001600160a01b037f000000000000000000000000000000000000000000000000000000000000000016148015612f4b57507f000000000000000000000000000000000000000000000000000000000000000046145b15612f7557507f000000000000000000000000000000000000000000000000000000000000000090565b610bbd604080517f8b73c3c69bb8fe3d512ecc4cf759cc79239f7b179b0ffacaa9a75d522b39400f60208201527f0000000000000000000000000000000000000000000000000000000000000000918101919091527f000000000000000000000000000000000000000000000000000000000000000060608201524660808201523060a082015260009060c00160405160208183030381529060405280519060200120905090565b600080600083516041036130575760208401516040850151606086015160001a6130498882858561387b565b955095509550505050613063565b50508151600091506002905b9250925092565b6000806000856001600160a01b0316858560405160240161308c929190614d25565b60408051601f198184030181529181526020820180517bffffffffffffffffffffffffffffffffffffffffffffffffffffffff16630b135d3f60e11b179052516130d69190614d3e565b600060405180830381855afa9150503d8060008114613111576040519150601f19603f3d011682016040523d82523d6000602084013e613116565b606091505b509150915081801561312a57506020815110155b80156113e257508051630b135d3f60e11b9061314f9083016020908101908401614c17565b149695505050505050565b60008581526009602090815260408083206001600160a01b0388168452600381019092529091205460ff16156131ae576040516371c6af4960e01b81526001600160a01b0386166004820152602401610fac565b6001600160a01b03851660009081526003820160205260409020805460ff1916600117905560ff84166131fa57828160000160008282546131ef9190614c04565b909155506132539050565b60001960ff85160161321a57828160010160008282546131ef9190614c04565b60011960ff85160161323a57828160020160008282546131ef9190614c04565b6040516303599be160e11b815260040160405180910390fd5b505050505050565b60008160000361326d57506000919050565b6000600161327a8461394a565b901c6001901b9050600181848161329357613293614c47565b048201901c905060018184816132ab576132ab614c47565b048201901c905060018184816132c3576132c3614c47565b048201901c905060018184816132db576132db614c47565b048201901c905060018184816132f3576132f3614c47565b048201901c9050600181848161330b5761330b614c47565b048201901c9050600181848161332357613323614c47565b048201901c9050611d2a8182858161333d5761333d614c47565b046139de565b60005b8183101561339d57600061335a84846139f4565b60008781526020902090915065ffffffffffff86169082015465ffffffffffff16111561338957809250613397565b613394816001614c04565b93505b50613346565b509392505050565b60008060f883901c602f811180156133c05750603a8160ff16105b156133d557600194602f199091019350915050565b8060ff1660401080156133eb575060478160ff16105b15613400576001946036199091019350915050565b8060ff166060108015613416575060678160ff16105b1561342b576001946056199091019350915050565b50600093849350915050565b6000806134478787878787613a0f565b600a805460018101825560009182527fc65a7bb8d6351c1cf70c95a316cc6a92839c986682d98bc35f958f4883f9d2a801829055604080516080810182528a815260208181018b90528183018a90528851898201206060830152848452600b81529190922082518051949550929390926134c5928492910190613cf6565b5060208281015180516134de9260018501920190613d57565b50604082015180516134fa916002840191602090910190613d92565b50606091909101516003909101559695505050505050565b606060ff831461352c5761352583613c5e565b9050610c0e565b818054613538906149ec565b80601f0160208091040260200160405190810160405280929190818152602001828054613564906149ec565b80156135b15780601f10613586576101008083540402835291602001916135b1565b820191906000526020600020905b81548152906001019060200180831161359457829003601f168201915b50505050509050610c0e565b8051156135cd5780518082602001fd5b604051630a12f52160e11b815260040160405180910390fd5b825460009081908015613705576000613604876124f0600185614ae9565b60408051808201909152905465ffffffffffff808216808452600160301b9092046001600160d01b03166020840152919250908716101561365857604051632520601d60e01b815260040160405180910390fd5b805165ffffffffffff8088169116036136a4578461367b886124f0600186614ae9565b80546001600160d01b0392909216600160301b0265ffffffffffff9092169190911790556136f5565b6040805180820190915265ffffffffffff80881682526001600160d01b0380881660208085019182528b54600181018d5560008d81529190912094519151909216600160301b029216919091179101555b602001519250839150612ac99050565b50506040805180820190915265ffffffffffff80851682526001600160d01b0380851660208085019182528854600181018a5560008a815291822095519251909316600160301b029190931617920191909155905081612ac9565b6000818152600960205260408120600281015460018201546137829190614c04565b6000848152600460205260409020546137a990600160a01b900465ffffffffffff16611d86565b11159392505050565b6000806137c186868686611b22565b905061380f816137d1600761203d565b6137db600661203d565b6137e5600261203d565b60016137f2600782614d5a565b6137fd906002614e57565b6138079190614ae9565b181818612060565b506000818152600460205260409081902080547effffffffffffffffffffffffffffffffffffffffffffffffffffffffffffff16600160f81b179055517f789cf55be980739dad1d0699b93b58e806b51c9d96619bfa8fe0a28abaa7b30c9061115d9083815260200190565b600080807f7fffffffffffffffffffffffffffffff5d576e7357a4501ddfe92f46681b20a08411156138b65750600091506003905082613940565b604080516000808252602082018084528a905260ff891692820192909252606081018790526080810186905260019060a0016020604051602081039080840390855afa15801561390a573d6000803e3d6000fd5b5050604051601f1901519150506001600160a01b03811661393657506000925060019150829050613940565b9250600091508190505b9450945094915050565b600080608083901c1561395f57608092831c92015b604083901c1561397157604092831c92015b602083901c1561398357602092831c92015b601083901c1561399557601092831c92015b600883901c156139a757600892831c92015b600483901c156139b957600492831c92015b600283901c156139cb57600292831c92015b600183901c15610c0e5760010192915050565b60008183106139ed5781611d2a565b5090919050565b6000613a036002848418614c5d565b611d2a90848416614c04565b6000613a248686868680519060200120611b22565b905084518651141580613a3957508351865114155b80613a4357508551155b15613a7857855184518651604051630447b05d60e41b8152600481019390935260248301919091526044820152606401610fac565b600081815260046020526040902054600160a01b900465ffffffffffff1615613ac35780613aa5826111d1565b6040516331b75e4d60e01b8152610fac929190600090600401614b5e565b6000613acd6111be565b613ad5611947565b65ffffffffffff16613ae79190614c04565b90506000613b0260085463ffffffff600160301b9091041690565b600084815260046020526040902080546001600160a01b0319166001600160a01b038716178155909150613b3583612435565b815465ffffffffffff91909116600160a01b027fffffffffffff000000000000ffffffffffffffffffffffffffffffffffffffff909116178155613b7882613c9d565b815463ffffffff91909116600160d01b027fffff00000000ffffffffffffffffffffffffffffffffffffffffffffffffffff90911617815588517f7d84a6263ae0d98d3329bd7b46bb4e8d6f98cd35a7adb45c274c8b7fd5ebd5e090859087908c908c9067ffffffffffffffff811115613bf457613bf4613f0b565b604051908082528060200260200182016040528015613c2757816020015b6060815260200190600190039081613c125790505b508c89613c348a82614c04565b8e604051613c4a99989796959493929190614e66565b60405180910390a150505095945050505050565b60606000613c6b83613cce565b604080516020808252818301909252919250600091906020820181803683375050509182525060208101929092525090565b600063ffffffff821115612468576040516306dfcc6560e41b81526020600482015260248101839052604401610fac565b600060ff8216601f811115610c0e57604051632cd44ac360e21b815260040160405180910390fd5b828054828255906000526020600020908101928215613d4b579160200282015b82811115613d4b57825182546001600160a01b0319166001600160a01b03909116178255602090920191600190910190613d16565b50612468929150613de4565b828054828255906000526020600020908101928215613d4b579160200282015b82811115613d4b578251825591602001919060010190613d77565b828054828255906000526020600020908101928215613dd8579160200282015b82811115613dd85782518290613dc89082614f84565b5091602001919060010190613db2565b50612468929150613df9565b5b808211156124685760008155600101613de5565b80821115612468576000613e0d8282613e16565b50600101613df9565b508054613e22906149ec565b6000825580601f10613e32575050565b601f016020900490600052602060002090810190610c259190613de4565b600060208284031215613e6257600080fd5b81356001600160e01b031981168114611d2a57600080fd5b600060208284031215613e8c57600080fd5b5035919050565b60005b83811015613eae578181015183820152602001613e96565b50506000910152565b60008151808452613ecf816020860160208601613e93565b601f01601f19169290920160200192915050565b602081526000611d2a6020830184613eb7565b6001600160a01b0381168114610c2557600080fd5b634e487b7160e01b600052604160045260246000fd5b604051601f8201601f1916810167ffffffffffffffff81118282101715613f4a57613f4a613f0b565b604052919050565b600067ffffffffffffffff821115613f6c57613f6c613f0b565b50601f01601f191660200190565b6000613f8d613f8884613f52565b613f21565b9050828152838383011115613fa157600080fd5b828260208301376000602084830101529392505050565b600082601f830112613fc957600080fd5b611d2a83833560208501613f7a565b60008060008060808587031215613fee57600080fd5b8435613ff981613ef6565b9350602085013561400981613ef6565b925060408501359150606085013567ffffffffffffffff81111561402c57600080fd5b61403887828801613fb8565b91505092959194509250565b600067ffffffffffffffff82111561405e5761405e613f0b565b5060051b60200190565b600082601f83011261407957600080fd5b81356020614089613f8883614044565b82815260059290921b840181019181810190868411156140a857600080fd5b8286015b848110156140cc5780356140bf81613ef6565b83529183019183016140ac565b509695505050505050565b600082601f8301126140e857600080fd5b813560206140f8613f8883614044565b82815260059290921b8401810191818101908684111561411757600080fd5b8286015b848110156140cc578035835291830191830161411b565b600082601f83011261414357600080fd5b81356020614153613f8883614044565b82815260059290921b8401810191818101908684111561417257600080fd5b8286015b848110156140cc57803567ffffffffffffffff8111156141965760008081fd5b6141a48986838b0101613fb8565b845250918301918301614176565b600080600080608085870312156141c857600080fd5b843567ffffffffffffffff808211156141e057600080fd5b6141ec88838901614068565b9550602087013591508082111561420257600080fd5b61420e888389016140d7565b9450604087013591508082111561422457600080fd5b5061423187828801614132565b949793965093946060013593505050565b600081518084526020808501945080840160005b8381101561427b5781516001600160a01b031687529582019590820190600101614256565b509495945050505050565b600081518084526020808501945080840160005b8381101561427b5781518752958201959082019060010161429a565b600081518084526020808501808196508360051b8101915082860160005b858110156142fe5782840389526142ec848351613eb7565b988501989350908401906001016142d4565b5091979650505050505050565b60808152600061431e6080830187614242565b82810360208401526143308187614286565b9050828103604084015261434481866142b6565b91505082606083015295945050505050565b85815260a06020820152600061436f60a0830187614242565b82810360408401526143818187614286565b9050828103606084015261439581866142b6565b9150508260808301529695505050505050565b634e487b7160e01b600052602160045260246000fd5b600881106143dc57634e487b7160e01b600052602160045260246000fd5b9052565b60208101610c0e82846143be565b6000806040838503121561440157600080fd5b82359150602083013561441381613ef6565b809150509250929050565b803560ff811681146114a957600080fd5b6000806040838503121561444257600080fd5b823591506144526020840161441e565b90509250929050565b60008083601f84011261446d57600080fd5b50813567ffffffffffffffff81111561448557600080fd5b60208301915083602082850101111561449d57600080fd5b9250929050565b600080600080600080600060c0888a0312156144bf57600080fd5b873596506144cf6020890161441e565b955060408801356144df81613ef6565b9450606088013567ffffffffffffffff808211156144fc57600080fd5b6145088b838c0161445b565b909650945060808a013591508082111561452157600080fd5b61452d8b838c01613fb8565b935060a08a013591508082111561454357600080fd5b506145508a828b01613fb8565b91505092959891949750929550565b60008060008060006080868803121561457757600080fd5b853594506145876020870161441e565b9350604086013567ffffffffffffffff808211156145a457600080fd5b6145b089838a0161445b565b909550935060608801359150808211156145c957600080fd5b506145d688828901613fb8565b9150509295509295909350565b65ffffffffffff81168114610c2557600080fd5b60006020828403121561460957600080fd5b8135611d2a816145e3565b6000806000806060858703121561462a57600080fd5b8435935061463a6020860161441e565b9250604085013567ffffffffffffffff81111561465657600080fd5b6146628782880161445b565b95989497509550505050565b6000806000806080858703121561468457600080fd5b843567ffffffffffffffff8082111561469c57600080fd5b6146a888838901614068565b955060208701359150808211156146be57600080fd5b6146ca888389016140d7565b945060408701359150808211156146e057600080fd5b6146ec88838901614132565b9350606087013591508082111561470257600080fd5b508501601f8101871361471457600080fd5b61403887823560208401613f7a565b60006020828403121561473557600080fd5b8135611d2a81613ef6565b60ff60f81b8816815260e06020820152600061475f60e0830189613eb7565b82810360408401526147718189613eb7565b90508660608401526001600160a01b03861660808401528460a084015282810360c08401526147a08185614286565b9a9950505050505050505050565b600080600080608085870312156147c457600080fd5b843593506147d46020860161441e565b925060408501356147e481613ef6565b9150606085013567ffffffffffffffff81111561402c57600080fd5b60008060006060848603121561481557600080fd5b833561482081613ef6565b925060208401359150604084013567ffffffffffffffff81111561484357600080fd5b61484f86828701613fb8565b9150509250925092565b600080600080600060a0868803121561487157600080fd5b853561487c81613ef6565b9450602086013561488c81613ef6565b9350604086013567ffffffffffffffff808211156148a957600080fd5b6148b589838a016140d7565b945060608801359150808211156148cb57600080fd5b6148d789838a016140d7565b935060808801359150808211156145c957600080fd5b6000806000806060858703121561490357600080fd5b843561490e81613ef6565b935060208501359250604085013567ffffffffffffffff81111561465657600080fd5b60006020828403121561494357600080fd5b813563ffffffff81168114611d2a57600080fd5b6000806040838503121561496a57600080fd5b823561497581613ef6565b946020939093013593505050565b600080600080600060a0868803121561499b57600080fd5b85356149a681613ef6565b945060208601356149b681613ef6565b93506040860135925060608601359150608086013567ffffffffffffffff8111156149e057600080fd5b6145d688828901613fb8565b600181811c90821680614a0057607f821691505b602082108103614a2057634e487b7160e01b600052602260045260246000fd5b50919050565b634e487b7160e01b600052603260045260246000fd5b634e487b7160e01b600052601160045260246000fd5b600060018201614a6457614a64614a3c565b5060010190565b600060208284031215614a7d57600080fd5b815167ffffffffffffffff811115614a9457600080fd5b8201601f81018413614aa557600080fd5b8051614ab3613f8882613f52565b818152856020838501011115614ac857600080fd5b612292826020830160208601613e93565b8183823760009101908152919050565b81810381811115610c0e57610c0e614a3c565b65ffffffffffff828116828216039080821115614b1b57614b1b614a3c565b5092915050565b600060208284031215614b3457600080fd5b8151611d2a816145e3565b65ffffffffffff818116838216019080821115614b1b57614b1b614a3c565b83815260608101614b7260208301856143be565b826040830152949350505050565b600060208284031215614b9257600080fd5b81518015158114611d2a57600080fd5b84815260ff841660208201528260408201526080606082015260006113e26080830184613eb7565b85815260ff8516602082015283604082015260a060608201526000614bf260a0830185613eb7565b82810360808401526118238185613eb7565b80820180821115610c0e57610c0e614a3c565b600060208284031215614c2957600080fd5b5051919050565b8082028115828204841417610c0e57610c0e614a3c565b634e487b7160e01b600052601260045260246000fd5b600082614c7a57634e487b7160e01b600052601260045260246000fd5b500490565b60a081526000614c9260a0830188614242565b8281036020840152614ca48188614286565b90508281036040840152614cb881876142b6565b60608401959095525050608001529392505050565b60c081526000614ce060c0830189614242565b8281036020840152614cf28189614286565b90508281036040840152614d0681886142b6565b60608401969096525050608081019290925260a0909101529392505050565b8281526040602082015260006114cf6040830184613eb7565b60008251614d50818460208701613e93565b9190910192915050565b60ff8181168382160190811115610c0e57610c0e614a3c565b600181815b80851115614dae578160001904821115614d9457614d94614a3c565b80851615614da157918102915b93841c9390800290614d78565b509250929050565b600082614dc557506001610c0e565b81614dd257506000610c0e565b8160018114614de85760028114614df257614e0e565b6001915050610c0e565b60ff841115614e0357614e03614a3c565b50506001821b610c0e565b5060208310610133831016604e8410600b8410161715614e31575081810a610c0e565b614e3b8383614d73565b8060001904821115614e4f57614e4f614a3c565b029392505050565b6000611d2a60ff841683614db6565b60006101208b835260206001600160a01b038c1681850152816040850152614e908285018c614242565b91508382036060850152614ea4828b614286565b915083820360808501528189518084528284019150828160051b850101838c0160005b83811015614ef557601f19878403018552614ee3838351613eb7565b94860194925090850190600101614ec7565b505086810360a0880152614f09818c6142b6565b9450505050508560c08401528460e0840152828103610100840152614f2e8185613eb7565b9c9b505050505050505050505050565b601f82111561137857600081815260208120601f850160051c81016020861015614f655750805b601f850160051c820191505b8181101561325357828155600101614f71565b815167ffffffffffffffff811115614f9e57614f9e613f0b565b614fb281614fac84546149ec565b84614f3e565b602080601f831160018114614fe75760008415614fcf5750858301515b600019600386901b1c1916600185901b178555613253565b600085815260208120601f198616915b8281101561501657888601518255948401946001909101908401614ff7565b50858210156150345787850151600019600388901b60f8161c191681555b5050505050600190811b0190555056fea2646970667358221220487d3be12e9be22a95c00b3ed4845b8e19d26d69acf2f17359d9e52dba6dde6664736f6c63430008140033",
  "linkReferences": {},
  "deployedLinkReferences": {}
}