{
  "_format": "hh-sol-artifact-1",
  "contractName": "ERCTimeLock",
  "sourceName": "contracts/base/ERC20DAO/ERCTimeLock.sol",
  "abi": [
    {
      "inputs": [
        {
          "internalType": "uint256",
          "name": "minDelay",
          "type": "uint256"
        },
        {
          "internalType": "address[]",
          "name": "proposers",
          "type": "address[]"
        },
        {
          "internalType": "address[]",
          "name": "executors",
          "type": "address[]"
        },
        {
          "internalType": "address",
          "name": "admin",
          "type": "address"
        }
      ],
      "stateMutability": "nonpayable",
      "type": "constructor"
    },
    {
      "anonymous": false,
      "inputs": [
        {
          "indexed": true,
          "internalType": "bytes32",
          "name": "id",
          "type": "bytes32"
        },
        {
          "indexed": true,
          "internalType": "uint256",
          "name": "index",
          "type": "uint256"
        },
        {
          "indexed": false,
          "internalType": "address",
          "name": "target",
          "type": "address"
        },
        {
          "indexed": false,
          "internalType": "uint256",
          "name": "value",
          "type": "uint256"
        },
        {
          "indexed": false,
          "internalType": "bytes",
          "name": "data",
          "type": "bytes"
        }
      ],
      "name": "CallExecuted",
      "type": "event"
    },
    {
      "anonymous": false,
      "inputs": [
        {
          "indexed": true,
          "internalType": "bytes32",
          "name": "id",
          "type": "bytes32"
        },
        {
          "indexed": false,
          "internalType": "bytes32",
          "name": "salt",
          "type": "bytes32"
        }
      ],
      "name": "CallSalt",
      "type": "event"
    },
    {
      "anonymous": false,
      "inputs": [
        {
          "indexed": true,
          "internalType": "bytes32",
          "name": "id",
          "type": "bytes32"
        },
        {
          "indexed": true,
          "internalType": "uint256",
          "name": "index",
          "type": "uint256"
        },
        {
          "indexed": false,
          "internalType": "address",
          "name": "target",
          "type": "address"
        },
        {
          "indexed": false,
          "internalType": "uint256",
          "name": "value",
          "type": "uint256"
        },
        {
          "indexed": false,
          "internalType": "bytes",
          "name": "data",
          "type": "bytes"
        },
        {
          "indexed": false,
          "internalType": "bytes32",
          "name": "predecessor",
          "type": "bytes32"
        },
        {
          "indexed": false,
          "internalType": "uint256",
          "name": "delay",
          "type": "uint256"
        }
      ],
      "name": "CallScheduled",
      "type": "event"
    },
    {
      "anonymous": false,
      "inputs": [
        {
          "indexed": true,
          "internalType": "bytes32",
          "name": "id",
          "type": "bytes32"
        }
      ],
      "name": "Cancelled",
      "type": "event"
    },
    {
      "anonymous": false,
      "inputs": [
        {
          "indexed": false,
          "internalType": "uint256",
          "name": "oldDuration",
          "type": "uint256"
        },
        {
          "indexed": false,
          "internalType": "uint256",
          "name": "newDuration",
          "type": "uint256"
        }
      ],
      "name": "MinDelayChange",
      "type": "event"
    },
    {
      "anonymous": false,
      "inputs": [
        {
          "indexed": true,
          "internalType": "address",
          "name": "previousOwner",
          "type": "address"
        },
        {
          "indexed": true,
          "internalType": "address",
          "name": "newOwner",
          "type": "address"
        }
      ],
      "name": "OwnershipTransferred",
      "type": "event"
    },
    {
      "anonymous": false,
      "inputs": [
        {
          "indexed": true,
          "internalType": "bytes32",
          "name": "role",
          "type": "bytes32"
        },
        {
          "indexed": true,
          "internalType": "bytes32",
          "name": "previousAdminRole",
          "type": "bytes32"
        },
        {
          "indexed": true,
          "internalType": "bytes32",
          "name": "newAdminRole",
          "type": "bytes32"
        }
      ],
      "name": "RoleAdminChanged",
      "type": "event"
    },
    {
      "anonymous": false,
      "inputs": [
        {
          "indexed": true,
          "internalType": "bytes32",
          "name": "role",
          "type": "bytes32"
        },
        {
          "indexed": true,
          "internalType": "address",
          "name": "account",
          "type": "address"
        },
        {
          "indexed": true,
          "internalType": "address",
          "name": "sender",
          "type": "address"
        }
      ],
      "name": "RoleGranted",
      "type": "event"
    },
    {
      "anonymous": false,
      "inputs": [
        {
          "indexed": true,
          "internalType": "bytes32",
          "name": "role",
          "type": "bytes32"
        },
        {
          "indexed": true,
          "internalType": "address",
          "name": "account",
          "type": "address"
        },
        {
          "indexed": true,
          "internalType": "address",
          "name": "sender",
          "type": "address"
        }
      ],
      "name": "RoleRevoked",
      "type": "event"
    },
    {
      "inputs": [],
      "name": "CANCELLER_ROLE",
      "outputs": [
        {
          "internalType": "bytes32",
          "name": "",
          "type": "bytes32"
        }
      ],
      "stateMutability": "view",
      "type": "function"
    },
    {
      "inputs": [],
      "name": "DEFAULT_ADMIN_ROLE",
      "outputs": [
        {
          "internalType": "bytes32",
          "name": "",
          "type": "bytes32"
        }
      ],
      "stateMutability": "view",
      "type": "function"
    },
    {
      "inputs": [],
      "name": "EXECUTOR_ROLE",
      "outputs": [
        {
          "internalType": "bytes32",
          "name": "",
          "type": "bytes32"
        }
      ],
      "stateMutability": "view",
      "type": "function"
    },
    {
      "inputs": [],
      "name": "PROPOSER_ROLE",
      "outputs": [
        {
          "internalType": "bytes32",
          "name": "",
          "type": "bytes32"
        }
      ],
      "stateMutability": "view",
      "type": "function"
    },
    {
      "inputs": [],
      "name": "TIMELOCK_ADMIN_ROLE",
      "outputs": [
        {
          "internalType": "bytes32",
          "name": "",
          "type": "bytes32"
        }
      ],
      "stateMutability": "view",
      "type": "function"
    },
    {
      "inputs": [
        {
          "internalType": "bytes32",
          "name": "id",
          "type": "bytes32"
        }
      ],
      "name": "cancel",
      "outputs": [],
      "stateMutability": "nonpayable",
      "type": "function"
    },
    {
      "inputs": [
        {
          "internalType": "address",
          "name": "target",
          "type": "address"
        },
        {
          "internalType": "uint256",
          "name": "value",
          "type": "uint256"
        },
        {
          "internalType": "bytes",
          "name": "payload",
          "type": "bytes"
        },
        {
          "internalType": "bytes32",
          "name": "predecessor",
          "type": "bytes32"
        },
        {
          "internalType": "bytes32",
          "name": "salt",
          "type": "bytes32"
        }
      ],
      "name": "execute",
      "outputs": [],
      "stateMutability": "payable",
      "type": "function"
    },
    {
      "inputs": [
        {
          "internalType": "address[]",
          "name": "targets",
          "type": "address[]"
        },
        {
          "internalType": "uint256[]",
          "name": "values",
          "type": "uint256[]"
        },
        {
          "internalType": "bytes[]",
          "name": "payloads",
          "type": "bytes[]"
        },
        {
          "internalType": "bytes32",
          "name": "predecessor",
          "type": "bytes32"
        },
        {
          "internalType": "bytes32",
          "name": "salt",
          "type": "bytes32"
        }
      ],
      "name": "executeBatch",
      "outputs": [],
      "stateMutability": "payable",
      "type": "function"
    },
    {
      "inputs": [],
      "name": "getMinDelay",
      "outputs": [
        {
          "internalType": "uint256",
          "name": "",
          "type": "uint256"
        }
      ],
      "stateMutability": "view",
      "type": "function"
    },
    {
      "inputs": [
        {
          "internalType": "bytes32",
          "name": "role",
          "type": "bytes32"
        }
      ],
      "name": "getRoleAdmin",
      "outputs": [
        {
          "internalType": "bytes32",
          "name": "",
          "type": "bytes32"
        }
      ],
      "stateMutability": "view",
      "type": "function"
    },
    {
      "inputs": [
        {
          "internalType": "bytes32",
          "name": "id",
          "type": "bytes32"
        }
      ],
      "name": "getTimestamp",
      "outputs": [
        {
          "internalType": "uint256",
          "name": "",
          "type": "uint256"
        }
      ],
      "stateMutability": "view",
      "type": "function"
    },
    {
      "inputs": [
        {
          "internalType": "bytes32",
          "name": "role",
          "type": "bytes32"
        },
        {
          "internalType": "address",
          "name": "account",
          "type": "address"
        }
      ],
      "name": "grantRole",
      "outputs": [],
      "stateMutability": "nonpayable",
      "type": "function"
    },
    {
      "inputs": [
        {
          "internalType": "bytes32",
          "name": "role",
          "type": "bytes32"
        },
        {
          "internalType": "address",
          "name": "account",
          "type": "address"
        }
      ],
      "name": "hasRole",
      "outputs": [
        {
          "internalType": "bool",
          "name": "",
          "type": "bool"
        }
      ],
      "stateMutability": "view",
      "type": "function"
    },
    {
      "inputs": [
        {
          "internalType": "address",
          "name": "target",
          "type": "address"
        },
        {
          "internalType": "uint256",
          "name": "value",
          "type": "uint256"
        },
        {
          "internalType": "bytes",
          "name": "data",
          "type": "bytes"
        },
        {
          "internalType": "bytes32",
          "name": "predecessor",
          "type": "bytes32"
        },
        {
          "internalType": "bytes32",
          "name": "salt",
          "type": "bytes32"
        }
      ],
      "name": "hashOperation",
      "outputs": [
        {
          "internalType": "bytes32",
          "name": "",
          "type": "bytes32"
        }
      ],
      "stateMutability": "pure",
      "type": "function"
    },
    {
      "inputs": [
        {
          "internalType": "address[]",
          "name": "targets",
          "type": "address[]"
        },
        {
          "internalType": "uint256[]",
          "name": "values",
          "type": "uint256[]"
        },
        {
          "internalType": "bytes[]",
          "name": "payloads",
          "type": "bytes[]"
        },
        {
          "internalType": "bytes32",
          "name": "predecessor",
          "type": "bytes32"
        },
        {
          "internalType": "bytes32",
          "name": "salt",
          "type": "bytes32"
        }
      ],
      "name": "hashOperationBatch",
      "outputs": [
        {
          "internalType": "bytes32",
          "name": "",
          "type": "bytes32"
        }
      ],
      "stateMutability": "pure",
      "type": "function"
    },
    {
      "inputs": [
        {
          "internalType": "bytes32",
          "name": "id",
          "type": "bytes32"
        }
      ],
      "name": "isOperation",
      "outputs": [
        {
          "internalType": "bool",
          "name": "",
          "type": "bool"
        }
      ],
      "stateMutability": "view",
      "type": "function"
    },
    {
      "inputs": [
        {
          "internalType": "bytes32",
          "name": "id",
          "type": "bytes32"
        }
      ],
      "name": "isOperationDone",
      "outputs": [
        {
          "internalType": "bool",
          "name": "",
          "type": "bool"
        }
      ],
      "stateMutability": "view",
      "type": "function"
    },
    {
      "inputs": [
        {
          "internalType": "bytes32",
          "name": "id",
          "type": "bytes32"
        }
      ],
      "name": "isOperationPending",
      "outputs": [
        {
          "internalType": "bool",
          "name": "",
          "type": "bool"
        }
      ],
      "stateMutability": "view",
      "type": "function"
    },
    {
      "inputs": [
        {
          "internalType": "bytes32",
          "name": "id",
          "type": "bytes32"
        }
      ],
      "name": "isOperationReady",
      "outputs": [
        {
          "internalType": "bool",
          "name": "",
          "type": "bool"
        }
      ],
      "stateMutability": "view",
      "type": "function"
    },
    {
      "inputs": [
        {
          "internalType": "address",
          "name": "",
          "type": "address"
        },
        {
          "internalType": "address",
          "name": "",
          "type": "address"
        },
        {
          "internalType": "uint256[]",
          "name": "",
          "type": "uint256[]"
        },
        {
          "internalType": "uint256[]",
          "name": "",
          "type": "uint256[]"
        },
        {
          "internalType": "bytes",
          "name": "",
          "type": "bytes"
        }
      ],
      "name": "onERC1155BatchReceived",
      "outputs": [
        {
          "internalType": "bytes4",
          "name": "",
          "type": "bytes4"
        }
      ],
      "stateMutability": "nonpayable",
      "type": "function"
    },
    {
      "inputs": [
        {
          "internalType": "address",
          "name": "",
          "type": "address"
        },
        {
          "internalType": "address",
          "name": "",
          "type": "address"
        },
        {
          "internalType": "uint256",
          "name": "",
          "type": "uint256"
        },
        {
          "internalType": "uint256",
          "name": "",
          "type": "uint256"
        },
        {
          "internalType": "bytes",
          "name": "",
          "type": "bytes"
        }
      ],
      "name": "onERC1155Received",
      "outputs": [
        {
          "internalType": "bytes4",
          "name": "",
          "type": "bytes4"
        }
      ],
      "stateMutability": "nonpayable",
      "type": "function"
    },
    {
      "inputs": [
        {
          "internalType": "address",
          "name": "",
          "type": "address"
        },
        {
          "internalType": "address",
          "name": "",
          "type": "address"
        },
        {
          "internalType": "uint256",
          "name": "",
          "type": "uint256"
        },
        {
          "internalType": "bytes",
          "name": "",
          "type": "bytes"
        }
      ],
      "name": "onERC721Received",
      "outputs": [
        {
          "internalType": "bytes4",
          "name": "",
          "type": "bytes4"
        }
      ],
      "stateMutability": "nonpayable",
      "type": "function"
    },
    {
      "inputs": [],
      "name": "owner",
      "outputs": [
        {
          "internalType": "address",
          "name": "",
          "type": "address"
        }
      ],
      "stateMutability": "view",
      "type": "function"
    },
    {
      "inputs": [],
      "name": "renounceOwnership",
      "outputs": [],
      "stateMutability": "nonpayable",
      "type": "function"
    },
    {
      "inputs": [
        {
          "internalType": "bytes32",
          "name": "role",
          "type": "bytes32"
        },
        {
          "internalType": "address",
          "name": "account",
          "type": "address"
        }
      ],
      "name": "renounceRole",
      "outputs": [],
      "stateMutability": "nonpayable",
      "type": "function"
    },
    {
      "inputs": [
        {
          "internalType": "bytes32",
          "name": "role",
          "type": "bytes32"
        },
        {
          "internalType": "address",
          "name": "account",
          "type": "address"
        }
      ],
      "name": "revokeRole",
      "outputs": [],
      "stateMutability": "nonpayable",
      "type": "function"
    },
    {
      "inputs": [
        {
          "internalType": "address",
          "name": "target",
          "type": "address"
        },
        {
          "internalType": "uint256",
          "name": "value",
          "type": "uint256"
        },
        {
          "internalType": "bytes",
          "name": "data",
          "type": "bytes"
        },
        {
          "internalType": "bytes32",
          "name": "predecessor",
          "type": "bytes32"
        },
        {
          "internalType": "bytes32",
          "name": "salt",
          "type": "bytes32"
        },
        {
          "internalType": "uint256",
          "name": "delay",
          "type": "uint256"
        }
      ],
      "name": "schedule",
      "outputs": [],
      "stateMutability": "nonpayable",
      "type": "function"
    },
    {
      "inputs": [
        {
          "internalType": "address[]",
          "name": "targets",
          "type": "address[]"
        },
        {
          "internalType": "uint256[]",
          "name": "values",
          "type": "uint256[]"
        },
        {
          "internalType": "bytes[]",
          "name": "payloads",
          "type": "bytes[]"
        },
        {
          "internalType": "bytes32",
          "name": "predecessor",
          "type": "bytes32"
        },
        {
          "internalType": "bytes32",
          "name": "salt",
          "type": "bytes32"
        },
        {
          "internalType": "uint256",
          "name": "delay",
          "type": "uint256"
        }
      ],
      "name": "scheduleBatch",
      "outputs": [],
      "stateMutability": "nonpayable",
      "type": "function"
    },
    {
      "inputs": [
        {
          "internalType": "bytes4",
          "name": "interfaceId",
          "type": "bytes4"
        }
      ],
      "name": "supportsInterface",
      "outputs": [
        {
          "internalType": "bool",
          "name": "",
          "type": "bool"
        }
      ],
      "stateMutability": "view",
      "type": "function"
    },
    {
      "inputs": [
        {
          "internalType": "address",
          "name": "newOwner",
          "type": "address"
        }
      ],
      "name": "transferOwnership",
      "outputs": [],
      "stateMutability": "nonpayable",
      "type": "function"
    },
    {
      "inputs": [
        {
          "internalType": "uint256",
          "name": "newDelay",
          "type": "uint256"
        }
      ],
      "name": "updateDelay",
      "outputs": [],
      "stateMutability": "nonpayable",
      "type": "function"
    },
    {
      "stateMutability": "payable",
      "type": "receive"
    }
  ],
  "bytecode": "0x608060405234801562000010575f80fd5b506040516200241638038062002416833981016040819052620000339162000466565b83838383620000515f8051602062002396833981519152806200023f565b620000795f80516020620023b68339815191525f80516020620023968339815191526200023f565b620000a15f80516020620023d68339815191525f80516020620023968339815191526200023f565b620000c95f80516020620023f68339815191525f80516020620023968339815191526200023f565b620000e35f80516020620023968339815191523062000289565b6001600160a01b038116156200010d576200010d5f80516020620023968339815191528262000289565b5f5b83518110156200019057620001555f80516020620023b6833981519152858381518110620001415762000141620004e8565b60200260200101516200028960201b60201c565b6200017d5f80516020620023f6833981519152858381518110620001415762000141620004e8565b6200018881620004fc565b90506200010f565b505f5b8251811015620001d857620001c55f80516020620023d6833981519152848381518110620001415762000141620004e8565b620001d081620004fc565b905062000193565b506002849055604080515f8152602081018690527f11c24f4ead16507c69ac467fbd5e4eed5fb5c699626d2cc6d66421df253886d5910160405180910390a150505050620002356200022f6200029960201b60201c565b6200029d565b5050505062000521565b5f82815260208190526040808220600101805490849055905190918391839186917fbd79b86ffe0ab8e8776151514217cd7cacd52c909f66475c3af44e129f0b00ff9190a4505050565b620002958282620002ee565b5050565b3390565b600380546001600160a01b038381166001600160a01b0319831681179093556040519116919082907f8be0079c531659141344cd1fd0a4f28419497f9722a3daafe3b4186f6b6457e0905f90a35050565b5f828152602081815260408083206001600160a01b038516845290915290205460ff1662000295575f828152602081815260408083206001600160a01b03851684529091529020805460ff19166001179055620003483390565b6001600160a01b0316816001600160a01b0316837f2f8788117e7eff1d82e926ec794901d17c78024a50270940304540a733656f0d60405160405180910390a45050565b634e487b7160e01b5f52604160045260245ffd5b80516001600160a01b0381168114620003b7575f80fd5b919050565b5f82601f830112620003cc575f80fd5b815160206001600160401b0380831115620003eb57620003eb6200038c565b8260051b604051601f19603f830116810181811084821117156200041357620004136200038c565b60405293845285810183019383810192508785111562000431575f80fd5b83870191505b848210156200045b576200044b82620003a0565b8352918301919083019062000437565b979650505050505050565b5f805f80608085870312156200047a575f80fd5b845160208601519094506001600160401b038082111562000499575f80fd5b620004a788838901620003bc565b94506040870151915080821115620004bd575f80fd5b50620004cc87828801620003bc565b925050620004dd60608601620003a0565b905092959194509250565b634e487b7160e01b5f52603260045260245ffd5b5f600182016200051a57634e487b7160e01b5f52601160045260245ffd5b5060010190565b611e67806200052f5f395ff3fe60806040526004361061016a575f3560e01c806301d5062a1461017557806301ffc9a71461019657806307bd0265146101ca5780630d3cf6fc146101f8578063134008d31461022b57806313bc9f201461023e578063150b7a021461025d578063248a9ca3146102a05780632ab0f529146102bf5780632f2ff15d146102de57806331d50750146102fd57806336568abe1461031c578063584b153e1461033b57806364d623531461035a578063715018a6146103795780638065657f1461038d5780638da5cb5b146103ac5780638f2a0bb0146103d85780638f61f4f5146103f757806391d1485414610417578063a217fddf14610436578063b08e51c014610449578063b1c5f42714610469578063bc197c8114610488578063c4d252f5146104b3578063d45c4435146104d2578063d547741f146104f1578063e38335e514610510578063f23a6e6114610523578063f27a0c921461054e578063f2fde38b14610562575f80fd5b3661017157005b5f80fd5b348015610180575f80fd5b5061019461018f366004611426565b610581565b005b3480156101a1575f80fd5b506101b56101b0366004611494565b61061c565b60405190151581526020015b60405180910390f35b3480156101d5575f80fd5b506101ea5f80516020611db283398151915281565b6040519081526020016101c1565b348015610203575f80fd5b506101ea7f5f58e3a2316349923ce3780f8d587db2d72378aed66a8261c916544fa6846ca581565b6101946102393660046114bb565b610646565b348015610249575f80fd5b506101b5610258366004611521565b6106d2565b348015610268575f80fd5b506102876102773660046115e7565b630a85bd0160e11b949350505050565b6040516001600160e01b031990911681526020016101c1565b3480156102ab575f80fd5b506101ea6102ba366004611521565b6106f6565b3480156102ca575f80fd5b506101b56102d9366004611521565b61070a565b3480156102e9575f80fd5b506101946102f836600461164a565b61071d565b348015610308575f80fd5b506101b5610317366004611521565b61073e565b348015610327575f80fd5b5061019461033636600461164a565b610750565b348015610346575f80fd5b506101b5610355366004611521565b6107d3565b348015610365575f80fd5b50610194610374366004611521565b6107df565b348015610384575f80fd5b50610194610883565b348015610398575f80fd5b506101ea6103a73660046114bb565b610896565b3480156103b7575f80fd5b506103c06108d4565b6040516001600160a01b0390911681526020016101c1565b3480156103e3575f80fd5b506101946103f23660046116b4565b6108e3565b348015610402575f80fd5b506101ea5f80516020611d9283398151915281565b348015610422575f80fd5b506101b561043136600461164a565b610a3b565b348015610441575f80fd5b506101ea5f81565b348015610454575f80fd5b506101ea5f80516020611df283398151915281565b348015610474575f80fd5b506101ea61048336600461175c565b610a63565b348015610493575f80fd5b506102876104a2366004611878565b63bc197c8160e01b95945050505050565b3480156104be575f80fd5b506101946104cd366004611521565b610aa7565b3480156104dd575f80fd5b506101ea6104ec366004611521565b610b68565b3480156104fc575f80fd5b5061019461050b36600461164a565b610b79565b61019461051e36600461175c565b610b95565b34801561052e575f80fd5b5061028761053d36600461191a565b63f23a6e6160e01b95945050505050565b348015610559575f80fd5b506002546101ea565b34801561056d575f80fd5b5061019461057c366004611979565b610cf3565b5f80516020611d9283398151915261059881610d6c565b5f6105a7898989898989610896565b90506105b38184610d76565b5f815f80516020611dd28339815191528b8b8b8b8b8a6040516105db969594939291906119ba565b60405180910390a3831561061157805f80516020611e128339815191528560405161060891815260200190565b60405180910390a25b505050505050505050565b5f6001600160e01b03198216630271189760e51b1480610640575061064082610e64565b92915050565b5f80516020611db283398151915261065e815f610a3b565b61066c5761066c8133610e98565b5f61067b888888888888610896565b90506106878185610ef1565b61069388888888610f82565b5f815f80516020611d728339815191528a8a8a8a6040516106b794939291906119f6565b60405180910390a36106c881611051565b5050505050505050565b5f806106dd83610b68565b90506001811180156106ef5750428111155b9392505050565b5f9081526020819052604090206001015490565b5f600161071683610b68565b1492915050565b610726826106f6565b61072f81610d6c565b6107398383611089565b505050565b5f8061074983610b68565b1192915050565b6001600160a01b03811633146107c55760405162461bcd60e51b815260206004820152602f60248201527f416363657373436f6e74726f6c3a2063616e206f6e6c792072656e6f756e636560448201526e103937b632b9903337b91039b2b63360891b60648201526084015b60405180910390fd5b6107cf828261110c565b5050565b5f600161074983610b68565b3330146108425760405162461bcd60e51b815260206004820152602b60248201527f54696d656c6f636b436f6e74726f6c6c65723a2063616c6c6572206d7573742060448201526a62652074696d656c6f636b60a81b60648201526084016107bc565b60025460408051918252602082018390527f11c24f4ead16507c69ac467fbd5e4eed5fb5c699626d2cc6d66421df253886d5910160405180910390a1600255565b61088b611170565b6108945f6111cf565b565b5f8686868686866040516020016108b2969594939291906119ba565b6040516020818303038152906040528051906020012090509695505050505050565b6003546001600160a01b031690565b5f80516020611d928339815191526108fa81610d6c565b8887146109195760405162461bcd60e51b81526004016107bc90611a27565b8885146109385760405162461bcd60e51b81526004016107bc90611a27565b5f6109498b8b8b8b8b8b8b8b610a63565b90506109558184610d76565b5f5b8a8110156109ff5780825f80516020611dd28339815191528e8e8581811061098157610981611a6a565b90506020020160208101906109969190611979565b8d8d868181106109a8576109a8611a6a565b905060200201358c8c878181106109c1576109c1611a6a565b90506020028101906109d39190611a7e565b8c8b6040516109e7969594939291906119ba565b60405180910390a36109f881611ad4565b9050610957565b508315610a2e57805f80516020611e1283398151915285604051610a2591815260200190565b60405180910390a25b5050505050505050505050565b5f918252602082815260408084206001600160a01b0393909316845291905290205460ff1690565b5f8888888888888888604051602001610a83989796959493929190611b78565b60405160208183030381529060405280519060200120905098975050505050505050565b5f80516020611df2833981519152610abe81610d6c565b610ac7826107d3565b610b2d5760405162461bcd60e51b815260206004820152603160248201527f54696d656c6f636b436f6e74726f6c6c65723a206f7065726174696f6e2063616044820152701b9b9bdd0818994818d85b98d95b1b1959607a1b60648201526084016107bc565b5f828152600160205260408082208290555183917fbaa1eb22f2a492ba1a5fea61b8df4d27c6c8b5f3971e63bb58fa14ff72eedb7091a25050565b5f9081526001602052604090205490565b610b82826106f6565b610b8b81610d6c565b610739838361110c565b5f80516020611db2833981519152610bad815f610a3b565b610bbb57610bbb8133610e98565b878614610bda5760405162461bcd60e51b81526004016107bc90611a27565b878414610bf95760405162461bcd60e51b81526004016107bc90611a27565b5f610c0a8a8a8a8a8a8a8a8a610a63565b9050610c168185610ef1565b5f5b89811015610cdd575f8b8b83818110610c3357610c33611a6a565b9050602002016020810190610c489190611979565b90505f8a8a84818110610c5d57610c5d611a6a565b905060200201359050365f8a8a86818110610c7a57610c7a611a6a565b9050602002810190610c8c9190611a7e565b91509150610c9c84848484610f82565b84865f80516020611d7283398151915286868686604051610cc094939291906119f6565b60405180910390a35050505080610cd690611ad4565b9050610c18565b50610ce781611051565b50505050505050505050565b610cfb611170565b6001600160a01b038116610d605760405162461bcd60e51b815260206004820152602660248201527f4f776e61626c653a206e6577206f776e657220697320746865207a65726f206160448201526564647265737360d01b60648201526084016107bc565b610d69816111cf565b50565b610d698133610e98565b610d7f8261073e565b15610de45760405162461bcd60e51b815260206004820152602f60248201527f54696d656c6f636b436f6e74726f6c6c65723a206f7065726174696f6e20616c60448201526e1c9958591e481cd8da19591d5b1959608a1b60648201526084016107bc565b600254811015610e455760405162461bcd60e51b815260206004820152602660248201527f54696d656c6f636b436f6e74726f6c6c65723a20696e73756666696369656e746044820152652064656c617960d01b60648201526084016107bc565b610e4f8142611c17565b5f928352600160205260409092209190915550565b5f6001600160e01b03198216637965db0b60e01b148061064057506301ffc9a760e01b6001600160e01b0319831614610640565b610ea28282610a3b565b6107cf57610eaf81611220565b610eba836020611232565b604051602001610ecb929190611c4c565b60408051601f198184030181529082905262461bcd60e51b82526107bc91600401611cba565b610efa826106d2565b610f165760405162461bcd60e51b81526004016107bc90611cec565b801580610f275750610f278161070a565b6107cf5760405162461bcd60e51b815260206004820152602660248201527f54696d656c6f636b436f6e74726f6c6c65723a206d697373696e6720646570656044820152656e64656e637960d01b60648201526084016107bc565b5f846001600160a01b0316848484604051610f9e929190611d36565b5f6040518083038185875af1925050503d805f8114610fd8576040519150601f19603f3d011682016040523d82523d5f602084013e610fdd565b606091505b505090508061104a5760405162461bcd60e51b815260206004820152603360248201527f54696d656c6f636b436f6e74726f6c6c65723a20756e6465726c79696e6720746044820152721c985b9cd858dd1a5bdb881c995d995c9d1959606a1b60648201526084016107bc565b5050505050565b61105a816106d2565b6110765760405162461bcd60e51b81526004016107bc90611cec565b5f90815260016020819052604090912055565b6110938282610a3b565b6107cf575f828152602081815260408083206001600160a01b03851684529091529020805460ff191660011790556110c83390565b6001600160a01b0316816001600160a01b0316837f2f8788117e7eff1d82e926ec794901d17c78024a50270940304540a733656f0d60405160405180910390a45050565b6111168282610a3b565b156107cf575f828152602081815260408083206001600160a01b0385168085529252808320805460ff1916905551339285917ff6391f5c32d9c69d2a47ea670b442974b53935d1edc7fd64eb21e047a839171b9190a45050565b336111796108d4565b6001600160a01b0316146108945760405162461bcd60e51b815260206004820181905260248201527f4f776e61626c653a2063616c6c6572206973206e6f7420746865206f776e657260448201526064016107bc565b600380546001600160a01b038381166001600160a01b0319831681179093556040519116919082907f8be0079c531659141344cd1fd0a4f28419497f9722a3daafe3b4186f6b6457e0905f90a35050565b60606106406001600160a01b03831660145b60605f611240836002611d45565b61124b906002611c17565b6001600160401b0381111561126257611262611538565b6040519080825280601f01601f19166020018201604052801561128c576020820181803683370190505b509050600360fc1b815f815181106112a6576112a6611a6a565b60200101906001600160f81b03191690815f1a905350600f60fb1b816001815181106112d4576112d4611a6a565b60200101906001600160f81b03191690815f1a9053505f6112f6846002611d45565b611301906001611c17565b90505b6001811115611378576f181899199a1a9b1b9c1cb0b131b232b360811b85600f166010811061133557611335611a6a565b1a60f81b82828151811061134b5761134b611a6a565b60200101906001600160f81b03191690815f1a90535060049490941c9361137181611d5c565b9050611304565b5083156106ef5760405162461bcd60e51b815260206004820181905260248201527f537472696e67733a20686578206c656e67746820696e73756666696369656e7460448201526064016107bc565b80356001600160a01b03811681146113dd575f80fd5b919050565b5f8083601f8401126113f2575f80fd5b5081356001600160401b03811115611408575f80fd5b60208301915083602082850101111561141f575f80fd5b9250929050565b5f805f805f805f60c0888a03121561143c575f80fd5b611445886113c7565b96506020880135955060408801356001600160401b03811115611466575f80fd5b6114728a828b016113e2565b989b979a50986060810135976080820135975060a09091013595509350505050565b5f602082840312156114a4575f80fd5b81356001600160e01b0319811681146106ef575f80fd5b5f805f805f8060a087890312156114d0575f80fd5b6114d9876113c7565b95506020870135945060408701356001600160401b038111156114fa575f80fd5b61150689828a016113e2565b979a9699509760608101359660809091013595509350505050565b5f60208284031215611531575f80fd5b5035919050565b634e487b7160e01b5f52604160045260245ffd5b604051601f8201601f191681016001600160401b038111828210171561157457611574611538565b604052919050565b5f82601f83011261158b575f80fd5b81356001600160401b038111156115a4576115a4611538565b6115b7601f8201601f191660200161154c565b8181528460208386010111156115cb575f80fd5b816020850160208301375f918101602001919091529392505050565b5f805f80608085870312156115fa575f80fd5b611603856113c7565b9350611611602086016113c7565b92506040850135915060608501356001600160401b03811115611632575f80fd5b61163e8782880161157c565b91505092959194509250565b5f806040838503121561165b575f80fd5b8235915061166b602084016113c7565b90509250929050565b5f8083601f840112611684575f80fd5b5081356001600160401b0381111561169a575f80fd5b6020830191508360208260051b850101111561141f575f80fd5b5f805f805f805f805f60c08a8c0312156116cc575f80fd5b89356001600160401b03808211156116e2575f80fd5b6116ee8d838e01611674565b909b50995060208c0135915080821115611706575f80fd5b6117128d838e01611674565b909950975060408c013591508082111561172a575f80fd5b506117378c828d01611674565b9a9d999c50979a969997986060880135976080810135975060a0013595509350505050565b5f805f805f805f8060a0898b031215611773575f80fd5b88356001600160401b0380821115611789575f80fd5b6117958c838d01611674565b909a50985060208b01359150808211156117ad575f80fd5b6117b98c838d01611674565b909850965060408b01359150808211156117d1575f80fd5b506117de8b828c01611674565b999c989b509699959896976060870135966080013595509350505050565b5f82601f83011261180b575f80fd5b813560206001600160401b0382111561182657611826611538565b8160051b61183582820161154c565b928352848101820192828101908785111561184e575f80fd5b83870192505b8483101561186d57823582529183019190830190611854565b979650505050505050565b5f805f805f60a0868803121561188c575f80fd5b611895866113c7565b94506118a3602087016113c7565b935060408601356001600160401b03808211156118be575f80fd5b6118ca89838a016117fc565b945060608801359150808211156118df575f80fd5b6118eb89838a016117fc565b93506080880135915080821115611900575f80fd5b5061190d8882890161157c565b9150509295509295909350565b5f805f805f60a0868803121561192e575f80fd5b611937866113c7565b9450611945602087016113c7565b9350604086013592506060860135915060808601356001600160401b0381111561196d575f80fd5b61190d8882890161157c565b5f60208284031215611989575f80fd5b6106ef826113c7565b81835281816020850137505f828201602090810191909152601f909101601f19169091010190565b60018060a01b038716815285602082015260a060408201525f6119e160a083018688611992565b60608301949094525060800152949350505050565b60018060a01b0385168152836020820152606060408201525f611a1d606083018486611992565b9695505050505050565b60208082526023908201527f54696d656c6f636b436f6e74726f6c6c65723a206c656e677468206d69736d616040820152620e8c6d60eb1b606082015260800190565b634e487b7160e01b5f52603260045260245ffd5b5f808335601e19843603018112611a93575f80fd5b8301803591506001600160401b03821115611aac575f80fd5b60200191503681900382131561141f575f80fd5b634e487b7160e01b5f52601160045260245ffd5b5f60018201611ae557611ae5611ac0565b5060010190565b8183525f6020808501808196508560051b81019150845f5b87811015611b6b5782840389528135601e19883603018112611b24575f80fd5b870185810190356001600160401b03811115611b3e575f80fd5b803603821315611b4c575f80fd5b611b57868284611992565b9a87019a9550505090840190600101611b04565b5091979650505050505050565b60a080825281018890525f8960c08301825b8b811015611bb8576001600160a01b03611ba3846113c7565b16825260209283019290910190600101611b8a565b5083810360208501528881526001600160fb1b03891115611bd7575f80fd5b8860051b9150818a60208301370182810360209081016040850152611bff9082018789611aec565b60608401959095525050608001529695505050505050565b8082018082111561064057610640611ac0565b5f5b83811015611c44578181015183820152602001611c2c565b50505f910152565b76020b1b1b2b9b9a1b7b73a3937b61d1030b1b1b7bab73a1604d1b81525f8351611c7d816017850160208801611c2a565b7001034b99036b4b9b9b4b733903937b6329607d1b6017918401918201528351611cae816028840160208801611c2a565b01602801949350505050565b602081525f8251806020840152611cd8816040850160208701611c2a565b601f01601f19169190910160400192915050565b6020808252602a908201527f54696d656c6f636b436f6e74726f6c6c65723a206f7065726174696f6e206973604082015269206e6f7420726561647960b01b606082015260800190565b818382375f9101908152919050565b808202811582820484141761064057610640611ac0565b5f81611d6a57611d6a611ac0565b505f19019056fec2617efa69bab66782fa219543714338489c4e9e178271560a91b82c3f612b58b09aa5aeb3702cfd50b6b62bc4532604938f21248a27a1d5ca736082b6819cc1d8aa0f3194971a2a116679f7c2090f6939c8d4e01a2a8d7e41d55e5351469e634cf4410cc57040e44862ef0f45f3dd5a5e02db8eb8add648d4b0e236f1d07dcafd643c72710c63c0180259aba6b2d05451e3591a24e58b62239378085726f78320fda5fd27a1ea7bf5b9567f143ac5470bb059374a27e8f67cb44f946f6d0387a26469706673582212200e6bb86f22fa4b24b042a63fcfd87ba22448f79caa2e52542955f9b2bcadc4b964736f6c634300081400335f58e3a2316349923ce3780f8d587db2d72378aed66a8261c916544fa6846ca5b09aa5aeb3702cfd50b6b62bc4532604938f21248a27a1d5ca736082b6819cc1d8aa0f3194971a2a116679f7c2090f6939c8d4e01a2a8d7e41d55e5351469e63fd643c72710c63c0180259aba6b2d05451e3591a24e58b62239378085726f783",
  "linkReferences": {},
  "deployedLinkReferences": {}
}