{
  "_format": "hh-sol-artifact-1",
  "contractName": "Snippets",
  "sourceName": "contracts/libs/Snippets.sol",
  "abi": [
    {
      "inputs": [],
      "name": "ADDRESS",
      "outputs": [
        {
          "internalType": "bytes32",
          "name": "",
          "type": "bytes32"
        }
      ],
      "stateMutability": "view",
      "type": "function"
    },
    {
      "inputs": [],
      "name": "ADMIN_ROLE",
      "outputs": [
        {
          "internalType": "bytes32",
          "name": "",
          "type": "bytes32"
        }
      ],
      "stateMutability": "view",
      "type": "function"
    },
    {
      "inputs": [],
      "name": "BASE_EXTENSION",
      "outputs": [
        {
          "internalType": "bytes32",
          "name": "",
          "type": "bytes32"
        }
      ],
      "stateMutability": "view",
      "type": "function"
    },
    {
      "inputs": [],
      "name": "CREATED_AFTER",
      "outputs": [
        {
          "internalType": "bytes32",
          "name": "",
          "type": "bytes32"
        }
      ],
      "stateMutability": "view",
      "type": "function"
    },
    {
      "inputs": [],
      "name": "CREATED_AT",
      "outputs": [
        {
          "internalType": "bytes32",
          "name": "",
          "type": "bytes32"
        }
      ],
      "stateMutability": "view",
      "type": "function"
    },
    {
      "inputs": [],
      "name": "CREATED_BEFORE",
      "outputs": [
        {
          "internalType": "bytes32",
          "name": "",
          "type": "bytes32"
        }
      ],
      "stateMutability": "view",
      "type": "function"
    },
    {
      "inputs": [],
      "name": "CREATOR",
      "outputs": [
        {
          "internalType": "bytes32",
          "name": "",
          "type": "bytes32"
        }
      ],
      "stateMutability": "view",
      "type": "function"
    },
    {
      "inputs": [],
      "name": "ERC1155INTERFACE",
      "outputs": [
        {
          "internalType": "bytes4",
          "name": "",
          "type": "bytes4"
        }
      ],
      "stateMutability": "view",
      "type": "function"
    },
    {
      "inputs": [],
      "name": "ERC20INTERFACE",
      "outputs": [
        {
          "internalType": "bytes4",
          "name": "",
          "type": "bytes4"
        }
      ],
      "stateMutability": "view",
      "type": "function"
    },
    {
      "inputs": [],
      "name": "ERC2981INTERFACE",
      "outputs": [
        {
          "internalType": "bytes4",
          "name": "",
          "type": "bytes4"
        }
      ],
      "stateMutability": "view",
      "type": "function"
    },
    {
      "inputs": [],
      "name": "ERC721INTERFACE",
      "outputs": [
        {
          "internalType": "bytes4",
          "name": "",
          "type": "bytes4"
        }
      ],
      "stateMutability": "view",
      "type": "function"
    },
    {
      "inputs": [],
      "name": "IPFS_PREFIX",
      "outputs": [
        {
          "internalType": "bytes32",
          "name": "",
          "type": "bytes32"
        }
      ],
      "stateMutability": "view",
      "type": "function"
    },
    {
      "inputs": [],
      "name": "MINTER",
      "outputs": [
        {
          "internalType": "bytes32",
          "name": "",
          "type": "bytes32"
        }
      ],
      "stateMutability": "view",
      "type": "function"
    },
    {
      "inputs": [],
      "name": "MINTER_ROLE",
      "outputs": [
        {
          "internalType": "bytes32",
          "name": "",
          "type": "bytes32"
        }
      ],
      "stateMutability": "view",
      "type": "function"
    },
    {
      "inputs": [],
      "name": "OWNER",
      "outputs": [
        {
          "internalType": "bytes32",
          "name": "",
          "type": "bytes32"
        }
      ],
      "stateMutability": "view",
      "type": "function"
    },
    {
      "inputs": [],
      "name": "PAUSER_ROLE",
      "outputs": [
        {
          "internalType": "bytes32",
          "name": "",
          "type": "bytes32"
        }
      ],
      "stateMutability": "view",
      "type": "function"
    },
    {
      "inputs": [],
      "name": "SELLER",
      "outputs": [
        {
          "internalType": "bytes32",
          "name": "",
          "type": "bytes32"
        }
      ],
      "stateMutability": "view",
      "type": "function"
    },
    {
      "inputs": [],
      "name": "SNAPSHOT_ROLE",
      "outputs": [
        {
          "internalType": "bytes32",
          "name": "",
          "type": "bytes32"
        }
      ],
      "stateMutability": "view",
      "type": "function"
    },
    {
      "inputs": [],
      "name": "STRING",
      "outputs": [
        {
          "internalType": "bytes32",
          "name": "",
          "type": "bytes32"
        }
      ],
      "stateMutability": "view",
      "type": "function"
    },
    {
      "inputs": [],
      "name": "TIMESTAMP",
      "outputs": [
        {
          "internalType": "bytes32",
          "name": "",
          "type": "bytes32"
        }
      ],
      "stateMutability": "view",
      "type": "function"
    },
    {
      "inputs": [],
      "name": "TOKEN_ID",
      "outputs": [
        {
          "internalType": "bytes32",
          "name": "",
          "type": "bytes32"
        }
      ],
      "stateMutability": "view",
      "type": "function"
    },
    {
      "inputs": [],
      "name": "TOKEN_URI",
      "outputs": [
        {
          "internalType": "bytes32",
          "name": "",
          "type": "bytes32"
        }
      ],
      "stateMutability": "view",
      "type": "function"
    },
    {
      "inputs": [],
      "name": "UINT256",
      "outputs": [
        {
          "internalType": "bytes32",
          "name": "",
          "type": "bytes32"
        }
      ],
      "stateMutability": "view",
      "type": "function"
    },
    {
      "inputs": [],
      "name": "UPDATED_AFTER",
      "outputs": [
        {
          "internalType": "bytes32",
          "name": "",
          "type": "bytes32"
        }
      ],
      "stateMutability": "view",
      "type": "function"
    },
    {
      "inputs": [],
      "name": "UPDATED_AT",
      "outputs": [
        {
          "internalType": "bytes32",
          "name": "",
          "type": "bytes32"
        }
      ],
      "stateMutability": "view",
      "type": "function"
    },
    {
      "inputs": [],
      "name": "UPDATED_BEFORE",
      "outputs": [
        {
          "internalType": "bytes32",
          "name": "",
          "type": "bytes32"
        }
      ],
      "stateMutability": "view",
      "type": "function"
    },
    {
      "inputs": [
        {
          "internalType": "bytes32",
          "name": "_bytes32",
          "type": "bytes32"
        }
      ],
      "name": "bytes32String",
      "outputs": [
        {
          "internalType": "string",
          "name": "",
          "type": "string"
        }
      ],
      "stateMutability": "pure",
      "type": "function"
    },
    {
      "inputs": [
        {
          "internalType": "string",
          "name": "a",
          "type": "string"
        },
        {
          "internalType": "string",
          "name": "b",
          "type": "string"
        }
      ],
      "name": "compareStrings",
      "outputs": [
        {
          "internalType": "bool",
          "name": "",
          "type": "bool"
        }
      ],
      "stateMutability": "pure",
      "type": "function"
    },
    {
      "inputs": [
        {
          "internalType": "uint256",
          "name": "seed",
          "type": "uint256"
        }
      ],
      "name": "generateRandomHash",
      "outputs": [
        {
          "internalType": "bytes32",
          "name": "",
          "type": "bytes32"
        }
      ],
      "stateMutability": "view",
      "type": "function"
    },
    {
      "inputs": [
        {
          "internalType": "uint256",
          "name": "seed",
          "type": "uint256"
        }
      ],
      "name": "generateRandomNumber",
      "outputs": [
        {
          "internalType": "uint256",
          "name": "",
          "type": "uint256"
        }
      ],
      "stateMutability": "view",
      "type": "function"
    },
    {
      "inputs": [
        {
          "internalType": "string",
          "name": "baseURI",
          "type": "string"
        }
      ],
      "name": "getBaseURI",
      "outputs": [
        {
          "internalType": "string",
          "name": "",
          "type": "string"
        }
      ],
      "stateMutability": "pure",
      "type": "function"
    },
    {
      "inputs": [
        {
          "internalType": "uint256",
          "name": "tokenId",
          "type": "uint256"
        },
        {
          "internalType": "string",
          "name": "baseURI",
          "type": "string"
        },
        {
          "internalType": "string",
          "name": "tokenURI",
          "type": "string"
        }
      ],
      "name": "getTokenURIFromID",
      "outputs": [
        {
          "internalType": "string",
          "name": "",
          "type": "string"
        }
      ],
      "stateMutability": "pure",
      "type": "function"
    },
    {
      "inputs": [
        {
          "internalType": "string",
          "name": "baseURI",
          "type": "string"
        },
        {
          "internalType": "string",
          "name": "_tokenURI",
          "type": "string"
        }
      ],
      "name": "getTokenURIFromURI",
      "outputs": [
        {
          "internalType": "string",
          "name": "",
          "type": "string"
        }
      ],
      "stateMutability": "pure",
      "type": "function"
    },
    {
      "inputs": [],
      "name": "msgSender",
      "outputs": [
        {
          "internalType": "address payable",
          "name": "sender",
          "type": "address"
        }
      ],
      "stateMutability": "view",
      "type": "function"
    },
    {
      "inputs": [
        {
          "internalType": "bytes32",
          "name": "_itemKey",
          "type": "bytes32"
        },
        {
          "internalType": "bytes",
          "name": "_data",
          "type": "bytes"
        },
        {
          "components": [
            {
              "internalType": "address",
              "name": "minterAddress",
              "type": "address"
            },
            {
              "internalType": "address[2]",
              "name": "creatorAddress",
              "type": "address[2]"
            },
            {
              "internalType": "address",
              "name": "ownerAddress",
              "type": "address"
            },
            {
              "internalType": "uint256",
              "name": "tokenId",
              "type": "uint256"
            },
            {
              "internalType": "uint256",
              "name": "createdAt",
              "type": "uint256"
            },
            {
              "internalType": "uint256",
              "name": "updatedAt",
              "type": "uint256"
            }
          ],
          "internalType": "struct Structs.NFTItem",
          "name": "_nftItem",
          "type": "tuple"
        },
        {
          "internalType": "string",
          "name": "_tokenURIString",
          "type": "string"
        }
      ],
      "name": "searchHasMatch",
      "outputs": [
        {
          "internalType": "bool",
          "name": "",
          "type": "bool"
        }
      ],
      "stateMutability": "view",
      "type": "function"
    },
    {
      "inputs": [
        {
          "internalType": "bytes32",
          "name": "_itemKey",
          "type": "bytes32"
        },
        {
          "internalType": "bytes",
          "name": "_data",
          "type": "bytes"
        },
        {
          "components": [
            {
              "internalType": "bytes4",
              "name": "tokenInterfaceId",
              "type": "bytes4"
            },
            {
              "internalType": "bool",
              "name": "sold",
              "type": "bool"
            },
            {
              "internalType": "bool",
              "name": "isListed",
              "type": "bool"
            },
            {
              "internalType": "bool",
              "name": "isAuction",
              "type": "bool"
            },
            {
              "internalType": "bool",
              "name": "supportsRoyalties",
              "type": "bool"
            },
            {
              "internalType": "address",
              "name": "tokenContractAddress",
              "type": "address"
            },
            {
              "internalType": "address payable[3]",
              "name": "creatorSellerOwner",
              "type": "address[3]"
            },
            {
              "internalType": "uint256",
              "name": "price",
              "type": "uint256"
            },
            {
              "internalType": "uint256",
              "name": "createdAt",
              "type": "uint256"
            },
            {
              "internalType": "uint256",
              "name": "updatedAt",
              "type": "uint256"
            },
            {
              "internalType": "uint256",
              "name": "tokenId",
              "type": "uint256"
            },
            {
              "internalType": "uint256",
              "name": "tokenIndexedID",
              "type": "uint256"
            }
          ],
          "internalType": "struct Structs.NFTMarketItem",
          "name": "_nftItem",
          "type": "tuple"
        }
      ],
      "name": "searchNFTMarketItemHasMatch",
      "outputs": [
        {
          "internalType": "bool",
          "name": "",
          "type": "bool"
        }
      ],
      "stateMutability": "view",
      "type": "function"
    },
    {
      "inputs": [
        {
          "internalType": "string",
          "name": "_self",
          "type": "string"
        },
        {
          "internalType": "string",
          "name": "_needle",
          "type": "string"
        }
      ],
      "name": "searchString",
      "outputs": [
        {
          "internalType": "bool",
          "name": "",
          "type": "bool"
        }
      ],
      "stateMutability": "pure",
      "type": "function"
    },
    {
      "inputs": [
        {
          "internalType": "string",
          "name": "source",
          "type": "string"
        }
      ],
      "name": "stringBytes32",
      "outputs": [
        {
          "internalType": "bytes32",
          "name": "result",
          "type": "bytes32"
        }
      ],
      "stateMutability": "pure",
      "type": "function"
    },
    {
      "inputs": [
        {
          "internalType": "string",
          "name": "what",
          "type": "string"
        },
        {
          "internalType": "string",
          "name": "where",
          "type": "string"
        }
      ],
      "name": "stringContains",
      "outputs": [
        {
          "internalType": "bool",
          "name": "",
          "type": "bool"
        }
      ],
      "stateMutability": "pure",
      "type": "function"
    }
  ],
  "bytecode": "0x612041610035600b8282823980515f1a60731461002957634e487b7160e01b5f525f60045260245ffd5b305f52607381538281f3fe73000000000000000000000000000000000000000030146080604052600436106101d6575f3560e01c806305c2c45a146101da57806307cb1a6e146102015780630c83bee014610228578063117803e31461023c5780631879c7501461025057806322904b4a1461025e578063260a529a1461027e578063296555cf146102915780634303707e146102a5578063592c80ee146102b85780635e3ba200146102cb5780637028e2cd146102df5780637484939414610306578063749e480d1461031957806375b238fc1461032d57806378ce9035146103545780637afca97e1461036857806389a890021461037c5780638c878dbb146103905780638e7dc343146103a35780638fa581a3146103b757806393af7a84146103da578063a35d677e146103ed578063a9c40e6914610401578063b51ce63d14610415578063b56a2dc614610429578063bca93eba1461043d578063bd5063ac14610451578063bed34bba14610464578063cbb7974814610477578063d481188414610485578063d539139314610493578063d737d0c7146104ba578063df3fdf00146104da578063e4fbb609146104ee578063e63ab1e914610502578063ed63455c14610529578063fdad77a11461053c578063fe6d812414610291575b5f80fd5b6101ee5f80516020611e8c83398151915281565b6040519081526020015b60405180910390f35b61020f6380ac58cd60e01b81565b6040516001600160e01b031990911681526020016101f8565b6101ee5f80516020611fec83398151915281565b6101ee5f80516020611f6c83398151915281565b61020f63152a902d60e11b81565b61027161026c3660046116a8565b61054f565b6040516101f89190611726565b61027161028c366004611738565b610576565b6101ee5f80516020611e4c83398151915281565b6101ee6102b336600461179f565b6105d2565b6101ee6102c63660046116a8565b6105f5565b6101ee5f80516020611f8c83398151915281565b6101ee7f5fdbd35e8da83ee755d5e62a539e5ed7f47126abede0b8b10f9ea43dc6eed07f81565b61027161031436600461179f565b610612565b6101ee5f80516020611dec83398151915281565b6101ee7fa49807205ce4d355092ef5a8a18f56e8913cf4a201fbe287825b095693c2177581565b6101ee5f80516020611f2c83398151915281565b6101ee5f80516020611fcc83398151915281565b6101ee5f80516020611ecc83398151915281565b6101ee61039e36600461179f565b610739565b6101ee5f80516020611eec83398151915281565b6103ca6103c53660046117b6565b610772565b60405190151581526020016101f8565b6102716103e83660046117b6565b6107b4565b6101ee5f80516020611f0c83398151915281565b6101ee5f80516020611e0c83398151915281565b6101ee5f80516020611eac83398151915281565b6101ee5f80516020611e6c83398151915281565b6101ee5f80516020611fac83398151915281565b6103ca61045f3660046118d2565b6107e0565b6103ca6104723660046117b6565b610bf5565b61020f636cdb3d1360e11b81565b61020f6336372b0760e01b81565b6101ee7f9f2df0fed2c77648de5860a4cc508cd0818c85b8b8a1ab4ceeef8d981c8956a681565b6104c2610c4d565b6040516001600160a01b0390911681526020016101f8565b6101ee5f80516020611f4c83398151915281565b6101ee5f80516020611e2c83398151915281565b6101ee7f65d7a28e3265b37a6474929f336521b332c1681b933f6cb9f3376673440d862a81565b6103ca6105373660046117b6565b610ca6565b6103ca61054a3660046119e9565b610d72565b606081515f036105725761056f5f80516020611fec833981519152610612565b91505b5090565b8051606090156105875750806105cb565b8261059185611277565b6105a75f80516020611f4c833981519152610612565b6040516020016105b993929190611b0c565b60405160208183030381529060405290505b9392505050565b5f806105df600143611b62565b905080406105ed8482611b75565b949350505050565b80515f908290820361060957505f92915050565b50506020015190565b60605f5b60208160ff1610801561064a5750828160ff166020811061063957610639611b94565b1a60f81b6001600160f81b03191615155b1561065f5761065881611ba8565b9050610616565b5f8160ff166001600160401b0381111561067b5761067b61157f565b6040519080825280601f01601f1916602001820160405280156106a5576020820181803683370190505b5090505f91505b60208260ff161080156106e05750838260ff16602081106106cf576106cf611b94565b1a60f81b6001600160f81b03191615155b156105cb57838260ff16602081106106fa576106fa611b94565b1a60f81b818360ff168151811061071357610713611b94565b60200101906001600160f81b03191690815f1a90535061073282611ba8565b91506106ac565b5f610743826105d2565b60405160200161075591815260200190565b604051602081830303815290604052805190602001209050919050565b5f8061077d84611306565b90505f61078984611306565b602080840151845183519284015193945090926107a7928491611332565b1415925050505b92915050565b606082826040516020016107c9929190611bc6565b604051602081830303815290604052905092915050565b5f806108116040518060400160405280600e81526020016d050529a2a0a921a424a72397171760911b815250611441565b610140830151156105ed578261014001515f0361082f5790506105cb565b60a08301516001600160a01b03166108485790506105cb565b60c0830151604001516001600160a01b03166108655790506105cb565b5f80516020611fac83398151915285036108c2575f8480602001905181019061088e9190611bf4565b60c08501519091506001600160a01b0382169060015b60200201516001600160a01b0316036108bc57600191505b506105ed565b5f80516020611e2c8339815191528503610904575f848060200190518101906108eb9190611bf4565b60c08501519091506001600160a01b038216905f6108a4565b5f80516020611f6c833981519152850361092d575f848060200190518101906108eb9190611bf4565b5f80516020611eac83398151915285036109ad575f848060200190518101906109569190611bf4565b60c0850151602001519091506001600160a01b0380831691160361097957600191505b60c0840151516001600160a01b0382811691160361099657600191505b60c08401516001600160a01b0382169060026108a4565b5f80516020611ecc83398151915285036109ee575f848060200190518101906109d69190611c0f565b905080846101400151036108bc5760019150506105ed565b5f80516020611e4c8339815191528503610a17575f848060200190518101906109d69190611c0f565b5f80516020611f0c8339815191528503610a59575f84806020019051810190610a409190611c0f565b90508084610100015110156108bc5760019150506105ed565b5f80516020611e6c8339815191528503610a9a575f84806020019051810190610a829190611c0f565b905080846101000151036108bc5760019150506105ed565b5f80516020611eec8339815191528503610adc575f84806020019051810190610ac39190611c0f565b90508084610100015111156108bc5760019150506105ed565b5f80516020611f8c8339815191528503610b1e575f84806020019051810190610b059190611c0f565b90508084610120015110156108bc5760019150506105ed565b5f80516020611e0c8339815191528503610b5f575f84806020019051810190610b479190611c0f565b905080846101200151036108bc5760019150506105ed565b5f80516020611e8c8339815191528503610ba1575f84806020019051810190610b889190611c0f565b90508084610120015111156108bc5760019150506105ed565b5f80516020611dec83398151915285036105ed575f84806020019051810190610bca9190611c0f565b90508084610100015103610bdd57600191505b80846101200151036108bc5750600195945050505050565b5f81604051602001610c079190611c26565b6040516020818303038152906040528051906020012083604051602001610c2e9190611c26565b6040516020818303038152906040528051906020012014905092915050565b5f303303610ca0575f80368080601f0160208091040260200160405190810160405280939291908181526020018383808284375f920191909152505050503601516001600160a01b03169150610ca39050565b50335b90565b815181515f91849184911115610cba575f80fd5b5f805b83518351610ccb9190611b62565b8111610d685760015f5b8551811015610d4657858181518110610cf057610cf0611b94565b01602001516001600160f81b03191685610d0a8386611c41565b81518110610d1a57610d1a611b94565b01602001516001600160f81b03191614610d36575f9150610d46565b610d3f81611c54565b9050610cd5565b508015610d57576001925050610d68565b50610d6181611c54565b9050610cbd565b5095945050505050565b5f80610da36040518060400160405280600e81526020016d050529a2a0a921a424a72397171760911b815250611441565b60608401511561126e5783606001515f03610dbf5790506105ed565b6020840151516001600160a01b0316610dd95790506105ed565b60408401516001600160a01b0316610df25790506105ed565b5f80516020611e4c8339815191528603610e44575f85806020019051810190610e1b9190611bf4565b9050806001600160a01b0316855f01516001600160a01b031603610e3e57600191505b5061126e565b5f80516020611e2c8339815191528603610eb1575f85806020019051810190610e6d9190611bf4565b6020860151519091506001600160a01b03808316911603610e8d57600191505b60208581015101516001600160a01b03828116911603610e3e57600191505061126e565b5f80516020611f6c8339815191528603610f03575f85806020019051810190610eda9190611bf4565b9050806001600160a01b031685604001516001600160a01b031603610e3e57600191505061126e565b5f80516020611eac8339815191528603610f93575f85806020019051810190610f2c9190611bf4565b9050806001600160a01b0316855f01516001600160a01b031603610f4f57600191505b6020850151516001600160a01b03828116911603610f6c57600191505b806001600160a01b031685604001516001600160a01b031603610e3e57600191505061126e565b5f80516020611ecc8339815191528603610fd3575f85806020019051810190610fbc9190611c0f565b905080856060015103610e3e57600191505061126e565b5f80516020611e4c8339815191528603610ffc575f85806020019051810190610fbc9190611c0f565b5f80516020611f2c8339815191528603611040575f858060200190518101906110259190611c6c565b90506110318482610bf5565b15610e3e57600191505061126e565b5f80516020611f6c8339815191528603611069575f858060200190518101906110259190611c6c565b5f80516020611fcc833981519152860361109e575f858060200190518101906110929190611c6c565b90506110318482610772565b5f80516020611f0c83398151915286036110df575f858060200190518101906110c79190611c0f565b90508085608001511015610e3e57600191505061126e565b5f80516020611e6c833981519152860361111f575f858060200190518101906111089190611c0f565b905080856080015103610e3e57600191505061126e565b5f80516020611eec8339815191528603611160575f858060200190518101906111489190611c0f565b90508085608001511115610e3e57600191505061126e565b5f80516020611f8c83398151915286036111a1575f858060200190518101906111899190611c0f565b9050808560a001511015610e3e57600191505061126e565b5f80516020611e0c83398151915286036111e1575f858060200190518101906111ca9190611c0f565b9050808560a0015103610e3e57600191505061126e565b5f80516020611e8c8339815191528603611222575f8580602001905181019061120a9190611c0f565b9050808560a001511115610e3e57600191505061126e565b5f80516020611dec833981519152860361126e575f8580602001905181019061124b9190611c0f565b90508085608001510361125d57600191505b808560a0015103610e3e5760019150505b95945050505050565b60605f61128383611487565b60010190505f816001600160401b038111156112a1576112a161157f565b6040519080825280601f01601f1916602001820160405280156112cb576020820181803683370190505b5090508181016020015b5f19016f181899199a1a9b1b9c1cb0b131b232b360811b600a86061a8153600a85049450846112d557509392505050565b6040805180820182525f8082526020918201528151808301909252825182529182019181019190915290565b5f8085841161143757602084116113e3575f841561137b576001611357866020611b62565b611362906008611cd4565b61136d906002611dcb565b6113779190611b62565b1990505b835181168561138a8989611c41565b6113949190611b62565b805190935082165b8181146113ce578784116113b657879450505050506105ed565b836113c081611dd6565b94505082845116905061139c565b6113d88785611c41565b9450505050506105ed565b8383206113f08588611b62565b6113fa9087611c41565b91505b85821061143557848220808203611422576114188684611c41565b93505050506105ed565b61142d600184611b62565b9250506113fd565b505b5092949350505050565b611484816040516024016114559190611726565b60408051601f198184030181529190526020810180516001600160e01b031663104c13eb60e21b17905261155c565b50565b5f8072184f03e93ff9f4daa797ed6e38ed64bf6a1f0160401b83106114c55772184f03e93ff9f4daa797ed6e38ed64bf6a1f0160401b830492506040015b6904ee2d6d415b85acef8160201b83106114ef576904ee2d6d415b85acef8160201b830492506020015b662386f26fc10000831061150d57662386f26fc10000830492506010015b6305f5e1008310611525576305f5e100830492506008015b612710831061153957612710830492506004015b6064831061154b576064830492506002015b600a83106107ae5760010192915050565b611484815f6a636f6e736f6c652e6c6f6790505f80835160208501845afa505050565b634e487b7160e01b5f52604160045260245ffd5b60405161018081016001600160401b03811182821017156115b6576115b661157f565b60405290565b60405160c081016001600160401b03811182821017156115b6576115b661157f565b604080519081016001600160401b03811182821017156115b6576115b661157f565b604051601f8201601f191681016001600160401b03811182821017156116285761162861157f565b604052919050565b5f6001600160401b038211156116485761164861157f565b50601f01601f191660200190565b5f82601f830112611665575f80fd5b813561167861167382611630565b611600565b81815284602083860101111561168c575f80fd5b816020850160208301375f918101602001919091529392505050565b5f602082840312156116b8575f80fd5b81356001600160401b038111156116cd575f80fd5b6105ed84828501611656565b5f5b838110156116f35781810151838201526020016116db565b50505f910152565b5f81518084526117128160208601602086016116d9565b601f01601f19169290920160200192915050565b602081525f6105cb60208301846116fb565b5f805f6060848603121561174a575f80fd5b8335925060208401356001600160401b0380821115611767575f80fd5b61177387838801611656565b93506040860135915080821115611788575f80fd5b5061179586828701611656565b9150509250925092565b5f602082840312156117af575f80fd5b5035919050565b5f80604083850312156117c7575f80fd5b82356001600160401b03808211156117dd575f80fd5b6117e986838701611656565b935060208501359150808211156117fe575f80fd5b5061180b85828601611656565b9150509250929050565b80356001600160e01b03198116811461182c575f80fd5b919050565b8035801515811461182c575f80fd5b6001600160a01b0381168114611484575f80fd5b803561182c81611840565b5f82601f83011261186e575f80fd5b604051606081016001600160401b03811182821017156118905761189061157f565b6040528060608401858111156118a4575f80fd5b845b818110156118c75780356118b981611840565b8352602092830192016118a6565b509195945050505050565b5f805f8385036102008112156118e6575f80fd5b8435935060208501356001600160401b03811115611902575f80fd5b61190e87828801611656565b9350506101c080603f1983011215611924575f80fd5b61192c611593565b915061193a60408701611815565b825261194860608701611831565b602083015261195960808701611831565b604083015261196a60a08701611831565b606083015261197b60c08701611831565b608083015261198c60e08701611854565b60a08301526101006119a08882890161185f565b60c08401526101608088013560e0850152610180880135828501526101a0880135610120850152828801356101408501526101e088013581850152505050809150509250925092565b5f805f808486036101408112156119fe575f80fd5b853594506020808701356001600160401b0380821115611a1c575f80fd5b611a288a838b01611656565b965060e0603f1985011215611a3b575f80fd5b611a436115bc565b935060408901359150611a5582611840565b81845289607f8a0112611a66575f80fd5b611a6e6115de565b91508160a08a018b811115611a81575f80fd5b60608b015b81811015611aa6578035611a9981611840565b8552938501938501611a86565b508185870152611ab581611854565b6040870152505060c0890135606085015260e0890135608085015261010089013560a08501529294506101208801359280841115611af1575f80fd5b505050611b0087828801611656565b91505092959194509250565b5f8451611b1d8184602089016116d9565b845190830190611b318183602089016116d9565b8451910190611b448183602088016116d9565b0195945050505050565b634e487b7160e01b5f52601160045260245ffd5b818103818111156107ae576107ae611b4e565b5f82611b8f57634e487b7160e01b5f52601260045260245ffd5b500690565b634e487b7160e01b5f52603260045260245ffd5b5f60ff821660ff8103611bbd57611bbd611b4e565b60010192915050565b5f8351611bd78184602088016116d9565b835190830190611beb8183602088016116d9565b01949350505050565b5f60208284031215611c04575f80fd5b81516105cb81611840565b5f60208284031215611c1f575f80fd5b5051919050565b5f8251611c378184602087016116d9565b9190910192915050565b808201808211156107ae576107ae611b4e565b5f60018201611c6557611c65611b4e565b5060010190565b5f60208284031215611c7c575f80fd5b81516001600160401b03811115611c91575f80fd5b8201601f81018413611ca1575f80fd5b8051611caf61167382611630565b818152856020838501011115611cc3575f80fd5b61126e8260208301602086016116d9565b80820281158282048414176107ae576107ae611b4e565b600181815b80851115611d2557815f1904821115611d0b57611d0b611b4e565b80851615611d1857918102915b93841c9390800290611cf0565b509250929050565b5f82611d3b575060016107ae565b81611d4757505f6107ae565b8160018114611d5d5760028114611d6757611d83565b60019150506107ae565b60ff841115611d7857611d78611b4e565b50506001821b6107ae565b5060208310610133831016604e8410600b8410161715611da6575081810a6107ae565b611db08383611ceb565b805f1904821115611dc357611dc3611b4e565b029392505050565b5f6105cb8383611d2d565b5f81611de457611de4611b4e565b505f19019056fe1b7b16d47b420cd544637a4b677908a3cb78ab80e6ec01961b34e3f9341a431cc43c74b0d34a6fbfabf4592afcf3487b8712b1e333c74b94d27064b3bc208e243c2519c4487d47714872f92cf90a50c25f5deaec2789dc2a497b1272df611db6f0887ba65ee2024ea881d91b74c2450ef19e1557f03bed3ea9f16b037cbe2dc9a4254a4224c9957c03dbd475df3c1fcd3ae3e540c5b0b78617306d3566e57a4b22468b554f8de3f8c7c3e441faddd40dbca3acf65d471cbab7ab89c8cff4287d44b6a97d834a9bfb7662b75c503f57331f40641fb9ee522bec507f7ba6a4655c29a7b54c9b9e97f4b05fe2a20397ff46497367dee25875b7a64afd9a6d3f073bac4317ad065204c7e47ff7f32fffc3164ed4ea8ff94c4aeb3a03805e8ebc66cff647d384bb32a7fe4b8df7c717daa563ccfcd146bfe3d12d8d0293af1980bfc8bc9ecbac2549f1ca8c3c6bab68fc976b8b7a87f2885e7d9b9841d24b9eb7e04794311adc0a0cd4e10be11b23bd4316b8cffa4adf693e8f96f5c075aa439a79726270edb7c868f86fda4adedba75108201087268ea345934db8bad688e1feb91bb2e6499345d96e037716d80a8f051a58027e1cff758fee9d8c0e5962739093fde27592a68a79c541972a95a186227e8435146610cb2d3eb8f8589c9a507d61b20e2d7b14c4519d5ad3f8769d43604f04814bf1a8cec789bdd604eaebe6d918ba66f0790b1cbe0dcac007f07341b00cafe2bda254914729058b5209e04b702afea26469706673582212207a2db0ce631e2d5873f14903b63dbcd7c32556ed95024f4f901db15efb81d3ec64736f6c63430008140033",
  "linkReferences": {},
  "deployedLinkReferences": {}
}