{
  "_format": "hh-sol-artifact-1",
  "contractName": "ERCLogger",
  "sourceName": "contracts/ERCLogger.sol",
  "abi": [
    {
      "inputs": [],
      "stateMutability": "nonpayable",
      "type": "constructor"
    },
    {
      "inputs": [
        {
          "internalType": "address",
          "name": "_contract",
          "type": "address"
        },
        {
          "internalType": "uint256",
          "name": "_tokenId",
          "type": "uint256"
        }
      ],
      "name": "getERCMarketplaceLogging",
      "outputs": [
        {
          "components": [
            {
              "internalType": "enum Enums.NFTMarketItemActivityType",
              "name": "activityType",
              "type": "uint8"
            },
            {
              "internalType": "address",
              "name": "fromAddress",
              "type": "address"
            },
            {
              "internalType": "address",
              "name": "toAddress",
              "type": "address"
            },
            {
              "internalType": "uint256",
              "name": "timestamp",
              "type": "uint256"
            }
          ],
          "internalType": "struct Structs.NFTMarketItemActivity[]",
          "name": "",
          "type": "tuple[]"
        }
      ],
      "stateMutability": "nonpayable",
      "type": "function"
    },
    {
      "inputs": [
        {
          "internalType": "address",
          "name": "_contract",
          "type": "address"
        },
        {
          "internalType": "uint256",
          "name": "_tokenId",
          "type": "uint256"
        }
      ],
      "name": "getERCTokenLogging",
      "outputs": [
        {
          "components": [
            {
              "internalType": "enum Enums.TokenActivityType",
              "name": "activityType",
              "type": "uint8"
            },
            {
              "internalType": "address",
              "name": "fromAddress",
              "type": "address"
            },
            {
              "internalType": "address",
              "name": "toAddress",
              "type": "address"
            },
            {
              "internalType": "uint256",
              "name": "timestamp",
              "type": "uint256"
            }
          ],
          "internalType": "struct Structs.TokenActivityItem[]",
          "name": "",
          "type": "tuple[]"
        }
      ],
      "stateMutability": "nonpayable",
      "type": "function"
    },
    {
      "inputs": [
        {
          "internalType": "address",
          "name": "_contract",
          "type": "address"
        },
        {
          "internalType": "address",
          "name": "_from",
          "type": "address"
        },
        {
          "internalType": "address",
          "name": "_to",
          "type": "address"
        },
        {
          "internalType": "uint256",
          "name": "_tokenId",
          "type": "uint256"
        },
        {
          "internalType": "enum Enums.NFTMarketItemActivityType",
          "name": "_type",
          "type": "uint8"
        },
        {
          "internalType": "uint256",
          "name": "_timestamp",
          "type": "uint256"
        }
      ],
      "name": "logMarketplaceActivity",
      "outputs": [],
      "stateMutability": "nonpayable",
      "type": "function"
    },
    {
      "inputs": [
        {
          "internalType": "address",
          "name": "_contract",
          "type": "address"
        },
        {
          "internalType": "address",
          "name": "_from",
          "type": "address"
        },
        {
          "internalType": "address",
          "name": "_to",
          "type": "address"
        },
        {
          "internalType": "uint256",
          "name": "_tokenId",
          "type": "uint256"
        },
        {
          "internalType": "enum Enums.TokenActivityType",
          "name": "_type",
          "type": "uint8"
        },
        {
          "internalType": "uint256",
          "name": "_timestamp",
          "type": "uint256"
        }
      ],
      "name": "logTokenActivity",
      "outputs": [],
      "stateMutability": "nonpayable",
      "type": "function"
    },
    {
      "inputs": [
        {
          "internalType": "address",
          "name": "_contract",
          "type": "address"
        },
        {
          "internalType": "uint256",
          "name": "_tokenId",
          "type": "uint256"
        },
        {
          "components": [
            {
              "internalType": "enum Enums.NFTMarketItemActivityType",
              "name": "activityType",
              "type": "uint8"
            },
            {
              "internalType": "address",
              "name": "fromAddress",
              "type": "address"
            },
            {
              "internalType": "address",
              "name": "toAddress",
              "type": "address"
            },
            {
              "internalType": "uint256",
              "name": "timestamp",
              "type": "uint256"
            }
          ],
          "internalType": "struct Structs.NFTMarketItemActivity",
          "name": "_activity",
          "type": "tuple"
        }
      ],
      "name": "setERCMarketplaceLogging",
      "outputs": [],
      "stateMutability": "nonpayable",
      "type": "function"
    },
    {
      "inputs": [
        {
          "internalType": "address",
          "name": "_contract",
          "type": "address"
        },
        {
          "internalType": "uint256",
          "name": "_tokenId",
          "type": "uint256"
        },
        {
          "components": [
            {
              "internalType": "enum Enums.TokenActivityType",
              "name": "activityType",
              "type": "uint8"
            },
            {
              "internalType": "address",
              "name": "fromAddress",
              "type": "address"
            },
            {
              "internalType": "address",
              "name": "toAddress",
              "type": "address"
            },
            {
              "internalType": "uint256",
              "name": "timestamp",
              "type": "uint256"
            }
          ],
          "internalType": "struct Structs.TokenActivityItem",
          "name": "_activity",
          "type": "tuple"
        }
      ],
      "name": "setERCTokenLogging",
      "outputs": [],
      "stateMutability": "nonpayable",
      "type": "function"
    },
    {
      "inputs": [
        {
          "internalType": "address",
          "name": "",
          "type": "address"
        },
        {
          "internalType": "uint256",
          "name": "",
          "type": "uint256"
        },
        {
          "internalType": "uint256",
          "name": "",
          "type": "uint256"
        }
      ],
      "name": "tokenIdToNFTMarketItemActivity",
      "outputs": [
        {
          "internalType": "enum Enums.NFTMarketItemActivityType",
          "name": "activityType",
          "type": "uint8"
        },
        {
          "internalType": "address",
          "name": "fromAddress",
          "type": "address"
        },
        {
          "internalType": "address",
          "name": "toAddress",
          "type": "address"
        },
        {
          "internalType": "uint256",
          "name": "timestamp",
          "type": "uint256"
        }
      ],
      "stateMutability": "view",
      "type": "function"
    },
    {
      "inputs": [
        {
          "internalType": "address",
          "name": "",
          "type": "address"
        },
        {
          "internalType": "uint256",
          "name": "",
          "type": "uint256"
        },
        {
          "internalType": "uint256",
          "name": "",
          "type": "uint256"
        }
      ],
      "name": "tokenIdToTokenActivityItem",
      "outputs": [
        {
          "internalType": "enum Enums.TokenActivityType",
          "name": "activityType",
          "type": "uint8"
        },
        {
          "internalType": "address",
          "name": "fromAddress",
          "type": "address"
        },
        {
          "internalType": "address",
          "name": "toAddress",
          "type": "address"
        },
        {
          "internalType": "uint256",
          "name": "timestamp",
          "type": "uint256"
        }
      ],
      "stateMutability": "view",
      "type": "function"
    }
  ],
  "bytecode": "0x608060405234801561000f575f80fd5b506109d58061001d5f395ff3fe608060405234801561000f575f80fd5b5060043610610076575f3560e01c80632a76c2481461007a5780635408c14c146100a65780635d41a01a146100bb578063609ab04e146100db5780636ba70958146100ee57806378d0fd781461010e5780638d76e25114610131578063e54b397814610144575b5f80fd5b61008d61008836600461061e565b610157565b60405161009d9493929190610676565b60405180910390f35b6100b96100b43660046106b9565b6101b5565b005b6100ce6100c936600461071b565b61027c565b60405161009d9190610743565b6100b96100e93660046107ed565b610356565b6101016100fc36600461071b565b610403565b60405161009d9190610880565b61012161011c36600461061e565b6104ce565b60405161009d94939291906108e9565b6100b961013f366004610905565b6104f0565b6100b9610152366004610950565b610544565b6001602052825f5260405f20602052815f5260405f20818154811061017a575f80fd5b5f91825260209091206003909102018054600182015460029092015460ff821695506001600160a01b03610100909204821694509116915084565b336001600160a01b038716146102295760405162461bcd60e51b815260206004820152602e60248201527f4552434c6f6767696e67203a206c6f67546f6b656e4163746976697479203a2060448201526d24b73b30b634b21031b0b63632b960911b60648201526084015b60405180910390fd5b5f604051806080016040528084600c8111156102475761024761064e565b81526001600160a01b038089166020830152871660408201526060018390529050610273878583610356565b50505050505050565b6001600160a01b0382165f9081526001602090815260408083208484528252808320805482518185028101850190935280835260609493849084015b82821015610349575f848152602090206040805160808101909152600384029091018054829060ff1660058111156102f2576102f261064e565b60058111156103035761030361064e565b815281546001600160a01b0361010090910481166020808401919091526001808501549092166040840152600290930154606090920191909152918352920191016102b8565b5092979650505050505050565b6001600160a01b0383165f908152602081815260408083208584528252822080546001818101835591845291909220835160039092020180548493919291839160ff19169083600c8111156103ad576103ad61064e565b021790555060208201518154610100600160a81b0319166101006001600160a01b039283160217825560408301516001830180546001600160a01b03191691909216179055606090910151600290910155505050565b6001600160a01b0382165f908152602081815260408083208484528252808320805482518185028101850190935280835260609493849084015b82821015610349575f848152602090206040805160808101909152600384029091018054829060ff16600c8111156104775761047761064e565b600c8111156104885761048861064e565b815281546001600160a01b03610100909104811660208084019190915260018085015490921660408401526002909301546060909201919091529183529201910161043d565b5f602052825f5260405f20602052815f5260405f20818154811061017a575f80fd5b6001600160a01b0383165f908152600160208181526040808420868552825283208054808401825590845292208351600390930201805484939192839160ff1916908360058111156103ad576103ad61064e565b336001600160a01b038716146105b95760405162461bcd60e51b815260206004820152603460248201527f4552434c6f6767696e67203a206c6f674d61726b6574706c616365416374697660448201527334ba3c901d1024b73b30b634b21031b0b63632b960611b6064820152608401610220565b5f60405180608001604052808460058111156105d7576105d761064e565b81526001600160a01b0380891660208301528716604082015260600183905290506102738785836104f0565b80356001600160a01b0381168114610619575f80fd5b919050565b5f805f60608486031215610630575f80fd5b61063984610603565b95602085013595506040909401359392505050565b634e487b7160e01b5f52602160045260245ffd5b600681106106725761067261064e565b9052565b608081016106848287610662565b6001600160a01b039485166020830152929093166040840152606090920191909152919050565b8035600d8110610619575f80fd5b5f805f805f8060c087890312156106ce575f80fd5b6106d787610603565b95506106e560208801610603565b94506106f360408801610603565b935060608701359250610708608088016106ab565b915060a087013590509295509295509295565b5f806040838503121561072c575f80fd5b61073583610603565b946020939093013593505050565b602080825282518282018190525f919060409081850190868401855b828110156107ac578151610774858251610662565b808701516001600160a01b0390811686890152868201511686860152606090810151908501526080909301929085019060010161075f565b5091979650505050505050565b604051608081016001600160401b03811182821017156107e757634e487b7160e01b5f52604160045260245ffd5b60405290565b5f805f83850360c0811215610800575f80fd5b61080985610603565b9350602085013592506080603f1982011215610823575f80fd5b5061082c6107b9565b610838604086016106ab565b815261084660608601610603565b602082015261085760808601610603565b604082015260a094909401356060850152509093909250565b600d81106106725761067261064e565b602080825282518282018190525f919060409081850190868401855b828110156107ac5781516108b1858251610870565b808701516001600160a01b0390811686890152868201511686860152606090810151908501526080909301929085019060010161089c565b608081016106848287610870565b803560068110610619575f80fd5b5f805f83850360c0811215610918575f80fd5b61092185610603565b9350602085013592506080603f198201121561093b575f80fd5b506109446107b9565b610838604086016108f7565b5f805f805f8060c08789031215610965575f80fd5b61096e87610603565b955061097c60208801610603565b945061098a60408801610603565b935060608701359250610708608088016108f756fea26469706673582212208a55982af0ae1396b1a88b0e68131a88bd5d98e1ef706b79e50617f7095ed84e64736f6c63430008140033",
  "linkReferences": {},
  "deployedLinkReferences": {}
}