{
  "_format": "hh-sol-artifact-1",
  "contractName": "ERC721Factory",
  "sourceName": "contracts/ERC721Factory.sol",
  "abi": [
    {
      "inputs": [
        {
          "internalType": "string",
          "name": "_name",
          "type": "string"
        },
        {
          "internalType": "string",
          "name": "_symbol",
          "type": "string"
        },
        {
          "internalType": "bytes",
          "name": "_data",
          "type": "bytes"
        }
      ],
      "stateMutability": "payable",
      "type": "constructor"
    },
    {
      "inputs": [
        {
          "internalType": "uint256",
          "name": "tokenId",
          "type": "uint256"
        }
      ],
      "name": "IndexOutOfBounds",
      "type": "error"
    },
    {
      "inputs": [
        {
          "internalType": "address",
          "name": "caller",
          "type": "address"
        },
        {
          "internalType": "bytes32",
          "name": "requiredRole",
          "type": "bytes32"
        }
      ],
      "name": "InsufficientPermissions",
      "type": "error"
    },
    {
      "inputs": [],
      "name": "InvalidAmount",
      "type": "error"
    },
    {
      "inputs": [
        {
          "internalType": "uint256",
          "name": "maxValue",
          "type": "uint256"
        },
        {
          "internalType": "uint256",
          "name": "value",
          "type": "uint256"
        }
      ],
      "name": "MaximumTokenSupplyReached",
      "type": "error"
    },
    {
      "inputs": [],
      "name": "NoAdmins",
      "type": "error"
    },
    {
      "inputs": [],
      "name": "NoMinters",
      "type": "error"
    },
    {
      "inputs": [],
      "name": "NotApprovedOrOwner",
      "type": "error"
    },
    {
      "inputs": [
        {
          "internalType": "uint256",
          "name": "mintingFee",
          "type": "uint256"
        },
        {
          "internalType": "uint256",
          "name": "value",
          "type": "uint256"
        }
      ],
      "name": "PriceBelowMintingFee",
      "type": "error"
    },
    {
      "inputs": [
        {
          "internalType": "uint256",
          "name": "timestamp",
          "type": "uint256"
        }
      ],
      "name": "RoyaltiesDisabled",
      "type": "error"
    },
    {
      "inputs": [
        {
          "internalType": "uint256",
          "name": "tokenId",
          "type": "uint256"
        }
      ],
      "name": "TokenDoesNotExists",
      "type": "error"
    },
    {
      "inputs": [
        {
          "internalType": "string",
          "name": "tokenURI",
          "type": "string"
        }
      ],
      "name": "TokenURIAlreadyExists",
      "type": "error"
    },
    {
      "inputs": [
        {
          "internalType": "address",
          "name": "account",
          "type": "address"
        }
      ],
      "name": "ZeroAddress",
      "type": "error"
    },
    {
      "anonymous": false,
      "inputs": [
        {
          "indexed": true,
          "internalType": "address",
          "name": "owner",
          "type": "address"
        },
        {
          "indexed": true,
          "internalType": "address",
          "name": "approved",
          "type": "address"
        },
        {
          "indexed": true,
          "internalType": "uint256",
          "name": "tokenId",
          "type": "uint256"
        }
      ],
      "name": "Approval",
      "type": "event"
    },
    {
      "anonymous": false,
      "inputs": [
        {
          "indexed": true,
          "internalType": "address",
          "name": "owner",
          "type": "address"
        },
        {
          "indexed": true,
          "internalType": "address",
          "name": "operator",
          "type": "address"
        },
        {
          "indexed": false,
          "internalType": "bool",
          "name": "approved",
          "type": "bool"
        }
      ],
      "name": "ApprovalForAll",
      "type": "event"
    },
    {
      "anonymous": false,
      "inputs": [
        {
          "indexed": false,
          "internalType": "address",
          "name": "approvedAddress",
          "type": "address"
        },
        {
          "indexed": false,
          "internalType": "uint256",
          "name": "tokenId",
          "type": "uint256"
        }
      ],
      "name": "ApprovedAddressForTokenChanged",
      "type": "event"
    },
    {
      "anonymous": false,
      "inputs": [
        {
          "indexed": false,
          "internalType": "string",
          "name": "newURI",
          "type": "string"
        }
      ],
      "name": "BaseURIChanged",
      "type": "event"
    },
    {
      "anonymous": false,
      "inputs": [
        {
          "indexed": false,
          "internalType": "uint256",
          "name": "_fromTokenId",
          "type": "uint256"
        },
        {
          "indexed": false,
          "internalType": "uint256",
          "name": "_toTokenId",
          "type": "uint256"
        }
      ],
      "name": "BatchMetadataUpdate",
      "type": "event"
    },
    {
      "anonymous": false,
      "inputs": [
        {
          "indexed": false,
          "internalType": "string",
          "name": "bannerURL",
          "type": "string"
        }
      ],
      "name": "CollectionBannerMediaChanged",
      "type": "event"
    },
    {
      "anonymous": false,
      "inputs": [
        {
          "indexed": false,
          "internalType": "string",
          "name": "description",
          "type": "string"
        }
      ],
      "name": "CollectionDescriptionChanged",
      "type": "event"
    },
    {
      "anonymous": false,
      "inputs": [
        {
          "indexed": false,
          "internalType": "string",
          "name": "photoURL",
          "type": "string"
        }
      ],
      "name": "CollectionDisplayPictureChanged",
      "type": "event"
    },
    {
      "anonymous": false,
      "inputs": [
        {
          "indexed": false,
          "internalType": "bytes32",
          "name": "newURI",
          "type": "bytes32"
        }
      ],
      "name": "ContractURIChanged",
      "type": "event"
    },
    {
      "anonymous": false,
      "inputs": [
        {
          "indexed": false,
          "internalType": "string",
          "name": "func",
          "type": "string"
        },
        {
          "indexed": false,
          "internalType": "uint256",
          "name": "gas",
          "type": "uint256"
        }
      ],
      "name": "Log",
      "type": "event"
    },
    {
      "anonymous": false,
      "inputs": [
        {
          "indexed": false,
          "internalType": "address",
          "name": "newMarketplaceAddress",
          "type": "address"
        }
      ],
      "name": "MarketplaceAddressChanged",
      "type": "event"
    },
    {
      "anonymous": false,
      "inputs": [
        {
          "indexed": false,
          "internalType": "uint256",
          "name": "_tokenId",
          "type": "uint256"
        }
      ],
      "name": "MetadataUpdate",
      "type": "event"
    },
    {
      "anonymous": false,
      "inputs": [
        {
          "indexed": false,
          "internalType": "uint256",
          "name": "newMintingFee",
          "type": "uint256"
        }
      ],
      "name": "MintingFeeChanged",
      "type": "event"
    },
    {
      "anonymous": false,
      "inputs": [
        {
          "indexed": false,
          "internalType": "address",
          "name": "newOwner",
          "type": "address"
        }
      ],
      "name": "OwnerChanged",
      "type": "event"
    },
    {
      "anonymous": false,
      "inputs": [
        {
          "indexed": false,
          "internalType": "address",
          "name": "account",
          "type": "address"
        }
      ],
      "name": "Paused",
      "type": "event"
    },
    {
      "anonymous": false,
      "inputs": [
        {
          "indexed": false,
          "internalType": "address",
          "name": "",
          "type": "address"
        },
        {
          "indexed": false,
          "internalType": "uint256",
          "name": "",
          "type": "uint256"
        }
      ],
      "name": "Received",
      "type": "event"
    },
    {
      "anonymous": false,
      "inputs": [
        {
          "indexed": true,
          "internalType": "bytes32",
          "name": "role",
          "type": "bytes32"
        },
        {
          "indexed": true,
          "internalType": "bytes32",
          "name": "previousAdminRole",
          "type": "bytes32"
        },
        {
          "indexed": true,
          "internalType": "bytes32",
          "name": "newAdminRole",
          "type": "bytes32"
        }
      ],
      "name": "RoleAdminChanged",
      "type": "event"
    },
    {
      "anonymous": false,
      "inputs": [
        {
          "indexed": true,
          "internalType": "bytes32",
          "name": "role",
          "type": "bytes32"
        },
        {
          "indexed": true,
          "internalType": "address",
          "name": "account",
          "type": "address"
        },
        {
          "indexed": true,
          "internalType": "address",
          "name": "sender",
          "type": "address"
        }
      ],
      "name": "RoleGranted",
      "type": "event"
    },
    {
      "anonymous": false,
      "inputs": [
        {
          "indexed": true,
          "internalType": "bytes32",
          "name": "role",
          "type": "bytes32"
        },
        {
          "indexed": true,
          "internalType": "address",
          "name": "account",
          "type": "address"
        },
        {
          "indexed": true,
          "internalType": "address",
          "name": "sender",
          "type": "address"
        }
      ],
      "name": "RoleRevoked",
      "type": "event"
    },
    {
      "anonymous": false,
      "inputs": [
        {
          "indexed": false,
          "internalType": "address",
          "name": "_royaltyReceiver",
          "type": "address"
        },
        {
          "indexed": false,
          "internalType": "uint96",
          "name": "_royaltyFraction",
          "type": "uint96"
        },
        {
          "indexed": false,
          "internalType": "uint256",
          "name": "_tokenId",
          "type": "uint256"
        }
      ],
      "name": "RoyaltiesChanged",
      "type": "event"
    },
    {
      "anonymous": false,
      "inputs": [
        {
          "indexed": false,
          "internalType": "uint256",
          "name": "_timestamp",
          "type": "uint256"
        }
      ],
      "name": "RoyaltiesDisabled",
      "type": "event"
    },
    {
      "anonymous": false,
      "inputs": [],
      "name": "RoyaltiesEnabled",
      "type": "event"
    },
    {
      "anonymous": false,
      "inputs": [
        {
          "indexed": false,
          "internalType": "address",
          "name": "creator",
          "type": "address"
        },
        {
          "indexed": false,
          "internalType": "address",
          "name": "burner",
          "type": "address"
        },
        {
          "indexed": true,
          "internalType": "uint256",
          "name": "burnedTokenId",
          "type": "uint256"
        },
        {
          "indexed": false,
          "internalType": "uint256",
          "name": "batchSize",
          "type": "uint256"
        }
      ],
      "name": "TokenBurned",
      "type": "event"
    },
    {
      "anonymous": false,
      "inputs": [
        {
          "indexed": false,
          "internalType": "address",
          "name": "creator",
          "type": "address"
        },
        {
          "indexed": false,
          "internalType": "address",
          "name": "minter",
          "type": "address"
        },
        {
          "indexed": true,
          "internalType": "uint256",
          "name": "newTokenId",
          "type": "uint256"
        },
        {
          "indexed": false,
          "internalType": "uint256",
          "name": "batchSize",
          "type": "uint256"
        }
      ],
      "name": "TokenMinted",
      "type": "event"
    },
    {
      "anonymous": false,
      "inputs": [
        {
          "indexed": false,
          "internalType": "address",
          "name": "creator",
          "type": "address"
        },
        {
          "indexed": false,
          "internalType": "address",
          "name": "burner",
          "type": "address"
        },
        {
          "indexed": true,
          "internalType": "uint256",
          "name": "transferedTokenId",
          "type": "uint256"
        },
        {
          "indexed": false,
          "internalType": "uint256",
          "name": "batchSize",
          "type": "uint256"
        }
      ],
      "name": "TokenTransfered",
      "type": "event"
    },
    {
      "anonymous": false,
      "inputs": [
        {
          "indexed": true,
          "internalType": "address",
          "name": "from",
          "type": "address"
        },
        {
          "indexed": true,
          "internalType": "address",
          "name": "to",
          "type": "address"
        },
        {
          "indexed": true,
          "internalType": "uint256",
          "name": "tokenId",
          "type": "uint256"
        }
      ],
      "name": "Transfer",
      "type": "event"
    },
    {
      "anonymous": false,
      "inputs": [
        {
          "indexed": false,
          "internalType": "address",
          "name": "account",
          "type": "address"
        }
      ],
      "name": "Unpaused",
      "type": "event"
    },
    {
      "stateMutability": "payable",
      "type": "fallback"
    },
    {
      "inputs": [],
      "name": "DEFAULT_ADMIN_ROLE",
      "outputs": [
        {
          "internalType": "bytes32",
          "name": "",
          "type": "bytes32"
        }
      ],
      "stateMutability": "view",
      "type": "function"
    },
    {
      "inputs": [],
      "name": "_tokenCurrentSupply",
      "outputs": [
        {
          "internalType": "uint256",
          "name": "_value",
          "type": "uint256"
        }
      ],
      "stateMutability": "view",
      "type": "function"
    },
    {
      "inputs": [],
      "name": "_tokenIdCounter",
      "outputs": [
        {
          "internalType": "uint256",
          "name": "_value",
          "type": "uint256"
        }
      ],
      "stateMutability": "view",
      "type": "function"
    },
    {
      "inputs": [
        {
          "internalType": "address",
          "name": "to",
          "type": "address"
        },
        {
          "internalType": "uint256",
          "name": "tokenId",
          "type": "uint256"
        }
      ],
      "name": "approve",
      "outputs": [],
      "stateMutability": "nonpayable",
      "type": "function"
    },
    {
      "inputs": [
        {
          "internalType": "address",
          "name": "_account",
          "type": "address"
        },
        {
          "internalType": "uint256",
          "name": "_tokenId",
          "type": "uint256"
        }
      ],
      "name": "approveAddressForToken",
      "outputs": [],
      "stateMutability": "nonpayable",
      "type": "function"
    },
    {
      "inputs": [
        {
          "internalType": "address",
          "name": "owner",
          "type": "address"
        }
      ],
      "name": "balanceOf",
      "outputs": [
        {
          "internalType": "uint256",
          "name": "",
          "type": "uint256"
        }
      ],
      "stateMutability": "view",
      "type": "function"
    },
    {
      "inputs": [],
      "name": "bannerURL",
      "outputs": [
        {
          "internalType": "string",
          "name": "",
          "type": "string"
        }
      ],
      "stateMutability": "view",
      "type": "function"
    },
    {
      "inputs": [],
      "name": "baseTokenURI",
      "outputs": [
        {
          "internalType": "string",
          "name": "",
          "type": "string"
        }
      ],
      "stateMutability": "view",
      "type": "function"
    },
    {
      "inputs": [
        {
          "internalType": "uint256",
          "name": "tokenId",
          "type": "uint256"
        }
      ],
      "name": "burn",
      "outputs": [],
      "stateMutability": "nonpayable",
      "type": "function"
    },
    {
      "inputs": [
        {
          "internalType": "uint256",
          "name": "_tokenId",
          "type": "uint256"
        }
      ],
      "name": "burnToken",
      "outputs": [],
      "stateMutability": "nonpayable",
      "type": "function"
    },
    {
      "inputs": [
        {
          "internalType": "address payable",
          "name": "_to",
          "type": "address"
        }
      ],
      "name": "callFallback",
      "outputs": [],
      "stateMutability": "payable",
      "type": "function"
    },
    {
      "inputs": [],
      "name": "collectionBannerMedia",
      "outputs": [
        {
          "internalType": "string",
          "name": "",
          "type": "string"
        }
      ],
      "stateMutability": "view",
      "type": "function"
    },
    {
      "inputs": [],
      "name": "collectionCategory",
      "outputs": [
        {
          "internalType": "enum Enums.TokenCategory",
          "name": "",
          "type": "uint8"
        }
      ],
      "stateMutability": "view",
      "type": "function"
    },
    {
      "inputs": [],
      "name": "collectionDescription",
      "outputs": [
        {
          "internalType": "string",
          "name": "",
          "type": "string"
        }
      ],
      "stateMutability": "view",
      "type": "function"
    },
    {
      "inputs": [],
      "name": "collectionDisplayPicture",
      "outputs": [
        {
          "internalType": "string",
          "name": "",
          "type": "string"
        }
      ],
      "stateMutability": "view",
      "type": "function"
    },
    {
      "inputs": [],
      "name": "collectionName",
      "outputs": [
        {
          "internalType": "string",
          "name": "",
          "type": "string"
        }
      ],
      "stateMutability": "view",
      "type": "function"
    },
    {
      "inputs": [],
      "name": "collectionSymbol",
      "outputs": [
        {
          "internalType": "string",
          "name": "",
          "type": "string"
        }
      ],
      "stateMutability": "view",
      "type": "function"
    },
    {
      "inputs": [],
      "name": "contractOptionIsBurnable",
      "outputs": [
        {
          "internalType": "bool",
          "name": "",
          "type": "bool"
        }
      ],
      "stateMutability": "view",
      "type": "function"
    },
    {
      "inputs": [],
      "name": "contractOptionIsMintable",
      "outputs": [
        {
          "internalType": "bool",
          "name": "",
          "type": "bool"
        }
      ],
      "stateMutability": "view",
      "type": "function"
    },
    {
      "inputs": [],
      "name": "contractOptionIsPausable",
      "outputs": [
        {
          "internalType": "bool",
          "name": "",
          "type": "bool"
        }
      ],
      "stateMutability": "view",
      "type": "function"
    },
    {
      "inputs": [],
      "name": "contractOptionIsSnapshotable",
      "outputs": [
        {
          "internalType": "bool",
          "name": "",
          "type": "bool"
        }
      ],
      "stateMutability": "view",
      "type": "function"
    },
    {
      "inputs": [],
      "name": "contractTreasury",
      "outputs": [
        {
          "internalType": "address payable",
          "name": "",
          "type": "address"
        }
      ],
      "stateMutability": "view",
      "type": "function"
    },
    {
      "inputs": [],
      "name": "contractURI",
      "outputs": [
        {
          "internalType": "bytes32",
          "name": "",
          "type": "bytes32"
        }
      ],
      "stateMutability": "view",
      "type": "function"
    },
    {
      "inputs": [],
      "name": "description",
      "outputs": [
        {
          "internalType": "string",
          "name": "",
          "type": "string"
        }
      ],
      "stateMutability": "view",
      "type": "function"
    },
    {
      "inputs": [
        {
          "internalType": "uint256",
          "name": "_timestamp",
          "type": "uint256"
        }
      ],
      "name": "disableRoyaltiesUntil",
      "outputs": [],
      "stateMutability": "nonpayable",
      "type": "function"
    },
    {
      "inputs": [
        {
          "internalType": "address",
          "name": "_account",
          "type": "address"
        }
      ],
      "name": "getAccountTokenBalance",
      "outputs": [
        {
          "internalType": "uint256",
          "name": "",
          "type": "uint256"
        }
      ],
      "stateMutability": "view",
      "type": "function"
    },
    {
      "inputs": [
        {
          "internalType": "uint256",
          "name": "tokenId",
          "type": "uint256"
        }
      ],
      "name": "getApproved",
      "outputs": [
        {
          "internalType": "address",
          "name": "",
          "type": "address"
        }
      ],
      "stateMutability": "view",
      "type": "function"
    },
    {
      "inputs": [],
      "name": "getBaseURI",
      "outputs": [
        {
          "internalType": "string",
          "name": "",
          "type": "string"
        }
      ],
      "stateMutability": "view",
      "type": "function"
    },
    {
      "inputs": [],
      "name": "getContractURI",
      "outputs": [
        {
          "internalType": "bytes32",
          "name": "",
          "type": "bytes32"
        }
      ],
      "stateMutability": "view",
      "type": "function"
    },
    {
      "inputs": [],
      "name": "getMarketplaceAddress",
      "outputs": [
        {
          "internalType": "address",
          "name": "",
          "type": "address"
        }
      ],
      "stateMutability": "view",
      "type": "function"
    },
    {
      "inputs": [
        {
          "internalType": "uint256",
          "name": "_tokenId",
          "type": "uint256"
        }
      ],
      "name": "getNFTItem",
      "outputs": [
        {
          "components": [
            {
              "internalType": "address",
              "name": "minterAddress",
              "type": "address"
            },
            {
              "internalType": "address[2]",
              "name": "creatorAddress",
              "type": "address[2]"
            },
            {
              "internalType": "address",
              "name": "ownerAddress",
              "type": "address"
            },
            {
              "internalType": "uint256",
              "name": "tokenId",
              "type": "uint256"
            },
            {
              "internalType": "uint256",
              "name": "createdAt",
              "type": "uint256"
            },
            {
              "internalType": "uint256",
              "name": "updatedAt",
              "type": "uint256"
            }
          ],
          "internalType": "struct Structs.NFTItem",
          "name": "",
          "type": "tuple"
        },
        {
          "internalType": "string",
          "name": "",
          "type": "string"
        }
      ],
      "stateMutability": "view",
      "type": "function"
    },
    {
      "inputs": [],
      "name": "getNFTItems",
      "outputs": [
        {
          "components": [
            {
              "components": [
                {
                  "internalType": "address",
                  "name": "minterAddress",
                  "type": "address"
                },
                {
                  "internalType": "address[2]",
                  "name": "creatorAddress",
                  "type": "address[2]"
                },
                {
                  "internalType": "address",
                  "name": "ownerAddress",
                  "type": "address"
                },
                {
                  "internalType": "uint256",
                  "name": "tokenId",
                  "type": "uint256"
                },
                {
                  "internalType": "uint256",
                  "name": "createdAt",
                  "type": "uint256"
                },
                {
                  "internalType": "uint256",
                  "name": "updatedAt",
                  "type": "uint256"
                }
              ],
              "internalType": "struct Structs.NFTItem",
              "name": "nftItem",
              "type": "tuple"
            },
            {
              "internalType": "string",
              "name": "tokenURI",
              "type": "string"
            }
          ],
          "internalType": "struct Structs.NFT[]",
          "name": "",
          "type": "tuple[]"
        }
      ],
      "stateMutability": "view",
      "type": "function"
    },
    {
      "inputs": [],
      "name": "getOwner",
      "outputs": [
        {
          "internalType": "address",
          "name": "",
          "type": "address"
        }
      ],
      "stateMutability": "view",
      "type": "function"
    },
    {
      "inputs": [
        {
          "internalType": "bytes32",
          "name": "role",
          "type": "bytes32"
        }
      ],
      "name": "getRoleAdmin",
      "outputs": [
        {
          "internalType": "bytes32",
          "name": "",
          "type": "bytes32"
        }
      ],
      "stateMutability": "view",
      "type": "function"
    },
    {
      "inputs": [],
      "name": "getRoyaltyFeeDenominator",
      "outputs": [
        {
          "internalType": "uint96",
          "name": "",
          "type": "uint96"
        }
      ],
      "stateMutability": "pure",
      "type": "function"
    },
    {
      "inputs": [],
      "name": "getRoyaltyFraction",
      "outputs": [
        {
          "internalType": "uint96",
          "name": "",
          "type": "uint96"
        }
      ],
      "stateMutability": "view",
      "type": "function"
    },
    {
      "inputs": [],
      "name": "getRoyaltyReceiver",
      "outputs": [
        {
          "internalType": "address",
          "name": "",
          "type": "address"
        }
      ],
      "stateMutability": "view",
      "type": "function"
    },
    {
      "inputs": [
        {
          "internalType": "uint256",
          "name": "_tokenId",
          "type": "uint256"
        }
      ],
      "name": "getTokenAuditTrail",
      "outputs": [
        {
          "components": [
            {
              "internalType": "enum Enums.TokenActivityType",
              "name": "activityType",
              "type": "uint8"
            },
            {
              "internalType": "address",
              "name": "fromAddress",
              "type": "address"
            },
            {
              "internalType": "address",
              "name": "toAddress",
              "type": "address"
            },
            {
              "internalType": "uint256",
              "name": "timestamp",
              "type": "uint256"
            }
          ],
          "internalType": "struct Structs.TokenActivityItem[]",
          "name": "",
          "type": "tuple[]"
        }
      ],
      "stateMutability": "nonpayable",
      "type": "function"
    },
    {
      "inputs": [
        {
          "internalType": "uint256",
          "name": "_tokenId",
          "type": "uint256"
        }
      ],
      "name": "getTokenCreator",
      "outputs": [
        {
          "internalType": "address",
          "name": "",
          "type": "address"
        }
      ],
      "stateMutability": "view",
      "type": "function"
    },
    {
      "inputs": [],
      "name": "getTokenCurrentId",
      "outputs": [
        {
          "internalType": "uint256",
          "name": "",
          "type": "uint256"
        }
      ],
      "stateMutability": "view",
      "type": "function"
    },
    {
      "inputs": [],
      "name": "getTokenCurrentSupply",
      "outputs": [
        {
          "internalType": "uint256",
          "name": "",
          "type": "uint256"
        }
      ],
      "stateMutability": "view",
      "type": "function"
    },
    {
      "inputs": [],
      "name": "getTokenMaximumSupply",
      "outputs": [
        {
          "internalType": "uint256",
          "name": "",
          "type": "uint256"
        }
      ],
      "stateMutability": "view",
      "type": "function"
    },
    {
      "inputs": [
        {
          "internalType": "uint256",
          "name": "_tokenId",
          "type": "uint256"
        }
      ],
      "name": "getTokenMintee",
      "outputs": [
        {
          "internalType": "address",
          "name": "",
          "type": "address"
        }
      ],
      "stateMutability": "view",
      "type": "function"
    },
    {
      "inputs": [
        {
          "internalType": "uint256",
          "name": "_tokenId",
          "type": "uint256"
        }
      ],
      "name": "getTokenMinter",
      "outputs": [
        {
          "internalType": "address",
          "name": "",
          "type": "address"
        }
      ],
      "stateMutability": "view",
      "type": "function"
    },
    {
      "inputs": [],
      "name": "getTokenMintingFee",
      "outputs": [
        {
          "internalType": "uint256",
          "name": "",
          "type": "uint256"
        }
      ],
      "stateMutability": "view",
      "type": "function"
    },
    {
      "inputs": [
        {
          "internalType": "uint256",
          "name": "_tokenId",
          "type": "uint256"
        }
      ],
      "name": "getTokenOwner",
      "outputs": [
        {
          "internalType": "address",
          "name": "",
          "type": "address"
        }
      ],
      "stateMutability": "view",
      "type": "function"
    },
    {
      "inputs": [
        {
          "internalType": "uint256",
          "name": "_tokenId",
          "type": "uint256"
        },
        {
          "internalType": "uint256",
          "name": "_tokenPrice",
          "type": "uint256"
        }
      ],
      "name": "getTokenRoyaltyInfo",
      "outputs": [
        {
          "components": [
            {
              "internalType": "bool",
              "name": "royaltyIsDefined",
              "type": "bool"
            },
            {
              "internalType": "address",
              "name": "royaltyReceiver",
              "type": "address"
            },
            {
              "internalType": "uint256",
              "name": "royaltyFraction",
              "type": "uint256"
            },
            {
              "internalType": "uint256",
              "name": "royaltyAmount",
              "type": "uint256"
            },
            {
              "internalType": "uint256",
              "name": "tokenPrice",
              "type": "uint256"
            },
            {
              "internalType": "uint256",
              "name": "tokenId",
              "type": "uint256"
            }
          ],
          "internalType": "struct Structs.RoyaltyItem",
          "name": "",
          "type": "tuple"
        }
      ],
      "stateMutability": "view",
      "type": "function"
    },
    {
      "inputs": [
        {
          "internalType": "uint256",
          "name": "_tokenId",
          "type": "uint256"
        }
      ],
      "name": "getTokenURI",
      "outputs": [
        {
          "internalType": "string",
          "name": "",
          "type": "string"
        }
      ],
      "stateMutability": "view",
      "type": "function"
    },
    {
      "inputs": [
        {
          "internalType": "address",
          "name": "_account",
          "type": "address"
        }
      ],
      "name": "getTokensCreatedByAddress",
      "outputs": [
        {
          "components": [
            {
              "components": [
                {
                  "internalType": "address",
                  "name": "minterAddress",
                  "type": "address"
                },
                {
                  "internalType": "address[2]",
                  "name": "creatorAddress",
                  "type": "address[2]"
                },
                {
                  "internalType": "address",
                  "name": "ownerAddress",
                  "type": "address"
                },
                {
                  "internalType": "uint256",
                  "name": "tokenId",
                  "type": "uint256"
                },
                {
                  "internalType": "uint256",
                  "name": "createdAt",
                  "type": "uint256"
                },
                {
                  "internalType": "uint256",
                  "name": "updatedAt",
                  "type": "uint256"
                }
              ],
              "internalType": "struct Structs.NFTItem",
              "name": "nftItem",
              "type": "tuple"
            },
            {
              "internalType": "string",
              "name": "tokenURI",
              "type": "string"
            }
          ],
          "internalType": "struct Structs.NFT[]",
          "name": "",
          "type": "tuple[]"
        }
      ],
      "stateMutability": "view",
      "type": "function"
    },
    {
      "inputs": [],
      "name": "getTokensCreatedByMe",
      "outputs": [
        {
          "components": [
            {
              "components": [
                {
                  "internalType": "address",
                  "name": "minterAddress",
                  "type": "address"
                },
                {
                  "internalType": "address[2]",
                  "name": "creatorAddress",
                  "type": "address[2]"
                },
                {
                  "internalType": "address",
                  "name": "ownerAddress",
                  "type": "address"
                },
                {
                  "internalType": "uint256",
                  "name": "tokenId",
                  "type": "uint256"
                },
                {
                  "internalType": "uint256",
                  "name": "createdAt",
                  "type": "uint256"
                },
                {
                  "internalType": "uint256",
                  "name": "updatedAt",
                  "type": "uint256"
                }
              ],
              "internalType": "struct Structs.NFTItem",
              "name": "nftItem",
              "type": "tuple"
            },
            {
              "internalType": "string",
              "name": "tokenURI",
              "type": "string"
            }
          ],
          "internalType": "struct Structs.NFT[]",
          "name": "",
          "type": "tuple[]"
        }
      ],
      "stateMutability": "view",
      "type": "function"
    },
    {
      "inputs": [
        {
          "internalType": "address",
          "name": "_account",
          "type": "address"
        }
      ],
      "name": "getTokensMintedByAddress",
      "outputs": [
        {
          "components": [
            {
              "components": [
                {
                  "internalType": "address",
                  "name": "minterAddress",
                  "type": "address"
                },
                {
                  "internalType": "address[2]",
                  "name": "creatorAddress",
                  "type": "address[2]"
                },
                {
                  "internalType": "address",
                  "name": "ownerAddress",
                  "type": "address"
                },
                {
                  "internalType": "uint256",
                  "name": "tokenId",
                  "type": "uint256"
                },
                {
                  "internalType": "uint256",
                  "name": "createdAt",
                  "type": "uint256"
                },
                {
                  "internalType": "uint256",
                  "name": "updatedAt",
                  "type": "uint256"
                }
              ],
              "internalType": "struct Structs.NFTItem",
              "name": "nftItem",
              "type": "tuple"
            },
            {
              "internalType": "string",
              "name": "tokenURI",
              "type": "string"
            }
          ],
          "internalType": "struct Structs.NFT[]",
          "name": "",
          "type": "tuple[]"
        }
      ],
      "stateMutability": "view",
      "type": "function"
    },
    {
      "inputs": [],
      "name": "getTokensMintedByMe",
      "outputs": [
        {
          "components": [
            {
              "components": [
                {
                  "internalType": "address",
                  "name": "minterAddress",
                  "type": "address"
                },
                {
                  "internalType": "address[2]",
                  "name": "creatorAddress",
                  "type": "address[2]"
                },
                {
                  "internalType": "address",
                  "name": "ownerAddress",
                  "type": "address"
                },
                {
                  "internalType": "uint256",
                  "name": "tokenId",
                  "type": "uint256"
                },
                {
                  "internalType": "uint256",
                  "name": "createdAt",
                  "type": "uint256"
                },
                {
                  "internalType": "uint256",
                  "name": "updatedAt",
                  "type": "uint256"
                }
              ],
              "internalType": "struct Structs.NFTItem",
              "name": "nftItem",
              "type": "tuple"
            },
            {
              "internalType": "string",
              "name": "tokenURI",
              "type": "string"
            }
          ],
          "internalType": "struct Structs.NFT[]",
          "name": "",
          "type": "tuple[]"
        }
      ],
      "stateMutability": "view",
      "type": "function"
    },
    {
      "inputs": [
        {
          "internalType": "address",
          "name": "_account",
          "type": "address"
        }
      ],
      "name": "getTokensOwnedByAddress",
      "outputs": [
        {
          "components": [
            {
              "components": [
                {
                  "internalType": "address",
                  "name": "minterAddress",
                  "type": "address"
                },
                {
                  "internalType": "address[2]",
                  "name": "creatorAddress",
                  "type": "address[2]"
                },
                {
                  "internalType": "address",
                  "name": "ownerAddress",
                  "type": "address"
                },
                {
                  "internalType": "uint256",
                  "name": "tokenId",
                  "type": "uint256"
                },
                {
                  "internalType": "uint256",
                  "name": "createdAt",
                  "type": "uint256"
                },
                {
                  "internalType": "uint256",
                  "name": "updatedAt",
                  "type": "uint256"
                }
              ],
              "internalType": "struct Structs.NFTItem",
              "name": "nftItem",
              "type": "tuple"
            },
            {
              "internalType": "string",
              "name": "tokenURI",
              "type": "string"
            }
          ],
          "internalType": "struct Structs.NFT[]",
          "name": "",
          "type": "tuple[]"
        }
      ],
      "stateMutability": "view",
      "type": "function"
    },
    {
      "inputs": [],
      "name": "getTokensOwnedByMe",
      "outputs": [
        {
          "components": [
            {
              "components": [
                {
                  "internalType": "address",
                  "name": "minterAddress",
                  "type": "address"
                },
                {
                  "internalType": "address[2]",
                  "name": "creatorAddress",
                  "type": "address[2]"
                },
                {
                  "internalType": "address",
                  "name": "ownerAddress",
                  "type": "address"
                },
                {
                  "internalType": "uint256",
                  "name": "tokenId",
                  "type": "uint256"
                },
                {
                  "internalType": "uint256",
                  "name": "createdAt",
                  "type": "uint256"
                },
                {
                  "internalType": "uint256",
                  "name": "updatedAt",
                  "type": "uint256"
                }
              ],
              "internalType": "struct Structs.NFTItem",
              "name": "nftItem",
              "type": "tuple"
            },
            {
              "internalType": "string",
              "name": "tokenURI",
              "type": "string"
            }
          ],
          "internalType": "struct Structs.NFT[]",
          "name": "",
          "type": "tuple[]"
        }
      ],
      "stateMutability": "view",
      "type": "function"
    },
    {
      "inputs": [
        {
          "internalType": "address",
          "name": "_account",
          "type": "address"
        }
      ],
      "name": "grantAdminRole",
      "outputs": [],
      "stateMutability": "nonpayable",
      "type": "function"
    },
    {
      "inputs": [
        {
          "internalType": "address",
          "name": "_account",
          "type": "address"
        }
      ],
      "name": "grantMinterRole",
      "outputs": [],
      "stateMutability": "nonpayable",
      "type": "function"
    },
    {
      "inputs": [
        {
          "internalType": "bytes32",
          "name": "role",
          "type": "bytes32"
        },
        {
          "internalType": "address",
          "name": "account",
          "type": "address"
        }
      ],
      "name": "grantRole",
      "outputs": [],
      "stateMutability": "nonpayable",
      "type": "function"
    },
    {
      "inputs": [
        {
          "internalType": "bytes32",
          "name": "role",
          "type": "bytes32"
        },
        {
          "internalType": "address",
          "name": "account",
          "type": "address"
        }
      ],
      "name": "hasRole",
      "outputs": [
        {
          "internalType": "bool",
          "name": "",
          "type": "bool"
        }
      ],
      "stateMutability": "view",
      "type": "function"
    },
    {
      "inputs": [
        {
          "internalType": "address",
          "name": "owner",
          "type": "address"
        },
        {
          "internalType": "address",
          "name": "operator",
          "type": "address"
        }
      ],
      "name": "isApprovedForAll",
      "outputs": [
        {
          "internalType": "bool",
          "name": "",
          "type": "bool"
        }
      ],
      "stateMutability": "view",
      "type": "function"
    },
    {
      "inputs": [],
      "name": "loggerAddress",
      "outputs": [
        {
          "internalType": "address",
          "name": "",
          "type": "address"
        }
      ],
      "stateMutability": "view",
      "type": "function"
    },
    {
      "inputs": [],
      "name": "marketplaceAddress",
      "outputs": [
        {
          "internalType": "address payable",
          "name": "",
          "type": "address"
        }
      ],
      "stateMutability": "view",
      "type": "function"
    },
    {
      "inputs": [
        {
          "internalType": "address",
          "name": "_to",
          "type": "address"
        },
        {
          "internalType": "string",
          "name": "_tokenURI",
          "type": "string"
        },
        {
          "internalType": "uint96",
          "name": "_royaltyFraction",
          "type": "uint96"
        }
      ],
      "name": "mintNewToken",
      "outputs": [
        {
          "internalType": "uint256",
          "name": "",
          "type": "uint256"
        }
      ],
      "stateMutability": "payable",
      "type": "function"
    },
    {
      "inputs": [],
      "name": "mintingFee",
      "outputs": [
        {
          "internalType": "uint256",
          "name": "",
          "type": "uint256"
        }
      ],
      "stateMutability": "view",
      "type": "function"
    },
    {
      "inputs": [],
      "name": "name",
      "outputs": [
        {
          "internalType": "string",
          "name": "",
          "type": "string"
        }
      ],
      "stateMutability": "view",
      "type": "function"
    },
    {
      "inputs": [],
      "name": "owner",
      "outputs": [
        {
          "internalType": "address payable",
          "name": "",
          "type": "address"
        }
      ],
      "stateMutability": "view",
      "type": "function"
    },
    {
      "inputs": [
        {
          "internalType": "uint256",
          "name": "tokenId",
          "type": "uint256"
        }
      ],
      "name": "ownerOf",
      "outputs": [
        {
          "internalType": "address",
          "name": "",
          "type": "address"
        }
      ],
      "stateMutability": "view",
      "type": "function"
    },
    {
      "inputs": [],
      "name": "paused",
      "outputs": [
        {
          "internalType": "bool",
          "name": "",
          "type": "bool"
        }
      ],
      "stateMutability": "view",
      "type": "function"
    },
    {
      "inputs": [],
      "name": "photoURL",
      "outputs": [
        {
          "internalType": "string",
          "name": "",
          "type": "string"
        }
      ],
      "stateMutability": "view",
      "type": "function"
    },
    {
      "inputs": [
        {
          "internalType": "address",
          "name": "_token",
          "type": "address"
        },
        {
          "internalType": "address",
          "name": "_account",
          "type": "address"
        },
        {
          "internalType": "enum Enums.TokenStandards",
          "name": "_standard",
          "type": "uint8"
        },
        {
          "internalType": "uint256",
          "name": "_amount",
          "type": "uint256"
        },
        {
          "internalType": "uint256",
          "name": "_tokenId",
          "type": "uint256"
        }
      ],
      "name": "recoverTokens",
      "outputs": [],
      "stateMutability": "nonpayable",
      "type": "function"
    },
    {
      "inputs": [
        {
          "internalType": "address",
          "name": "_account",
          "type": "address"
        }
      ],
      "name": "renounceAdminRole",
      "outputs": [],
      "stateMutability": "nonpayable",
      "type": "function"
    },
    {
      "inputs": [],
      "name": "renounceContractOwnership",
      "outputs": [],
      "stateMutability": "nonpayable",
      "type": "function"
    },
    {
      "inputs": [
        {
          "internalType": "address",
          "name": "_account",
          "type": "address"
        }
      ],
      "name": "renounceMinterRole",
      "outputs": [],
      "stateMutability": "nonpayable",
      "type": "function"
    },
    {
      "inputs": [
        {
          "internalType": "bytes32",
          "name": "role",
          "type": "bytes32"
        },
        {
          "internalType": "address",
          "name": "account",
          "type": "address"
        }
      ],
      "name": "renounceRole",
      "outputs": [],
      "stateMutability": "nonpayable",
      "type": "function"
    },
    {
      "inputs": [
        {
          "internalType": "address",
          "name": "_account",
          "type": "address"
        }
      ],
      "name": "revokeAdminRole",
      "outputs": [],
      "stateMutability": "nonpayable",
      "type": "function"
    },
    {
      "inputs": [
        {
          "internalType": "address",
          "name": "_account",
          "type": "address"
        }
      ],
      "name": "revokeMinterRole",
      "outputs": [],
      "stateMutability": "nonpayable",
      "type": "function"
    },
    {
      "inputs": [
        {
          "internalType": "bytes32",
          "name": "role",
          "type": "bytes32"
        },
        {
          "internalType": "address",
          "name": "account",
          "type": "address"
        }
      ],
      "name": "revokeRole",
      "outputs": [],
      "stateMutability": "nonpayable",
      "type": "function"
    },
    {
      "inputs": [],
      "name": "royaltiesDisabledUntil",
      "outputs": [
        {
          "internalType": "uint256",
          "name": "",
          "type": "uint256"
        }
      ],
      "stateMutability": "view",
      "type": "function"
    },
    {
      "inputs": [],
      "name": "royaltyFraction",
      "outputs": [
        {
          "internalType": "uint96",
          "name": "",
          "type": "uint96"
        }
      ],
      "stateMutability": "view",
      "type": "function"
    },
    {
      "inputs": [
        {
          "internalType": "uint256",
          "name": "tokenId",
          "type": "uint256"
        },
        {
          "internalType": "uint256",
          "name": "salePrice",
          "type": "uint256"
        }
      ],
      "name": "royaltyInfo",
      "outputs": [
        {
          "internalType": "address",
          "name": "",
          "type": "address"
        },
        {
          "internalType": "uint256",
          "name": "",
          "type": "uint256"
        }
      ],
      "stateMutability": "view",
      "type": "function"
    },
    {
      "inputs": [],
      "name": "royaltyReceiver",
      "outputs": [
        {
          "internalType": "address payable",
          "name": "",
          "type": "address"
        }
      ],
      "stateMutability": "view",
      "type": "function"
    },
    {
      "inputs": [
        {
          "internalType": "address",
          "name": "from",
          "type": "address"
        },
        {
          "internalType": "address",
          "name": "to",
          "type": "address"
        },
        {
          "internalType": "uint256",
          "name": "tokenId",
          "type": "uint256"
        }
      ],
      "name": "safeTransferFrom",
      "outputs": [],
      "stateMutability": "nonpayable",
      "type": "function"
    },
    {
      "inputs": [
        {
          "internalType": "address",
          "name": "from",
          "type": "address"
        },
        {
          "internalType": "address",
          "name": "to",
          "type": "address"
        },
        {
          "internalType": "uint256",
          "name": "tokenId",
          "type": "uint256"
        },
        {
          "internalType": "bytes",
          "name": "data",
          "type": "bytes"
        }
      ],
      "name": "safeTransferFrom",
      "outputs": [],
      "stateMutability": "nonpayable",
      "type": "function"
    },
    {
      "inputs": [
        {
          "internalType": "bytes32",
          "name": "_itemKey",
          "type": "bytes32"
        },
        {
          "internalType": "address",
          "name": "_address",
          "type": "address"
        }
      ],
      "name": "searchAddress",
      "outputs": [
        {
          "components": [
            {
              "components": [
                {
                  "internalType": "address",
                  "name": "minterAddress",
                  "type": "address"
                },
                {
                  "internalType": "address[2]",
                  "name": "creatorAddress",
                  "type": "address[2]"
                },
                {
                  "internalType": "address",
                  "name": "ownerAddress",
                  "type": "address"
                },
                {
                  "internalType": "uint256",
                  "name": "tokenId",
                  "type": "uint256"
                },
                {
                  "internalType": "uint256",
                  "name": "createdAt",
                  "type": "uint256"
                },
                {
                  "internalType": "uint256",
                  "name": "updatedAt",
                  "type": "uint256"
                }
              ],
              "internalType": "struct Structs.NFTItem",
              "name": "nftItem",
              "type": "tuple"
            },
            {
              "internalType": "string",
              "name": "tokenURI",
              "type": "string"
            }
          ],
          "internalType": "struct Structs.NFT[]",
          "name": "",
          "type": "tuple[]"
        }
      ],
      "stateMutability": "view",
      "type": "function"
    },
    {
      "inputs": [
        {
          "internalType": "bytes32",
          "name": "_itemKey",
          "type": "bytes32"
        },
        {
          "internalType": "uint256",
          "name": "_uint256",
          "type": "uint256"
        }
      ],
      "name": "searchTimestamp",
      "outputs": [
        {
          "components": [
            {
              "components": [
                {
                  "internalType": "address",
                  "name": "minterAddress",
                  "type": "address"
                },
                {
                  "internalType": "address[2]",
                  "name": "creatorAddress",
                  "type": "address[2]"
                },
                {
                  "internalType": "address",
                  "name": "ownerAddress",
                  "type": "address"
                },
                {
                  "internalType": "uint256",
                  "name": "tokenId",
                  "type": "uint256"
                },
                {
                  "internalType": "uint256",
                  "name": "createdAt",
                  "type": "uint256"
                },
                {
                  "internalType": "uint256",
                  "name": "updatedAt",
                  "type": "uint256"
                }
              ],
              "internalType": "struct Structs.NFTItem",
              "name": "nftItem",
              "type": "tuple"
            },
            {
              "internalType": "string",
              "name": "tokenURI",
              "type": "string"
            }
          ],
          "internalType": "struct Structs.NFT[]",
          "name": "",
          "type": "tuple[]"
        }
      ],
      "stateMutability": "view",
      "type": "function"
    },
    {
      "inputs": [
        {
          "internalType": "uint256",
          "name": "_uint256",
          "type": "uint256"
        }
      ],
      "name": "searchTokenId",
      "outputs": [
        {
          "components": [
            {
              "components": [
                {
                  "internalType": "address",
                  "name": "minterAddress",
                  "type": "address"
                },
                {
                  "internalType": "address[2]",
                  "name": "creatorAddress",
                  "type": "address[2]"
                },
                {
                  "internalType": "address",
                  "name": "ownerAddress",
                  "type": "address"
                },
                {
                  "internalType": "uint256",
                  "name": "tokenId",
                  "type": "uint256"
                },
                {
                  "internalType": "uint256",
                  "name": "createdAt",
                  "type": "uint256"
                },
                {
                  "internalType": "uint256",
                  "name": "updatedAt",
                  "type": "uint256"
                }
              ],
              "internalType": "struct Structs.NFTItem",
              "name": "nftItem",
              "type": "tuple"
            },
            {
              "internalType": "string",
              "name": "tokenURI",
              "type": "string"
            }
          ],
          "internalType": "struct Structs.NFT[]",
          "name": "",
          "type": "tuple[]"
        }
      ],
      "stateMutability": "view",
      "type": "function"
    },
    {
      "inputs": [
        {
          "internalType": "string",
          "name": "_string",
          "type": "string"
        }
      ],
      "name": "searchTokenURI",
      "outputs": [
        {
          "components": [
            {
              "components": [
                {
                  "internalType": "address",
                  "name": "minterAddress",
                  "type": "address"
                },
                {
                  "internalType": "address[2]",
                  "name": "creatorAddress",
                  "type": "address[2]"
                },
                {
                  "internalType": "address",
                  "name": "ownerAddress",
                  "type": "address"
                },
                {
                  "internalType": "uint256",
                  "name": "tokenId",
                  "type": "uint256"
                },
                {
                  "internalType": "uint256",
                  "name": "createdAt",
                  "type": "uint256"
                },
                {
                  "internalType": "uint256",
                  "name": "updatedAt",
                  "type": "uint256"
                }
              ],
              "internalType": "struct Structs.NFTItem",
              "name": "nftItem",
              "type": "tuple"
            },
            {
              "internalType": "string",
              "name": "tokenURI",
              "type": "string"
            }
          ],
          "internalType": "struct Structs.NFT[]",
          "name": "",
          "type": "tuple[]"
        }
      ],
      "stateMutability": "view",
      "type": "function"
    },
    {
      "inputs": [
        {
          "internalType": "address",
          "name": "operator",
          "type": "address"
        },
        {
          "internalType": "bool",
          "name": "approved",
          "type": "bool"
        }
      ],
      "name": "setApprovalForAll",
      "outputs": [],
      "stateMutability": "nonpayable",
      "type": "function"
    },
    {
      "inputs": [
        {
          "internalType": "string",
          "name": "_newBaseURI",
          "type": "string"
        }
      ],
      "name": "setBaseURI",
      "outputs": [],
      "stateMutability": "nonpayable",
      "type": "function"
    },
    {
      "inputs": [
        {
          "internalType": "string",
          "name": "_bannerURL",
          "type": "string"
        }
      ],
      "name": "setCollectionBannerMedia",
      "outputs": [],
      "stateMutability": "nonpayable",
      "type": "function"
    },
    {
      "inputs": [
        {
          "internalType": "string",
          "name": "_description",
          "type": "string"
        }
      ],
      "name": "setCollectionDescription",
      "outputs": [],
      "stateMutability": "nonpayable",
      "type": "function"
    },
    {
      "inputs": [
        {
          "internalType": "string",
          "name": "_photoURL",
          "type": "string"
        }
      ],
      "name": "setCollectionDisplayPicture",
      "outputs": [],
      "stateMutability": "nonpayable",
      "type": "function"
    },
    {
      "inputs": [
        {
          "internalType": "bytes32",
          "name": "_newContractURI",
          "type": "bytes32"
        }
      ],
      "name": "setContractURI",
      "outputs": [],
      "stateMutability": "nonpayable",
      "type": "function"
    },
    {
      "inputs": [
        {
          "internalType": "address",
          "name": "_logger",
          "type": "address"
        }
      ],
      "name": "setLoggerAddress",
      "outputs": [],
      "stateMutability": "nonpayable",
      "type": "function"
    },
    {
      "inputs": [
        {
          "internalType": "address",
          "name": "_newMarketplaceAddress",
          "type": "address"
        }
      ],
      "name": "setMarketplaceAddress",
      "outputs": [],
      "stateMutability": "nonpayable",
      "type": "function"
    },
    {
      "inputs": [
        {
          "internalType": "uint256",
          "name": "_newMintingFee",
          "type": "uint256"
        }
      ],
      "name": "setMintingFee",
      "outputs": [],
      "stateMutability": "nonpayable",
      "type": "function"
    },
    {
      "inputs": [
        {
          "internalType": "address",
          "name": "_newOwner",
          "type": "address"
        }
      ],
      "name": "setNewOwner",
      "outputs": [],
      "stateMutability": "nonpayable",
      "type": "function"
    },
    {
      "inputs": [
        {
          "internalType": "address",
          "name": "_royaltyReceiver",
          "type": "address"
        },
        {
          "internalType": "uint96",
          "name": "_royaltyFraction",
          "type": "uint96"
        },
        {
          "internalType": "uint256",
          "name": "_tokenId",
          "type": "uint256"
        }
      ],
      "name": "setRoyalties",
      "outputs": [],
      "stateMutability": "nonpayable",
      "type": "function"
    },
    {
      "inputs": [
        {
          "internalType": "bytes4",
          "name": "_interfaceId",
          "type": "bytes4"
        }
      ],
      "name": "supportsInterface",
      "outputs": [
        {
          "internalType": "bool",
          "name": "",
          "type": "bool"
        }
      ],
      "stateMutability": "view",
      "type": "function"
    },
    {
      "inputs": [],
      "name": "symbol",
      "outputs": [
        {
          "internalType": "string",
          "name": "",
          "type": "string"
        }
      ],
      "stateMutability": "view",
      "type": "function"
    },
    {
      "inputs": [
        {
          "internalType": "uint256",
          "name": "index",
          "type": "uint256"
        }
      ],
      "name": "tokenByIndex",
      "outputs": [
        {
          "internalType": "uint256",
          "name": "",
          "type": "uint256"
        }
      ],
      "stateMutability": "view",
      "type": "function"
    },
    {
      "inputs": [],
      "name": "tokenCategory",
      "outputs": [
        {
          "internalType": "enum Enums.TokenCategory",
          "name": "",
          "type": "uint8"
        }
      ],
      "stateMutability": "view",
      "type": "function"
    },
    {
      "inputs": [
        {
          "internalType": "uint256",
          "name": "",
          "type": "uint256"
        }
      ],
      "name": "tokenIdToNFTItem",
      "outputs": [
        {
          "internalType": "address",
          "name": "minterAddress",
          "type": "address"
        },
        {
          "internalType": "address",
          "name": "ownerAddress",
          "type": "address"
        },
        {
          "internalType": "uint256",
          "name": "tokenId",
          "type": "uint256"
        },
        {
          "internalType": "uint256",
          "name": "createdAt",
          "type": "uint256"
        },
        {
          "internalType": "uint256",
          "name": "updatedAt",
          "type": "uint256"
        }
      ],
      "stateMutability": "view",
      "type": "function"
    },
    {
      "inputs": [],
      "name": "tokenMaximumSupply",
      "outputs": [
        {
          "internalType": "uint256",
          "name": "",
          "type": "uint256"
        }
      ],
      "stateMutability": "view",
      "type": "function"
    },
    {
      "inputs": [
        {
          "internalType": "address",
          "name": "owner",
          "type": "address"
        },
        {
          "internalType": "uint256",
          "name": "index",
          "type": "uint256"
        }
      ],
      "name": "tokenOfOwnerByIndex",
      "outputs": [
        {
          "internalType": "uint256",
          "name": "",
          "type": "uint256"
        }
      ],
      "stateMutability": "view",
      "type": "function"
    },
    {
      "inputs": [
        {
          "internalType": "uint256",
          "name": "_tokenId",
          "type": "uint256"
        }
      ],
      "name": "tokenURI",
      "outputs": [
        {
          "internalType": "string",
          "name": "",
          "type": "string"
        }
      ],
      "stateMutability": "view",
      "type": "function"
    },
    {
      "inputs": [
        {
          "internalType": "string",
          "name": "_tokenURI",
          "type": "string"
        }
      ],
      "name": "tokenURIExists",
      "outputs": [
        {
          "internalType": "bool",
          "name": "",
          "type": "bool"
        }
      ],
      "stateMutability": "view",
      "type": "function"
    },
    {
      "inputs": [],
      "name": "totalSupply",
      "outputs": [
        {
          "internalType": "uint256",
          "name": "",
          "type": "uint256"
        }
      ],
      "stateMutability": "view",
      "type": "function"
    },
    {
      "inputs": [
        {
          "internalType": "address",
          "name": "from",
          "type": "address"
        },
        {
          "internalType": "address",
          "name": "to",
          "type": "address"
        },
        {
          "internalType": "uint256",
          "name": "tokenId",
          "type": "uint256"
        }
      ],
      "name": "transferFrom",
      "outputs": [],
      "stateMutability": "nonpayable",
      "type": "function"
    },
    {
      "inputs": [
        {
          "internalType": "address payable",
          "name": "_to",
          "type": "address"
        }
      ],
      "name": "transferToFallback",
      "outputs": [],
      "stateMutability": "payable",
      "type": "function"
    },
    {
      "inputs": [
        {
          "internalType": "address",
          "name": "_to",
          "type": "address"
        },
        {
          "internalType": "uint256",
          "name": "_tokenId",
          "type": "uint256"
        },
        {
          "internalType": "address",
          "name": "_from",
          "type": "address"
        }
      ],
      "name": "transferToken",
      "outputs": [],
      "stateMutability": "nonpayable",
      "type": "function"
    },
    {
      "inputs": [
        {
          "internalType": "address",
          "name": "_newContractTreasury",
          "type": "address"
        }
      ],
      "name": "updateContractTreasury",
      "outputs": [],
      "stateMutability": "nonpayable",
      "type": "function"
    },
    {
      "inputs": [
        {
          "internalType": "address",
          "name": "to",
          "type": "address"
        },
        {
          "internalType": "uint256",
          "name": "value",
          "type": "uint256"
        }
      ],
      "name": "withdraw",
      "outputs": [],
      "stateMutability": "payable",
      "type": "function"
    },
    {
      "stateMutability": "payable",
      "type": "receive"
    }
  ],
  "bytecode": "0x60806040819052601080546001600160a01b031916730bcebd6ce292721408ea6a40c9f1fa04c8befa9a179055620068b0388190039081908339810160408190526200004b91620005ac565b828282828281816002620000608382620006d7565b5060036200006f8282620006d7565b5050600d805460ff1916905550506001600f555080515f908190819081908190819081908190819081908190620000b0908d016020908101908e016200088f565b9a509a509a509a509a509a509a509a509a509a509a505f8690505f875190505f8790505f88519050825f03620000f957604051633f73e98560e11b815260040160405180910390fd5b805f036200011a57604051638614953360e01b815260040160405180910390fd5b620001265f3362000315565b620001405f80516020620068908339815191523362000315565b5f5b838110156200019a57620001875f8051602062006890833981519152868381518110620001735762000173620009a2565b60200260200101516200031560201b60201c565b6200019281620009b6565b905062000142565b50620001b55f80516020620068708339815191523362000315565b5f5b81811015620001fb57620001e85f8051602062006870833981519152848381518110620001735762000173620009a2565b620001f381620009b6565b9050620001b7565b508c156200020e5760178d905562000214565b5f196017555b6001600160601b038c16158015906200023557506001600160a01b038b1615155b1562000269575f601f556001600160601b038c16600160a01b026001600160a01b038c1617601e55620002698b8d62000325565b6018620002778f82620006d7565b5060168f905560208890556010805462ff00ff60a01b1916600160a01b8715150260ff60b01b191617600160b01b881515021790556013805488919060ff19166001836021811115620002ce57620002ce620009db565b021790555033601360016101000a8154816001600160a01b0302191690836001600160a01b03160217905550505050505050505050505050505050505050505050620009ef565b62000321828262000429565b5050565b6127106001600160601b0382161115620003995760405162461bcd60e51b815260206004820152602a60248201527f455243323938313a20726f79616c7479206665652077696c6c206578636565646044820152692073616c65507269636560b01b60648201526084015b60405180910390fd5b6001600160a01b038216620003f15760405162461bcd60e51b815260206004820152601960248201527f455243323938313a20696e76616c696420726563656976657200000000000000604482015260640162000390565b604080518082019091526001600160a01b039092168083526001600160601b039091166020909201829052600160a01b909102175f55565b5f828152600e602090815260408083206001600160a01b038516845290915290205460ff1662000321575f828152600e602090815260408083206001600160a01b03851684529091529020805460ff19166001179055620004873390565b6001600160a01b0316816001600160a01b0316837f2f8788117e7eff1d82e926ec794901d17c78024a50270940304540a733656f0d60405160405180910390a45050565b634e487b7160e01b5f52604160045260245ffd5b604051601f8201601f191681016001600160401b03811182821017156200050a576200050a620004cb565b604052919050565b5f6001600160401b038311156200052d576200052d620004cb565b602062000543601f8501601f19168201620004df565b915083825284848401111562000557575f80fd5b5f5b84811015620005745783810151838201830152810162000559565b505f818584010152509392505050565b5f82601f83011262000594575f80fd5b620005a58383516020850162000512565b9392505050565b5f805f60608486031215620005bf575f80fd5b83516001600160401b0380821115620005d6575f80fd5b620005e48783880162000584565b94506020860151915080821115620005fa575f80fd5b620006088783880162000584565b935060408601519150808211156200061e575f80fd5b508401601f8101861362000630575f80fd5b620006418682516020840162000512565b9150509250925092565b600181811c908216806200066057607f821691505b6020821081036200067f57634e487b7160e01b5f52602260045260245ffd5b50919050565b601f821115620006d2575f81815260208120601f850160051c81016020861015620006ad5750805b601f850160051c820191505b81811015620006ce57828155600101620006b9565b5050505b505050565b81516001600160401b03811115620006f357620006f3620004cb565b6200070b816200070484546200064b565b8462000685565b602080601f83116001811462000741575f8415620007295750858301515b5f19600386901b1c1916600185901b178555620006ce565b5f85815260208120601f198616915b82811015620007715788860151825594840194600190910190840162000750565b50858210156200078f57878501515f19600388901b60f8161c191681555b5050505050600190811b01905550565b80516001600160601b0381168114620007b6575f80fd5b919050565b6001600160a01b0381168114620007d0575f80fd5b50565b8051620007b681620007bb565b5f82601f830112620007f0575f80fd5b815160206001600160401b038211156200080e576200080e620004cb565b8160051b6200081f828201620004df565b928352848101820192828101908785111562000839575f80fd5b83870192505b84831015620008655782516200085581620007bb565b825291830191908301906200083f565b979650505050505050565b805160228110620007b6575f80fd5b80518015158114620007b6575f80fd5b5f805f805f805f805f805f6101608c8e031215620008ab575f80fd5b8b5160208d0151909b506001600160401b03811115620008c9575f80fd5b620008d78e828f0162000584565b9a505060408c01519850620008ef60608d016200079f565b9750620008ff60808d01620007d3565b60a08d01519097506001600160401b038111156200091b575f80fd5b620009298e828f01620007e0565b60c08e015190975090506001600160401b0381111562000947575f80fd5b620009558e828f01620007e0565b95505060e08c015193506200096e6101008d0162000870565b92506200097f6101208d016200087f565b9150620009906101408d016200087f565b90509295989b509295989b9093969950565b634e487b7160e01b5f52603260045260245ffd5b5f60018201620009d457634e487b7160e01b5f52601160045260245ffd5b5060010190565b634e487b7160e01b5f52602160045260245ffd5b615e7380620009fd5f395ff3fe6080604052600436106104e3575f3560e01c806301ffc9a71461052557806306fdde0314610559578063081812fc1461057a578063095ea7b3146105a65780630a989d9c146105c55780630e681c70146105e6578063108eb4e8146105fa57806313c698961461061d57806318160ddd146106315780631ab3e86114610645578063227a722e14610659578063238a47091461067857806323b872dd14610697578063248a9ca3146106b65780632539ca81146106315780632a55205a146106d55780632b601277146107025780632cb5dda71461072e5780632d916002146107425780632f2ff15d146107615780632f39352a146107805780632f745c5914610794578063305271eb146107b35780633612b5b3146107d257806336568abe146107f157806337929eb4146108105780633bb3a24d146108245780633dd1eb611461084357806342842e0e1461086257806342966c681461088157806343d32ae7146108a057806344dcfc34146108bf57806348756c17146108d35780634b021d67146108f25780634f227e11146109065780634f6ccce7146109265780635380b31c1461094557806355f804b3146109645780635a64ad95146109835780635ba37742146109985780635c975abb146109ac57806360bd55f8146109c3578063614595d0146109e357806362f588d814610a025780636352211e14610a2257806369e2f0fb14610a4157806369f1fd2f14610a605780636a3ceff914610a7f5780636ba87a5314610aac57806370a0823114610abf578063714c539814610ade5780637284e41614610af25780637599f97514610b065780637806a6da14610b255780637b47ec1a14610b3a57806384c4bd4b14610b5957806387dca32314610b6f578063893d20e814610b8e5780638da5cb5b14610bb057806391d1485414610bd4578063934689a914610bf3578063939fa11d14610c125780639471302e14610c3157806395d89b4114610c5057806397b68d2b14610c645780639a19c7b014610c785780639a37522614610c975780639c9cfc9714610cb65780639fbc871314610d27578063a217fddf14610d46578063a221f69014610d59578063a22cb46514610d78578063a5bd523514610d97578063a5cd761f14610db4578063a65927fb14610dd3578063a912ec3114610df2578063aa36bb2014610e11578063abb4eff014610e30578063b38cae1214610e68578063b47cc55614610e8e578063b88d4fde14610ead578063b91e86cf14610ecc578063bb8fe78514610eeb578063be3bd55014610f08578063c38477fa14610f27578063c634b78e14610f3d578063c87b56dd14610f5c578063ce6a765c14610f7b578063cfc6cdaa14610f8f578063d0deb8ea14610fa2578063d0e4f39614610fb6578063d342c25214610fd5578063d547741f14610ff4578063d547cfb714611013578063d6fae75214611027578063daa17f491461103b578063e02c85531461105a578063e2a0fad614611079578063e2c6875c14611100578063e5326ab114611114578063e6c0518514611128578063e7dee99f1461113f578063e8a3d48514611165578063e985e9c51461117a578063f3fef3a314611199578063f5a1f5b4146111ac578063f5ff0c90146111cb578063f640d508146111ea578063f817332e14611209578063f8cdd3311461121c578063fb8077591461123c578063fdf467601461125057005b36610523577f88a5966d370b9919b20f3e2c13ff65706f196a4e32cc2c12bf57088f885258743334604051610519929190614da7565b60405180910390a1005b005b348015610530575f80fd5b5061054461053f366004614dd5565b61126f565b60405190151581526020015b60405180910390f35b348015610564575f80fd5b5061056d61127f565b6040516105509190614e3d565b348015610585575f80fd5b50610599610594366004614e4f565b61130f565b6040516105509190614e66565b3480156105b1575f80fd5b506105236105c0366004614e8e565b611334565b3480156105d0575f80fd5b506105d961144d565b6040516105509190614f2b565b3480156105f1575f80fd5b5061056d61148a565b348015610605575f80fd5b5061060f601f5481565b604051908152602001610550565b348015610628575f80fd5b50610523611516565b34801561063c575f80fd5b5061060f611531565b348015610650575f80fd5b5061056d61153b565b348015610664575f80fd5b50610523610673366004614e4f565b611548565b348015610683575f80fd5b50610523610692366004614e4f565b61158c565b3480156106a2575f80fd5b506105236106b1366004614faa565b6115d9565b3480156106c1575f80fd5b5061060f6106d0366004614e4f565b61160b565b3480156106e0575f80fd5b506106f46106ef366004614fe8565b61161f565b604051610550929190614da7565b34801561070d575f80fd5b5061072161071c366004614e4f565b6116ca565b6040516105509190615030565b348015610739575f80fd5b506105d9611761565b34801561074d575f80fd5b506105d961075c366004614fe8565b61176b565b34801561076c575f80fd5b5061052361077b3660046150a6565b61178b565b34801561078b575f80fd5b5061056d6117a7565b34801561079f575f80fd5b5061060f6107ae366004614e8e565b6117b1565b3480156107be575f80fd5b506105d96107cd3660046151a1565b611845565b3480156107dd575f80fd5b506105236107ec366004615222565b61187c565b3480156107fc575f80fd5b5061052361080b3660046150a6565b6118c3565b34801561081b575f80fd5b5060165461060f565b34801561082f575f80fd5b5061056d61083e366004614e4f565b611941565b34801561084e575f80fd5b5061052361085d366004615260565b61194c565b34801561086d575f80fd5b5061052361087c366004614faa565b61196e565b34801561088c575f80fd5b5061052361089b366004614e4f565b611988565b3480156108ab575f80fd5b506105446108ba366004615222565b6119b6565b3480156108ca575f80fd5b5061056d6119e9565b3480156108de575f80fd5b506105d96108ed366004615260565b6119f8565b3480156108fd575f80fd5b5060175461060f565b348015610911575f80fd5b5060105461054490600160b01b900460ff1681565b348015610931575f80fd5b5061060f610940366004614e4f565b611a1c565b348015610950575f80fd5b5061052361095f366004614e4f565b611aac565b34801561096f575f80fd5b5061052361097e366004615222565b611b1a565b34801561098e575f80fd5b5061060f60205481565b3480156109a3575f80fd5b506105d9611b61565b3480156109b7575f80fd5b50600d5460ff16610544565b3480156109ce575f80fd5b5060105461054490600160a01b900460ff1681565b3480156109ee575f80fd5b50601554610599906001600160a01b031681565b348015610a0d575f80fd5b5060105461054490600160b81b900460ff1681565b348015610a2d575f80fd5b50610599610a3c366004614e4f565b611b85565b348015610a4c575f80fd5b50610523610a5b366004615260565b611bb8565b348015610a6b575f80fd5b506105d9610a7a366004615260565b611bd7565b348015610a8a575f80fd5b50610a9e610a99366004614e4f565b611bfb565b60405161055092919061527b565b610523610aba366004615260565b611d5b565b348015610aca575f80fd5b5061060f610ad9366004615260565b611df1565b348015610ae9575f80fd5b5061056d611e75565b348015610afd575f80fd5b5061056d611e84565b348015610b11575f80fd5b50610523610b20366004615222565b611e91565b348015610b30575f80fd5b5061060f60175481565b348015610b45575f80fd5b50610523610b54366004614e4f565b611ed8565b348015610b64575f80fd5b5060115461060f9081565b348015610b7a575f80fd5b506105d9610b89366004614e4f565b611f0b565b348015610b99575f80fd5b5060135461010090046001600160a01b0316610599565b348015610bbb575f80fd5b506013546105999061010090046001600160a01b031681565b348015610bdf575f80fd5b50610544610bee3660046150a6565b611f44565b348015610bfe575f80fd5b50610599610c0d366004614e4f565b611f6e565b348015610c1d575f80fd5b50610599610c2c366004614e4f565b611fab565b348015610c3c575f80fd5b50610523610c4b366004615222565b611fde565b348015610c5b575f80fd5b5061056d612025565b348015610c6f575f80fd5b5061060f612034565b348015610c83575f80fd5b50610523610c92366004615260565b61203e565b348015610ca2575f80fd5b5061060f610cb1366004615260565b61205d565b348015610cc1575f80fd5b50610cd5610cd0366004614fe8565b612067565b60405161055091908151151581526020808301516001600160a01b03169082015260408083015190820152606080830151908201526080808301519082015260a0918201519181019190915260c00190565b348015610d32575f80fd5b50601e54610599906001600160a01b031681565b348015610d51575f80fd5b5061060f5f81565b348015610d64575f80fd5b506105d9610d733660046150a6565b612116565b348015610d83575f80fd5b50610523610d923660046152a8565b61212d565b348015610da2575f80fd5b50601e546001600160a01b0316610599565b348015610dbf575f80fd5b50610599610dce366004614e4f565b612138565b348015610dde575f80fd5b50610523610ded3660046152ef565b61215a565b348015610dfd575f80fd5b50610523610e0c366004615260565b612226565b348015610e1c575f80fd5b50610523610e2b366004614e8e565b612245565b348015610e3b575f80fd5b50601e54600160a01b90046001600160601b03165b6040516001600160601b039091168152602001610550565b348015610e73575f80fd5b50601354610e819060ff1681565b604051610550919061532a565b348015610e99575f80fd5b50610523610ea8366004615260565b6122a7565b348015610eb8575f80fd5b50610523610ec7366004615344565b612335565b348015610ed7575f80fd5b50610523610ee6366004615260565b61236d565b348015610ef6575f80fd5b506014546001600160a01b0316610599565b348015610f13575f80fd5b50610523610f223660046153be565b612384565b348015610f32575f80fd5b5060125461060f9081565b348015610f48575f80fd5b50610523610f57366004615260565b61254e565b348015610f67575f80fd5b5061056d610f76366004614e4f565b61256d565b348015610f86575f80fd5b50612710610e50565b610523610f9d366004615260565b6127a6565b348015610fad575f80fd5b506105d96127d8565b348015610fc1575f80fd5b50610599610fd0366004614e4f565b6127fc565b348015610fe0575f80fd5b50610523610fef366004615260565b61282b565b348015610fff575f80fd5b5061052361100e3660046150a6565b612896565b34801561101e575f80fd5b5061056d6128b2565b348015611032575f80fd5b5061056d6128bf565b348015611046575f80fd5b50601454610599906001600160a01b031681565b348015611065575f80fd5b50610523611074366004615260565b6128ce565b348015611084575f80fd5b506110cd611093366004614e4f565b601d6020525f9081526040902080546003820154600483015460058401546006909401546001600160a01b03938416949390921692909185565b604080516001600160a01b039687168152959094166020860152928401919091526060830152608082015260a001610550565b34801561110b575f80fd5b5061056d612908565b34801561111f575f80fd5b5061056d612917565b348015611133575f80fd5b5060135460ff16610e81565b34801561114a575f80fd5b50601e54610e5090600160a01b90046001600160601b031681565b348015611170575f80fd5b5061060f60165481565b348015611185575f80fd5b50610544611194366004615418565b612921565b6105236111a7366004614e8e565b61294e565b3480156111b7575f80fd5b506105236111c6366004615260565b612a93565b3480156111d6575f80fd5b506105d96111e5366004615260565b612af5565b3480156111f5575f80fd5b50610523611204366004615444565b612b19565b61060f611217366004615483565b612b75565b348015611227575f80fd5b5060105461054490600160a81b900460ff1681565b348015611247575f80fd5b5060205461060f565b34801561125b575f80fd5b50601054610599906001600160a01b031681565b5f61127982612e08565b92915050565b60606002805461128e906154e5565b80601f01602080910402602001604051908101604052809291908181526020018280546112ba906154e5565b80156113055780601f106112dc57610100808354040283529160200191611305565b820191905f5260205f20905b8154815290600101906020018083116112e857829003601f168201915b5050505050905090565b5f61131982612e2c565b505f908152600660205260409020546001600160a01b031690565b5f61133e82611b85565b9050806001600160a01b0316836001600160a01b0316036113b05760405162461bcd60e51b815260206004820152602160248201527f4552433732313a20617070726f76616c20746f2063757272656e74206f776e656044820152603960f91b60648201526084015b60405180910390fd5b336001600160a01b03821614806113cc57506113cc8133612921565b61143e5760405162461bcd60e51b815260206004820152603d60248201527f4552433732313a20617070726f76652063616c6c6572206973206e6f7420746f60448201527f6b656e206f776e6572206f7220617070726f76656420666f7220616c6c00000060648201526084016113a7565b6114488383612e51565b505050565b60606114855f80516020615dfe833981519152336040516020016114719190614e66565b604051602081830303815290604052612ebe565b905090565b601b8054611497906154e5565b80601f01602080910402602001604051908101604052809291908181526020018280546114c3906154e5565b801561150e5780601f106114e55761010080835404028352916020019161150e565b820191905f5260205f20905b8154815290600101906020018083116114f157829003601f168201915b505050505081565b61151e6132d1565b60138054610100600160a81b0319169055565b5f61148560125490565b601a8054611497906154e5565b6115506132d1565b60168190556040518181527f606320736159245f54a67da7e5159fee8cd433e2b283f389e941847ea7580898906020015b60405180910390a150565b6115946132d1565b8061159e8161332d565b60208281556040518381527f7b96548969d8300725edaec0ef4f9b32997f67531162336066d67eb6f55dbb4f91015b60405180910390a15050565b6115e4335b8261334d565b6116005760405162461bcd60e51b81526004016113a79061551d565b6114488383836133aa565b5f908152600e602052604090206001015490565b5f8281526001602090815260408083208151808301909252546001600160a01b038116808352600160a01b9091046001600160601b03169282019290925282916116925750604080518082019091525f546001600160a01b0381168252600160a01b90046001600160601b031660208201525b60208101515f90612710906116b0906001600160601b03168761557e565b6116ba9190615595565b91519350909150505b9250929050565b60606116d58261350e565b826017546116e483838361352a565b601554604051630d74e12b60e31b81526001600160a01b0390911690636ba70958906117169030908990600401614da7565b5f604051808303815f875af1158015611731573d5f803e3d5ffd5b505050506040513d5f823e601f3d908101601f1916820160405261175891908101906155b4565b95945050505050565b6060611485613578565b6060611784838360405160200161147191815260200190565b9392505050565b6117948261160b565b61179d816137c6565b61144883836137d0565b6060611485612025565b5f6117bb83611df1565b821061181d5760405162461bcd60e51b815260206004820152602b60248201527f455243373231456e756d657261626c653a206f776e657220696e646578206f7560448201526a74206f6620626f756e647360a81b60648201526084016113a7565b506001600160a01b03919091165f908152600860209081526040808320938352929052205490565b60606112797f0e2d7b14c4519d5ad3f8769d43604f04814bf1a8cec789bdd604eaebe6d918ba836040516020016114719190614e3d565b6118846132d1565b601a61189182848361570e565b507fbd711b580396ac24ecfc5d90770bf916a784efe2ab2212e413c699159cc1aa0e82826040516115cd9291906157c3565b6001600160a01b03811633146119335760405162461bcd60e51b815260206004820152602f60248201527f416363657373436f6e74726f6c3a2063616e206f6e6c792072656e6f756e636560448201526e103937b632b9903337b91039b2b63360891b60648201526084016113a7565b61193d8282613855565b5050565b60606112798261256d565b6119546132d1565b61196b5f80516020615dbe8339815191528261178b565b50565b61144883838360405180602001604052805f815250612335565b611991336115de565b6119ad5760405162461bcd60e51b81526004016113a79061551d565b61196b816138bb565b5f602283836040516119c99291906157f1565b9081526040519081900360200190205460ff161515600114905092915050565b6060601b805461128e906154e5565b60606112795f80516020615dfe833981519152836040516020016114719190614e66565b5f611a26600a5490565b8210611a895760405162461bcd60e51b815260206004820152602c60248201527f455243373231456e756d657261626c653a20676c6f62616c20696e646578206f60448201526b7574206f6620626f756e647360a01b60648201526084016113a7565b600a8281548110611a9c57611a9c615800565b905f5260205f2001549050919050565b611ab46132d1565b601f8190558015611aef576040518181527f60a8bbe023150ca5f2ae223533a9b5ad99d7a8fc3fa3650636ceb76643a334d390602001611581565b6040517f10d5d67426cba162cda5ee07105fab9f57d27b8f67905072bec32b5b65aa4279905f90a150565b611b226132d1565b6018611b2f82848361570e565b507f5411e8ebf1636d9e83d5fc4900bf80cbac82e8790da2a4c94db4895e889eedf682826040516115cd9291906157c3565b60606114855f80516020615d7e833981519152336040516020016114719190614e66565b5f80611b90836138c4565b90506001600160a01b0381166112795760405162461bcd60e51b81526004016113a790615814565b611bc06132d1565b61196b5f80516020615dbe83398151915282612896565b60606112795f80516020615d7e833981519152836040516020016114719190614e66565b611c03614c39565b6060611c0e8361350e565b83601754611c1d83838361352a565b5f868152601d60209081526040808320601c835292819020815160c08101835284546001600160a01b031681528251808401938490529193909285929184019190600184019060029082845b81546001600160a01b03168152600190910190602001808311611c6957505050918352505060038201546001600160a01b03166020820152600482015460408201526005820154606082015260069091015460809091015281549092508190611cd1906154e5565b80601f0160208091040260200160405190810160405280929190818152602001828054611cfd906154e5565b8015611d485780601f10611d1f57610100808354040283529160200191611d48565b820191905f5260205f20905b815481529060010190602001808311611d2b57829003601f168201915b5050505050905094509450505050915091565b5f816001600160a01b0316346040515f6040518083038185875af1925050503d805f8114611da4576040519150601f19603f3d011682016040523d82523d5f602084013e611da9565b606091505b505090508061193d5760405162461bcd60e51b81526020600482015260146024820152732330b4b632b2103a379039b2b7321022ba3432b960611b60448201526064016113a7565b5f6001600160a01b038216611e5a5760405162461bcd60e51b815260206004820152602960248201527f4552433732313a2061646472657373207a65726f206973206e6f7420612076616044820152683634b21037bbb732b960b91b60648201526084016113a7565b506001600160a01b03165f9081526005602052604090205490565b60606018805461128e906154e5565b60198054611497906154e5565b611e996132d1565b601b611ea682848361570e565b507f15dedfa04f82443a4f4b2baf5181b20388bb2b384307e85ccc59cdef30bb912082826040516115cd9291906157c3565b611ee1336115de565b611eea816138de565b5f82815260016020526040812055611f0260126138fc565b61193d826138bb565b60606112797f29a7b54c9b9e97f4b05fe2a20397ff46497367dee25875b7a64afd9a6d3f073b8360405160200161147191815260200190565b5f918252600e602090815260408084206001600160a01b0393909316845291905290205460ff1690565b5f611f788261350e565b82601754611f8783838361352a565b5f611f9186611bfb565b5060208101519091505f5b60200201519695505050505050565b5f611fb58261350e565b82601754611fc483838361352a565b5f611fce86611bfb565b5060208101519091506001611f9c565b611fe66132d1565b6019611ff382848361570e565b507f13d7b4a69c7e69fd4c85438c93af4a7b28274a56d7c0715d1f87a76f2079e6b782826040516115cd9291906157c3565b60606003805461128e906154e5565b5f61148560115490565b6120466132d1565b61196b5f80516020615e1e83398151915282612896565b5f61127982611df1565b61206f614c82565b6120788361350e565b8360175461208783838361352a565b5f80612093888861161f565b9150915061209f614c82565b81158015906120b657506001600160a01b03831615155b1561210a576040805160c081018252600181526001600160a01b0385166020820152908101896120e86127108661557e565b6120f29190615595565b81526020018381526020018981526020018a81525090505b98975050505050505050565b606061178483836040516020016114719190614e66565b61193d338383613950565b5f6121428261350e565b8260175461215183838361352a565b61175885611b85565b6121626132d1565b601f5461216e81613a19565b6001600160a01b038416156121b857601e80546001600160a01b0319166001600160a01b03861617905581156121ae576121a9828585613a3d565b6121b8565b6121b88484613b05565b601e80546001600160601b038516600160a01b81026001600160a01b039283161790925560408051918716825260208201929092529081018390527f3325c20aeff445d88f62d460f0389f7538a6893a1c51d62639629f4734afa6e29060600160405180910390a150505050565b61222e6132d1565b61196b5f80516020615e1e833981519152826118c3565b61224e8161350e565b8160175461225d83838361352a565b6122678585611334565b7f2a68bafdb9667df04f0a0ddf6962422372aeadbb32af517335a828cfabc9cf9a8585604051612298929190614da7565b60405180910390a15050505050565b806122b181613bba565b6122b96132d1565b6014546001600160a01b0316156122e0576014546122e0906001600160a01b03165f61212d565b601480546001600160a01b0319166001600160a01b03841617905561230682600161212d565b7fcd18a0aa840156825b8db756ea0f9aa1bedc5a771ea33c3a63efbf321a91d985826040516115cd9190614e66565b61233f338361334d565b61235b5760405162461bcd60e51b81526004016113a79061551d565b61236784848484613be5565b50505050565b61196b5f80516020615dbe833981519152826118c3565b5f61238e816137c6565b5f6001600160a01b038616156123a55750846123a8565b50335b5f8560028111156123bb576123bb615008565b036124305760405163a9059cbb60e01b81526001600160a01b0388169063a9059cbb906123ee9084908890600401614da7565b6020604051808303815f875af115801561240a573d5f803e3d5ffd5b505050506040513d601f19601f8201168201806040525081019061242e9190615846565b505b600185600281111561244457612444615008565b036124a757604051632142170760e11b81526001600160a01b038816906342842e0e9061247990309085908890600401615861565b5f604051808303815f87803b158015612490575f80fd5b505af11580156124a2573d5f803e3d5ffd5b505050505b60028560028111156124bb576124bb615008565b0361254557604051637921219560e11b81523060048201526001600160a01b038281166024830152604482018590526064820186905260a06084830152600360a48301526203078360ec1b60c483015288169063f242432a9060e4015f604051808303815f87803b15801561252e575f80fd5b505af1158015612540573d5f803e3d5ffd5b505050505b50505050505050565b6125566132d1565b61196b5f80516020615e1e8339815191528261178b565b60605f73__$29de98fb2cbbe7538224799f316eefb01b$__6322904b4a612592611e75565b6040518263ffffffff1660e01b81526004016125ae9190614e3d565b5f60405180830381865af41580156125c8573d5f803e3d5ffd5b505050506040513d5f823e601f3d908101601f191682016040526125ef9190810190615885565b5f848152601c602052604081208054929350909161260c906154e5565b80601f0160208091040260200160405190810160405280929190818152602001828054612638906154e5565b80156126835780601f1061265a57610100808354040283529160200191612683565b820191905f5260205f20905b81548152906001019060200180831161266657829003601f168201915b5050505050905080515f14612713576040516324ebdea160e21b815273__$29de98fb2cbbe7538224799f316eefb01b$__906393af7a84906126cb90859085906004016158ed565b5f60405180830381865af41580156126e5573d5f803e3d5ffd5b505050506040513d5f823e601f3d908101601f1916820160405261270c9190810190615885565b915061279f565b5f848152601c6020526040908190209051631305294d60e11b815273__$29de98fb2cbbe7538224799f316eefb01b$__9163260a529a9161275b91889187919060040161598a565b5f60405180830381865af4158015612775573d5f803e3d5ffd5b505050506040513d5f823e601f3d908101601f1916820160405261279c9190810190615885565b91505b5092915050565b6040516001600160a01b038216903480156108fc02915f818181858888f1935050505015801561193d573d5f803e3d5ffd5b60606114855f80516020615d9e833981519152336040516020016114719190614e66565b5f6128068261350e565b8260175461281583838361352a565b5f61281f86611bfb565b50519695505050505050565b6128336132d1565b6001600160a01b03811661286f5760405162461bcd60e51b815260206004820152600360248201526249414160e81b60448201526064016113a7565b601580546001600160a01b0319166001600160a01b03831690811790915561196b90613c18565b61289f8261160b565b6128a8816137c6565b6114488383613855565b60188054611497906154e5565b6060601a805461128e906154e5565b5f6128d8816137c6565b6001600160a01b0382161561193d57601080546001600160a01b0384166001600160a01b03199091161790555050565b60606019805461128e906154e5565b606061148561127f565b6001600160a01b039182165f90815260076020908152604080832093909416825291909152205460ff1690565b5f612958816137c6565b612960613c5b565b81612969613cb4565b10156129ae5760405162461bcd60e51b8152602060048201526014602482015273494e53554646494349454e545f42414c414e434560601b60448201526064016113a7565b6001600160a01b0383166129f357336108fc6129c8613cb4565b6040518115909202915f818181858888f193505050501580156129ed573d5f803e3d5ffd5b50612a89565b5f836001600160a01b0316836040515f6040518083038185875af1925050503d805f8114612a3c576040519150601f19603f3d011682016040523d82523d5f602084013e612a41565b606091505b5050905080612a875760405162461bcd60e51b81526020600482015260126024820152714641494c45445f544f5f574954484452415760701b60448201526064016113a7565b505b6114486001600f55565b612a9b613cc7565b80612aa581613bba565b60138054610100600160a81b0319166101006001600160a01b038516021790556040517fa2ea9883a321a3e97b8266c2b078bfeec6d50c711ed71f874a90d500ae2eaf36906115cd908490614e66565b60606112795f80516020615d9e833981519152836040516020016114719190614e66565b612b228261350e565b82601754612b3183838361352a565b612b3b338661334d565b612b44816138de565b612b58612b5087611b85565b868989613cf2565b6001600160a01b038516612b6a573394505b61254585888861196e565b5f612b7e613d51565b612b8c601180546001019055565b5f612b9660115490565b9050601754811115612bc95760175460405163521d049160e11b81526004810191909152602481018290526044016113a7565b602054341015612bf95760205460405163bf08175560e01b815260048101919091523460248201526044016113a7565b612c0385856119b6565b15612c2557848460405163fdfbd2ef60e01b81526004016113a79291906157c3565b6040518060c00160405280612c373390565b6001600160a01b031681526020016040518060400160405280612c573390565b6001600160a01b0390811682528a8116602092830181905292845283820192909252604080840186905242606085018190526080909401939093525f858152601d825292909220835181546001600160a01b031916921691909117815590820151612cc89060018301906002614cbd565b506040828101516003830180546001600160a01b0319166001600160a01b03909216919091179055606083015160048301556080830151600583015560a0909201516006909101555f828152601c60205220612d2585878361570e565b50600160228686604051612d3a9291906157f1565b908152604051908190036020019020805491151560ff19909216919091179055612d648682613d96565b612da38186868080601f0160208091040260200160405190810160405280939291908181526020018383808284375f92019190915250613daf92505050565b6014546001600160a01b031615612dcb57601454612dcb906001600160a01b0316600161212d565b612dd9601280546001019055565b42601f541015612dfd576001600160601b03831615612dfd57612dfd33848361215a565b90505b949350505050565b5f6001600160e01b03198216637965db0b60e01b1480611279575061127982613e63565b612e358161350e565b61196b5760405162461bcd60e51b81526004016113a790615814565b5f81815260066020526040902080546001600160a01b0319166001600160a01b0384169081179091558190612e8582611b85565b6001600160a01b03167f8c5be1e5ebec7d5bd14f71427d1e84f3dd0314c0f7b2291e5b200ac8c7c3b92560405160405180910390a45050565b60605f612eca60115490565b90505f60605f5b838110156130325760018181015f908152601d60209081526040808320815160c08101835281546001600160a01b031681528251808401938490529495909491938501929084019060029082845b81546001600160a01b03168152600190910190602001808311612f1f57505050918352505060038201546001600160a01b031660208201526004820154604082015260058201546060808301919091526006909201546080909101528101519091505f03612f8d575061302a565b600182015f908152601c6020526040808220905163fdad77a160e01b815273__$29de98fb2cbbe7538224799f316eefb01b$__9163fdad77a191612fd9918d918d9188916004016159be565b602060405180830381865af4158015612ff4573d5f803e3d5ffd5b505050506040513d601f19601f820116820180604052508101906130189190615846565b90508015613027578460010194505b50505b600101612ed1565b50816001600160401b0381111561304b5761304b6150d4565b60405190808252806020026020018201604052801561308457816020015b613071614d11565b8152602001906001900390816130695790505b5090508115611758575f805b848110156132c65760018181015f908152601d60209081526040808320815160c08101835281546001600160a01b031681528251808401938490529495909491938501929084019060029082845b81546001600160a01b031681526001909101906020018083116130de57505050918352505060038201546001600160a01b031660208201526004820154604082015260058201546060808301919091526006909201546080909101528101519091505f0361314c57506132be565b600182015f908152601c6020526040808220905163fdad77a160e01b815273__$29de98fb2cbbe7538224799f316eefb01b$__9163fdad77a191613198918e918e9188916004016159be565b602060405180830381865af41580156131b3573d5f803e3d5ffd5b505050506040513d601f19601f820116820180604052508101906131d79190615846565b905080156132b2576040518060400160405280838152602001601c5f8660010181526020019081526020015f20805461320f906154e5565b80601f016020809104026020016040519081016040528092919081815260200182805461323b906154e5565b80156132865780601f1061325d57610100808354040283529160200191613286565b820191905f5260205f20905b81548152906001019060200180831161326957829003601f168201915b50505050508152508585815181106132a0576132a0615800565b60200260200101819052508360010193505b6132ba614c39565b5050505b600101613090565b505095945050505050565b6132e85f80516020615e1e83398151915233611f44565b1580156132fc57506132fa5f33611f44565b155b1561332b57335f80516020615e1e833981519152604051630e80140560e21b81526004016113a7929190614da7565b565b805f0361196b5760405163162908e360e11b815260040160405180910390fd5b5f8061335883611b85565b9050806001600160a01b0316846001600160a01b0316148061337f575061337f8185612921565b8061279c5750836001600160a01b03166133988461130f565b6001600160a01b031614949350505050565b826001600160a01b03166133bd82611b85565b6001600160a01b0316146133e35760405162461bcd60e51b81526004016113a790615a61565b6001600160a01b0382166134455760405162461bcd60e51b8152602060048201526024808201527f4552433732313a207472616e7366657220746f20746865207a65726f206164646044820152637265737360e01b60648201526084016113a7565b6134528383836001613e6d565b826001600160a01b031661346582611b85565b6001600160a01b03161461348b5760405162461bcd60e51b81526004016113a790615a61565b5f81815260066020908152604080832080546001600160a01b03199081169091556001600160a01b038781168086526005855283862080545f1901905590871680865283862080546001019055868652600490945282852080549092168417909155905184935f80516020615dde83398151915291a46114488383836001613fa7565b5f80613519836138c4565b6001600160a01b0316141592915050565b81158061353657508082115b156135575760405163112517f360e21b8152600481018390526024016113a7565b82611448576040516312699e4760e31b8152600481018390526024016113a7565b6060805f61358560115490565b90505f805b828110156135b25761359e8160010161350e565b156135aa578160010191505b60010161358a565b50806001600160401b038111156135cb576135cb6150d4565b60405190808252806020026020018201604052801561360457816020015b6135f1614d11565b8152602001906001900390816135e95790505b5092505f90505f805b838110156137bc576136218160010161350e565b156137b45760018181015f908152601d60209081526040808320815160c08101835281546001600160a01b031681528251808401938490529495909491938501929084019060029082845b81546001600160a01b0316815260019091019060200180831161366c5750505050508152602001600382015f9054906101000a90046001600160a01b03166001600160a01b03166001600160a01b03168152602001600482015481526020016005820154815260200160068201548152505090506040518060400160405280828152602001601c5f8560010181526020019081526020015f208054613710906154e5565b80601f016020809104026020016040519081016040528092919081815260200182805461373c906154e5565b80156137875780601f1061375e57610100808354040283529160200191613787565b820191905f5260205f20905b81548152906001019060200180831161376a57829003601f168201915b50505050508152508684815181106137a1576137a1615800565b6020026020010181905250826001019250505b60010161360d565b5092949350505050565b61196b813361437f565b6137da8282611f44565b61193d575f828152600e602090815260408083206001600160a01b03851684529091529020805460ff191660011790556138113390565b6001600160a01b0316816001600160a01b0316837f2f8788117e7eff1d82e926ec794901d17c78024a50270940304540a733656f0d60405160405180910390a45050565b61385f8282611f44565b1561193d575f828152600e602090815260408083206001600160a01b0385168085529252808320805460ff1916905551339285917ff6391f5c32d9c69d2a47ea670b442974b53935d1edc7fd64eb21e047a839171b9190a45050565b61196b816143d8565b5f908152600460205260409020546001600160a01b031690565b8061196b5760405163390cdd9b60e21b815260040160405180910390fd5b8054806139495760405162461bcd60e51b815260206004820152601b60248201527a436f756e7465723a2064656372656d656e74206f766572666c6f7760281b60448201526064016113a7565b5f19019055565b816001600160a01b0316836001600160a01b0316036139ad5760405162461bcd60e51b815260206004820152601960248201527822a9219b99189d1030b8383937bb32903a379031b0b63632b960391b60448201526064016113a7565b6001600160a01b038381165f81815260076020908152604080832094871680845294825291829020805460ff191686151590811790915591519182527f17307eab39ab6107e8899845ad3d59bd9653f200f220920489ca2b5937696c31910160405180910390a3505050565b4281111561196b5760405163030545df60e51b8152600481018290526024016113a7565b6127106001600160601b0382161115613a685760405162461bcd60e51b81526004016113a790615aa6565b6001600160a01b038216613abc5760405162461bcd60e51b815260206004820152601b60248201527a455243323938313a20496e76616c696420706172616d657465727360281b60448201526064016113a7565b6040805180820182526001600160a01b0393841681526001600160601b0392831660208083019182525f968752600190529190942093519051909116600160a01b029116179055565b6127106001600160601b0382161115613b305760405162461bcd60e51b81526004016113a790615aa6565b6001600160a01b038216613b825760405162461bcd60e51b815260206004820152601960248201527822a921991c9c189d1034b73b30b634b2103932b1b2b4bb32b960391b60448201526064016113a7565b604080518082019091526001600160a01b039092168083526001600160601b039091166020909201829052600160a01b909102175f55565b6001600160a01b0381165f0361196b5780604051633202e20d60e21b81526004016113a79190614e66565b613bf08484846133aa565b613bfc848484846143f1565b6123675760405162461bcd60e51b81526004016113a790615af0565b61196b81604051602401613c2c9190614e66565b60408051601f198184030181529190526020810180516001600160e01b031663161765e160e11b1790526144eb565b6002600f5403613cad5760405162461bcd60e51b815260206004820152601f60248201527f5265656e7472616e637947756172643a207265656e7472616e742063616c6c0060448201526064016113a7565b6002600f55565b5f80613cbf816137c6565b4791505b5090565b613cd15f33611f44565b61332b5733604051630e80140560e21b81526113a791905f90600401614da7565b6040516001600160a01b038086166024830152808516604483015283166064820152608481018290526123679060a40160408051601f198184030181529190526020810180516001600160e01b03166394250d7760e01b1790526144eb565b613d685f80516020615dbe83398151915233611f44565b61332b57335f80516020615dbe833981519152604051630e80140560e21b81526004016113a7929190614da7565b61193d828260405180602001604052805f8152506144f4565b613db88261350e565b613e1b5760405162461bcd60e51b815260206004820152602e60248201527f45524337323155524953746f726167653a2055524920736574206f66206e6f6e60448201526d32bc34b9ba32b73a103a37b5b2b760911b60648201526084016113a7565b5f828152600c60205260409020613e328282615b42565b506040518281527ff8e1a15aba9398e019f0b49df1a4fde98ee17ae345cb5f6b5e2c27f5033e8ce7906020016115cd565b5f61127982614526565b6001600160a01b038416613ef157613e848261350e565b15613eb75760405162461bcd60e51b815260206004820152600360248201526254414560e81b60448201526064016113a7565b6017546012541115613ef15760405162461bcd60e51b81526020600482015260036024820152624f465760e81b60448201526064016113a7565b6001600160a01b038316613f7c5733613f0983611b85565b6001600160a01b031614613f455760405162461bcd60e51b81526020600482015260036024820152624e544f60e81b60448201526064016113a7565b6017545f03613f7c5760405162461bcd60e51b815260206004820152600360248201526255465760e81b60448201526064016113a7565b6001600160a01b038316158015613f9a57506001600160a01b038416155b506123678484848461454a565b6001600160a01b03841661405957601554604051631502305360e21b81526001600160a01b0390911690635408c14c90613fef9030908890889088905f904290600401615bf8565b5f604051808303815f87803b158015614006575f80fd5b505af1158015614018573d5f803e3d5ffd5b50505050817f747bd6dbfd6ceb446b50b008eeade0e74f807993dd969546d7efd6008554b1d085858460405161405093929190615861565b60405180910390a25b6001600160a01b038316614172575f828152601c6020526040812061407d91614d31565b5f828152601d6020526040812080546001600160a01b0319168155600181018290556002810182905590506003810180546001600160a01b03191690555f600480830182905560058301829055600690920155601554604051631502305360e21b81526001600160a01b0390911691635408c14c916141089130918991899189919042908201615bf8565b5f604051808303815f87803b15801561411f575f80fd5b505af1158015614131573d5f803e3d5ffd5b50505050817f52dfda3906d4cbf321bb72f93842c6205f7b598f4774e779919316c34c691dd885858460405161416993929190615861565b60405180910390a25b6001600160a01b0383161580159061419257506001600160a01b03841615155b1561437a575f828152601d60209081526040808320815160c08101835281546001600160a01b031681528251808401938490529093919291840191600184019060029082845b81546001600160a01b031681526001909101906020018083116141d857505050918352505060038201546001600160a01b03908116602080840191909152600484015460408085019190915260058501546060850152600690940154608090930192909252878116848401524260a08501525f878152601d835292909220835181546001600160a01b031916931692909217825582015191925082916142849060018301906002614cbd565b5060408201516003820180546001600160a01b0319166001600160a01b03909216919091179055606082015160048201556080820151600582015560a0909101516006909101556142d3614c39565b601554604051631502305360e21b81529192506001600160a01b031690635408c14c9061430f9030908990899089906008904290600401615bf8565b5f604051808303815f87803b158015614326575f80fd5b505af1158015614338573d5f803e3d5ffd5b50505050827fb766d3a37f5cf765dac0a3cc64a0e39c8e6f6e076c917b54db3cfb1c5e8a165986868560405161437093929190615861565b60405180910390a2505b612367565b6143898282611f44565b61193d576143968161467d565b6143a183602061468f565b6040516020016143b2929190615c3d565b60408051601f198184030181529082905262461bcd60e51b82526113a791600401614e3d565b6143e181614824565b5f90815260016020526040812055565b5f6001600160a01b0384163b156144e357604051630a85bd0160e11b81526001600160a01b0385169063150b7a0290614434903390899088908890600401615cab565b6020604051808303815f875af192505050801561446e575060408051601f3d908101601f1916820190925261446b91810190615cdd565b60015b6144c9573d80801561449b576040519150601f19603f3d011682016040523d82523d5f602084013e6144a0565b606091505b5080515f036144c15760405162461bcd60e51b81526004016113a790615af0565b805181602001fd5b6001600160e01b031916630a85bd0160e11b149050612e00565b506001612e00565b61196b81614862565b6144fe8383614881565b61450a5f8484846143f1565b6114485760405162461bcd60e51b81526004016113a790615af0565b5f6001600160e01b03198216632483248360e11b1480611279575061127982614990565b60018111156145b95760405162461bcd60e51b815260206004820152603560248201527f455243373231456e756d657261626c653a20636f6e7365637574697665207472604482015274185b9cd9995c9cc81b9bdd081cdd5c1c1bdc9d1959605a1b60648201526084016113a7565b816001600160a01b0385166146145761460f81600a80545f838152600b60205260408120829055600182018355919091527fc65a7bb8d6351c1cf70c95a316cc6a92839c986682d98bc35f958f4883f9d2a80155565b614637565b836001600160a01b0316856001600160a01b0316146146375761463785826149b4565b6001600160a01b0384166146535761464e81614a4d565b614676565b846001600160a01b0316846001600160a01b031614614676576146768482614af4565b5050505050565b60606112796001600160a01b03831660145b60605f61469d83600261557e565b6146a8906002615cf8565b6001600160401b038111156146bf576146bf6150d4565b6040519080825280601f01601f1916602001820160405280156146e9576020820181803683370190505b509050600360fc1b815f8151811061470357614703615800565b60200101906001600160f81b03191690815f1a905350600f60fb1b8160018151811061473157614731615800565b60200101906001600160f81b03191690815f1a9053505f61475384600261557e565b61475e906001615cf8565b90505b60018111156147d5576f181899199a1a9b1b9c1cb0b131b232b360811b85600f166010811061479257614792615800565b1a60f81b8282815181106147a8576147a8615800565b60200101906001600160f81b03191690815f1a90535060049490941c936147ce81615d0b565b9050614761565b5083156117845760405162461bcd60e51b815260206004820181905260248201527f537472696e67733a20686578206c656e67746820696e73756666696369656e7460448201526064016113a7565b61482d81614b36565b5f818152600c602052604090208054614845906154e5565b15905061196b575f818152600c6020526040812061196b91614d31565b5f6a636f6e736f6c652e6c6f6790505f80835160208501845afa505050565b6001600160a01b0382166148d75760405162461bcd60e51b815260206004820181905260248201527f4552433732313a206d696e7420746f20746865207a65726f206164647265737360448201526064016113a7565b6148e08161350e565b156148fd5760405162461bcd60e51b81526004016113a790615d20565b61490a5f83836001613e6d565b6149138161350e565b156149305760405162461bcd60e51b81526004016113a790615d20565b6001600160a01b0382165f81815260056020908152604080832080546001019055848352600490915280822080546001600160a01b0319168417905551839291905f80516020615dde833981519152908290a461193d5f83836001613fa7565b5f6001600160e01b0319821663780e9d6360e01b1480611279575061127982614bcb565b5f60016149c084611df1565b6149ca9190615d56565b5f83815260096020526040902054909150808214614a1b576001600160a01b0384165f9081526008602090815260408083208584528252808320548484528184208190558352600990915290208190555b505f9182526009602090815260408084208490556001600160a01b039094168352600881528383209183525290812055565b600a545f90614a5e90600190615d56565b5f838152600b6020526040812054600a8054939450909284908110614a8557614a85615800565b905f5260205f200154905080600a8381548110614aa457614aa4615800565b5f918252602080832090910192909255828152600b9091526040808220849055858252812055600a805480614adb57614adb615d69565b600190038181905f5260205f20015f9055905550505050565b5f614afe83611df1565b6001600160a01b039093165f908152600860209081526040808320868452825280832085905593825260099052919091209190915550565b5f614b4082611b85565b9050614b4f815f846001613e6d565b614b5882611b85565b5f83815260066020908152604080832080546001600160a01b03199081169091556001600160a01b0385168085526005845282852080545f190190558785526004909352818420805490911690555192935084925f80516020615dde833981519152908390a461193d815f846001613fa7565b5f6001600160e01b031982166380ac58cd60e01b1480614bfb57506001600160e01b03198216635b5e139f60e01b145b806112795750611279825f6001600160e01b0319821663152a902d60e11b148061127957506301ffc9a760e01b6001600160e01b0319831614611279565b6040518060c001604052805f6001600160a01b03168152602001614c5b614d68565b81526020015f6001600160a01b031681526020015f81526020015f81526020015f81525090565b6040518060c001604052805f151581526020015f6001600160a01b031681526020015f81526020015f81526020015f81526020015f81525090565b8260028101928215614d05579160200282015b82811115614d0557825182546001600160a01b0319166001600160a01b03909116178255602090920191600190910190614cd0565b50613cc3929150614d86565b6040518060400160405280614d24614c39565b8152602001606081525090565b508054614d3d906154e5565b5f825580601f10614d4c575050565b601f0160209004905f5260205f209081019061196b9190614d86565b60405180604001604052806002906020820280368337509192915050565b5b80821115613cc3575f8155600101614d87565b6001600160a01b03169052565b6001600160a01b03929092168252602082015260400190565b6001600160e01b03198116811461196b575f80fd5b5f60208284031215614de5575f80fd5b813561178481614dc0565b5f5b83811015614e0a578181015183820152602001614df2565b50505f910152565b5f8151808452614e29816020860160208601614df0565b601f01601f19169290920160200192915050565b602081525f6117846020830184614e12565b5f60208284031215614e5f575f80fd5b5035919050565b6001600160a01b0391909116815260200190565b6001600160a01b038116811461196b575f80fd5b5f8060408385031215614e9f575f80fd5b8235614eaa81614e7a565b946020939093013593505050565b80516001600160a01b0390811683526020808301518185015f5b6002811015614ef1578251851682529183019190830190600101614ed2565b50505050506040810151614f086060840182614d9a565b5060608101516080830152608081015160a083015260a081015160c08301525050565b5f602080830181845280855180835260408601915060408160051b87010192508387015f5b82811015614f9d57603f198886030184528151610100614f71878351614eb8565b8782015191508060e0880152614f8981880183614e12565b965050509285019290850190600101614f50565b5092979650505050505050565b5f805f60608486031215614fbc575f80fd5b8335614fc781614e7a565b92506020840135614fd781614e7a565b929592945050506040919091013590565b5f8060408385031215614ff9575f80fd5b50508035926020909101359150565b634e487b7160e01b5f52602160045260245ffd5b600d811061502c5761502c615008565b9052565b602080825282518282018190525f919060409081850190868401855b8281101561509957815161506185825161501c565b808701516001600160a01b0390811686890152868201511686860152606090810151908501526080909301929085019060010161504c565b5091979650505050505050565b5f80604083850312156150b7575f80fd5b8235915060208301356150c981614e7a565b809150509250929050565b634e487b7160e01b5f52604160045260245ffd5b604051608081016001600160401b038111828210171561510a5761510a6150d4565b60405290565b604051601f8201601f191681016001600160401b0381118282101715615138576151386150d4565b604052919050565b5f6001600160401b03821115615158576151586150d4565b50601f01601f191660200190565b5f61517861517384615140565b615110565b905082815283838301111561518b575f80fd5b828260208301375f602084830101529392505050565b5f602082840312156151b1575f80fd5b81356001600160401b038111156151c6575f80fd5b8201601f810184136151d6575f80fd5b61279c84823560208401615166565b5f8083601f8401126151f5575f80fd5b5081356001600160401b0381111561520b575f80fd5b6020830191508360208285010111156116c3575f80fd5b5f8060208385031215615233575f80fd5b82356001600160401b03811115615248575f80fd5b615254858286016151e5565b90969095509350505050565b5f60208284031215615270575f80fd5b813561178481614e7a565b5f6101006152898386614eb8565b8060e084015261175881840185614e12565b801515811461196b575f80fd5b5f80604083850312156152b9575f80fd5b82356152c481614e7a565b915060208301356150c98161529b565b80356001600160601b03811681146152ea575f80fd5b919050565b5f805f60608486031215615301575f80fd5b833561530c81614e7a565b925061531a602085016152d4565b9150604084013590509250925092565b602081016022831061533e5761533e615008565b91905290565b5f805f8060808587031215615357575f80fd5b843561536281614e7a565b9350602085013561537281614e7a565b92506040850135915060608501356001600160401b03811115615393575f80fd5b8501601f810187136153a3575f80fd5b6153b287823560208401615166565b91505092959194509250565b5f805f805f60a086880312156153d2575f80fd5b85356153dd81614e7a565b945060208601356153ed81614e7a565b9350604086013560038110615400575f80fd5b94979396509394606081013594506080013592915050565b5f8060408385031215615429575f80fd5b823561543481614e7a565b915060208301356150c981614e7a565b5f805f60608486031215615456575f80fd5b833561546181614e7a565b925060208401359150604084013561547881614e7a565b809150509250925092565b5f805f8060608587031215615496575f80fd5b84356154a181614e7a565b935060208501356001600160401b038111156154bb575f80fd5b6154c7878288016151e5565b90945092506154da9050604086016152d4565b905092959194509250565b600181811c908216806154f957607f821691505b60208210810361551757634e487b7160e01b5f52602260045260245ffd5b50919050565b6020808252602d908201527f4552433732313a2063616c6c6572206973206e6f7420746f6b656e206f776e6560408201526c1c881bdc88185c1c1c9bdd9959609a1b606082015260800190565b634e487b7160e01b5f52601160045260245ffd5b80820281158282048414176112795761127961556a565b5f826155af57634e487b7160e01b5f52601260045260245ffd5b500490565b5f60208083850312156155c5575f80fd5b82516001600160401b03808211156155db575f80fd5b818501915085601f8301126155ee575f80fd5b815181811115615600576156006150d4565b61560e848260051b01615110565b818152848101925060079190911b83018401908782111561562d575f80fd5b928401925b818410156156a2576080848903121561564a575f8081fd5b6156526150e8565b8451600d8110615661575f8081fd5b81528486015161567081614e7a565b8187015260408581015161568381614e7a565b9082015260608581015190820152835260809093019291840191615632565b979650505050505050565b601f821115611448575f81815260208120601f850160051c810160208610156156d35750805b601f850160051c820191505b818110156156f2578281556001016156df565b505050505050565b5f19600383901b1c191660019190911b1790565b6001600160401b03831115615725576157256150d4565b6157398361573383546154e5565b836156ad565b5f601f841160018114615765575f85156157535750838201355b61575d86826156fa565b845550614676565b5f83815260209020601f19861690835b828110156157955786850135825560209485019460019092019101615775565b50868210156157b1575f1960f88860031b161c19848701351681555b505060018560011b0183555050505050565b60208152816020820152818360408301375f818301604090810191909152601f909201601f19160101919050565b818382375f9101908152919050565b634e487b7160e01b5f52603260045260245ffd5b602080825260189082015277115490cdcc8c4e881a5b9d985b1a59081d1bdad95b88125160421b604082015260600190565b5f60208284031215615856575f80fd5b81516117848161529b565b6001600160a01b039384168152919092166020820152604081019190915260600190565b5f60208284031215615895575f80fd5b81516001600160401b038111156158aa575f80fd5b8201601f810184136158ba575f80fd5b80516158c861517382615140565b8181528560208385010111156158dc575f80fd5b611758826020830160208601614df0565b604081525f6158ff6040830185614e12565b82810360208401526117588185614e12565b5f815461591d816154e5565b80855260206001838116801561593a57600181146159545761597f565b60ff1985168884015283151560051b88018301955061597f565b865f52825f205f5b858110156159775781548a820186015290830190840161595c565b890184019650505b505050505092915050565b838152606060208201525f6159a26060830185614e12565b82810360408401526159b48185615911565b9695505050505050565b5f610140868352602081818501526159d882850188614e12565b86516001600160a01b0390811660408701528288015191935090606086015f5b6002811015615a175782518416825291840191908401906001016159f8565b50505050506040850151615a2e60a0850182614d9a565b50606085015160c0840152608085015160e084015260a08501516101008401528281036101208401526156a28185615911565b60208082526025908201527f4552433732313a207472616e736665722066726f6d20696e636f72726563742060408201526437bbb732b960d91b606082015260800190565b6020808252602a908201527f455243323938313a20726f79616c7479206665652077696c6c206578636565646040820152692073616c65507269636560b01b606082015260800190565b60208082526032908201527f4552433732313a207472616e7366657220746f206e6f6e20455243373231526560408201527131b2b4bb32b91034b6b83632b6b2b73a32b960711b606082015260800190565b81516001600160401b03811115615b5b57615b5b6150d4565b615b6f81615b6984546154e5565b846156ad565b602080601f831160018114615b9d575f8415615b8b5750858301515b615b9585826156fa565b8655506156f2565b5f85815260208120601f198616915b82811015615bcb57888601518255948401946001909101908401615bac565b5085821015615be857878501515f19600388901b60f8161c191681555b5050505050600190811b01905550565b6001600160a01b0387811682528681166020830152851660408201526060810184905260c08101615c2c608083018561501c565b8260a0830152979650505050505050565b76020b1b1b2b9b9a1b7b73a3937b61d1030b1b1b7bab73a1604d1b81525f8351615c6e816017850160208801614df0565b7001034b99036b4b9b9b4b733903937b6329607d1b6017918401918201528351615c9f816028840160208801614df0565b01602801949350505050565b6001600160a01b03858116825284166020820152604081018390526080606082018190525f906159b490830184614e12565b5f60208284031215615ced575f80fd5b815161178481614dc0565b808201808211156112795761127961556a565b5f81615d1957615d1961556a565b505f190190565b6020808252601c908201527b115490cdcc8c4e881d1bdad95b88185b1c9958591e481b5a5b9d195960221b604082015260600190565b818103818111156112795761127961556a565b634e487b7160e01b5f52603160045260245ffdfe3c2519c4487d47714872f92cf90a50c25f5deaec2789dc2a497b1272df611db6f0887ba65ee2024ea881d91b74c2450ef19e1557f03bed3ea9f16b037cbe2dc99f2df0fed2c77648de5860a4cc508cd0818c85b8b8a1ab4ceeef8d981c8956a6ddf252ad1be2c89b69c2b068fc378daa952ba7f163c4a11628f55a4df523b3ef6270edb7c868f86fda4adedba75108201087268ea345934db8bad688e1feb91ba49807205ce4d355092ef5a8a18f56e8913cf4a201fbe287825b095693c21775a2646970667358221220ac8d57ce06b02a0c9ce7680c6296628b4bb8086c601bfe72524c7a88f7a6ad1264736f6c634300081400339f2df0fed2c77648de5860a4cc508cd0818c85b8b8a1ab4ceeef8d981c8956a6a49807205ce4d355092ef5a8a18f56e8913cf4a201fbe287825b095693c21775",
  "linkReferences": {
    "contracts/libs/Snippets.sol": {
      "Snippets": [
        {
          "length": 20,
          "start": 12143
        },
        {
          "length": 20,
          "start": 12446
        },
        {
          "length": 20,
          "start": 12589
        },
        {
          "length": 20,
          "start": 14762
        },
        {
          "length": 20,
          "start": 15209
        }
      ]
    }
  },
  "deployedLinkReferences": {
    "contracts/libs/Snippets.sol": {
      "Snippets": [
        {
          "length": 20,
          "start": 9586
        },
        {
          "length": 20,
          "start": 9889
        },
        {
          "length": 20,
          "start": 10032
        },
        {
          "length": 20,
          "start": 12205
        },
        {
          "length": 20,
          "start": 12652
        }
      ]
    }
  }
}