{
  "_format": "hh-sol-artifact-1",
  "contractName": "ERCMKTPFactoryBase",
  "sourceName": "contracts/base/ERCMKTP/ERCMKTPFactoryBase.sol",
  "abi": [
    {
      "inputs": [],
      "stateMutability": "nonpayable",
      "type": "constructor"
    },
    {
      "anonymous": false,
      "inputs": [
        {
          "indexed": false,
          "internalType": "bytes32",
          "name": "newURI",
          "type": "bytes32"
        }
      ],
      "name": "ContractURIChanged",
      "type": "event"
    },
    {
      "anonymous": false,
      "inputs": [
        {
          "indexed": false,
          "internalType": "uint256",
          "name": "newListingFee",
          "type": "uint256"
        }
      ],
      "name": "ListingFeeChanged",
      "type": "event"
    },
    {
      "anonymous": false,
      "inputs": [
        {
          "indexed": false,
          "internalType": "address",
          "name": "newMarketplaceAddress",
          "type": "address"
        }
      ],
      "name": "MarketplaceAddressChanged",
      "type": "event"
    },
    {
      "anonymous": false,
      "inputs": [
        {
          "indexed": false,
          "internalType": "uint256",
          "name": "tokenIndexedID",
          "type": "uint256"
        }
      ],
      "name": "NFTMarketItemCreated",
      "type": "event"
    },
    {
      "anonymous": false,
      "inputs": [
        {
          "indexed": false,
          "internalType": "uint256",
          "name": "tokenIndexedID",
          "type": "uint256"
        }
      ],
      "name": "NFTMarketItemDelisted",
      "type": "event"
    },
    {
      "anonymous": false,
      "inputs": [
        {
          "indexed": false,
          "internalType": "uint256",
          "name": "tokenIndexedID",
          "type": "uint256"
        }
      ],
      "name": "NFTMarketItemListed",
      "type": "event"
    },
    {
      "anonymous": false,
      "inputs": [
        {
          "indexed": false,
          "internalType": "uint256",
          "name": "tokenIndexedID",
          "type": "uint256"
        },
        {
          "indexed": false,
          "internalType": "uint256",
          "name": "amount",
          "type": "uint256"
        },
        {
          "indexed": false,
          "internalType": "address",
          "name": "buyer",
          "type": "address"
        }
      ],
      "name": "NFTMarketItemSold",
      "type": "event"
    },
    {
      "anonymous": false,
      "inputs": [
        {
          "indexed": false,
          "internalType": "address",
          "name": "newOwner",
          "type": "address"
        }
      ],
      "name": "OwnerChanged",
      "type": "event"
    },
    {
      "anonymous": false,
      "inputs": [
        {
          "indexed": false,
          "internalType": "address",
          "name": "account",
          "type": "address"
        }
      ],
      "name": "Paused",
      "type": "event"
    },
    {
      "anonymous": false,
      "inputs": [
        {
          "indexed": false,
          "internalType": "address",
          "name": "",
          "type": "address"
        },
        {
          "indexed": false,
          "internalType": "uint256",
          "name": "",
          "type": "uint256"
        }
      ],
      "name": "Received",
      "type": "event"
    },
    {
      "anonymous": false,
      "inputs": [
        {
          "indexed": true,
          "internalType": "bytes32",
          "name": "role",
          "type": "bytes32"
        },
        {
          "indexed": true,
          "internalType": "bytes32",
          "name": "previousAdminRole",
          "type": "bytes32"
        },
        {
          "indexed": true,
          "internalType": "bytes32",
          "name": "newAdminRole",
          "type": "bytes32"
        }
      ],
      "name": "RoleAdminChanged",
      "type": "event"
    },
    {
      "anonymous": false,
      "inputs": [
        {
          "indexed": true,
          "internalType": "bytes32",
          "name": "role",
          "type": "bytes32"
        },
        {
          "indexed": true,
          "internalType": "address",
          "name": "account",
          "type": "address"
        },
        {
          "indexed": true,
          "internalType": "address",
          "name": "sender",
          "type": "address"
        }
      ],
      "name": "RoleGranted",
      "type": "event"
    },
    {
      "anonymous": false,
      "inputs": [
        {
          "indexed": true,
          "internalType": "bytes32",
          "name": "role",
          "type": "bytes32"
        },
        {
          "indexed": true,
          "internalType": "address",
          "name": "account",
          "type": "address"
        },
        {
          "indexed": true,
          "internalType": "address",
          "name": "sender",
          "type": "address"
        }
      ],
      "name": "RoleRevoked",
      "type": "event"
    },
    {
      "anonymous": false,
      "inputs": [
        {
          "indexed": false,
          "internalType": "address",
          "name": "account",
          "type": "address"
        }
      ],
      "name": "Unpaused",
      "type": "event"
    },
    {
      "stateMutability": "payable",
      "type": "fallback"
    },
    {
      "inputs": [],
      "name": "DEFAULT_ADMIN_ROLE",
      "outputs": [
        {
          "internalType": "bytes32",
          "name": "",
          "type": "bytes32"
        }
      ],
      "stateMutability": "view",
      "type": "function"
    },
    {
      "inputs": [],
      "name": "_listedItems",
      "outputs": [
        {
          "internalType": "uint256",
          "name": "_value",
          "type": "uint256"
        }
      ],
      "stateMutability": "view",
      "type": "function"
    },
    {
      "inputs": [],
      "name": "_soldItems",
      "outputs": [
        {
          "internalType": "uint256",
          "name": "_value",
          "type": "uint256"
        }
      ],
      "stateMutability": "view",
      "type": "function"
    },
    {
      "inputs": [],
      "name": "_tokenIndexedAuctionIDs",
      "outputs": [
        {
          "internalType": "uint256",
          "name": "_value",
          "type": "uint256"
        }
      ],
      "stateMutability": "view",
      "type": "function"
    },
    {
      "inputs": [],
      "name": "_tokenIndexedIDs",
      "outputs": [
        {
          "internalType": "uint256",
          "name": "_value",
          "type": "uint256"
        }
      ],
      "stateMutability": "view",
      "type": "function"
    },
    {
      "inputs": [
        {
          "internalType": "address payable",
          "name": "_to",
          "type": "address"
        }
      ],
      "name": "callFallback",
      "outputs": [],
      "stateMutability": "payable",
      "type": "function"
    },
    {
      "inputs": [],
      "name": "contractTreasury",
      "outputs": [
        {
          "internalType": "address payable",
          "name": "",
          "type": "address"
        }
      ],
      "stateMutability": "view",
      "type": "function"
    },
    {
      "inputs": [],
      "name": "contractURI",
      "outputs": [
        {
          "internalType": "bytes32",
          "name": "",
          "type": "bytes32"
        }
      ],
      "stateMutability": "view",
      "type": "function"
    },
    {
      "inputs": [
        {
          "internalType": "address",
          "name": "_account",
          "type": "address"
        }
      ],
      "name": "getNFT1155Items",
      "outputs": [
        {
          "components": [
            {
              "components": [
                {
                  "internalType": "address",
                  "name": "minterAddress",
                  "type": "address"
                },
                {
                  "internalType": "address[2]",
                  "name": "creatorAddress",
                  "type": "address[2]"
                },
                {
                  "internalType": "address",
                  "name": "ownerAddress",
                  "type": "address"
                },
                {
                  "internalType": "uint256",
                  "name": "tokenId",
                  "type": "uint256"
                },
                {
                  "internalType": "uint256",
                  "name": "createdAt",
                  "type": "uint256"
                },
                {
                  "internalType": "uint256",
                  "name": "updatedAt",
                  "type": "uint256"
                }
              ],
              "internalType": "struct Structs.NFTItem",
              "name": "nftItem",
              "type": "tuple"
            },
            {
              "internalType": "string",
              "name": "tokenURI",
              "type": "string"
            }
          ],
          "internalType": "struct Structs.NFT[]",
          "name": "",
          "type": "tuple[]"
        }
      ],
      "stateMutability": "view",
      "type": "function"
    },
    {
      "inputs": [
        {
          "internalType": "address",
          "name": "_account",
          "type": "address"
        }
      ],
      "name": "getNFT721Items",
      "outputs": [
        {
          "components": [
            {
              "components": [
                {
                  "internalType": "address",
                  "name": "minterAddress",
                  "type": "address"
                },
                {
                  "internalType": "address[2]",
                  "name": "creatorAddress",
                  "type": "address[2]"
                },
                {
                  "internalType": "address",
                  "name": "ownerAddress",
                  "type": "address"
                },
                {
                  "internalType": "uint256",
                  "name": "tokenId",
                  "type": "uint256"
                },
                {
                  "internalType": "uint256",
                  "name": "createdAt",
                  "type": "uint256"
                },
                {
                  "internalType": "uint256",
                  "name": "updatedAt",
                  "type": "uint256"
                }
              ],
              "internalType": "struct Structs.NFTItem",
              "name": "nftItem",
              "type": "tuple"
            },
            {
              "internalType": "string",
              "name": "tokenURI",
              "type": "string"
            }
          ],
          "internalType": "struct Structs.NFT[]",
          "name": "",
          "type": "tuple[]"
        }
      ],
      "stateMutability": "view",
      "type": "function"
    },
    {
      "inputs": [
        {
          "internalType": "bytes32",
          "name": "role",
          "type": "bytes32"
        }
      ],
      "name": "getRoleAdmin",
      "outputs": [
        {
          "internalType": "bytes32",
          "name": "",
          "type": "bytes32"
        }
      ],
      "stateMutability": "view",
      "type": "function"
    },
    {
      "inputs": [
        {
          "internalType": "address",
          "name": "_account",
          "type": "address"
        },
        {
          "internalType": "uint256",
          "name": "_tokenId",
          "type": "uint256"
        }
      ],
      "name": "getTokenOwner1155",
      "outputs": [
        {
          "internalType": "address",
          "name": "",
          "type": "address"
        }
      ],
      "stateMutability": "view",
      "type": "function"
    },
    {
      "inputs": [
        {
          "internalType": "address",
          "name": "_account",
          "type": "address"
        },
        {
          "internalType": "uint256",
          "name": "_tokenId",
          "type": "uint256"
        }
      ],
      "name": "getTokenOwner721",
      "outputs": [
        {
          "internalType": "address",
          "name": "",
          "type": "address"
        }
      ],
      "stateMutability": "view",
      "type": "function"
    },
    {
      "inputs": [
        {
          "internalType": "bytes32",
          "name": "role",
          "type": "bytes32"
        },
        {
          "internalType": "address",
          "name": "account",
          "type": "address"
        }
      ],
      "name": "grantRole",
      "outputs": [],
      "stateMutability": "nonpayable",
      "type": "function"
    },
    {
      "inputs": [
        {
          "internalType": "bytes32",
          "name": "role",
          "type": "bytes32"
        },
        {
          "internalType": "address",
          "name": "account",
          "type": "address"
        }
      ],
      "name": "hasRole",
      "outputs": [
        {
          "internalType": "bool",
          "name": "",
          "type": "bool"
        }
      ],
      "stateMutability": "view",
      "type": "function"
    },
    {
      "inputs": [],
      "name": "listingFee",
      "outputs": [
        {
          "internalType": "uint256",
          "name": "",
          "type": "uint256"
        }
      ],
      "stateMutability": "view",
      "type": "function"
    },
    {
      "inputs": [
        {
          "internalType": "address",
          "name": "",
          "type": "address"
        },
        {
          "internalType": "address",
          "name": "",
          "type": "address"
        },
        {
          "internalType": "uint256[]",
          "name": "",
          "type": "uint256[]"
        },
        {
          "internalType": "uint256[]",
          "name": "",
          "type": "uint256[]"
        },
        {
          "internalType": "bytes",
          "name": "",
          "type": "bytes"
        }
      ],
      "name": "onERC1155BatchReceived",
      "outputs": [
        {
          "internalType": "bytes4",
          "name": "",
          "type": "bytes4"
        }
      ],
      "stateMutability": "nonpayable",
      "type": "function"
    },
    {
      "inputs": [
        {
          "internalType": "address",
          "name": "",
          "type": "address"
        },
        {
          "internalType": "address",
          "name": "",
          "type": "address"
        },
        {
          "internalType": "uint256",
          "name": "",
          "type": "uint256"
        },
        {
          "internalType": "uint256",
          "name": "",
          "type": "uint256"
        },
        {
          "internalType": "bytes",
          "name": "",
          "type": "bytes"
        }
      ],
      "name": "onERC1155Received",
      "outputs": [
        {
          "internalType": "bytes4",
          "name": "",
          "type": "bytes4"
        }
      ],
      "stateMutability": "nonpayable",
      "type": "function"
    },
    {
      "inputs": [
        {
          "internalType": "address",
          "name": "",
          "type": "address"
        },
        {
          "internalType": "address",
          "name": "",
          "type": "address"
        },
        {
          "internalType": "uint256",
          "name": "",
          "type": "uint256"
        },
        {
          "internalType": "bytes",
          "name": "",
          "type": "bytes"
        }
      ],
      "name": "onERC721Received",
      "outputs": [
        {
          "internalType": "bytes4",
          "name": "",
          "type": "bytes4"
        }
      ],
      "stateMutability": "nonpayable",
      "type": "function"
    },
    {
      "inputs": [],
      "name": "owner",
      "outputs": [
        {
          "internalType": "address payable",
          "name": "",
          "type": "address"
        }
      ],
      "stateMutability": "view",
      "type": "function"
    },
    {
      "inputs": [],
      "name": "paused",
      "outputs": [
        {
          "internalType": "bool",
          "name": "",
          "type": "bool"
        }
      ],
      "stateMutability": "view",
      "type": "function"
    },
    {
      "inputs": [
        {
          "internalType": "address",
          "name": "_token",
          "type": "address"
        },
        {
          "internalType": "address",
          "name": "_account",
          "type": "address"
        },
        {
          "internalType": "enum Enums.TokenStandards",
          "name": "_standard",
          "type": "uint8"
        },
        {
          "internalType": "uint256",
          "name": "_amount",
          "type": "uint256"
        },
        {
          "internalType": "uint256",
          "name": "_tokenId",
          "type": "uint256"
        }
      ],
      "name": "recoverTokens",
      "outputs": [],
      "stateMutability": "nonpayable",
      "type": "function"
    },
    {
      "inputs": [
        {
          "internalType": "bytes32",
          "name": "role",
          "type": "bytes32"
        },
        {
          "internalType": "address",
          "name": "account",
          "type": "address"
        }
      ],
      "name": "renounceRole",
      "outputs": [],
      "stateMutability": "nonpayable",
      "type": "function"
    },
    {
      "inputs": [
        {
          "internalType": "bytes32",
          "name": "role",
          "type": "bytes32"
        },
        {
          "internalType": "address",
          "name": "account",
          "type": "address"
        }
      ],
      "name": "revokeRole",
      "outputs": [],
      "stateMutability": "nonpayable",
      "type": "function"
    },
    {
      "inputs": [
        {
          "internalType": "bytes4",
          "name": "interfaceId",
          "type": "bytes4"
        }
      ],
      "name": "supportsInterface",
      "outputs": [
        {
          "internalType": "bool",
          "name": "",
          "type": "bool"
        }
      ],
      "stateMutability": "view",
      "type": "function"
    },
    {
      "inputs": [
        {
          "internalType": "uint256",
          "name": "",
          "type": "uint256"
        }
      ],
      "name": "tokenIdToNFTMarketItem",
      "outputs": [
        {
          "internalType": "bytes4",
          "name": "tokenInterfaceId",
          "type": "bytes4"
        },
        {
          "internalType": "bool",
          "name": "sold",
          "type": "bool"
        },
        {
          "internalType": "bool",
          "name": "isListed",
          "type": "bool"
        },
        {
          "internalType": "bool",
          "name": "isAuction",
          "type": "bool"
        },
        {
          "internalType": "bool",
          "name": "supportsRoyalties",
          "type": "bool"
        },
        {
          "internalType": "address",
          "name": "tokenContractAddress",
          "type": "address"
        },
        {
          "internalType": "uint256",
          "name": "price",
          "type": "uint256"
        },
        {
          "internalType": "uint256",
          "name": "createdAt",
          "type": "uint256"
        },
        {
          "internalType": "uint256",
          "name": "updatedAt",
          "type": "uint256"
        },
        {
          "internalType": "uint256",
          "name": "tokenId",
          "type": "uint256"
        },
        {
          "internalType": "uint256",
          "name": "tokenIndexedID",
          "type": "uint256"
        }
      ],
      "stateMutability": "view",
      "type": "function"
    },
    {
      "inputs": [
        {
          "internalType": "uint256",
          "name": "",
          "type": "uint256"
        },
        {
          "internalType": "uint256",
          "name": "",
          "type": "uint256"
        }
      ],
      "name": "tokenIdToNFTMarketItemActivity",
      "outputs": [
        {
          "internalType": "enum Enums.NFTMarketItemActivityType",
          "name": "activityType",
          "type": "uint8"
        },
        {
          "internalType": "address",
          "name": "fromAddress",
          "type": "address"
        },
        {
          "internalType": "address",
          "name": "toAddress",
          "type": "address"
        },
        {
          "internalType": "uint256",
          "name": "timestamp",
          "type": "uint256"
        }
      ],
      "stateMutability": "view",
      "type": "function"
    },
    {
      "inputs": [
        {
          "internalType": "uint256",
          "name": "",
          "type": "uint256"
        }
      ],
      "name": "tokenIndexedID2AuctionDetails",
      "outputs": [
        {
          "internalType": "uint256",
          "name": "highestBid",
          "type": "uint256"
        },
        {
          "internalType": "address",
          "name": "highestBidder",
          "type": "address"
        },
        {
          "internalType": "uint256",
          "name": "timeEnding",
          "type": "uint256"
        }
      ],
      "stateMutability": "view",
      "type": "function"
    },
    {
      "inputs": [
        {
          "internalType": "uint256",
          "name": "",
          "type": "uint256"
        }
      ],
      "name": "tokenIndexedID2NFTMarketItem",
      "outputs": [
        {
          "internalType": "bytes4",
          "name": "tokenInterfaceId",
          "type": "bytes4"
        },
        {
          "internalType": "bool",
          "name": "sold",
          "type": "bool"
        },
        {
          "internalType": "bool",
          "name": "isListed",
          "type": "bool"
        },
        {
          "internalType": "bool",
          "name": "isAuction",
          "type": "bool"
        },
        {
          "internalType": "bool",
          "name": "supportsRoyalties",
          "type": "bool"
        },
        {
          "internalType": "address",
          "name": "tokenContractAddress",
          "type": "address"
        },
        {
          "internalType": "uint256",
          "name": "price",
          "type": "uint256"
        },
        {
          "internalType": "uint256",
          "name": "createdAt",
          "type": "uint256"
        },
        {
          "internalType": "uint256",
          "name": "updatedAt",
          "type": "uint256"
        },
        {
          "internalType": "uint256",
          "name": "tokenId",
          "type": "uint256"
        },
        {
          "internalType": "uint256",
          "name": "tokenIndexedID",
          "type": "uint256"
        }
      ],
      "stateMutability": "view",
      "type": "function"
    },
    {
      "inputs": [
        {
          "internalType": "address payable",
          "name": "_to",
          "type": "address"
        }
      ],
      "name": "transferToFallback",
      "outputs": [],
      "stateMutability": "payable",
      "type": "function"
    },
    {
      "inputs": [
        {
          "internalType": "address",
          "name": "_newContractTreasury",
          "type": "address"
        }
      ],
      "name": "updateContractTreasury",
      "outputs": [],
      "stateMutability": "nonpayable",
      "type": "function"
    },
    {
      "inputs": [
        {
          "internalType": "address",
          "name": "to",
          "type": "address"
        },
        {
          "internalType": "uint256",
          "name": "value",
          "type": "uint256"
        }
      ],
      "name": "withdraw",
      "outputs": [],
      "stateMutability": "payable",
      "type": "function"
    },
    {
      "stateMutability": "payable",
      "type": "receive"
    }
  ],
  "bytecode": "0x6080604052600380546001600160a01b031916730bcebd6ce292721408ea6a40c9f1fa04c8befa9a179055348015610035575f80fd5b505f805460ff191690556001600255611afd806100515f395ff3fe608060405260043610610173575f3560e01c806301ffc9a71461021f578063022004a414610253578063150b7a021461028a5780631c36609b146102cd5780631d23008e146102f1578063248a9ca3146103ea5780632aa03bc3146104095780632f2ff15d1461042857806336568abe1461044757806339bdf21d1461046657806342ebb6ba1461047c57806347d02d7b146104925780635c975abb146104c15780636a1b7ecc146104d75780636ba87a53146104ec5780636d16fd31146104ff5780637d7e96f6146104ff5780638da5cb5b1461052b57806391d148541461054a578063a217fddf14610569578063bc197c811461057c578063be3bd550146105a7578063c9f387ed146105c6578063cfc6cdaa1461062c578063d547741f1461063f578063e02c85531461065e578063e8a3d4851461067d578063f23a6e6114610692578063f3fef3a3146106bd578063fa1a3def146106d0578063fdf46760146106e6578063ff5119eb1461070557005b3661021d577f88a5966d370b9919b20f3e2c13ff65706f196a4e32cc2c12bf57088f8852587473__$29de98fb2cbbe7538224799f316eefb01b$__63d737d0c76040518163ffffffff1660e01b8152600401602060405180830381865af41580156101e0573d5f803e3d5ffd5b505050506040513d601f19601f8201168201806040525081019061020491906111eb565b34604051610213929190611206565b60405180910390a1005b005b34801561022a575f80fd5b5061023e61023936600461121f565b610792565b60405190151581526020015b60405180910390f35b34801561025e575f80fd5b5061027261026d366004611246565b6107bc565b6040516001600160a01b03909116815260200161024a565b348015610295575f80fd5b506102b46102a4366004611376565b630a85bd0160e11b949350505050565b6040516001600160e01b0319909116815260200161024a565b3480156102d8575f80fd5b506007546102e39081565b60405190815260200161024a565b3480156102fc575f80fd5b5061037e61030b3660046113dd565b600d6020525f908152604090208054600482015460058301546006840154600785015460089095015460e085901b95600160201b860460ff90811696600160281b8104821696600160301b8204831696600160381b830490931695600160401b9092046001600160a01b0316949093908b565b604080516001600160e01b0319909c168c5299151560208c0152971515988a0198909852941515606089015292151560808801526001600160a01b0390911660a087015260c086015260e08501526101008401526101208301919091526101408201526101600161024a565b3480156103f5575f80fd5b506102e36104043660046113dd565b61082d565b348015610414575f80fd5b50610272610423366004611246565b610842565b348015610433575f80fd5b5061021d6104423660046113f4565b610871565b348015610452575f80fd5b5061021d6104613660046113f4565b610892565b348015610471575f80fd5b506006546102e39081565b348015610487575f80fd5b506005546102e39081565b34801561049d575f80fd5b506104b16104ac366004611422565b610915565b60405161024a9493929190611456565b3480156104cc575f80fd5b505f5460ff1661023e565b3480156104e2575f80fd5b506102e3600b5481565b61021d6104fa366004611499565b610968565b34801561050a575f80fd5b5061051e610519366004611499565b6109fe565b60405161024a9190611501565b348015610536575f80fd5b50600854610272906001600160a01b031681565b348015610555575f80fd5b5061023e6105643660046113f4565b610a72565b348015610574575f80fd5b506102e35f81565b348015610587575f80fd5b506102b4610596366004611679565b63bc197c8160e01b95945050505050565b3480156105b2575f80fd5b5061021d6105c136600461171f565b610a9c565b3480156105d1575f80fd5b506106096105e03660046113dd565b600c6020525f908152604090208054600182015460029092015490916001600160a01b03169083565b604080519384526001600160a01b0390921660208401529082015260600161024a565b61021d61063a366004611499565b610c6c565b34801561064a575f80fd5b5061021d6106593660046113f4565b610c9e565b348015610669575f80fd5b5061021d610678366004611499565b610cba565b348015610688575f80fd5b506102e3600a5481565b34801561069d575f80fd5b506102b46106ac366004611779565b63f23a6e6160e01b95945050505050565b61021d6106cb366004611246565b610cf4565b3480156106db575f80fd5b506004546102e39081565b3480156106f1575f80fd5b50600354610272906001600160a01b031681565b348015610710575f80fd5b5061037e61071f3660046113dd565b600f6020525f908152604090208054600482015460058301546006840154600785015460089095015460e085901b95600160201b860460ff90811696600160281b8104821696600160301b8204831696600160381b830490931695600160401b9092046001600160a01b0316949093908b565b5f6001600160e01b03198216630271189760e51b14806107b657506107b682610e39565b92915050565b6040516331a9108f60e11b8152600481018290525f906001600160a01b03841690636352211e906024015b602060405180830381865afa158015610802573d5f803e3d5ffd5b505050506040513d601f19601f8201168201806040525081019061082691906111eb565b9392505050565b5f908152600160208190526040909120015490565b60405163a5cd761f60e01b8152600481018290525f906001600160a01b0384169063a5cd761f906024016107e7565b61087a8261082d565b61088381610e5d565b61088d8383610e6a565b505050565b6001600160a01b03811633146109075760405162461bcd60e51b815260206004820152602f60248201527f416363657373436f6e74726f6c3a2063616e206f6e6c792072656e6f756e636560448201526e103937b632b9903337b91039b2b63360891b60648201526084015b60405180910390fd5b6109118282610ed4565b5050565b600e602052815f5260405f20818154811061092e575f80fd5b5f91825260209091206003909102018054600182015460029092015460ff821694506001600160a01b036101009092048216935091169084565b5f816001600160a01b0316346040515f6040518083038185875af1925050503d805f81146109b1576040519150601f19603f3d011682016040523d82523d5f602084013e6109b6565b606091505b50509050806109115760405162461bcd60e51b81526020600482015260146024820152732330b4b632b2103a379039b2b7321022ba3432b960611b60448201526064016108fe565b6060806001600160a01b038316156107b657826001600160a01b0316632cb5dda76040518163ffffffff1660e01b81526004015f60405180830381865afa158015610a4b573d5f803e3d5ffd5b505050506040513d5f823e601f3d908101601f191682016040526108269190810190611836565b5f9182526001602090815260408084206001600160a01b0393909316845291905290205460ff1690565b5f610aa681610e5d565b5f6001600160a01b03861615610abd575084610ac0565b50335b5f856002811115610ad357610ad3611442565b03610b485760405163a9059cbb60e01b81526001600160a01b0388169063a9059cbb90610b069084908890600401611206565b6020604051808303815f875af1158015610b22573d5f803e3d5ffd5b505050506040513d601f19601f82011682018060405250810190610b4691906119c1565b505b6001856002811115610b5c57610b5c611442565b03610bc557604051632142170760e11b81523060048201526001600160a01b038281166024830152604482018590528816906342842e0e906064015f604051808303815f87803b158015610bae575f80fd5b505af1158015610bc0573d5f803e3d5ffd5b505050505b6002856002811115610bd957610bd9611442565b03610c6357604051637921219560e11b81523060048201526001600160a01b038281166024830152604482018590526064820186905260a06084830152600360a48301526203078360ec1b60c483015288169063f242432a9060e4015f604051808303815f87803b158015610c4c575f80fd5b505af1158015610c5e573d5f803e3d5ffd5b505050505b50505050505050565b6040516001600160a01b038216903480156108fc02915f818181858888f19350505050158015610911573d5f803e3d5ffd5b610ca78261082d565b610cb081610e5d565b61088d8383610ed4565b5f610cc481610e5d565b6001600160a01b0382161561091157600380546001600160a01b0384166001600160a01b03199091161790555050565b5f610cfe81610e5d565b610d06610f3a565b81610d0f610f91565b1015610d545760405162461bcd60e51b8152602060048201526014602482015273494e53554646494349454e545f42414c414e434560601b60448201526064016108fe565b6001600160a01b038316610d9957336108fc610d6e610f91565b6040518115909202915f818181858888f19350505050158015610d93573d5f803e3d5ffd5b50610e2f565b5f836001600160a01b0316836040515f6040518083038185875af1925050503d805f8114610de2576040519150601f19603f3d011682016040523d82523d5f602084013e610de7565b606091505b5050905080610e2d5760405162461bcd60e51b81526020600482015260126024820152714641494c45445f544f5f574954484452415760701b60448201526064016108fe565b505b61088d6001600255565b5f6001600160e01b03198216637965db0b60e01b14806107b657506107b682610fa3565b610e678133610fd7565b50565b610e748282610a72565b610911575f8281526001602081815260408084206001600160a01b0386168086529252808420805460ff19169093179092559051339285917f2f8788117e7eff1d82e926ec794901d17c78024a50270940304540a733656f0d9190a45050565b610ede8282610a72565b15610911575f8281526001602090815260408083206001600160a01b0385168085529252808320805460ff1916905551339285917ff6391f5c32d9c69d2a47ea670b442974b53935d1edc7fd64eb21e047a839171b9190a45050565b6002805403610f8b5760405162461bcd60e51b815260206004820152601f60248201527f5265656e7472616e637947756172643a207265656e7472616e742063616c6c0060448201526064016108fe565b60028055565b5f80610f9c81610e5d565b4791505090565b5f6001600160e01b03198216630271189760e51b14806107b657506301ffc9a760e01b6001600160e01b03198316146107b6565b610fe18282610a72565b61091157610fee81611030565b610ff9836020611042565b60405160200161100a9291906119e0565b60408051601f198184030181529082905262461bcd60e51b82526108fe91600401611a4e565b60606107b66001600160a01b03831660145b60605f611050836002611a74565b61105b906002611a8b565b6001600160401b0381111561107257611072611270565b6040519080825280601f01601f19166020018201604052801561109c576020820181803683370190505b509050600360fc1b815f815181106110b6576110b6611a9e565b60200101906001600160f81b03191690815f1a905350600f60fb1b816001815181106110e4576110e4611a9e565b60200101906001600160f81b03191690815f1a9053505f611106846002611a74565b611111906001611a8b565b90505b6001811115611188576f181899199a1a9b1b9c1cb0b131b232b360811b85600f166010811061114557611145611a9e565b1a60f81b82828151811061115b5761115b611a9e565b60200101906001600160f81b03191690815f1a90535060049490941c9361118181611ab2565b9050611114565b5083156108265760405162461bcd60e51b815260206004820181905260248201527f537472696e67733a20686578206c656e67746820696e73756666696369656e7460448201526064016108fe565b6001600160a01b0381168114610e67575f80fd5b5f602082840312156111fb575f80fd5b8151610826816111d7565b6001600160a01b03929092168252602082015260400190565b5f6020828403121561122f575f80fd5b81356001600160e01b031981168114610826575f80fd5b5f8060408385031215611257575f80fd5b8235611262816111d7565b946020939093013593505050565b634e487b7160e01b5f52604160045260245ffd5b604080519081016001600160401b03811182821017156112a6576112a6611270565b60405290565b60405160c081016001600160401b03811182821017156112a6576112a6611270565b604051601f8201601f191681016001600160401b03811182821017156112f6576112f6611270565b604052919050565b5f6001600160401b0382111561131657611316611270565b50601f01601f191660200190565b5f82601f830112611333575f80fd5b8135611346611341826112fe565b6112ce565b81815284602083860101111561135a575f80fd5b816020850160208301375f918101602001919091529392505050565b5f805f8060808587031215611389575f80fd5b8435611394816111d7565b935060208501356113a4816111d7565b92506040850135915060608501356001600160401b038111156113c5575f80fd5b6113d187828801611324565b91505092959194509250565b5f602082840312156113ed575f80fd5b5035919050565b5f8060408385031215611405575f80fd5b823591506020830135611417816111d7565b809150509250929050565b5f8060408385031215611433575f80fd5b50508035926020909101359150565b634e487b7160e01b5f52602160045260245ffd5b608081016006861061147657634e487b7160e01b5f52602160045260245ffd5b9481526001600160a01b0393841660208201529190921660408201526060015290565b5f602082840312156114a9575f80fd5b8135610826816111d7565b5f5b838110156114ce5781810151838201526020016114b6565b50505f910152565b5f81518084526114ed8160208601602086016114b4565b601f01601f19169290920160200192915050565b5f6020808301818452808551808352604092508286019150828160051b8701018488015f805b848110156115e557898403603f190186528251805180516001600160a01b0390811687528a8201516101009291908c8901875b600281101561157957825184168252918e0191908e019060010161155a565b50505050898101516060611597818a01836001600160a01b03169052565b82015160808981019190915282015160a0808a01919091529091015160c0880152509089015160e08601829052906115d1818701836114d6565b978a01979550505091870191600101611527565b50919998505050505050505050565b5f6001600160401b0382111561160c5761160c611270565b5060051b60200190565b5f82601f830112611625575f80fd5b81356020611635611341836115f4565b82815260059290921b84018101918181019086841115611653575f80fd5b8286015b8481101561166e5780358352918301918301611657565b509695505050505050565b5f805f805f60a0868803121561168d575f80fd5b8535611698816111d7565b945060208601356116a8816111d7565b935060408601356001600160401b03808211156116c3575f80fd5b6116cf89838a01611616565b945060608801359150808211156116e4575f80fd5b6116f089838a01611616565b93506080880135915080821115611705575f80fd5b5061171288828901611324565b9150509295509295909350565b5f805f805f60a08688031215611733575f80fd5b853561173e816111d7565b9450602086013561174e816111d7565b9350604086013560038110611761575f80fd5b94979396509394606081013594506080013592915050565b5f805f805f60a0868803121561178d575f80fd5b8535611798816111d7565b945060208601356117a8816111d7565b9350604086013592506060860135915060808601356001600160401b038111156117d0575f80fd5b61171288828901611324565b80516117e7816111d7565b919050565b5f82601f8301126117fb575f80fd5b8151611809611341826112fe565b81815284602083860101111561181d575f80fd5b61182e8260208301602087016114b4565b949350505050565b5f6020808385031215611847575f80fd5b82516001600160401b038082111561185d575f80fd5b818501915085601f830112611870575f80fd5b815161187e611341826115f4565b81815260059190911b8301840190848101908883111561189c575f80fd5b8585015b838110156119b4578051858111156118b6575f80fd5b8601808b03601f19016101008112156118cd575f80fd5b6118d5611284565b60e08212156118e2575f80fd5b6118ea6112ac565b9150898301516118f9816111d7565b8252605f83018d13611909575f80fd5b611911611284565b80608085018f811115611922575f80fd5b604086015b8181101561194757805161193a816111d7565b8452928d01928d01611927565b50818d860152611956816117dc565b604086015250505060a0830151606083015260c0830151608083015260e083015160a0830152818152610100830151915087821115611993575f80fd5b6119a18d8b848601016117ec565b818b0152855250509186019186016118a0565b5098975050505050505050565b5f602082840312156119d1575f80fd5b81518015158114610826575f80fd5b76020b1b1b2b9b9a1b7b73a3937b61d1030b1b1b7bab73a1604d1b81525f8351611a118160178501602088016114b4565b7001034b99036b4b9b9b4b733903937b6329607d1b6017918401918201528351611a428160288401602088016114b4565b01602801949350505050565b602081525f61082660208301846114d6565b634e487b7160e01b5f52601160045260245ffd5b80820281158282048414176107b6576107b6611a60565b808201808211156107b6576107b6611a60565b634e487b7160e01b5f52603260045260245ffd5b5f81611ac057611ac0611a60565b505f19019056fea264697066735822122040c1a713c6bffc84b3d0567517654555ac10a9b8fa62e493c33d0de8529b8f4664736f6c63430008140033",
  "linkReferences": {
    "contracts/libs/Snippets.sol": {
      "Snippets": [
        {
          "length": 20,
          "start": 492
        }
      ]
    }
  },
  "deployedLinkReferences": {
    "contracts/libs/Snippets.sol": {
      "Snippets": [
        {
          "length": 20,
          "start": 411
        }
      ]
    }
  }
}