{
  "_format": "hh-sol-artifact-1",
  "contractName": "ERC1155FactoryBase",
  "sourceName": "contracts/base/ERC1155/ERC1155FactoryBase.sol",
  "abi": [
    {
      "inputs": [
        {
          "internalType": "string",
          "name": "_url",
          "type": "string"
        }
      ],
      "stateMutability": "nonpayable",
      "type": "constructor"
    },
    {
      "inputs": [],
      "name": "AccessControlBadConfirmation",
      "type": "error"
    },
    {
      "inputs": [
        {
          "internalType": "address",
          "name": "account",
          "type": "address"
        },
        {
          "internalType": "bytes32",
          "name": "neededRole",
          "type": "bytes32"
        }
      ],
      "name": "AccessControlUnauthorizedAccount",
      "type": "error"
    },
    {
      "inputs": [
        {
          "internalType": "string",
          "name": "option",
          "type": "string"
        }
      ],
      "name": "DisabledOption",
      "type": "error"
    },
    {
      "inputs": [
        {
          "internalType": "address",
          "name": "sender",
          "type": "address"
        },
        {
          "internalType": "uint256",
          "name": "balance",
          "type": "uint256"
        },
        {
          "internalType": "uint256",
          "name": "needed",
          "type": "uint256"
        },
        {
          "internalType": "uint256",
          "name": "tokenId",
          "type": "uint256"
        }
      ],
      "name": "ERC1155InsufficientBalance",
      "type": "error"
    },
    {
      "inputs": [
        {
          "internalType": "address",
          "name": "approver",
          "type": "address"
        }
      ],
      "name": "ERC1155InvalidApprover",
      "type": "error"
    },
    {
      "inputs": [
        {
          "internalType": "uint256",
          "name": "idsLength",
          "type": "uint256"
        },
        {
          "internalType": "uint256",
          "name": "valuesLength",
          "type": "uint256"
        }
      ],
      "name": "ERC1155InvalidArrayLength",
      "type": "error"
    },
    {
      "inputs": [
        {
          "internalType": "address",
          "name": "operator",
          "type": "address"
        }
      ],
      "name": "ERC1155InvalidOperator",
      "type": "error"
    },
    {
      "inputs": [
        {
          "internalType": "address",
          "name": "receiver",
          "type": "address"
        }
      ],
      "name": "ERC1155InvalidReceiver",
      "type": "error"
    },
    {
      "inputs": [
        {
          "internalType": "address",
          "name": "sender",
          "type": "address"
        }
      ],
      "name": "ERC1155InvalidSender",
      "type": "error"
    },
    {
      "inputs": [
        {
          "internalType": "address",
          "name": "operator",
          "type": "address"
        },
        {
          "internalType": "address",
          "name": "owner",
          "type": "address"
        }
      ],
      "name": "ERC1155MissingApprovalForAll",
      "type": "error"
    },
    {
      "inputs": [
        {
          "internalType": "uint256",
          "name": "numerator",
          "type": "uint256"
        },
        {
          "internalType": "uint256",
          "name": "denominator",
          "type": "uint256"
        }
      ],
      "name": "ERC2981InvalidDefaultRoyalty",
      "type": "error"
    },
    {
      "inputs": [
        {
          "internalType": "address",
          "name": "receiver",
          "type": "address"
        }
      ],
      "name": "ERC2981InvalidDefaultRoyaltyReceiver",
      "type": "error"
    },
    {
      "inputs": [
        {
          "internalType": "uint256",
          "name": "tokenId",
          "type": "uint256"
        },
        {
          "internalType": "uint256",
          "name": "numerator",
          "type": "uint256"
        },
        {
          "internalType": "uint256",
          "name": "denominator",
          "type": "uint256"
        }
      ],
      "name": "ERC2981InvalidTokenRoyalty",
      "type": "error"
    },
    {
      "inputs": [
        {
          "internalType": "uint256",
          "name": "tokenId",
          "type": "uint256"
        },
        {
          "internalType": "address",
          "name": "receiver",
          "type": "address"
        }
      ],
      "name": "ERC2981InvalidTokenRoyaltyReceiver",
      "type": "error"
    },
    {
      "inputs": [],
      "name": "EnforcedPause",
      "type": "error"
    },
    {
      "inputs": [],
      "name": "ExpectedPause",
      "type": "error"
    },
    {
      "inputs": [
        {
          "internalType": "address",
          "name": "caller",
          "type": "address"
        },
        {
          "internalType": "bytes32",
          "name": "requiredRole",
          "type": "bytes32"
        }
      ],
      "name": "InsufficientPermissions",
      "type": "error"
    },
    {
      "inputs": [],
      "name": "ReentrancyGuardReentrantCall",
      "type": "error"
    },
    {
      "anonymous": false,
      "inputs": [
        {
          "indexed": true,
          "internalType": "address",
          "name": "account",
          "type": "address"
        },
        {
          "indexed": true,
          "internalType": "address",
          "name": "operator",
          "type": "address"
        },
        {
          "indexed": false,
          "internalType": "bool",
          "name": "approved",
          "type": "bool"
        }
      ],
      "name": "ApprovalForAll",
      "type": "event"
    },
    {
      "anonymous": false,
      "inputs": [
        {
          "indexed": false,
          "internalType": "string",
          "name": "newURI",
          "type": "string"
        }
      ],
      "name": "BaseURIChanged",
      "type": "event"
    },
    {
      "anonymous": false,
      "inputs": [
        {
          "indexed": false,
          "internalType": "address",
          "name": "newMarketplaceAddress",
          "type": "address"
        }
      ],
      "name": "MarketplaceAddressChanged",
      "type": "event"
    },
    {
      "anonymous": false,
      "inputs": [
        {
          "indexed": false,
          "internalType": "uint256",
          "name": "newMintingFee",
          "type": "uint256"
        }
      ],
      "name": "MintingFeeChanged",
      "type": "event"
    },
    {
      "anonymous": false,
      "inputs": [
        {
          "indexed": false,
          "internalType": "address",
          "name": "newOwner",
          "type": "address"
        }
      ],
      "name": "OwnerChanged",
      "type": "event"
    },
    {
      "anonymous": false,
      "inputs": [
        {
          "indexed": false,
          "internalType": "address",
          "name": "account",
          "type": "address"
        }
      ],
      "name": "Paused",
      "type": "event"
    },
    {
      "anonymous": false,
      "inputs": [
        {
          "indexed": false,
          "internalType": "address",
          "name": "",
          "type": "address"
        },
        {
          "indexed": false,
          "internalType": "uint256",
          "name": "",
          "type": "uint256"
        }
      ],
      "name": "Received",
      "type": "event"
    },
    {
      "anonymous": false,
      "inputs": [
        {
          "indexed": true,
          "internalType": "bytes32",
          "name": "role",
          "type": "bytes32"
        },
        {
          "indexed": true,
          "internalType": "bytes32",
          "name": "previousAdminRole",
          "type": "bytes32"
        },
        {
          "indexed": true,
          "internalType": "bytes32",
          "name": "newAdminRole",
          "type": "bytes32"
        }
      ],
      "name": "RoleAdminChanged",
      "type": "event"
    },
    {
      "anonymous": false,
      "inputs": [
        {
          "indexed": true,
          "internalType": "bytes32",
          "name": "role",
          "type": "bytes32"
        },
        {
          "indexed": true,
          "internalType": "address",
          "name": "account",
          "type": "address"
        },
        {
          "indexed": true,
          "internalType": "address",
          "name": "sender",
          "type": "address"
        }
      ],
      "name": "RoleGranted",
      "type": "event"
    },
    {
      "anonymous": false,
      "inputs": [
        {
          "indexed": true,
          "internalType": "bytes32",
          "name": "role",
          "type": "bytes32"
        },
        {
          "indexed": true,
          "internalType": "address",
          "name": "account",
          "type": "address"
        },
        {
          "indexed": true,
          "internalType": "address",
          "name": "sender",
          "type": "address"
        }
      ],
      "name": "RoleRevoked",
      "type": "event"
    },
    {
      "anonymous": false,
      "inputs": [
        {
          "indexed": false,
          "internalType": "address",
          "name": "creator",
          "type": "address"
        },
        {
          "indexed": false,
          "internalType": "address",
          "name": "burner",
          "type": "address"
        },
        {
          "indexed": true,
          "internalType": "uint256",
          "name": "burnedTokenId",
          "type": "uint256"
        },
        {
          "indexed": false,
          "internalType": "uint256",
          "name": "batchSize",
          "type": "uint256"
        }
      ],
      "name": "TokenBurned",
      "type": "event"
    },
    {
      "anonymous": false,
      "inputs": [
        {
          "indexed": false,
          "internalType": "address",
          "name": "creator",
          "type": "address"
        },
        {
          "indexed": false,
          "internalType": "address",
          "name": "minter",
          "type": "address"
        },
        {
          "indexed": true,
          "internalType": "uint256",
          "name": "newTokenId",
          "type": "uint256"
        },
        {
          "indexed": false,
          "internalType": "uint256",
          "name": "batchSize",
          "type": "uint256"
        }
      ],
      "name": "TokenMinted",
      "type": "event"
    },
    {
      "anonymous": false,
      "inputs": [
        {
          "indexed": false,
          "internalType": "address",
          "name": "creator",
          "type": "address"
        },
        {
          "indexed": false,
          "internalType": "address",
          "name": "burner",
          "type": "address"
        },
        {
          "indexed": true,
          "internalType": "uint256",
          "name": "transferedTokenId",
          "type": "uint256"
        },
        {
          "indexed": false,
          "internalType": "uint256",
          "name": "batchSize",
          "type": "uint256"
        }
      ],
      "name": "TokenTransfered",
      "type": "event"
    },
    {
      "anonymous": false,
      "inputs": [
        {
          "indexed": true,
          "internalType": "address",
          "name": "operator",
          "type": "address"
        },
        {
          "indexed": true,
          "internalType": "address",
          "name": "from",
          "type": "address"
        },
        {
          "indexed": true,
          "internalType": "address",
          "name": "to",
          "type": "address"
        },
        {
          "indexed": false,
          "internalType": "uint256[]",
          "name": "ids",
          "type": "uint256[]"
        },
        {
          "indexed": false,
          "internalType": "uint256[]",
          "name": "values",
          "type": "uint256[]"
        }
      ],
      "name": "TransferBatch",
      "type": "event"
    },
    {
      "anonymous": false,
      "inputs": [
        {
          "indexed": true,
          "internalType": "address",
          "name": "operator",
          "type": "address"
        },
        {
          "indexed": true,
          "internalType": "address",
          "name": "from",
          "type": "address"
        },
        {
          "indexed": true,
          "internalType": "address",
          "name": "to",
          "type": "address"
        },
        {
          "indexed": false,
          "internalType": "uint256",
          "name": "id",
          "type": "uint256"
        },
        {
          "indexed": false,
          "internalType": "uint256",
          "name": "value",
          "type": "uint256"
        }
      ],
      "name": "TransferSingle",
      "type": "event"
    },
    {
      "anonymous": false,
      "inputs": [
        {
          "indexed": false,
          "internalType": "string",
          "name": "value",
          "type": "string"
        },
        {
          "indexed": true,
          "internalType": "uint256",
          "name": "id",
          "type": "uint256"
        }
      ],
      "name": "URI",
      "type": "event"
    },
    {
      "anonymous": false,
      "inputs": [
        {
          "indexed": false,
          "internalType": "address",
          "name": "account",
          "type": "address"
        }
      ],
      "name": "Unpaused",
      "type": "event"
    },
    {
      "stateMutability": "payable",
      "type": "fallback"
    },
    {
      "inputs": [],
      "name": "DEFAULT_ADMIN_ROLE",
      "outputs": [
        {
          "internalType": "bytes32",
          "name": "",
          "type": "bytes32"
        }
      ],
      "stateMutability": "view",
      "type": "function"
    },
    {
      "inputs": [],
      "name": "_tokenCurrentSupply",
      "outputs": [
        {
          "internalType": "uint256",
          "name": "",
          "type": "uint256"
        }
      ],
      "stateMutability": "view",
      "type": "function"
    },
    {
      "inputs": [],
      "name": "_tokenIdCounter",
      "outputs": [
        {
          "internalType": "uint256",
          "name": "",
          "type": "uint256"
        }
      ],
      "stateMutability": "view",
      "type": "function"
    },
    {
      "inputs": [
        {
          "internalType": "address",
          "name": "account",
          "type": "address"
        },
        {
          "internalType": "uint256",
          "name": "id",
          "type": "uint256"
        }
      ],
      "name": "balanceOf",
      "outputs": [
        {
          "internalType": "uint256",
          "name": "",
          "type": "uint256"
        }
      ],
      "stateMutability": "view",
      "type": "function"
    },
    {
      "inputs": [
        {
          "internalType": "address[]",
          "name": "accounts",
          "type": "address[]"
        },
        {
          "internalType": "uint256[]",
          "name": "ids",
          "type": "uint256[]"
        }
      ],
      "name": "balanceOfBatch",
      "outputs": [
        {
          "internalType": "uint256[]",
          "name": "",
          "type": "uint256[]"
        }
      ],
      "stateMutability": "view",
      "type": "function"
    },
    {
      "inputs": [],
      "name": "baseURI",
      "outputs": [
        {
          "internalType": "string",
          "name": "",
          "type": "string"
        }
      ],
      "stateMutability": "view",
      "type": "function"
    },
    {
      "inputs": [
        {
          "internalType": "address",
          "name": "account",
          "type": "address"
        },
        {
          "internalType": "uint256",
          "name": "id",
          "type": "uint256"
        },
        {
          "internalType": "uint256",
          "name": "value",
          "type": "uint256"
        }
      ],
      "name": "burn",
      "outputs": [],
      "stateMutability": "nonpayable",
      "type": "function"
    },
    {
      "inputs": [
        {
          "internalType": "address",
          "name": "account",
          "type": "address"
        },
        {
          "internalType": "uint256[]",
          "name": "ids",
          "type": "uint256[]"
        },
        {
          "internalType": "uint256[]",
          "name": "values",
          "type": "uint256[]"
        }
      ],
      "name": "burnBatch",
      "outputs": [],
      "stateMutability": "nonpayable",
      "type": "function"
    },
    {
      "inputs": [
        {
          "internalType": "address payable",
          "name": "_to",
          "type": "address"
        }
      ],
      "name": "callFallback",
      "outputs": [],
      "stateMutability": "payable",
      "type": "function"
    },
    {
      "inputs": [],
      "name": "contractOptionIsBurnable",
      "outputs": [
        {
          "internalType": "bool",
          "name": "",
          "type": "bool"
        }
      ],
      "stateMutability": "view",
      "type": "function"
    },
    {
      "inputs": [],
      "name": "contractOptionIsMintable",
      "outputs": [
        {
          "internalType": "bool",
          "name": "",
          "type": "bool"
        }
      ],
      "stateMutability": "view",
      "type": "function"
    },
    {
      "inputs": [],
      "name": "contractOptionIsPausable",
      "outputs": [
        {
          "internalType": "bool",
          "name": "",
          "type": "bool"
        }
      ],
      "stateMutability": "view",
      "type": "function"
    },
    {
      "inputs": [],
      "name": "contractOptionIsSnapshotable",
      "outputs": [
        {
          "internalType": "bool",
          "name": "",
          "type": "bool"
        }
      ],
      "stateMutability": "view",
      "type": "function"
    },
    {
      "inputs": [],
      "name": "contractTreasury",
      "outputs": [
        {
          "internalType": "address payable",
          "name": "",
          "type": "address"
        }
      ],
      "stateMutability": "view",
      "type": "function"
    },
    {
      "inputs": [
        {
          "internalType": "uint256",
          "name": "",
          "type": "uint256"
        }
      ],
      "name": "currentSupplyById",
      "outputs": [
        {
          "internalType": "uint256",
          "name": "",
          "type": "uint256"
        }
      ],
      "stateMutability": "view",
      "type": "function"
    },
    {
      "inputs": [],
      "name": "deleteDefaultRoyalty",
      "outputs": [],
      "stateMutability": "nonpayable",
      "type": "function"
    },
    {
      "inputs": [
        {
          "internalType": "bytes32",
          "name": "role",
          "type": "bytes32"
        }
      ],
      "name": "getRoleAdmin",
      "outputs": [
        {
          "internalType": "bytes32",
          "name": "",
          "type": "bytes32"
        }
      ],
      "stateMutability": "view",
      "type": "function"
    },
    {
      "inputs": [
        {
          "internalType": "bytes32",
          "name": "role",
          "type": "bytes32"
        },
        {
          "internalType": "address",
          "name": "account",
          "type": "address"
        }
      ],
      "name": "grantRole",
      "outputs": [],
      "stateMutability": "nonpayable",
      "type": "function"
    },
    {
      "inputs": [
        {
          "internalType": "bytes32",
          "name": "role",
          "type": "bytes32"
        },
        {
          "internalType": "address",
          "name": "account",
          "type": "address"
        }
      ],
      "name": "hasRole",
      "outputs": [
        {
          "internalType": "bool",
          "name": "",
          "type": "bool"
        }
      ],
      "stateMutability": "view",
      "type": "function"
    },
    {
      "inputs": [
        {
          "internalType": "address",
          "name": "account",
          "type": "address"
        },
        {
          "internalType": "address",
          "name": "operator",
          "type": "address"
        }
      ],
      "name": "isApprovedForAll",
      "outputs": [
        {
          "internalType": "bool",
          "name": "",
          "type": "bool"
        }
      ],
      "stateMutability": "view",
      "type": "function"
    },
    {
      "inputs": [],
      "name": "loggerAddress",
      "outputs": [
        {
          "internalType": "address",
          "name": "",
          "type": "address"
        }
      ],
      "stateMutability": "view",
      "type": "function"
    },
    {
      "inputs": [],
      "name": "marketplaceAddress",
      "outputs": [
        {
          "internalType": "address payable",
          "name": "",
          "type": "address"
        }
      ],
      "stateMutability": "view",
      "type": "function"
    },
    {
      "inputs": [
        {
          "internalType": "uint256",
          "name": "",
          "type": "uint256"
        }
      ],
      "name": "maxSupplyById",
      "outputs": [
        {
          "internalType": "uint256",
          "name": "",
          "type": "uint256"
        }
      ],
      "stateMutability": "view",
      "type": "function"
    },
    {
      "inputs": [
        {
          "internalType": "uint256",
          "name": "",
          "type": "uint256"
        }
      ],
      "name": "mintedSupplyById",
      "outputs": [
        {
          "internalType": "uint256",
          "name": "",
          "type": "uint256"
        }
      ],
      "stateMutability": "view",
      "type": "function"
    },
    {
      "inputs": [],
      "name": "owner",
      "outputs": [
        {
          "internalType": "address payable",
          "name": "",
          "type": "address"
        }
      ],
      "stateMutability": "view",
      "type": "function"
    },
    {
      "inputs": [],
      "name": "paused",
      "outputs": [
        {
          "internalType": "bool",
          "name": "",
          "type": "bool"
        }
      ],
      "stateMutability": "view",
      "type": "function"
    },
    {
      "inputs": [
        {
          "internalType": "address",
          "name": "_token",
          "type": "address"
        },
        {
          "internalType": "address",
          "name": "_account",
          "type": "address"
        },
        {
          "internalType": "enum Enums.TokenStandards",
          "name": "_standard",
          "type": "uint8"
        },
        {
          "internalType": "uint256",
          "name": "_amount",
          "type": "uint256"
        },
        {
          "internalType": "uint256",
          "name": "_tokenId",
          "type": "uint256"
        }
      ],
      "name": "recoverTokens",
      "outputs": [],
      "stateMutability": "nonpayable",
      "type": "function"
    },
    {
      "inputs": [
        {
          "internalType": "bytes32",
          "name": "role",
          "type": "bytes32"
        },
        {
          "internalType": "address",
          "name": "callerConfirmation",
          "type": "address"
        }
      ],
      "name": "renounceRole",
      "outputs": [],
      "stateMutability": "nonpayable",
      "type": "function"
    },
    {
      "inputs": [
        {
          "internalType": "uint256",
          "name": "tokenId",
          "type": "uint256"
        }
      ],
      "name": "resetTokenRoyalty",
      "outputs": [],
      "stateMutability": "nonpayable",
      "type": "function"
    },
    {
      "inputs": [
        {
          "internalType": "bytes32",
          "name": "role",
          "type": "bytes32"
        },
        {
          "internalType": "address",
          "name": "account",
          "type": "address"
        }
      ],
      "name": "revokeRole",
      "outputs": [],
      "stateMutability": "nonpayable",
      "type": "function"
    },
    {
      "inputs": [
        {
          "internalType": "uint256",
          "name": "tokenId",
          "type": "uint256"
        },
        {
          "internalType": "uint256",
          "name": "salePrice",
          "type": "uint256"
        }
      ],
      "name": "royaltyInfo",
      "outputs": [
        {
          "internalType": "address",
          "name": "",
          "type": "address"
        },
        {
          "internalType": "uint256",
          "name": "",
          "type": "uint256"
        }
      ],
      "stateMutability": "view",
      "type": "function"
    },
    {
      "inputs": [
        {
          "internalType": "address",
          "name": "from",
          "type": "address"
        },
        {
          "internalType": "address",
          "name": "to",
          "type": "address"
        },
        {
          "internalType": "uint256[]",
          "name": "ids",
          "type": "uint256[]"
        },
        {
          "internalType": "uint256[]",
          "name": "values",
          "type": "uint256[]"
        },
        {
          "internalType": "bytes",
          "name": "data",
          "type": "bytes"
        }
      ],
      "name": "safeBatchTransferFrom",
      "outputs": [],
      "stateMutability": "nonpayable",
      "type": "function"
    },
    {
      "inputs": [
        {
          "internalType": "address",
          "name": "from",
          "type": "address"
        },
        {
          "internalType": "address",
          "name": "to",
          "type": "address"
        },
        {
          "internalType": "uint256",
          "name": "id",
          "type": "uint256"
        },
        {
          "internalType": "uint256",
          "name": "value",
          "type": "uint256"
        },
        {
          "internalType": "bytes",
          "name": "data",
          "type": "bytes"
        }
      ],
      "name": "safeTransferFrom",
      "outputs": [],
      "stateMutability": "nonpayable",
      "type": "function"
    },
    {
      "inputs": [
        {
          "internalType": "address",
          "name": "operator",
          "type": "address"
        },
        {
          "internalType": "bool",
          "name": "approved",
          "type": "bool"
        }
      ],
      "name": "setApprovalForAll",
      "outputs": [],
      "stateMutability": "nonpayable",
      "type": "function"
    },
    {
      "inputs": [
        {
          "internalType": "string",
          "name": "_newURI",
          "type": "string"
        }
      ],
      "name": "setBaseURI",
      "outputs": [],
      "stateMutability": "nonpayable",
      "type": "function"
    },
    {
      "inputs": [
        {
          "internalType": "address",
          "name": "_receiver",
          "type": "address"
        },
        {
          "internalType": "uint96",
          "name": "_feeNumerator",
          "type": "uint96"
        }
      ],
      "name": "setDefaultRoyalty",
      "outputs": [],
      "stateMutability": "nonpayable",
      "type": "function"
    },
    {
      "inputs": [
        {
          "internalType": "uint256",
          "name": "_tokenId",
          "type": "uint256"
        },
        {
          "internalType": "address",
          "name": "_receiver",
          "type": "address"
        },
        {
          "internalType": "uint96",
          "name": "_feeNumerator",
          "type": "uint96"
        }
      ],
      "name": "setTokenRoyalty",
      "outputs": [],
      "stateMutability": "nonpayable",
      "type": "function"
    },
    {
      "inputs": [
        {
          "internalType": "bytes4",
          "name": "_interfaceId",
          "type": "bytes4"
        }
      ],
      "name": "supportsInterface",
      "outputs": [
        {
          "internalType": "bool",
          "name": "",
          "type": "bool"
        }
      ],
      "stateMutability": "view",
      "type": "function"
    },
    {
      "inputs": [
        {
          "internalType": "uint256",
          "name": "",
          "type": "uint256"
        }
      ],
      "name": "tokenIdToNFTItem",
      "outputs": [
        {
          "internalType": "address",
          "name": "minterAddress",
          "type": "address"
        },
        {
          "internalType": "address",
          "name": "ownerAddress",
          "type": "address"
        },
        {
          "internalType": "uint256",
          "name": "tokenId",
          "type": "uint256"
        },
        {
          "internalType": "uint256",
          "name": "createdAt",
          "type": "uint256"
        },
        {
          "internalType": "uint256",
          "name": "updatedAt",
          "type": "uint256"
        }
      ],
      "stateMutability": "view",
      "type": "function"
    },
    {
      "inputs": [],
      "name": "tokenMaximumSupply",
      "outputs": [
        {
          "internalType": "uint256",
          "name": "",
          "type": "uint256"
        }
      ],
      "stateMutability": "view",
      "type": "function"
    },
    {
      "inputs": [
        {
          "internalType": "uint256",
          "name": "_tokenId",
          "type": "uint256"
        }
      ],
      "name": "tokenURI",
      "outputs": [
        {
          "internalType": "string",
          "name": "",
          "type": "string"
        }
      ],
      "stateMutability": "view",
      "type": "function"
    },
    {
      "inputs": [
        {
          "internalType": "address payable",
          "name": "_to",
          "type": "address"
        }
      ],
      "name": "transferToFallback",
      "outputs": [],
      "stateMutability": "payable",
      "type": "function"
    },
    {
      "inputs": [
        {
          "internalType": "address",
          "name": "_newContractTreasury",
          "type": "address"
        }
      ],
      "name": "updateContractTreasury",
      "outputs": [],
      "stateMutability": "nonpayable",
      "type": "function"
    },
    {
      "inputs": [
        {
          "internalType": "uint256",
          "name": "_tokenId",
          "type": "uint256"
        }
      ],
      "name": "uri",
      "outputs": [
        {
          "internalType": "string",
          "name": "",
          "type": "string"
        }
      ],
      "stateMutability": "view",
      "type": "function"
    },
    {
      "inputs": [
        {
          "internalType": "address",
          "name": "to",
          "type": "address"
        },
        {
          "internalType": "uint256",
          "name": "value",
          "type": "uint256"
        }
      ],
      "name": "withdraw",
      "outputs": [],
      "stateMutability": "payable",
      "type": "function"
    },
    {
      "stateMutability": "payable",
      "type": "receive"
    }
  ],
  "bytecode": "0x60a0604052600060809081526003906200001a90826200014b565b50600a80546001600160a01b031916730bcebd6ce292721408ea6a40c9f1fa04c8befa9a1790553480156200004e57600080fd5b50604051620035b7380380620035b7833981016040819052620000719162000217565b806200007d8162000094565b50506007805460ff191690556001600955620002ec565b6002620000a282826200014b565b5050565b634e487b7160e01b600052604160045260246000fd5b600181811c90821680620000d157607f821691505b602082108103620000f257634e487b7160e01b600052602260045260246000fd5b50919050565b601f8211156200014657600081815260208120601f850160051c81016020861015620001215750805b601f850160051c820191505b8181101562000142578281556001016200012d565b5050505b505050565b81516001600160401b03811115620001675762000167620000a6565b6200017f81620001788454620000bc565b84620000f8565b602080601f831160018114620001b757600084156200019e5750858301515b600019600386901b1c1916600185901b17855562000142565b600085815260208120601f198616915b82811015620001e857888601518255948401946001909101908401620001c7565b5085821015620002075787850151600019600388901b60f8161c191681555b5050505050600190811b01905550565b600060208083850312156200022b57600080fd5b82516001600160401b03808211156200024357600080fd5b818501915085601f8301126200025857600080fd5b8151818111156200026d576200026d620000a6565b604051601f8201601f19908116603f01168101908382118183101715620002985762000298620000a6565b816040528281528886848701011115620002b157600080fd5b600093505b82841015620002d55784840186015181850187015292850192620002b6565b600086848301015280965050505050505092915050565b6132bb80620002fc6000396000f3fe6080604052600436106102c55760003560e01c806384c4bd4b11610177578063c87b56dd116100d5578063e985e9c511610084578063f5298aca11610061578063f5298aca14610965578063f8cdd33114610985578063fdf46760146109b857005b8063e985e9c5146108e9578063f242432a14610932578063f3fef3a31461095257005b8063daa17f49116100b2578063daa17f4914610820578063e02c855314610840578063e2a0fad61461086057005b8063c87b56dd146107cd578063cfc6cdaa146107ed578063d547741f1461080057005b8063a22cb46511610131578063b4b509611161010e578063b4b509611461076a578063be3bd55014610797578063c38477fa146107b757005b8063a22cb46514610708578063aa1b103f14610728578063b0f42bdd1461073d57005b80638da5cb5b1161015f5780638da5cb5b1461068d57806391d14854146106ad578063a217fddf146106f357005b806384c4bd4b146106575780638a616bc01461066d57005b806355f804b31161022457806362f588d8116101de5780636c0360eb116101bb5780636c0360eb146105ff5780637806a6da14610614578063837b091e1461062a57005b806362f588d8146105975780636b20c454146105cc5780636ba87a53146105ec57005b80635c975abb1161020c5780635c975abb1461052657806360bd55f81461053e578063614595d01461055f57005b806355f804b3146104e65780635944c7531461050657005b80632a55205a1161028057806336568abe1161025d57806336568abe146104655780634e1273f4146104855780634f227e11146104b257005b80632a55205a146103e65780632eb2c2d6146104255780632f2ff15d1461044557005b806304634d8d116102ae57806304634d8d146103695780630e89341c14610389578063248a9ca3146103b657005b8062fdd58e1461030657806301ffc9a71461033957005b3661030457604080513381523460208201527f88a5966d370b9919b20f3e2c13ff65706f196a4e32cc2c12bf57088f88525874910160405180910390a1005b005b34801561031257600080fd5b50610326610321366004612689565b6109d8565b6040519081526020015b60405180910390f35b34801561034557600080fd5b506103596103543660046126cb565b610a00565b6040519015158152602001610330565b34801561037557600080fd5b50610304610384366004612704565b610a5b565b34801561039557600080fd5b506103a96103a4366004612739565b610a71565b60405161033091906127a2565b3480156103c257600080fd5b506103266103d1366004612739565b60009081526008602052604090206001015490565b3480156103f257600080fd5b506104066104013660046127b5565b610a8e565b604080516001600160a01b039093168352602083019190915201610330565b34801561043157600080fd5b5061030461044036600461292e565b610b3a565b34801561045157600080fd5b506103046104603660046129dc565b610bc5565b34801561047157600080fd5b506103046104803660046129dc565b610bf0565b34801561049157600080fd5b506104a56104a0366004612a0c565b610c28565b6040516103309190612b09565b3480156104be57600080fd5b50600a5461035990760100000000000000000000000000000000000000000000900460ff1681565b3480156104f257600080fd5b50610304610501366004612b1c565b610cfd565b34801561051257600080fd5b50610304610521366004612b6d565b610d48565b34801561053257600080fd5b5060075460ff16610359565b34801561054a57600080fd5b50600a5461035990600160a01b900460ff1681565b34801561056b57600080fd5b5060105461057f906001600160a01b031681565b6040516001600160a01b039091168152602001610330565b3480156105a357600080fd5b50600a546103599077010000000000000000000000000000000000000000000000900460ff1681565b3480156105d857600080fd5b506103046105e7366004612bab565b610d5b565b6103046105fa366004612c21565b610dba565b34801561060b57600080fd5b506103a9610e5d565b34801561062057600080fd5b50610326600f5481565b34801561063657600080fd5b50610326610645366004612739565b60136020526000908152604090205481565b34801561066357600080fd5b50610326600b5481565b34801561067957600080fd5b50610304610688366004612739565b610e6e565b34801561069957600080fd5b50600d5461057f906001600160a01b031681565b3480156106b957600080fd5b506103596106c83660046129dc565b60009182526008602090815260408084206001600160a01b0393909316845291905290205460ff1690565b3480156106ff57600080fd5b50610326600081565b34801561071457600080fd5b50610304610723366004612c4c565b610e8a565b34801561073457600080fd5b50610304610e95565b34801561074957600080fd5b50610326610758366004612739565b60126020526000908152604090205481565b34801561077657600080fd5b50610326610785366004612739565b60116020526000908152604090205481565b3480156107a357600080fd5b506103046107b2366004612c7a565b610ea9565b3480156107c357600080fd5b50610326600c5481565b3480156107d957600080fd5b506103a96107e8366004612739565b61108b565b6103046107fb366004612c21565b611129565b34801561080c57600080fd5b5061030461081b3660046129dc565b61115e565b34801561082c57600080fd5b50600e5461057f906001600160a01b031681565b34801561084c57600080fd5b5061030461085b366004612c21565b611183565b34801561086c57600080fd5b506108b661087b366004612739565b601560205260009081526040902080546003820154600483015460058401546006909401546001600160a01b03938416949390921692909185565b604080516001600160a01b039687168152959094166020860152928401919091526060830152608082015260a001610330565b3480156108f557600080fd5b50610359610904366004612cd9565b6001600160a01b03918216600090815260016020908152604080832093909416825291909152205460ff1690565b34801561093e57600080fd5b5061030461094d366004612d07565b6111be565b610304610960366004612689565b61123c565b34801561097157600080fd5b50610304610980366004612d70565b61139d565b34801561099157600080fd5b50600a54610359907501000000000000000000000000000000000000000000900460ff1681565b3480156109c457600080fd5b50600a5461057f906001600160a01b031681565b6000818152602081815260408083206001600160a01b03861684529091529020545b92915050565b60006001600160e01b0319821663152a902d60e11b1480610a3157506001600160e01b03198216636cdb3d1360e11b145b80610a4c57506001600160e01b031982166303a24d0760e21b145b806109fa57506109fa826113d3565b610a636113f8565b610a6d8282611429565b5050565b606081600003610a85576109fa60006114cc565b6109fa8261108b565b60008281526006602090815260408083208151808301909252546001600160a01b038116808352600160a01b9091046001600160601b0316928201929092528291610b035750604080518082019091526005546001600160a01b0381168252600160a01b90046001600160601b031660208201525b602081015160009061271090610b22906001600160601b031687612dbb565b610b2c9190612dd2565b915196919550909350505050565b336001600160a01b0386168114801590610b7a57506001600160a01b0380871660009081526001602090815260408083209385168352929052205460ff16155b15610bb05760405163711bec9160e11b81526001600160a01b038083166004830152871660248201526044015b60405180910390fd5b610bbd86868686866115ac565b505050505050565b600082815260086020526040902060010154610be081611613565b610bea838361161d565b50505050565b6001600160a01b0381163314610c195760405163334bd91960e11b815260040160405180910390fd5b610c2382826116cb565b505050565b60608151835114610c595781518351604051635b05999160e01b815260048101929092526024820152604401610ba7565b6000835167ffffffffffffffff811115610c7557610c756127d7565b604051908082528060200260200182016040528015610c9e578160200160208202803683370190505b50905060005b8451811015610cf557602080820286010151610cc8906020808402870101516109d8565b828281518110610cda57610cda612df4565b6020908102919091010152610cee81612e0a565b9050610ca4565b509392505050565b610d056113f8565b610d0e81611752565b7f5411e8ebf1636d9e83d5fc4900bf80cbac82e8790da2a4c94db4895e889eedf681604051610d3d91906127a2565b60405180910390a150565b610d506113f8565b610c2383838361175e565b6001600160a01b0383163314801590610d7b5750610d798333610904565b155b15610daf57335b60405163711bec9160e11b81526001600160a01b0391821660048201529084166024820152604401610ba7565b610c23838383611820565b6000816001600160a01b03163460405160006040518083038185875af1925050503d8060008114610e07576040519150601f19603f3d011682016040523d82523d6000602084013e610e0c565b606091505b5050905080610a6d5760405162461bcd60e51b815260206004820152601460248201527f4661696c656420746f2073656e642045746865720000000000000000000000006044820152606401610ba7565b6060610e6960006114cc565b905090565b610e766113f8565b600090815260066020526040812055565b50565b610a6d338383611866565b610e9d6113f8565b610ea76000600555565b565b6000610eb481611613565b60006001600160a01b03861615610ecc575084610ecf565b50335b6000856002811115610ee357610ee3612e23565b03610f5d5760405163a9059cbb60e01b81526001600160a01b0382811660048301526024820186905288169063a9059cbb906044016020604051808303816000875af1158015610f37573d6000803e3d6000fd5b505050506040513d601f19601f82011682018060405250810190610f5b9190612e39565b505b6001856002811115610f7157610f71612e23565b03610fdf57604051632142170760e11b81523060048201526001600160a01b038281166024830152604482018590528816906342842e0e90606401600060405180830381600087803b158015610fc657600080fd5b505af1158015610fda573d6000803e3d6000fd5b505050505b6002856002811115610ff357610ff3612e23565b0361108257604051637921219560e11b81523060048201526001600160a01b038281166024830152604482018590526064820186905260a06084830152600360a48301526203078360ec1b60c483015288169063f242432a9060e401600060405180830381600087803b15801561106957600080fd5b505af115801561107d573d6000803e3d6000fd5b505050505b50505050505050565b606073__$29de98fb2cbbe7538224799f316eefb01b$__63260a529a836110b260006114cc565b6000868152601460205260409081902090516001600160e01b031960e086901b1681526110e493929190600401612e90565b600060405180830381865af4158015611101573d6000803e3d6000fd5b505050506040513d6000823e601f3d908101601f191682016040526109fa9190810190612f32565b6040516001600160a01b038216903480156108fc02916000818181858888f19350505050158015610a6d573d6000803e3d6000fd5b60008281526008602052604090206001015461117981611613565b610bea83836116cb565b600061118e81611613565b6001600160a01b03821615610a6d57600a80546001600160a01b0384166001600160a01b03199091161790555050565b336001600160a01b03861681148015906111fe57506001600160a01b0380871660009081526001602090815260408083209385168352929052205460ff16155b1561122f5760405163711bec9160e11b81526001600160a01b03808316600483015287166024820152604401610ba7565b610bbd86868686866118fc565b600061124781611613565b61124f611981565b816112586119ab565b10156112a65760405162461bcd60e51b815260206004820152601460248201527f494e53554646494349454e545f42414c414e43450000000000000000000000006044820152606401610ba7565b6001600160a01b0383166112ee57336108fc6112c06119ab565b6040518115909202916000818181858888f193505050501580156112e8573d6000803e3d6000fd5b50611393565b6000836001600160a01b03168360405160006040518083038185875af1925050503d806000811461133b576040519150601f19603f3d011682016040523d82523d6000602084013e611340565b606091505b50509050806113915760405162461bcd60e51b815260206004820152601260248201527f4641494c45445f544f5f574954484452415700000000000000000000000000006044820152606401610ba7565b505b610c236001600955565b6001600160a01b03831633148015906113bd57506113bb8333610904565b155b156113c85733610d82565b610c238383836119bf565b60006001600160e01b03198216637965db0b60e01b14806109fa57506109fa82611a27565b6114036000336106c8565b610ea757604051630e80140560e21b815233600482015260006024820152604401610ba7565b6127106001600160601b03821681101561146857604051636f483d0960e01b81526001600160601b038316600482015260248101829052604401610ba7565b6001600160a01b03831661149257604051635b6cc80560e11b815260006004820152602401610ba7565b50604080518082019091526001600160a01b039092168083526001600160601b039091166020909201829052600160a01b90910217600555565b6000818152600460205260408120805460609291906114ea90612e56565b80601f016020809104026020016040519081016040528092919081815260200182805461151690612e56565b80156115635780601f1061153857610100808354040283529160200191611563565b820191906000526020600020905b81548152906001019060200180831161154657829003601f168201915b5050505050905060008151116115815761157c83611a4c565b6115a5565b600381604051602001611595929190612fa9565b6040516020818303038152906040525b9392505050565b6001600160a01b0384166115d657604051632bfa23e760e11b815260006004820152602401610ba7565b6001600160a01b0385166115ff57604051626a0d4560e21b815260006004820152602401610ba7565b61160c8585858585611ae0565b5050505050565b610e878133611b33565b60008281526008602090815260408083206001600160a01b038516845290915281205460ff166116c35760008381526008602090815260408083206001600160a01b03861684529091529020805460ff1916600117905561167b3390565b6001600160a01b0316826001600160a01b0316847f2f8788117e7eff1d82e926ec794901d17c78024a50270940304540a733656f0d60405160405180910390a45060016109fa565b5060006109fa565b60008281526008602090815260408083206001600160a01b038516845290915281205460ff16156116c35760008381526008602090815260408083206001600160a01b0386168085529252808320805460ff1916905551339286917ff6391f5c32d9c69d2a47ea670b442974b53935d1edc7fd64eb21e047a839171b9190a45060016109fa565b6002610a6d8282613076565b6127106001600160601b0382168110156117a45760405163dfd1fc1b60e01b8152600481018590526001600160601b038316602482015260448101829052606401610ba7565b6001600160a01b0383166117d557604051634b4f842960e11b81526004810185905260006024820152604401610ba7565b506040805180820182526001600160a01b0393841681526001600160601b0392831660208083019182526000968752600690529190942093519051909116600160a01b029116179055565b6001600160a01b03831661184957604051626a0d4560e21b815260006004820152602401610ba7565b610c23836000848460405180602001604052806000815250611ae0565b6001600160a01b03821661188f5760405162ced3e160e81b815260006004820152602401610ba7565b6001600160a01b03838116600081815260016020908152604080832094871680845294825291829020805460ff191686151590811790915591519182527f17307eab39ab6107e8899845ad3d59bd9653f200f220920489ca2b5937696c31910160405180910390a3505050565b6001600160a01b03841661192657604051632bfa23e760e11b815260006004820152602401610ba7565b6001600160a01b03851661194f57604051626a0d4560e21b815260006004820152602401610ba7565b604080516001808252602082018690528183019081526060820185905260808201909252906110828787848487611ae0565b6002600954036119a457604051633ee5aeb560e01b815260040160405180910390fd5b6002600955565b6000806119b781611613565b4791505b5090565b6001600160a01b0383166119e857604051626a0d4560e21b815260006004820152602401610ba7565b604080516001808252602082018590528183019081526060820184905260a0820190925260006080820181815291929161160c91879185908590611ae0565b60006001600160e01b0319821663152a902d60e11b14806109fa57506109fa82611b88565b606060028054611a5b90612e56565b80601f0160208091040260200160405190810160405280929190818152602001828054611a8790612e56565b8015611ad45780601f10611aa957610100808354040283529160200191611ad4565b820191906000526020600020905b815481529060010190602001808311611ab757829003601f168201915b50505050509050919050565b611aec85858585611bd8565b6001600160a01b0384161561160c5782513390600103611b255760208481015190840151611b1e838989858589612175565b5050610bbd565b610bbd818787878787612299565b60008281526008602090815260408083206001600160a01b038516845290915290205460ff16610a6d5760405163e2517d3f60e01b81526001600160a01b038216600482015260248101839052604401610ba7565b60006001600160e01b03198216636cdb3d1360e11b1480611bb957506001600160e01b031982166303a24d0760e21b145b806109fa57506301ffc9a760e01b6001600160e01b03198316146109fa565b60075460ff1615611c2c57604051632c14ac3160e01b815260206004820152600660248201527f50415553454400000000000000000000000000000000000000000000000000006044820152606401610ba7565b60005b8151811015612168576001600160a01b038516611d6b57601060009054906101000a90046001600160a01b03166001600160a01b0316635408c14c308787878681518110611c7f57611c7f612df4565b60200260200101516000426040518763ffffffff1660e01b8152600401611cab96959493929190613136565b600060405180830381600087803b158015611cc557600080fd5b505af1158015611cd9573d6000803e3d6000fd5b50505050828181518110611cef57611cef612df4565b60200260200101517f747bd6dbfd6ceb446b50b008eeade0e74f807993dd969546d7efd6008554b1d08686858581518110611d2c57611d2c612df4565b6020026020010151604051611d62939291906001600160a01b039384168152919092166020820152604081019190915260600190565b60405180910390a25b6001600160a01b038416611e9e57601060009054906101000a90046001600160a01b03166001600160a01b0316635408c14c308787878681518110611db257611db2612df4565b60200260200101516004426040518763ffffffff1660e01b8152600401611dde96959493929190613136565b600060405180830381600087803b158015611df857600080fd5b505af1158015611e0c573d6000803e3d6000fd5b50505050828181518110611e2257611e22612df4565b60200260200101517f52dfda3906d4cbf321bb72f93842c6205f7b598f4774e779919316c34c691dd88686858581518110611e5f57611e5f612df4565b6020026020010151604051611e95939291906001600160a01b039384168152919092166020820152604081019190915260600190565b60405180910390a25b6001600160a01b03841615801590611ebe57506001600160a01b03851615155b1561216057600060156000858481518110611edb57611edb612df4565b6020908102919091018101518252818101929092526040908101600020815160c08101835281546001600160a01b031681528251808401938490529093919291840191600184019060029082845b81546001600160a01b03168152600190910190602001808311611f2957505050918352505060038201546001600160a01b0390811660208301526004830154604080840191909152600584015460608401526006909301546080909201919091528716908201524260a082015284519091508190601590600090879086908110611fb557611fb5612df4565b602090810291909101810151825281810192909252604001600020825181546001600160a01b0319166001600160a01b0390911617815590820151612000906001830190600261259f565b5060408201516003820180546001600160a01b0319166001600160a01b03928316179055606083015160048301556080830151600583015560a0909201516006909101556010548551911690635408c14c9030908990899089908890811061206a5761206a612df4565b60200260200101516006426040518763ffffffff1660e01b815260040161209696959493929190613136565b600060405180830381600087803b1580156120b057600080fd5b505af11580156120c4573d6000803e3d6000fd5b505050508382815181106120da576120da612df4565b60200260200101517fb766d3a37f5cf765dac0a3cc64a0e39c8e6f6e076c917b54db3cfb1c5e8a1659878786868151811061211757612117612df4565b602002602001015160405161214d939291906001600160a01b039384168152919092166020820152604081019190915260600190565b60405180910390a261215d6125f3565b50505b600101611c2f565b50610bea84848484612382565b6001600160a01b0384163b15610bbd5760405163f23a6e6160e01b81526001600160a01b0385169063f23a6e61906121b9908990899088908890889060040161318f565b6020604051808303816000875af19250505080156121f4575060408051601f3d908101601f191682019092526121f1918101906131d2565b60015b61225d573d808015612222576040519150601f19603f3d011682016040523d82523d6000602084013e612227565b606091505b50805160000361225557604051632bfa23e760e11b81526001600160a01b0386166004820152602401610ba7565b805181602001fd5b6001600160e01b0319811663f23a6e6160e01b1461108257604051632bfa23e760e11b81526001600160a01b0386166004820152602401610ba7565b6001600160a01b0384163b15610bbd5760405163bc197c8160e01b81526001600160a01b0385169063bc197c81906122dd90899089908890889088906004016131ef565b6020604051808303816000875af1925050508015612318575060408051601f3d908101601f19168201909252612315918101906131d2565b60015b612346573d808015612222576040519150601f19603f3d011682016040523d82523d6000602084013e612227565b6001600160e01b0319811663bc197c8160e01b1461108257604051632bfa23e760e11b81526001600160a01b0386166004820152602401610ba7565b80518251146123b15781518151604051635b05999160e01b815260048101929092526024820152604401610ba7565b3360005b83518110156124c0576020818102858101820151908501909101516001600160a01b03881615612468576000828152602081815260408083206001600160a01b038c16845290915290205481811015612441576040516303dee4c560e01b81526001600160a01b038a166004820152602481018290526044810183905260648101849052608401610ba7565b6000838152602081815260408083206001600160a01b038d16845290915290209082900390555b6001600160a01b038716156124ad576000828152602081815260408083206001600160a01b038b168452909152812080548392906124a790849061324d565b90915550505b5050806124b990612e0a565b90506123b5565b5082516001036125415760208301516000906020840151909150856001600160a01b0316876001600160a01b0316846001600160a01b03167fc3d58168c5ae7397731d063d5bbf3d657854427343f4c083240f7aacaa2d0f628585604051612532929190918252602082015260400190565b60405180910390a4505061160c565b836001600160a01b0316856001600160a01b0316826001600160a01b03167f4a39dc06d4c0dbc64b70af90fd698a233a518aa5d07e595d983b8c0526c8f7fb8686604051612590929190613260565b60405180910390a45050505050565b82600281019282156125e7579160200282015b828111156125e757825182546001600160a01b0319166001600160a01b039091161782556020909201916001909101906125b2565b506119bb929150612641565b6040518060c0016040528060006001600160a01b03168152602001612616612656565b815260200160006001600160a01b031681526020016000815260200160008152602001600081525090565b5b808211156119bb5760008155600101612642565b60405180604001604052806002906020820280368337509192915050565b6001600160a01b0381168114610e8757600080fd5b6000806040838503121561269c57600080fd5b82356126a781612674565b946020939093013593505050565b6001600160e01b031981168114610e8757600080fd5b6000602082840312156126dd57600080fd5b81356115a5816126b5565b80356001600160601b03811681146126ff57600080fd5b919050565b6000806040838503121561271757600080fd5b823561272281612674565b9150612730602084016126e8565b90509250929050565b60006020828403121561274b57600080fd5b5035919050565b60005b8381101561276d578181015183820152602001612755565b50506000910152565b6000815180845261278e816020860160208601612752565b601f01601f19169290920160200192915050565b6020815260006115a56020830184612776565b600080604083850312156127c857600080fd5b50508035926020909101359150565b634e487b7160e01b600052604160045260246000fd5b604051601f8201601f1916810167ffffffffffffffff81118282101715612816576128166127d7565b604052919050565b600067ffffffffffffffff821115612838576128386127d7565b5060051b60200190565b600082601f83011261285357600080fd5b813560206128686128638361281e565b6127ed565b82815260059290921b8401810191818101908684111561288757600080fd5b8286015b848110156128a2578035835291830191830161288b565b509695505050505050565b600067ffffffffffffffff8211156128c7576128c76127d7565b50601f01601f191660200190565b60006128e3612863846128ad565b90508281528383830111156128f757600080fd5b828260208301376000602084830101529392505050565b600082601f83011261291f57600080fd5b6115a5838335602085016128d5565b600080600080600060a0868803121561294657600080fd5b853561295181612674565b9450602086013561296181612674565b9350604086013567ffffffffffffffff8082111561297e57600080fd5b61298a89838a01612842565b945060608801359150808211156129a057600080fd5b6129ac89838a01612842565b935060808801359150808211156129c257600080fd5b506129cf8882890161290e565b9150509295509295909350565b600080604083850312156129ef57600080fd5b823591506020830135612a0181612674565b809150509250929050565b60008060408385031215612a1f57600080fd5b823567ffffffffffffffff80821115612a3757600080fd5b818501915085601f830112612a4b57600080fd5b81356020612a5b6128638361281e565b82815260059290921b84018101918181019089841115612a7a57600080fd5b948201945b83861015612aa1578535612a9281612674565b82529482019490820190612a7f565b96505086013592505080821115612ab757600080fd5b50612ac485828601612842565b9150509250929050565b600081518084526020808501945080840160005b83811015612afe57815187529582019590820190600101612ae2565b509495945050505050565b6020815260006115a56020830184612ace565b600060208284031215612b2e57600080fd5b813567ffffffffffffffff811115612b4557600080fd5b8201601f81018413612b5657600080fd5b612b65848235602084016128d5565b949350505050565b600080600060608486031215612b8257600080fd5b833592506020840135612b9481612674565b9150612ba2604085016126e8565b90509250925092565b600080600060608486031215612bc057600080fd5b8335612bcb81612674565b9250602084013567ffffffffffffffff80821115612be857600080fd5b612bf487838801612842565b93506040860135915080821115612c0a57600080fd5b50612c1786828701612842565b9150509250925092565b600060208284031215612c3357600080fd5b81356115a581612674565b8015158114610e8757600080fd5b60008060408385031215612c5f57600080fd5b8235612c6a81612674565b91506020830135612a0181612c3e565b600080600080600060a08688031215612c9257600080fd5b8535612c9d81612674565b94506020860135612cad81612674565b9350604086013560038110612cc157600080fd5b94979396509394606081013594506080013592915050565b60008060408385031215612cec57600080fd5b8235612cf781612674565b91506020830135612a0181612674565b600080600080600060a08688031215612d1f57600080fd5b8535612d2a81612674565b94506020860135612d3a81612674565b93506040860135925060608601359150608086013567ffffffffffffffff811115612d6457600080fd5b6129cf8882890161290e565b600080600060608486031215612d8557600080fd5b8335612d9081612674565b95602085013595506040909401359392505050565b634e487b7160e01b600052601160045260246000fd5b80820281158282048414176109fa576109fa612da5565b600082612def57634e487b7160e01b600052601260045260246000fd5b500490565b634e487b7160e01b600052603260045260246000fd5b600060018201612e1c57612e1c612da5565b5060010190565b634e487b7160e01b600052602160045260246000fd5b600060208284031215612e4b57600080fd5b81516115a581612c3e565b600181811c90821680612e6a57607f821691505b602082108103612e8a57634e487b7160e01b600052602260045260246000fd5b50919050565b83815260006020606081840152612eaa6060840186612776565b838103604085015260008554612ebf81612e56565b80845260018281168015612eda5760018114612ef457612f22565b60ff1984168688015282151560051b860187019450612f22565b896000528660002060005b84811015612f1a5781548882018a0152908301908801612eff565b870188019550505b50929a9950505050505050505050565b600060208284031215612f4457600080fd5b815167ffffffffffffffff811115612f5b57600080fd5b8201601f81018413612f6c57600080fd5b8051612f7a612863826128ad565b818152856020838501011115612f8f57600080fd5b612fa0826020830160208601612752565b95945050505050565b6000808454612fb781612e56565b60018281168015612fcf5760018114612fe457613013565b60ff1984168752821515830287019450613013565b8860005260208060002060005b8581101561300a5781548a820152908401908201612ff1565b50505082870194505b505050508351613027818360208801612752565b01949350505050565b601f821115610c2357600081815260208120601f850160051c810160208610156130575750805b601f850160051c820191505b81811015610bbd57828155600101613063565b815167ffffffffffffffff811115613090576130906127d7565b6130a48161309e8454612e56565b84613030565b602080601f8311600181146130d957600084156130c15750858301515b600019600386901b1c1916600185901b178555610bbd565b600085815260208120601f198616915b82811015613108578886015182559484019460019091019084016130e9565b50858210156131265787850151600019600388901b60f8161c191681555b5050505050600190811b01905550565b6001600160a01b0387811682528681166020830152851660408201526060810184905260c08101600d841061317b57634e487b7160e01b600052602160045260246000fd5b608082019390935260a00152949350505050565b60006001600160a01b03808816835280871660208401525084604083015283606083015260a060808301526131c760a0830184612776565b979650505050505050565b6000602082840312156131e457600080fd5b81516115a5816126b5565b60006001600160a01b03808816835280871660208401525060a0604083015261321b60a0830186612ace565b828103606084015261322d8186612ace565b905082810360808401526132418185612776565b98975050505050505050565b808201808211156109fa576109fa612da5565b6040815260006132736040830185612ace565b8281036020840152612fa08185612ace56fea26469706673582212203ab1eea57489cea24cee98fab8983fc10b07f0231376a6d045da1af815b8b47c64736f6c63430008140033",
  "linkReferences": {
    "contracts/libs/Snippets.sol": {
      "Snippets": [
        {
          "length": 20,
          "start": 5003
        }
      ]
    }
  },
  "deployedLinkReferences": {
    "contracts/libs/Snippets.sol": {
      "Snippets": [
        {
          "length": 20,
          "start": 4239
        }
      ]
    }
  }
}